S01100006D756C696244656D6F2E7372656375
S113000048220020410500003D0500003D05000098
S113001000000000000000000000000000000000DC
S11300200000000000000000000000003D0500008A
S113003000000000000000003D0500003D05000038
S11300403D0500003D0500003D050000891200004B
S11300503D0500003D0500003D0500003D05000094
S11300603D0500003D0500003D0500003D05000084
S1130070651400003D0500003D0500003D0500003D
S11300803D0500003D0500003D0500003D05000064
S11300903D0500003D0500003D0500003D05000054
S11300A03D0500003D0500003D0500003D05000044
S11300B00000000010B5064C2378002B07D1054B37
S11300C0002B02D0044800E000BF0123237010BDC0
S11300D06400002000000000702A0000084B10B5E6
S11300E0002B03D00749084800E000BF0748036815
S11300F0002B00D110BD064B002BFBD09847F9E72D
S11301000000000068000020702A0000702A00002F
S11301100000000010B50248024B984710BDC046CD
S113012028020020090C000008187047401A704784
S1130130401AC00F7047081AC00F704710B500224C
S1130140014B024CA04710BD0000E04041160000E6
S113015010B5054B98470022FC239B05034CA04790
S1130160034B984710BDC046A91B00004116000070
S1130170411B0000034B1A68937ADB09FCD1106918
S11301807047C0462802002070B50400002020609B
S1130190012620256655E061201D024DA847200058
S11301A070BDC0467504000070B5040015001A0047
S11301B00023036020202354E161201D049B2900B7
S11301C0014DA847200070BD750400002023C05CC9
S11301D07047000010B503002022825C0020002A32
S11301E003D12032885C002800D010BDC969D869C9
S11301F0014B9847F9E7C0463701000010B50A00E3
S11302002023C35C002B01D0180010BDC16910006D
S1130210024B984701234340DBB2F5E7310100006C
S113022010B50430014B984710BDC046850400004A
S113023010B50323002A01D1180010BD541E144226
S1130240FAD10460C160002343608360F4E70023B3
S1130250436083600020704730B542688468036857
S11302605D1C121B0224954207D0C4684268551CC9
S1130270456013409B0019510024200030BD10B587
S1130280426883689A420AD0C4688268531C8360B7
S1130290036813409B001B590B60002010BD002312
S11302A00B600120FAE7000010B504000368002B7E
S11302B006D00022196821601A602368002BF9D146
S11302C0E369002B02D000221A60E261201D024B78
S11302D09847200010BDC0464F02000070B50400CE
S11302E0002520C0044B9847044B6361A56120009E
S11302F0034B984770BDC04631020000E50400007E
S1130300A90200000368002B0AD099420AD01B6896
S1130310002B03D09942FAD1012000E0002070475D
S11303200020FCE70120FAE70368002B05D0002039
S113033001301B68002BFBD170470020FCE70068EC
S1130340704710B54369984710BDC06970470000F5
S1130350F0B5C64600B580460D000800144B98471A
S1130360002810D143461C680026002C1BD0114FD6
S113037021002800B84700280DD023682600002B50
S113038007D01C00F4E743461B682B6043461D60FE
S113039005E026001C002C60002E06D035600020ED
S11303A004BC9046F0BD00232B6043461D60F6E775
S11303B0CD010000D5010000F0B585B00400154B57
S11303C098470190251D144F144E02E00399200014
S11303D0B04703A92800B8470028F7D02568002DA6
S11303E012D0019928000E4B984700280CD02B6896
S11303F0236000262E60E56121002800094B984700
S1130400E661002005B0F0BDA0692100064B9847C5
S1130410F7E7C046430300007F02000051030000D9
S1130420FD01000021020000850400000268002A8A
S113043014D08A4201D10EE01A001368002B0FD0A9
S11304409942F9D1002A05D00B68136000230B6090
S1130450002070470A0013680360F7E70220F8E7FA
S11304600220F6E710B50430014B9847002010BD78
S1130470590200000160426083600023C36043614D
S11304807047000070B504000E000C4B984705003F
S1130490002C05D02368002B02D0310060689847F7
S11304A0E3680133E360054B98472900044B984700
S11304B063699C466044606170BDC046E504000009
S11304C0FD04000080687047C068704710B540693B
S11304D0024B9847024B984710BDC04609050000DF
S11304E0D11C000010B5014B984710BD75010000E8
S11304F010B5014B984710BD2901000010B5014B00
S1130500984710BD2D01000010B5024B9847024BCF
S1130510984710BD51010000A91B000010B5024B03
S11305209847024B984710BD3D010000411B000055
S113053010B5014B984710BDFD060000FEE7000012
S1130540F8B52A4A2A4B9A4211D01A00294B9A42EA
S11305500DD2294A03339B1A9B0801339B000022C6
S1130560234822498C58845004329A42FAD1234AAF
S1130570234B9A420AD2D34321495B1803218B436C
S113058004339B18002102C29342FCD11D4AFF216F
S11305901D4B8B439360FD3990235B001B4AD15064
S11305A01B4AD3780325AB4302242343D370D37867
S11305B00C27BB4308263343D370164B987B302259
S11305C09043202210439873997BB9433143997324
S11305D09A7BAA4322439A730F4A536880210B43A0
S11305E053600E4B98470E4B9847FEE7702A000065
S11305F000000020640000200400002064000020AB
S11306004802002000ED00E00000000000700041FE
S1130610005000410048004100400041211E0000FC
S1130620DD0A0000044A136A20210B431362034AC3
S1130630034B5A807047C046000400401740000036
S1130640000C004030B50E4B5622995C0125A9439D
S113065001242143C9B299543B20195C473A914380
S11306600D3A1143195457215A5CAA432243D2B27A
S11306705A541A5C48390A4011310A431A5430BD9D
S11306800044004110B582B0064B98470023009304
S11306901033054A05490648064CA047064B9847BF
S11306A002B010BD250600008000002000140042A6
S11306B0D8010020810E000045060000044A936919
S11306C020210B439361034A034B5A807047C04671
S11306D00004004004430000000C004010B5034B2C
S11306E0984703490348044B984710BDBD060000D2
S11306F00014004028020020C10B000010B50C4B70
S11307009847C023DB058022D20598215A5010391E
S11307105A50084B20315A50074A5A5036315A5CC5
S1130720012082435A54054B9847054B984710BD06
S11307303D11000000440041004000C08506000057
S1130740DD060000C0467047C046704710B5034937
S113075008002430024B984710BDC046900000208A
S11307606504000010B50400064B984782B2064B9E
S1130770586C2100054B9847FA204000044B9847D9
S113078010BDC046111F000090000020550C000051
S1130790350C000030B583B0002819D11048010091
S11307A0483124300F4B9847002817D10E4B9847F7
S11307B001000B4C200048300C4B009300230C4AE2
S11307C00C4DA8470100200024300B4B984705E04E
S11307D00348010048312430084B984703B030BD2A
S11307E09000002005030000E50400001C27000021
S11307F029090000A9010000510300002D04000094
S113080030B583B0002819D1104801006C31243070
S11308100F4B9847002817D10E4B984701000B4CFB
S113082020006C300C4B009300230C4A0C4DA8475D
S11308300100200024300B4B984705E003480100D9
S11308406C312430084B984703B030BD9000002031
S113085005030000E504000020270000990A0000B9
S1130860A9010000510300002D040000F0B583B07D
S1130870214E224F224D0FE04D2B39D10120214B27
S113088098472148214B9847214803E00020214BF9
S1130890984721481D4B98473000B847002829D075
S11308A001AB00221A705A701C4C01226B46D91CF1
S11308B02800A0470830F8D06B4603331B7801AA00
S11308C01370612BE2D0D7D96D2B0CD0732B0FD1C1
S11308D00120104B98478021C9059823C022D205D6
S11308E0D1500F48D6E70020064B98470D48D1E772
S11308F001A8CFE703B0F0BD0C020020CD1000002A
S1130900D8010020010800008827000065070000C6
S1130910842700009507000028270000890C0000A8
S1130920442700006C27000070B58021C9059C2372
S1130930C022D205D150094C656E00200849094BEC
S1130940984701002800084B984760662100483109
S113095020002430054B984770BDC046900000200D
S11309600000E03F1D050000F104000051030000F9
S1130970F0B587B005911600041D20000B4B984775
S1130980070020000A4B984705002000094B9847B0
S1130990094B98470290039100953B00074A3100A8
S11309A00598074CA04707B0F0BDC046C504000039
S11309B0C9040000CD0400002D1C0000A427000081
S11309C0691E0000F0B583B0234C1034234B01930F
S11309D01B230093224B1B2222492000224FB8479D
S11309E02000224EB047224D24352800214B984741
S11309F0421C21492000B8472048B0472048B0474E
S1130A002800204B9847051E0BD01F48174EB047AF
S1130A10114C10348022210028001C4B98472000E0
S1130A20B047134824301A4B9847041E0FD0164F72
S1130A300E4E094D10353800B047802229002000A1
S1130A40124B98472800B0472468002CF3D1114872
S1130A50064B984703B0F0BD10010020C4270000E6
S1130A60B0270000B8270000CD1E00006507000075
S1130A709000002029030000C8270000E42700009C
S1130A80042800004B030000402700007109000007
S1130A903F0300002C28000070B50A4B98470A4C0D
S1130AA08825665900200949094B98470100300000
S1130AB0084B9847605121006C3120002430064BCC
S1130AC0984770BDC5090000900000200000144044
S1130AD01D050000F10400005103000070B51D4B1A
S1130AE098471D4B98471D4D2C00243408221C495F
S1130AF0103120001B4B984700201B4B98470020C7
S1130B001A4B98471A4B00221A4928001A4EB0472C
S1130B1001002000194B9847194C1A4A0121200062
S1130B20194EB047194A00212000B047184A022143
S1130B302000B047290044312000164B984720007C
S1130B40154B9847054C2434144E154D2000B047DE
S1130B50A847FBE7310500001501000090000020C4
S1130B6090010020DD02000095070000010800004C
S1130B70CC2800006D08000089010000510300002A
S1130B80D801002045070000710F00004D07000048
S1130B9049070000450F0000190F0000B9030000C9
S1130BA0C5090000EFF31083036072B6BFF35F8FD3
S1130BB07047BFF35F8F036883F3108870470000AA
S1130BC070B504000D00431E9841C0B2E0225200EB
S1130BD009490A4B98472368AB4208D0002B08D137
S1130BE025602000064B9847064B636170BD0020CA
S1130BF0FCE712204042F9E7D4280000E90F000086
S1130C00C9110000B207000010B50400431E98414A
S1130C10C0B2E622FF320449044B98472000044B3B
S1130C209847002010BDC046D4280000E90F0000FA
S1130C305112000010B5044B1C68044B9847010086
S1130C402000034B984710BDC0010020151100007F
S1130C503511000070B506000C00150000280DD0F9
S1130C600800431E9841C0B234220549054B9847F9
S1130C7033682A0021003000984770BD0020F3E754
S1130C80F0280000E90F000070B506000C00150004
S1130C9000280DD00800431E9841C0B23D220549EA
S1130CA0054B984773682A0021003000984770BDAF
S1130CB00020F3E7F0280000E90F000010B5083821
S1130CC000230363436A002B00D0984710BD10B57E
S1130CD0083800230363C36A002B00D0984710BD73
S1130CE010B504002C30044B9847236A083C002BB1
S1130CF001D02000984710BD8D10000070B504008D
S1130D000E00150000281DD000291DD01000431E20
S1130D1098413C22FF320F490F4B98474423E25A33
S1130D200833E35A9A4211D1A6644C23E5520022B7
S1130D30083BE252433B236320000830074B9847AB
S1130D40280070BD0020E4E70020E2E71C204042B8
S1130D50F7E7C04604290000E90F0000E113000092
S1130D6070B5040001000839838F4C228A5A9A42D4
S1130D700CD00A00896C5D1C44201552C95C20000B
S1130D80044B98472000044B984770BD034B984789
S1130D90FBE7C046D9130000E1130000E91300008B
S1130DA0F0B5CE46474680B585B005000E00170065
S1130DB0002815D0002913D0002A2AD1AC225200D1
S1130DC029490020294B984703A8294B9847280014
S1130DD03430284B984703A8274B984700253CE01C
S1130DE0AC22520020490020204B984703A8204BF6
S1130DF098473435280001951E4B9847804603A830
S1130E001D4B984700254346002B26D0002F16D1B2
S1130E1023E0AC22520014490120144B984703A844
S1130E20134B9847343528000195124B9847804658
S1130E3003A8114B984743460025002B0DD00024EE
S1130E400E4B9946651CADB231190198C84701345F
S1130E50444502D2A3B29F42F4D8280005B00CBC8A
S1130E6090469946F0BDC04604290000E90F0000F1
S1130E70A50B0000CD100000B30B000045100000CE
S1130E80F8B504000D0016001F00002826D0002924
S1130E9026D0002A26D01800431E98413A2214492D
S1130EA0144B9847200034303A003100124B9847D5
S1130EB0002819D1200008302900104B9847002839
S1130EC00BD10F4B63600F4B23600F4BA3600F4B91
S1130ED0E3600F4B23610F4B6361F8BD0020DDE736
S1130EE00020DBE70020D9E70D204042F5E7C046AB
S1130EF004290000E90F0000F10F0000491300006D
S1130F00A10D0000FD0C0000610D0000E10C0000CB
S1130F10BD0C0000CF0C000010B50400431E984126
S1130F20C0B261220449054B984720000830044BA5
S1130F309847002010BDC04604290000E90F0000B6
S1130F40C513000070B504000D0000280AD0080085
S1130F50431E9841C0B277220349044B98472C6042
S1130F60002070BD0020F6E704290000E90F00000E
S1130F7070B505000E001400431E9841C0B28322D0
S1130F801649174B9847012E11D0002E04D0022E7B
S1130F9018D00D20404209E0AC62621E9441E2B2D6
S1130FA02800083001210F4B9847002070BD6C6267
S1130FB0621E9441E2B2280008300221094B98478E
S1130FC00020F3E7EC62621E9441E2B2280008308C
S1130FD00321044B98470020E8E7C0460429000099
S1130FE0E90F0000F1130000002800D100BE704793
S1130FF070B504000E00150000280BD0002918D08D
S11310000120002A07D128220C4900200C4B9847C4
S11310106B1E07E0002028220849094B98476B1EE5
S11310202B4208D163600023A360E36026600020A4
S113103070BD0020EFE70D204042F9E724290000AD
S1131040E90F000070B504000D00002815D0080059
S1131050431E9841C0B240220A490B4B9847A368EB
S1131060E2689A420BD0626813402268D35C2B700A
S1131070A3680133A360002070BD0020EBE70A20C1
S11310804042F9E724290000E90F000070B504008C
S11310900D00431E9841C0B251220A490A4B984799
S11310A06368E26813402268D554E3686168A26803
S11310B09A1A8A4201D9591AA1600133E3600020C7
S11310C070BDC04624290000E90F000010B50400DB
S11310D0431E9841C0B267220349044B9847E06815
S11310E0A368C01A10BDC04624290000E90F0000FF
S11310F00300064A1268002A04D0044A1068C31880
S1131100136070470249014A1160F6E7C4010020E8
S11311104822002010B50300642058430230032104
S1131120034B984703008000C018400010BDC04620
S1131130291500000139FDD87047000010B5064B91
S11311405A685A60054B9847054B9847054B984792
S1131150FF20054B984710BD00400041A911000035
S1131160D1140000191500006D110000C3070AD541
S11311700B4B802252009A60832252025A601A005A
S11311805378DB09FCD1030709D5054B0422FF3250
S11311909A60044A5A601A005378DB09FCD17047FC
S11311A0000C004003030100064B1A7AD2B21A72F3
S11311B05A7AD2B25A729A7AD2B29A72DA7AD2B28B
S11311C0DA7270470004004010B5041E38D000687D
S11311D0431E9841C0B278221A491B4B98471B4BB7
S11311E01C602268937ADB09FCD1937ADB09FCD179
S11311F013889B070AD5138802218B431380937AA3
S1131200DB09FCD12268937ADB09FCD122681388BC
S113121001210B431380937ADB09FCD12268937A72
S1131220DB09FCD1A0231B011380937ADB09FCD1D9
S1131230226853888021C9010B435380002010BDCC
S11312400020C8E748290000E90F0000C801002079
S113125010B5041E11D00068431E9841C0B2AA22E2
S11312600749084B98472268138802210B431380CF
S1131270937ADB09FCD1002010BD0020EFE7C046C3
S113128048290000E90F000010B5074B1C682368CB
S11312901B7ADB0700D410BD2000636898472368DD
S11312A001221A72F7E7C046C801002010B50400F5
S11312B01F4BC3189B0ADBB2032B04D01D4A1E49E3
S11312C000201E4B9847E369DB0718D40322E36927
S11312D01A42FCD123689B070BD52368022293434F
S11312E023600132E3691A42FCD10222E3691A4203
S11312F0FCD1052323600322E3691A42FCD10122B5
S1131300E3691A42FCD10E4B23600322E3691A42BB
S1131310FCD1C0239B0263600722E3691A42FCD11B
S1131320084BA3810023A3733022A354002010BDD3
S113133000F8FFBD5E02000060290000E90F000014
S113134004001040ADD8FFFF70B505000C00431E2B
S11313509841C0B2C4221449144B98472000144B3E
S11313609847002800D070BDAC61124B9C4217D046
S1131370114B9C466444A40A0934E3B22206F2D415
S11313801F221A40012393400C4A80215350BFF37B
S11313904F8FBFF36F8F0131FF3153501360E2E77A
S11313A0074B1D600C23EBE760290000E90F0000E8
S11313B0AD1200000014004200F8FFBD00E100E09F
S11313C0CC0100208269136802210B4313600131B0
S11313D0D3691942FCD17047836989B21985704772
S11313E0836901229A757047836902229A7570474E
S11313F070B504000D001600431E9841C0B2164A91
S11314001649174B984702232A009A430ED1A36921
S1131410002E05D101221A75A36901321A7570BD17
S113142001229A75A36901329A75F8E7012D07D054
S1131430032DF4D1A369002E0BD080229A75EEE718
S1131440A369002E02D104221A75E8E704229A75D2
S1131450E5E780221A75E2E71E0200006029000019
S1131460E90F000010B5194B18688469237EDB0767
S113147002D5A37DDB070FD4237E9B0702D5A37D72
S11314809B070ED4237E5B0715D5628B37231A4244
S11314900CD00833638310BD012323750368984778
S11314A0F9E70223237583689847F4E7218DC9B2CD
S11314B043689847EFE7237EDB09ECD0802323764B
S11314C0C3689847638B9BB26383E4E7CC01002035
S11314D00E4B1A6A196A0E480240890F89070D4893
S11314E001430A431A629A6902210A439A611A7FE4
S11314F01D310A401A7719000822CB681A42FCD021
S1131500024A136A80210B431362704700080040AB
S11315100000FF0F02030000024A936902218B437B
S11315209361704700080040002243088B4274D343
S113153003098B425FD3030A8B4244D3030B8B42D0
S113154028D3030C8B420DD3FF22090212BA030CD9
S11315508B4202D31212090265D0030B8B4219D3BA
S113156000E0090AC30B8B4201D3CB03C01A5241DA
S1131570830B8B4201D38B03C01A5241430B8B4222
S113158001D34B03C01A5241030B8B4201D30B030B
S1131590C01A5241C30A8B4201D3CB02C01A524132
S11315A0830A8B4201D38B02C01A5241430A8B42F5
S11315B001D34B02C01A5241030A8B4201D30B02DE
S11315C0C01A5241CDD2C3098B4201D3CB01C01AF8
S11315D0524183098B4201D38B01C01A5241430902
S11315E08B4201D34B01C01A524103098B4201D3F0
S11315F00B01C01A5241C3088B4201D3CB00C01A5D
S1131600524183088B4201D38B00C01A52414308D4
S11316108B4201D34B00C01A5241411A00D20146F9
S1131620524110467047FFE701B5002000F006F86C
S113163002BDC0460029F7D076E770477047C04620
S1131640F0B557464546DE464E46E0B50C0398468F
S11316504E00230B87B0070092469B46760DCD0FB4
S1131660002E6BD06D4B9E4235D080245B46420FDA
S11316702404DB0014431C43C3009946684BA3466F
S11316809C46002300276644029343461C035A00E9
S1131690DB0F5046240B520D984600D176E05F4B89
S11316A09A426DD08023410F1B040B435C49E40034
S11316B08C461C43C300002062444146B61869406E
S11316C0721C0191944607430F2F00D9B0E0554A8C
S11316D0BF00D25997465B460343994600D087E042
S11316E000239B46023308270293CEE74246019229
S11316F0022867D0032800D10EE2012800D062E15D
S1131700002300240022994601990140CDB2002112
S113171012030B0D120B1B051343434A24051340FC
S11317201C436400ED0764082C434846210007B0BD
S11317303CBC90469946A246AB46F0BD034399464D
S11317404FD05B46002B00D189E1584600F04AFB9C
S113175003000B3B1C2B00DD7AE11D22D31A3A0057
S113176001005C46DA4008398C4013008F40234363
S11317709B46B94600232D4E0027361A029384E770
S1131780534623432AD10024022096E75346234399
S113179020D0002C00D157E1200000F023FB0300EF
S11317A00B3B1C2B00DD49E11D21CB1A51460200E5
S11317B0D9405346083A944093400C431B4A121AAA
S11317C000207AE70125019B144C1D4000230022D0
S11317D099469CE70024002201206EE7534603202B
S11317E06BE700239B4601330427002602934CE752
S11317F0032381460C27029347E780220023002518
S113180012039946054C82E75C464B4602986FE703
S11318105C464B46019502986AE7C046FF07000004
S113182001FCFFFF7C290000FFFF0F800DFCFFFF80
S11318304A464946170C1A0C1B041B0C08041900D1
S1131840000C41431500884619007D4379430395F4
S113185089462900150045434D44029545462D0C03
S1131860AA46029D5544A94506D98A4680214902C3
S11318708946CA4451460391290C049141460904FE
S11318802D04090C88462900250C24044144240C09
S11318900591210041438846210079438A466843E3
S11318A0414650448146080C48446F43824503D95D
S11318B08021490289464F44010C89463900494434
S11318C0029141460F0404993F0C88460004C01954
S11318D080444146049159460F0C0904090C88467A
S11318E059438A4639005143894641464A43514641
S11318F0090C8B467B43D2185A44934203D9802364
S11319005B029B46D94451460904090C8A46414668
S113191061437C43130C12044B445244A1468A464F
S11319203C0041466C434D4351464D440F0C7D19D8
S1131930A94503D98021490288464444049F039958
S1131940B84641448B4683458041414288465146CE
S113195008042F04000C3F185846029910188946B1
S1131960904292414F44BA46524299469346C244E9
S1131970D144CB448F42BF41C245894199459B41E3
S1131980934592417F4249422D0C52420F435B42A0
S113199013437F19FF185B463C19DB0D059A64025B
S11319A01C43430213435D1EAB415A46C00D03431F
S11319B052021343E20156D501205A08034013434F
S11319C0E207134364085A48604400284DDD5A076F
S11319D009D00F221A40042A05D01A1D9A429B41AD
S11319E05B42E4181300E20104D58020514AC00090
S11319F014406044504A904200DDE3E60125DB08D0
S1131A0062071A436402019B9146220B4405640D4C
S1131A101D407CE6802259461203114208D014422C
S1131A2006D122431203120B45469946434C6EE6F7
S1131A305B461A431203120B404C68E603005446FB
S1131A40283B9C400023B9E600F0CCF92030A6E600
S1131A500300283B9F400023BB4699468AE600F0DA
S1131A60C1F9203074E6B446ADE701252A1A382AB4
S1131A7006DD019B00241D4000230022994646E612
S1131A801F2A21DC20252000AD1A1E00AB40A840EF
S1131A90D6405D1EAB4130431843D440430709D0C0
S1131AA00F230340042B05D00300181D98429B41CB
S1131AB05B42E418230221D50125019B01241D402A
S1131AC000230022994622E61F2521006D42281A90
S1131AD0C1400800202A1DD05F35AA1A9440234330
S1131AE05C1EA341072503431D400022002D09D09D
S1131AF00F2200241A401800042AD6D103006507D7
S1131B006402220BDB082B4301259946019B002428
S1131B101D40FCE50024E2E7802201251203224354
S1131B2001991203120B0D409946044CEFE5C0468F
S1131B30FF030000FFFFFFFEFE070000FF07000099
S1131B4030B5134D0A034B00120B5B0DC90F002473
S1131B50AB4210DD0F4CA3420FDC80240E4D640316
S1131B602243ED1A1F2D0BDD0C48C31ADA405442F0
S1131B70002900D11400200030BD094BCC18FAE72D
S1131B80084CE840A44663449A400243EFE7C04649
S1131B90FE0300001D0400003304000013040000D1
S1131BA0FFFFFF7FEDFBFFFF70B5002830D0C317A8
S1131BB0C4185C40C50F200000F014F9174B184AF4
S1131BC01B1AD21A1F2A18DD164AD21A9440002270
S1131BD024035B05240B5B0D0021100024030A0D74
S1131BE0240B12052243104C1B05224013435B00B7
S1131BF0ED075B082B43190070BD210091400A00DA
S1131C000B21081AC4405B052403240B5B0DE3E796
S1131C100025002300240022DEE7C0461E04000045
S1131C203304000013040000FFFF0F804100090E7D
S1131C304B1C70B5DBB24602750AC40F012B14DDD0
S1131C40E0239B006D07360BCB1800210A0D2800FA
S1131C5012051C4D32435B052A405B0813435B00AD
S1131C60E4075B082343190070BD002914D1002D3B
S1131C701ED0280000F0B6F80A281CDC0B232A002A
S1131C801B1ADA40030015339D400F4B12031B1A35
S1131C905B05160B5B0DD8E7002D06D0320B8026B2
S1131CA036036D071643094BCFE7084B0026CCE7F4
S1131CB000230026C9E703002A000B3B9A400025B5
S1131CC0E3E7C046FFFF0F8089030000FF07000021
S1131CD0F0B54C00640D0B03621C450F5B0A520502
S1131CE02B43C90FC500520D012A28DD3A4AA61814
S1131CF0FE2E1BDC002E3EDD80010200501E8241C0
S1131D006D0F2A43DB0013435A0704D00F221A40F5
S1131D10042A00D004338022D2041A405AD0013657
S1131D20FF2E03D09B015B0AF4B201E0FF240023E1
S1131D305802E405400AC90720430843F0BD002CBB
S1131D4007D01D43F2D08020DB0080040343FF262C
S1131D50DAE72B4303D00523DB08FF2C03D05B0217
S1131D605B0AE4B2E4E7002B32D08020C0030343D3
S1131D705B025B0ADCE73200173214DB80221E2789
S1131D8012041343BF1B1F2F0FDC144A94466444F0
S1131D902A00A5402E00A340751EAE41FA403343ED
S1131DA013430026B0E70024D5E702225242961BD3
S1131DB01A00F240202F09D0094884466444A34005
S1131DC02B435D1EAB41002613439DE70023F7E739
S1131DD00023ADE73400BFE780FCFFFF82FCFFFF78
S1131DE0A2FCFFFF1C2101231B04984201D3000C19
S1131DF010391B0A984201D3000A08391B0998427A
S1131E0001D30009043902A2105C40187047C0468F
S1131E1004030202010101010000000000000000AF
S1131E2070B500260C4D0D4C641BA410A64209D1BC
S1131E30002600F00DFE0A4D0A4C641BA410A642B5
S1131E4005D170BDB300EB5898470136EEE7B300F7
S1131E50EB5898470136F2E75C2A00005C2A000040
S1131E605C2A0000602A00000CB430B5164B9DB00B
S1131E700C1E1D6808DA8B2301202B6040421DB024
S1131E8030BC08BC02B01847822302A99B008B8196
S1131E900023029008619C4200D0631E8B604B615A
S1131EA001235B42CB81209A21AB2800019300F0EF
S1131EB0F7F8431C01DA8B232B60002CDFD00023BE
S1131EC0029A1370DBE7C046000000200EB410B580
S1131ED09DB002A9029008610B4882248860486181
S1131EE0012040421FABC881084804CBA40000680D
S1131EF001938C8100F0D4F80023029A13701DB072
S1131F0010BC08BC03B01847FFFFFF7F000000208F
S1131F100023C25C0133002AFBD1581E7047000025
S1131F20032370B5CD1C9D43083506000C2D1ED22D
S1131F300C25A9421DD8300000F076FB254A146810
S1131F402100002919D1244C2368002B03D130002F
S1131F5000F032FB20602900300000F02DFB431C10
S1131F602CD10C233000336000F05FFB03E0002D24
S1131F70DFDA0C233360002070BD0B685B1B1AD4BE
S1131F800B2B03D90B60CC18256003E08C420ED1D7
S1131F9063681360300000F048FB200007220B3018
S1131FA0231D9043C31AE7D05A42E250E4E74B683A
S1131FB063600C00EEE70C004968C2E70323C41C0D
S1131FC09C43A042E0D0211A300000F0F5FA431CF3
S1131FD0DAD1C6E7D0010020D4010020F0B58E6824
S1131FE085B007000C00039201939E4239D89023D8
S1131FF08A89DB001A4234D00325096923685B1AF5
S11320000293636902985D43EB0F5D19019B6D10A8
S113201001331B18AB4200D91D00530532D52900EA
S11320203800FFF77DFF061E09D10C233B604023D7
S11320300120A28940421343A38105B0F0BD029A56
S1132040216900F0D6FAA389144A1A408023134365
S1132050A381029B2661F61826606561019EED1A34
S1132060A560019BB34200D21E0032000399206890
S113207000F0C8FAA36800209B1BA36023689E1984
S11320802660DAE72A00380000F01AFB061EE0D1C9
S11320902169380000F0CAFAC7E7C0467FFBFFFF9A
S11320A0F0B59FB0029005938B890F0016001B06B4
S11320B011D50B69002B0ED14021FFF731FF386099
S11320C03861002805D10C23029A013813601FB02F
S11320D0F0BD40237B61002306AD6B6120336B763A
S11320E01033AB7634002378002B47D1A31B049321
S11320F00DD0A31B320039000298FFF76FFF431C79
S113210000D1B5E06A69049B944663446B6123780B
S1132110002B00D1ACE00122002352426A6002A9E4
S11321205432521801342B60EB60AB601370AB6512
S1132130584E05222178300000F050FA621C002825
S113214020D12968CB0604D5532302AE20309B1935
S113215018700B0704D553232B2002AE9B1918705B
S113216023782A2B16D000200A21099B2278303AA2
S1132170092A55D9002815D0099313E0252BB5D089
S11321800134B0E70123801B8340296814000B430A
S11321902B60CDE7059B181D1B680590002B39DBD0
S11321A00993140023782E2B0BD16378621C2A2BFD
S11321B03ED1059B02341A1D1B680592002B34DBAB
S11321C00793354E21780322300000F007FA0028E7
S11321D006D04023801B83402A68013413432B60BC
S11321E0217806222D48661C297600F0F7F900288C
S11321F046D02B4B002B2FD12968059B0722C905FC
S113220028D59B189343083305936B69039A9B184D
S11322106B6167E75B42EB6002230B432B60C0E713
S11322204B4301349B180120A0E701235B42C7E71D
S1132230002314000A201A006B6021783039092920
S113224003D9002BBDD00792BBE742430134521897
S11322500123F2E70733D5E705AB00933A00114BAE
S11322602900029800E000BF0390039B0133CCD106
S1132270BB890B985B0600D429E70120404226E77E
S113228005AB00933A00074B2900029800F07AF856
S1132290EAE7C0461C2A0000222A0000262A000081
S11322A000000000DD1F0000F7B5150001938A68E7
S11322B00B6900900C00934200DA130022002B609B
S11322C043321278002A01D001332B6023689B0625
S11322D002D52B6802332B60062723681F4027D0C2
S11322E0230043331B785A1E93412268920630D44C
S11322F02200019943320098089EB047431C25D020
S1132300062320682A68E16803400025042B03D1D2
S11323108D1AEB43DB171D40A3682269934201DD4C
S11323209B1AED180027BD4220D1002010E0013790
S1132330E3682A689B1A9F42D2DA220001231932E9
S113234001990098089EB047431CF0D101204042F7
S1132350FEBD3020E1184331087021005A1C45317C
S11323600978A218433202331170C1E72200012315
S11323701A3201990098089EB047431CE6D00137F1
S1132380D1E70000F0B58BB006920A004332079300
S1132390059004920A7E0C00109B6E2A00D18FE0F7
S11323A017D8632A2CD008D8002A00D199E0582ADB
S11323B054D026004236327029E0642A01D0692ABA
S11323C0F7D121681A68080623D5111D196015680C
S11323D025E0732A00D188E008D86F2A29D0702A12
S11323E0E7D1202209680A43226003E0752A20D03D
S11323F0782ADED122007821453211706C4A30E00F
S11324000E001A684236111D1960136833700123D7
S113241079E04906D9D5111D19600023D55E002D38
S113242003DA2D23049A6D421370624B0A27039337
S11324302FE020681968050603D5081D18600D688B
S113244005E04006F9D50D68081D1860ADB2594B7A
S1132450082703936F2A18D00A2716E045310A701B
S1132460544A03921A682168101D186015680806FA
S113247022D5CB0702D52023194321601027002D34
S113248003D1202322689A4322602300002243338D
S11324901A706368A360002B5CDB042221689143FB
S11324A02160002D58D1049E002B64D02600039B8C
S11324B042361B7833705EE04806DAD5ADB2D8E711
S11324C009681A68080605D5111D19601368626940
S11324D01A6006E04906F7D5111D19601368A28A2F
S11324E01A800023049E236154E01A68111D1960A8
S11324F0166800216268300000F070F8002801D0EE
S1132500801B6060636823610023049A137041E0B8
S11325102369320006990598079DA847431C43D0B8
S1132520236800259B070FD4099BE06898423DDA95
S113253018003BE022000123193206990598079EF2
S1132540B047431C30D00135E368099A9B1A9D4279
S1132550F0DBE9E7002DA9D0049E28003900FFF73D
S113256069F8039B013E5B5C280033703900FEF779
S1132570DBFF051EF1D1082F09D12368DB0706D53F
S113258063682269934202DC3023013E3370049B6A
S11325909B1B2361079B09AA00932100069B0598B6
S11325A0FFF782FE431CB3D1012040420BB0F0BDC3
S11325B03E2A00002D2A0000002370B5064C0500B9
S11325C008002360FEF794FD431C03D12368002B0D
S11325D000D02B6070BDC04644020020C9B28218EE
S11325E0904201D10020704703788B42FBD0013028
S11325F0F6E7002310B59A4200D110BDCC5CC45458
S11326000133F8E710B5884202D98B18984208D3F1
S113261000239A4207D0CC5CC4540133F9E78B5CA5
S11326208354013AFBD210BD7047704770B5050062
S1132630002910D00C1F2368002B00DAE4182800AE
S1132640FFF7F2FF1D4A1368002B05D16360146085
S11326502800FFF7EAFF70BDA34209D9216860187A
S11326608342F3D118685B6841182160EEE71300D8
S11326705A68002A01D0A242F9D919685818A04210
S11326800BD120680918581819608242E0D11068EB
S11326905268411819605A60DAE7A04202D90C2343
S11326A02B60D5E721686018824203D11068526814
S11326B04118216062605C60CAE7C046D001002016
S11326C0F8B507000D001600002905D11100FFF729
S11326D027FC04002000F8BD002A03D1FFF7A6FF61
S11326E03400F7E700F012F82C008642F2D93100EA
S11326F03800FFF715FC041EECD029003200FFF768
S113270078FF29003800FFF791FFE3E70B1F1B68F0
S1132710181F002B01DA0B58C01870474C454400B1
S11327204D6F6E69746F72002D204C454420626CAD
S1132730696E6B207461736B206163746976652EB6
S11327400D0A00002D204C4544204F464620616E62
S11327506420626C696E6B207461736B2073757393
S113276070656E6465642E0D0A0000002D204D6FA7
S11327706E69746F72207461736B2061637469761F
S1132780652E0D0A000000002D204D6F6E69746FD8
S113279072207461736B2073757370656E64656405
S11327A02E0D0A00253130733A2025642025660059
S11327B05B313B3148000000256325732563257395
S11327C0000000005B324A000D0A2D2D2D204E75AD
S11327D06D626572206F66207461736B733A202595
S11327E0750000000D0A3E205461736B7309537425
S11327F06174650950726909537461636B094E759C
S11328006D0000000D0A2A2A2A2A2A2A2A2A2A2A9C
S11328102A2A2A2A2A2A2A2A2A2A2A2A2A2A2A2A14
S11328202A2A2A2A2A2A2A2A2A0000000D0A2D2DB9
S11328302D2050726573732061206B65793A0D0AFF
S113284020613A204C454420626C696E6B207461AF
S1132850736B206163746976650D0A20733A204CAA
S11328604544204F464620616E6420626C696E6B5D
S1132870207461736B2073757370656E640D0A2028
S11328804D3A204D6F6E69746F72207461736B20C2
S113289073757370656E640D0A206D3A204D6F6E0A
S11328A069746F72207461736B20726573756D65E2
S11328B00D0A206F74686572733A204563686F204F
S11328C06261636B0D0A232000000000436F6E7386
S11328D06F6C65002E2E2F68616C2F7372632F68E6
S11328E0616C5F63616C656E6461722E63000000ED
S11328F02E2E2F68616C2F7372632F68616C5F6971
S11329006F2E63002E2E2F68616C2F7372632F68F5
S1132910616C5F75736172745F6173796E632E634A
S1132920000000002E2E2F68616C2F7574696C7383
S11329302F7372632F7574696C735F72696E67624B
S113294075666665722E63002E2E2F68706C2F726A
S113295074632F68706C5F7274632E6300000000F0
S11329602E2E2F68706C2F736572636F6D2F6870D5
S11329706C5F736572636F6D2E6300003018000026
S1132980F0160000F0160000EC1600000818000015
S113299008180000FA170000EC16000008180000E0
S11329A0FA17000008180000EC16000010180000C8
S11329B01018000010180000141A00000000000095
S11329C00000000000000000000000000000000003
S11329D000000000000000000000000000000000F3
S11329E000000000000000000000000000000000E3
S11329F000000000000000000000000000000000D3
S1132A0000000000000000000000000000000000C2
S1132A10000000000000000000000000232D302B07
S1132A202000686C4C0065666745464700303132CB
S1132A303334353637383941424344454600303122
S1132A403233343536373839616263646566000081
S1132A50F8B5C046F8BC08BC9E467047DD000000CF
S1132A60F8B5C046F8BC08BC9E467047B5000000E7
S1132A700400002000000000DC290000FC29000004
S1132A80BC2900000000000000000000000000005D
S1132A900000000000000000000000000000000032
S1132AA00000000000000000000000000000000022
S1132AB00000000000000000000000000000000012
S1132AC00000000000000000000000000000000002
S1072AD000000000FE
S9030000FC
