:020000040000fa
:10000000f8ff032059390000fb3a00006740000068
:1000100083460000b7490000d74a000000000000f6
:100020000000000000000000000000001f38000079
:10003000db430000000000001f3800001f380000f4
:100040001f3800001f3800001f3800001f38000054
:100050001f3800001f3800001f3800001f38000044
:100060001f3800001f3800001f380000354c00000a
:100070001f3800001f3800001f3800001f38000024
:100080001f3800001f3800001f3800001f38000014
:100090001f3800001f3800001f3800001f38000004
:1000a0001f3800001f3800001f380000d94c000026
:1000b0001f3800001f3800001f3800001f380000e4
:1000c0001f3800001f3800001f3800001f380000d4
:1000d0001f3800001f3800001f3800001f380000c4
:1000e0001f3800001f380000000000000000000062
:1000f000000000001f3800001f3800001f380000fb
:100100001f3800001f3800001f3800001f38000093
:100110001f3800001f380000ad2d0000ad2d00007d
:10012000ad2d0000ad2d00001f3800001f3800006d
:100130001f3800001f3800001f3800001f38000063
:100140001f3800001f3800001f3800001f38000053
:100150001f3800001f3800001f3800001f38000043
:100160001f3800001f3800001f3800001f38000033
:100170001f3800001f3800001f3800001f38000023
:100180001f3800001f3800001f3800001f38000013
:100190001f3800001f3800001f3800001f38000003
:1001a0001f3800001f3800001f3800001f380000f3
:1001b0001f3800001f3800001f3800001f380000e3
:1001c0001f3800001f3800001f3800001f380000d3
:1001d0001f3800001f3800001f3800001f380000c3
:1001e0001f3800001f3800001f3800001f380000b3
:1001f0001f3800001f3800001f3800001f380000a3
:100200001f3800001f3800001f3800001f38000092
:100210001f3800001f3800001f3800001f38000082
:100220001f3800001f3800001f3800001f38000072
:100230001f3800001f3800001f3800001f38000062
:100240001f3800001f3800001f3800001f38000052
:100250001f3800001f3800001f3800001f38000042
:040260001f38000043
:020000040000fa
:10026400f8b500bff8bc08bc9e467047a94500001d
:10027400f8b500bff8bc08bc9e4670478545000031
:020000040000fa
:04028400416170471d
:020000040000fa
:100288002de9f04f57ec106b97b0cde90067466a3f
:10029800079104460a920f93209d3eb9102005f05d
:1002a800d1f86062466086600660c660636a196855
:1002b80051b15a684a60012393408b60204604f08c
:1002c800effb636a00221a60019b002bbfbf01236a
:1002d8002b60019b23f00043b2bf019300232b60e6
:1002e800ddf80480a84b33ea08031bd10f9a42f2c9
:1002f8000f731360009b23b9c8f31300002800f0a4
:100308007885219b53b9a14b21e0a14b0293083377
:10031800219a1360029817b0bde8f08f9b4b0293a7
:100328000333f5e7dde9006700220023304639464c
:1003380002f08cfb814660b10f9a01231360219b68
:10034800002b00f05385934b219a1360013b0293d5
:10035800e0e714aa15a947ec106b204603f00cfa45
:10036800c8f30a558246002d7ed0c7f3130343f025
:100378007f51304641f44011a5f2ff35cdf8489041
:100388000022854b01f0d4fb79a3d3e9002300f0c8
:10039800d9ff79a3d3e9002301f0ccfb0646284610
:1003a8000f4601f013fd76a3d3e9002300f0caff3e
:1003b80002460b463046394601f0bcfb06460f465e
:1003c80003f04aff0022834600233046394602f0f4
:1003d80047fb58b1584601f0f9fc02460b46304637
:1003e800394602f033fb08b90bf1ff3bbbf1160f9e
:1003f80059d86a4901ebcb01dde90023d1e90001b5
:1004080002f04cfb002850d00bf1ff3b00230e9369
:10041800149b5d1b6b1e069345bfc5f10103059335
:10042800002300234cbf06930593bbf1000f3edb6e
:10043800069bcdf82cb05b44069300230893079bda
:10044800092b00f2af80052bc4bf043b0793079b21
:10045800a3f10203ccbf00260126032b00f2ae80d5
:10046800dfe803f082842f77159b149d1d4405f265
:100478003243202b11dd009a05f21240c3f14003ec
:1004880022fa00f008fa03f3184301f08ffc012365
:10049800a1f1f871013d129372e7c3f12000009bae
:1004a80003fa00f0f1e70123b1e70e90b0e7059bee
:1004b800a3eb0b030593cbf10003089300230b93e5
:1004c800bde7012309930a9b002b7add049303936c
:1004d800656a00226a60042101f114029a4275d902
:1004e8006968204603f096fc636a28601b680293db
:1004f800039b0e2b00f2e580002e00f0e2809dedbc
:10050800007bbbf1000f8ded0c7b74dd234a0bf0f3
:100518000f034fea2b1602ebc303f006d3e9008959
:1005280059d51f4b51ec170bd3e9082301f034f8c8
:10053800cde9000106f00f060325194f002e4cd116
:1005480042464b46dde9000101f026f8cde90001fd
:100558006ae0012309930a9b5b4404930133012b4e
:100568000393b8bf0123b3e70023abe70023f1e708
:1005780061436f63a787d23fb3c8608b288ac63fa1
:10058800fb799f501344d33f0000f07f655400006f
:100598005c5400006a5400000000f83f203100005d
:1005a800884c000001260023079309964ff0ff337b
:1005b80004930393002212230a9289e701230993e3
:1005c800f4e70123049303931a46f5e76a680132b6
:1005d8006a60490080e70225afe7f10708d5404681
:1005e8004946d7e9002300f0adfe0135804689462b
:1005f80076100837a2e700f09d80cbf100069f4bec
:100608009f4f06f00f0203ebc203d3e90023dde995
:100618000c0100f097fecde90001361100230225f8
:10062800002e7cd1002b91d10e9b002b00f08480f2
:10063800dde900890022934b4046494602f010fa52
:10064800002879d0039b002b76d0049b002b34dd47
:1006580000228d4b4046494600f074fecde900016a
:10066800049e0bf1ff370135284601f0affbdde9a9
:10067800002300f067fe0022844b01f05bfa8046fd
:10068800a1f15079002e5ad10022814bdde90001f9
:1006980001f04efa42464b46cde9000102f0fef960
:1006a800002840f09b82424609f10043dde9000141
:1006b80002f0d6f9002840f08f82dde90c23cde95d
:1006c8000023159b002bc0f25081bbf10e0f00f3e5
:1006d8004c816a4b03ebcb03d3e900890a9b002bbf
:1006e80080f2da80039b002b00f3d68040f07382ff
:1006f8000022674b4046494600f024fedde900230e
:1007080002f0c2f9039e3746002840f04a82029b55
:10071800029a5d1c312313700bf1010b45e2f207bd
:1007280005d5d7e9002300f00dfe01350123761029
:10073800083775e7022577e75f46039e94e7029a34
:100748004e4b32441392099a711e002a48d003eb8b
:10075800c103d3e9002300204e4900f01dff4246a3
:100768004b4601f0e5f9029d80468946dde9000126
:1007780003f072fd064601f029fb02460b46dde94f
:10078800000101f0d5f9303605f8016b42464b46b9
:10079800cde9000102f064f9002865d1dde9002304
:1007a8000020384901f0c4f942464b4602f058f996
:1007b800002840f0ba80139b9d423ff47eaf002290
:1007c800314b4046494600f0bdfd0022804689462f
:1007d8002d4bdde9000100f0b5fdcde90001c5e7cd
:1007e80003ebc10142464b46d1e9000100f0aafde6
:1007f800cde91001029ddde9000103f02dfd06465b
:1008080001f0e4fa303602460b46dde9000101f05a
:100818008ff905f8016b139bab42804689464ff070
:10082800000225d11b4bdde9100101f083f90246d6
:100838000b464046494602f031f9002875d1dde9fa
:1008480010230020134901f073f902460b46404675
:10085800494602f005f900283ff42faf15f8013c8e
:10086800302b05f1ff3201d0bb464de01546f5e7c8
:10087800054b00f067fdcde90001bce72031000021
:10088800884c00000000f03f0000244000001c409d
:10089800000014400000e03fdde90067029d424689
:1008a8004b463046394600f077fe03f0d5fc009001
:1008b80001f08cfa42464b4600f044fd02460b46d6
:1008c8003046394601f034f9009e039f303605f86a
:1008d800016b029eae1bb74202460b4638d101f0af
:1008e80029f906460f4602460b464046494602f09d
:1008f800b7f8c8b932463b464046494602f0a6f822
:1009080010b1009bdb070fd45146204604f0c8f80d
:1009180000230f9a2b700bf101031360219b002b0e
:100928003ff4f8ac1d60f5e45f4615f8012c392a50
:1009380005f1ff3306d1029a9a4207d1302313708a
:10094800013713461a7801321a708de71d46ece715
:100958000022a44b00f0f6fc0022002306460f46b6
:1009680002f074f800289ad0cee7099a002a00f01d
:10097800cd80079a012a00f3af80129a002a00f06e
:10098800a78003f23343089e059d059a1a440592f1
:10099800069a01211a442046069204f0d7fc07461d
:1009a800002d0cdd069b002b09ddab42059aa8bf84
:1009b8002b46d21a0592069aed1ad31a0693089b6b
:1009c800f3b1099b002b00f0a580002e10dd3946fd
:1009d8003246204602f06eff524601460746204640
:1009e80001f03cfe51468046204604f059f8c246c4
:1009f800089b9a1b04d05146204602f05bff8246b2
:100a08000121204604f0a2fc0b9b002b064640f374
:100a180083801a460146204602f04cff079b012bb3
:100a280006467cdd4ff00008336906eb830318693e
:100a380003f004fec0f12000069b184410f01f00cc
:100a480000f09680c0f12003042b40f38780059bbb
:100a5800c0f11c0003440593069b05440344069318
:100a6800059b002b05dd51461a46204602f08ffdf6
:100a78008246069b002b05dd31461a46204602f0c9
:100a880086fd06460e9b002b74d03146504603f077
:100a98002bff00286eda002351460a22204603f075
:100aa800e1f8099b0bf1ff3b8246002b00f0a8817f
:100ab800002339460a22204603f0d4f8049b002b71
:100ac800074600f3c880079b022b40f3c48059e017
:100ad800149bc3f1360356e7039b5e1e089bb34283
:100ae800bfbf089b0896f21a0b9bb6bf9b189e1bac
:100af8000b93039bb8bf0026002bb9bf059b039a35
:100b0800059d039bbcbf9d1a00233ee7089e059ddb
:100b1800099f45e7089a6ee7079b012b19dc009ba4
:100b2800bbb9019bc3f313039bb9019b23f000439b
:100b38001b0d1b0583b1059b01330593069b0133f0
:100b480006934ff001080b9b002b7ff46daf01203b
:100b580072e74ff00008f6e79846f4e780d0059a68
:100b68001c331a440592069a1a441d44134676e724
:100b78000346f4e7039b002b36dc079b022b33dd8f
:100b8800039b0493049b63b931460522204603f076
:100b980069f801460646504603f0a6fe00283ff7ce
:100ba800b6ad0a9b029d6fea030b002303933146ff
:100bb800204603f075ff002f3ff4a6ae039b2bb130
:100bc800bb4203d01946204603f06aff3946204647
:100bd80003f066ff98e600263746e2e7bb4637464d
:100be80095e500bf00002440099b93bb039b049339
:100bf800029d3146504601f0befd00f1300905f86e
:100c0800019b029b049aeb1a9a4200f3dc80029b38
:100c1800012aacbf9b180133984600230393514621
:100c28000122204602f0b3fc3146824603f05cfe06
:100c3800002800f38d8003d119f0010f40f088805f
:100c4800454615f8013c302b05f1ff32afd115466a
:100c5800f7e7039b0493002d05dd39462a46204615
:100c680002f095fc0746b8f1000f4cd07968204691
:100c780003f0d0f83a6902320546920007f10c01f8
:100c88000c3004f0f6fa01222946204602f07ffcd7
:100c9800009bddf80880039703f0010307460593de
:100ca8003146504601f067fd0399054600f13009c9
:100cb800504603f019fe3a4600903146204602f0ad
:100cc800adfbc368024603bb01460690504603f0dd
:100cd8000bfe069a034611462046069303f0e0fef3
:100ce800069ba3b9079a92b9059a82b9b9f1390f47
:100cf80029d0009b002b01dd05f1310908f1010520
:100d080088f8009053e73846c2e70123e3e7009ae2
:100d1800002a04db25d1079a1abb059a0abb002bc7
:100d2800ecdd51460122204602f031fc3146824674
:100d380003f0dafd002803dce0d119f0010fddd063
:100d4800b9f1390fd8d1392388f8003008f10108f2
:100d5800454615f8013c392b05f1ff323bd00133ec
:100d680040e0002b08f1010505ddb9f1390fead0a3
:100d780009f10109c4e7029b049a05f8019ceb1ae2
:100d88009342a8463ff44baf514600230a2220461f
:100d980002f068ff039b0399bb4282464ff00003b1
:100da8004ff00a02204604d102f05cff0390074688
:100db80076e702f057ff002303900a2239462046bf
:100dc80002f050fff3e7514600230a22204602f0c2
:100dd80049ff82460de7029b934205d1029a0bf127
:100de800010b31231370e2e61546b2e7094bfff712
:100df800aeba219b002b7ff488aa074bfff7a7ba4e
:100e0800049b002b3ff7f4ae079b022b7ff7f0ae55
:0c0e1800b8e600bf695400005c54000004
:020000040000fa
:100e24002de9f04f8db00c46ddf8588093461f46ef
:100e3400064604f037f903680593184604f0f4fafb
:100e4400d8f800300690073323f0070303f10802b3
:100e540094f818a02568c8f80020d3e90023c4e951
:100e6400122394ed127b8ded027b039bddf8088049
:100e740023f000494ff0ff329b4b4046494603f0b4
:100e840097fe002840f04d824ff0ff32964b4046cb
:100e9400494601f0f1fd002840f04382002200237e
:100ea400dde9020101f0defd10b12d2384f84330a9
:100eb4008e4b1a1fbaf1470f98bf134625f004054d
:100ec40004932560032300252361a84600975b460d
:100ed4000aaa2146304601f0f0fe013040f0f880c5
:100ee4004ff0ff300db0bde8f08f6368581c2af056
:100ef40020081dd10623636045f480632360039baf
:100f0400d4f80490002b1ada0399029a01f10043f1
:100f1400cde902232d235ffa88f8b8f1460f079331
:100f24000fd0b8f1450f01d109f10109022109e0ff
:100f3400b8f1470fe0d1002bded10123dbe700231a
:100f4400e9e703210aab019309ab00934a4608abd6
:100f54009ded020b3046fff795f9b8f1470f049069
:100f640002d1e90740f1e881049bb8f1460f03eb95
:100f740009050ed11b78302b09d100220023dde9ad
:100f8400020101f065fd10b9c9f101030893089b42
:100f94001d4400220023dde9020101f059fd38b9a6
:100fa40030220a9b9d4204d9591c0a911a70f8e711
:100fb4000a950a9d049bb8f1470fa5eb030509d1d7
:100fc400089bda1c02db626893426fddaaf1020a15
:100fd4005ffa8afabaf1650f089a4cd8531e002baf
:100fe4000893b6bfc2f101032b222d22092b04f171
:100ff400500884f850a004f1520184f8512033dde4
:101004000df12f024ff00a0c93fbfcfe0cfb1e3378
:10101400303302f8013c7346092b02f1ff301cdc2b
:10102400303300f8013c023a0df12f039a4208468e
:1010340015d3a0eb080808eb0503012d236102dc9e
:101044002268d00701d501332361079b002b3ff4ad
:101054003daf2d2384f8433038e70246d4e712f835
:10106400010b01f8010be1e730220846134400f8b4
:10107400022b4b70dde7baf1660f19d1002a6368c1
:101084000cdd226113b92168c90702d50133134469
:101094002361089ba3654ff00008d6e713b92268c3
:1010a400d00701d50233f3e70123f1e74ff0670ad4
:1010b400089bab4205db22682361d107e9d50133e4
:1010c400e6e7002bd4bfc3f1020301232b44dfe77f
:1010d40023685a050cd42369049a59463046b84704
:1010e40001302ed1fce600bfffffef7f004500007a
:1010f400baf1650f40f2ce8000220023d4e9120138
:1011040001f0a6fc002839d001238d4a5946304607
:10111400b84701303ff4e4ae089bab4202db2368de
:10112400d8070ed5069b059a59463046b847013074
:101134003ff4d6ae4ff00008013d04f11a09a8456a
:1011440011db23689d0708d5002504f11908e3681d
:101154000a9a9b1a9d42c0f2da80e0680a9b984280
:10116400b8bf1846bee601234a4659463046b8473a
:1011740001303ff4b5ae08f10108e0e7089b002b0d
:101184002adc01236e4a59463046b84701303ff401
:10119400a7ae089b1bb915b92368d907d1d5069bff
:1011a400059a59463046b84701303ff499ae4ff09e
:1011b400000804f11a09089b5b42984501db2b46a1
:1011c4008ae701234a4659463046b84701303ff47e
:1011d40087ae08f10108eee7a36dab42a8bf2b462a
:1011e400002b984633dc04f11a034ff0000a28ea76
:1011f400e8780293d4f85890a9eb08039a452ddbbc
:10120400089bab4235db2368da0732d4089ba5eb95
:101214000908eb1a9845a8bf9846b8f1000f30dcce
:101224004ff0000928eae87804f11a0a089beb1a3f
:10123400a3eb0803994584da012352465946304604
:10124400b84701303ff44cae09f10109eee7049ac6
:1012540059463046b8470130c5d141e60123029ac8
:1012640059463046b84701303ff43aae0af1010a14
:10127400c0e7069b059a59463046b8470130c5d1a8
:101284002ee6049a43464a4459463046b84701304c
:10129400c6d125e6012d01dcdb0735d50123049aef
:1012a40059463046b84701303ff41aae069b059aba
:1012b40059463046b84701303ff412ae00220023ad
:1012c400d4e9120101f0c4fb013d48b14ff000091b
:1012d40004f11a0aa9450cdb434604f15002fce66a
:1012e400049a2b46013259463046b8470130f3d1af
:1012f400f6e50123524659463046b84701303ff4db
:10130400efad09f10109e5e70123049aebe70123b5
:10131400424659463046b84701303ff4e1ad013505
:1013240015e7dde902231046194603f041fc0028c5
:101334003ff4dbad034bbce50a9d049bed1a3fe68d
:081344000c4500000845000003
:020000040000fa
:10134c0070b54ff0ff0c4cf4e06c1cea11541dbf4f
:10135c001cea135594ea0c0f95ea0c0f00f0def81a
:10136c002c4481ea030621ea4c5123ea4c5350eaff
:10137c00013518bf52ea033541f4801143f4801350
:10138c0038d0a0fb02ce4ff00005e1fb02e506f0e1
:10139c000042e0fb03e54ff00006e1fb03569cf036
:1013ac00000f18bf4ef0010ea4f1ff04b6f5007f3c
:1013bc0064f5407404d25fea4e0e6d4146eb0606ae
:1013cc0042eac62141ea55514feac52040ea5e5037
:1013dc004feace2eb4f1fd0c88bfbcf5e06f1ed8e1
:1013ec00bef1004f08bf5fea500e50f1000041eb18
:1013fc00045170bd06f0004646ea010140ea0200c5
:10140c0081ea0301b4eb5c04c2bfd4eb0c0541eae6
:10141c00045170bd41f480114ff0000e013c00f3fb
:10142c00ab8014f1360fdebf002001f0004170bd1f
:10143c00c4f10004203c35da0c341bdc04f1140438
:10144c00c4f1200500fa05f320fa04f001fa05f2c4
:10145c0040ea020001f0004221f0004110ebd37091
:10146c0021fa04f642eb06015eea430e08bf20eabd
:10147c00d37070bdc4f10c04c4f1200500fa04f360
:10148c0020fa05f001fa04f240ea020001f00041f2
:10149c0010ebd37041f100015eea430e08bf20ea65
:1014ac00d37070bdc4f1200500fa05f24eea020ead
:1014bc0020fa04f301fa05f243ea020321fa04f0dc
:1014cc0001f0004121fa04f220ea020000ebd37093
:1014dc005eea430e08bf20ead37070bd94f0000f93
:1014ec000fd101f00046400041eb010111f4801fc7
:1014fc0008bf013cf7d041ea060195f0000f18bf78
:10150c00704703f00046520043eb030313f4801fb3
:10151c0008bf013df7d043ea0603704794ea0c0f6d
:10152c000cea135518bf95ea0c0f0cd050ea410683
:10153c0018bf52ea4306d1d181ea030101f0004100
:10154c004ff0000070bd50ea410606bf1046194628
:10155c0052ea430619d094ea0c0f02d150ea013634
:10156c0013d195ea0c0f05d152ea03361cbf104675
:10157c0019460ad181ea030101f0004141f0fe4114
:10158c0041f470014ff0000070bd41f0fe4141f498
:10159c00780170bd70b54ff0ff0c4cf4e06c1cea98
:1015ac0011541dbf1cea135594ea0c0f95ea0c0f4d
:1015bc0000f0a7f8a4eb050481ea030e52ea033508
:1015cc004fea013100f088804fea03334ff0805529
:1015dc0045ea131343ea12634fea022245ea111556
:1015ec0045ea10654fea00260ef000419d4208bf07
:1015fc00964244f1fd0404f5407402d25b084feab4
:10160c003202b61a65eb03055b084fea32024ff45f
:10161c0080104ff4002cb6eb020e75eb030e22bfbc
:10162c00b61a754640ea0c005b084fea3202b6eb7c
:10163c00020e75eb030e22bfb61a754640ea5c002b
:10164c005b084fea3202b6eb020e75eb030e22bfbb
:10165c00b61a754640ea9c005b084fea3202b6ebbc
:10166c00020e75eb030e22bfb61a754640eadc007b
:10167c0055ea060e18d04fea051545ea16754feadd
:10168c0006164feac30343ea52734feac2025feafb
:10169c001c1cc0d111f4801f0bd141ea00014ff08a
:1016ac0000004ff0004cb6e711f4801f04bf01435b
:1016bc000020b4f1fd0c88bfbcf5e06f3ff6afae77
:1016cc00b5eb030c04bfb6eb020c5fea500c50f107
:1016dc00000041eb045170bd0ef0004e4eea11318a
:1016ec0014eb5c04c2bfd4eb0c0541ea045170bd91
:1016fc0041f480114ff0000e013c90e645ea060ed5
:10170c008de60cea135594ea0c0f08bf95ea0c0f02
:10171c003ff43baf94ea0c0f0ad150ea01347ff44a
:10172c0034af95ea0c0f7ff425af104619462ce721
:10173c0095ea0c0f06d152ea03353ff4fdae104684
:10174c00194622e750ea410618bf52ea43067ff4d5
:10175c00c5ae50ea41047ff40daf52ea43057ff465
:04176c00ebae12e7e7
:020000040000fa
:10177000ec0700201c00000000000000080800200a
:10178000180000000000000000000020c000000061
:1017900000000000c00000200c000000000000005d
:1017a000cc00002030000000000000007408002081
:1017b0000400000000000000780800200400000081
:1017c000000000005c08002008000000000000008d
:1017d0005c0700205000000000000000b508002059
:1017e0000100000000000000380800200c0000008c
:1017f00000000000ac0700202000000000000000f6
:10180000640800200800000000000000b408002068
:101810000100000000000000cc07002020000000b4
:101820000000000000010020000400000000000093
:10183000440800200c0000000000000050080020b8
:101840000c000000000000006c08002008000000f0
:101850000000000020080020180000000000000028
:101860006c06002090000000000000007c080020b2
:1018700004000000000000008008002004000000b8
:1018800000000000840800200400000000000000a8
:101890008808002004000000000000008c080020e0
:1018a0000400000000000000900800200400000078
:1018b0000000000094080020040000000000000068
:1018c000980800200400000000000000b608002076
:1018d0000100000000000000b70800200100000027
:1018e000000000009c080020040000000000000030
:1018f000a00800200400000000000000a408002050
:101900000400000001000000fc060020fc0600208e
:10191000600000000100000000000000444f0000d3
:10192000644f0000244f0000000000000000000091
:1019300000000000000000000000000000000000a7
:101940000000000000000000000000000000000097
:101950000000000000000000000000000000000087
:101960000000000000000000000000000000000077
:101970000000000000000000a80800200400000093
:1019800000000000ac08002004000000000000007f
:10199000000500206c010000010000004300000071
:1019a0000000000000000000000000000000000037
:1019b00000000000000000000000000043000000e4
:1019c0000000000000000000000000000000000017
:1019d00000000000000000000000000043000000c4
:1019e00000000000000000000000000000000000f7
:1019f00000000000000000000000000043000000a4
:101a000000000000000000000000000000000000d6
:101a10000000000000000000000000004300000083
:101a200000000000000000000000000000000000b6
:101a30000000000000000000000000004300000063
:101a40000000000000000000000000000000000096
:101a50000000000000000000000000004300000043
:101a60000000000000000000000000000000000076
:101a7000000000000000000000000000fd50000019
:101a8000f94d000000000000bc2b00002d550000a7
:101a90002c5500002c5500002c5500002c55000042
:101aa0002c5500002c5500002c5500002c55000032
:101ab0002c550000ffffffffffffffffffffffffb1
:101ac000ffff0000010041534349490000000000ae
:101ad0000000000000000000000000000000000006
:101ae000000000000000415343494900000000008d
:101af00000000000000000000000000000000000e6
:101b00000000000000000000fc00002004000000b5
:101b100000000000b00800200400000000000000e9
:101b200000000000000000002222222222222222a5
:020000040000fa
:101b300081f0004102e000bf83f0004330b54fea7e
:101b400041044fea430594ea050f08bf90ea020feb
:101b50001fbf54ea000c55ea020c7fea645c7fea7e
:101b6000655c00f0e2804fea5454d4eb5555b8bfa1
:101b70006d420cdd2c4480ea020281ea030382ea12
:101b8000000083ea010180ea020281ea0303362da4
:101b900088bf30bd11f0004f4fea01314ff4801c77
:101ba0004cea113102d0404261eb410113f0004f89
:101bb0004fea03334cea133302d0524263eb430340
:101bc00094ea050f00f0a780a4f10104d5f1200ede
:101bd0000ddb02fa0efc22fa05f2801841f1000139
:101be00003fa0ef2801843fa05f359410ee0a5f10d
:101bf00020050ef1200e012a03fa0efc28bf4cf03e
:101c0000020c43fa05f3c01851ebe37101f00045f3
:101c100007d54ff0000edcf1000c7eeb00006eeb00
:101c20000101b1f5801f1bd3b1f5001f0cd349088a
:101c30005fea30004fea3c0c04f101044fea4452e1
:101c400012f5800f80f09a80bcf1004f08bf5fea68
:101c5000500c50f1000041eb045141ea050130bd48
:101c60005fea4c0c404141eb010111f4801fa4f1eb
:101c70000104e9d191f0000f04bf01460020b1fa40
:101c800081f308bf2033a3f10b03b3f120020cda78
:101c90000c3208dd02f1140cc2f10c0201fa0cf056
:101ca00021fa02f10ce002f11402d8bfc2f1200cbb
:101cb00001fa02f120fa0cfcdcbf41ea0c01904071
:101cc000e41aa2bf01eb0451294330bd6fea0404ba
:101cd0001f3c1cda0c340edc04f11404c4f12002a5
:101ce00020fa04f001fa02f340ea030021fa04f3b7
:101cf00045ea030130bdc4f10c04c4f1200220fa0e
:101d000002f001fa04f340ea0300294630bd21fa4b
:101d100004f0294630bd94f0000f83f4801306bf11
:101d200081f480110134013d4ee77fea645c18bf05
:101d30007fea655c29d094ea050f08bf90ea020f9c
:101d400005d054ea000c04bf1946104630bd91ea94
:101d5000030f1ebf0021002030bd5fea545c05d197
:101d60004000494128bf41f0004130bd14f58004d6
:101d70003cbf01f5801130bd01f0004545f0fe414a
:101d800041f470014ff0000030bd7fea645c1abf7f
:101d9000194610467fea655c1cbf0b46024650eab6
:101da000013406bf52ea033591ea030f41f40021e2
:101db00030bd00bf90f0000f04bf0021704730b568
:101dc0004ff4806404f132044ff000054ff000013d
:101dd00050e700bf90f0000f04bf0021704730b5fe
:101de0004ff4806404f1320410f0004548bf4042d3
:101df0004ff000013ee700bf42004feae2014fea28
:101e000031014fea02701fbf12f07f4393f07f4f02
:101e100081f06051704792f0000f14bf93f07f4f34
:101e2000704730b54ff4607401f0004521f0004177
:101e300020e700bf50ea010208bf704730b54ff0fd
:101e400000050ae050ea010208bf704730b511f002
:101e5000004502d5404261eb41014ff4806404f13a
:101e600032045fea915c3ff4dcae4ff003025feabc
:101e7000dc0c18bf03325feadc0c18bf033202eb44
:101e8000dc02c2f1200300fa03fc20fa02f001fa9e
:101e900003fe40ea0e0021fa02f11444c1e600bf3d
:020000040000fa
:101ea0002de9f04317460a7e85b06e2a984606460d
:101eb0000c460c9b01f1430e00f0bc801ad8632a3b
:101ec0002ed00ad8002a00f0c880582a00f08a8054
:101ed00004f1420584f842202ae0642a01d0692aec
:101ee000f6d121681a6811f0800f23d0111d1960f6
:101ef000136827e0732a00f0b48008d86f2a2ad02c
:101f0000702ae5d10a6842f020020a6003e0752acf
:101f100021d0782adcd1782284f845206e4964e00b
:101f20001a6801f14205111d1960136884f84230e6
:101f30000123a3e011f0400f02f104011960d7d092
:101f4000b2f90030002b03da2d225b4284f84320e3
:101f500062490a2217e02068196810f0800f03d048
:101f6000081d18600b6806e010f0400f01f1040036
:101f70001860f7d00b8859496f2a14bf0a2208222b
:101f8000002084f843006568a560002dc0f29c80a5
:101f9000206820f004002060002b3fd1002d40f08d
:101fa00095807546082a0bd12368da0708d523697e
:101fb00062689a42debf302305f8013c05f1ff3527
:101fc000aeeb05032361cdf800803b4603aa214612
:101fd000304600f074fe013055d14ff0ff3005b0af
:101fe000bde8f08381f845203c492268186812f06a
:101ff000800f00f104051d6001d0036802e0550662
:10200000fbd50388d00744bf42f0200222601bb9f1
:10201000226822f0200222601022b1e77546b3fb4d
:10202000f2f002fb1033cb5c05f8013d03460028bb
:10203000f5d1b7e708681a68496910f0800f04d035
:10204000101d18601368196007e010f0400f02f1ce
:10205000040018601368f6d01980002323617546c8
:10206000b1e71a68111d19601568626800212846d9
:1020700001f036fb08b1401b6060636823610023f8
:1020800084f843309fe723692a4639463046c047e3
:102090000130a2d023689b0707d5002504f1190958
:1020a000e368039a9b1a9d4205dbe068039b984214
:1020b000b8bf184693e701234a4639463046c04721
:1020c00001308ad00135ebe7002ba7d10b7884f8db
:1020d000423004f1420565e7514e0000404e0000d9
:020000040000fa
:1020e0002de9f04f9db00d4692460393074618b177
:1020f00083690bb901f02aff6f4b9d4256d17d6871
:10210000ab891c075cd52b69002b59d000230993a0
:1021100020238df82930dff8a48130238df82a3070
:102120004ff001095446264616f8013b002b52d1c8
:10213000b4eb0a0b0bd05b4652462946384602f0f8
:1021400003f9013000f0b380099b5b4409932378c5
:10215000002b00f0ac8000234ff0ff320493079374
:10216000059206938df853301a930522317853481f
:1021700001f0b6fa741c049b002830d1d80644bf85
:1021800020228df85320190744bf2b228df85320ad
:1021900032782a2a2bd0079a00210a2034460136a9
:1021a0002378303b092b68d971b326e0444b9d421c
:1021b00001d1bd68a4e7434b9d4208bffd689fe77e
:1021c0002946384600f0d6fe00289fd04ff0ff3059
:1021d0001db0bde8f08f252baad03446a3e7a0ebb5
:1021e000080009fa00f0184304902646bde7039a58
:1021f000111d12680391002a01db079204e052428c
:1022000043f002030792049323782e2b0ed16378b8
:102210002a2b04f1010134d1039b1a1d1b68039280
:10222000002bb8bf4ff0ff3302340593264e2178c0
:102230000322304601f054fa38b14023801b03fae0
:1022400000f0049b03430493013421781f488df868
:102250002810062201f044fa03ab009304f1010aae
:102260001b4b2a4604a9f0b13846fef7dbfd421ca1
:102270001dd0099b0344099354e700fb023201215e
:102280008ce70023059318460a260c460131227874
:10229000303a092a03d9002bc8d00590c6e706fbbf
:1022a00000200123f1e73846fff7fafddfe7ab89ad
:1022b0005b068bd409988be7444f000089530000dc
:1022c000644f0000244f00008f5300009353000020
:0422d000494300007e
:020000040000fa
:1022d4001b5b313b31481b5b324a6d755f74617324
:1022e4006b5f64656d6f3220312e302e303a20687a
:1022f400747470733a2f2f6769746875622e636ff4
:102304006d2f7264706f6f722f6d756c69620d0a38
:102314000d0a202020202020202020204e616d65e1
:1023240020537461742020232043616c6c7320203b
:1023340020202052756e74696d6520202020204d68
:102344006178204475720d0a2b2d2d2d2d2d2d2de8
:102354002d2d2d2d2d2d2b2d2b2d2d2d2d2d2d2dad
:102364002d2d2d2d2b2d2d2d2d2d2d2d2d2d2d2d9b
:102374002b2d2d2d2d2d2d2d2d2d2d2d2b0d0a00fd
:1023840025313473202563202531317520253131e1
:102394006c75202531316c750d0a00000d0a5374db
:1023a400617475733a20413d4163746976652c20ec
:1023b400493d49646c652c20523d52756e6e6162d4
:1023c4006c652c20533d5363686564756c65640dbe
:1023d4000a00000050757368207573657220627579
:1023e40074746f6e20746f2065786974206c6f77d5
:1023f4002d706f776572206d6f64652e0d0a000075
:10240400547970652027702720746f20656e746579
:1024140072206c6f772d706f776572206d6f6465b5
:102424002e0d0a547970652027422720746f20737b
:10243400757370656e64204c4544207461736b2e13
:102444002027622720746f20726573746172742e62
:102454000d0a547970652027442720746f20737502
:102464007370656e642053637265656e2074617366
:102474006b2e2027642720746f2072657374617239
:10248400742e0d0a0000000053637265656e2055ba
:0824940070646174650000bf73
:020000040000fa
:10249c002de9f04f9db0074603938b891c060e4621
:1024ac0092460ed50b6963b9402100f057ff30609e
:1024bc00306120b90c233b604ff0ff30c1e040236a
:1024cc0073610023099320238df82930dff878817c
:1024dc0030238df82a304ff001095446254615f863
:1024ec00013b002b3cd1b4eb0a0b0bd05b465246a4
:1024fc003146384600f0eeff013000f09d80099b1c
:10250c005b4409932378002b00f0968000234ff056
:10251c00ff3204930793059206938df853301a9368
:10252c0005222978484801f0d5f86c1c049bd8b9d1
:10253c00d80644bf20228df85320190744bf2b2204
:10254c008df853202a782a2a16d0079a00210a20bf
:10255c002c4601352378303b092b53d9c9b111e0f6
:10256c00252bc0d02c46b9e7a0eb080009fa00f0e7
:10257c00184304902546d3e7039a111d1268039162
:10258c00002a01db079204e0524243f00203079257
:10259c00049323782e2b0ed163782a2b04f101019e
:1025ac0034d1039b1a1d1b680392002bb8bf4ff04c
:1025bc00ff3302340593254d21780322284601f080
:1025cc0089f838b14023401b03fa00f0049b034305
:1025dc000493013421781e488df82810062201f04e
:1025ec0079f803ab009304f1010a1a4b324604a9a3
:1025fc00f0b13846fef710fc421c1dd0099b034479
:10260c0009936ae700fb02320121a1e7002305933d
:10261c0018460a250c4601312278303a092a03d98a
:10262c00002bc8d00590c6e705fb00200123f1e77d
:10263c003846fff72ffcdfe7b3895b063ff53caf6d
:10264c0009981db0bde8f08f785300007e53000050
:08265c0082530000e13400008c
:020000040000fa
:102664002de9f74f14460a6923699a42b8bf0b460d
:102674008946bcbfa1461c46d9f81070d4f810a0f6
:10268400d9f80830d9f8041007eb0a069e42c8bfef
:10269400013101f0c1fb00f1140505eb86082b465e
:1026a4000022434516d304f1140209f1140102eb8c
:1026b4008a0301eb87070193019c944213460cd8cb
:1026c400002e03dd58f8043d002b54d0066103b0fe
:1026d400bde8f08f43f8042be3e7b3f800a004321d
:1026e400baf1000f20d0ae4689464ff0000c59f8dd
:1026f400044bbef800b0a3b20afb03b34fea144b79
:10270400def8004063444fea144c0afb0bc404ebac
:1027140013449bb243ea04434f454fea144c4ef82a
:10272400043be4d8cef800c032f8029cb9f1000fa3
:102734001fd02b68ae468c464ff0000abcf8004010
:10274400bef802b009fb04b4a2449bb243ea0a43b4
:102754004ef8043b5cf8043bbef800401b0c09fb3c
:10276400034303eb1a4367454fea134ae6d8cef80e
:0a27740000300435a0e7013ea2e7a3
:020000040000fa
:10277e002de9f74f03690c699c42804600f3828075
:10278e00013c01f114074fea840e00f1140657f8cc
:10279e00245056f8240006eb0e03013507eb0e0904
:1027ae000193b0fbf5f595b34ff0000a3846b446e9
:1027be00d34650f8042b93b205fb03a34fea134afa
:1027ce009bb2abeb0303120cbcf800b005fb02a2ec
:1027de0013fa8bf34fea124a1ffa82fbdcf8002041
:1027ee00cbeb124202eb23429bb243ea02438145fa
:1027fe004fea224b4cf8043bdbd256f80e3033b97d
:10280e00019b043b9e421a4630d3c8f81040404606
:10281e0002f067f8002825db013530464ff0000e38
:10282e0057f8042bd0f800c093b2aeeb0303120c92
:10283e0013fa8cf3c2eb1c4202eb23429bb243ea27
:10284e000243b9454fea224e40f8043be8d256f80f
:10285e00242006eb84032ab9043b9e421a460bd36e
:10286e00c8f81040284603b0bde8f08f1268043b4c
:10287e00002acad1013cc5e71268043b002aefd1f9
:08288e00013ceae70020eee73f
:020000040000fa
:02289600704789
:020000040000fa
:102898008a892de9f041054610070c465ad44b6841
:1028a800002b05dc0b6c002b02dc0020bde8f0815e
:1028b800e66a002ef9d0002312f480522f682b60ac
:1028c80033d0606da3895a0705d56368c01a636b56
:1028d8000bb1236cc01a00230246e66a216a284617
:1028e800b047431ca38906d129681d294bd82b4a18
:1028f800ca40d60747d500226260d90422692260ff
:1029080004d5421c01d12b6803b96065616b2f6047
:102918000029cad004f14403994202d0284600f0a5
:102928007bff00206063bde8f081216a012328460f
:10293800b047411cc6d12b68002bc3d01d2b01d03a
:10294800162b01d12f60b0e7a38943f04003a38180
:10295800bde8f0810f69002fa7d093070e6808bf64
:102968004b690f6018bf0023a6eb07088b60b8f10e
:10297800000f9add43463a46216aa66a2846b047c0
:10298800002807dca38943f04003a3814ff0ff3000
:10299800bde8f0810744a8eb0008e8e70100402003
:020000040000fa
:1029a8004ff0ff3c06e000bf4ff0010c02e000bf13
:1029b8004ff0010c4df804cd4fea410c7fea6c5cf6
:1029c8004fea430c18bf7fea6c5c1bd001b050ea99
:1029d800410c0cbf52ea430c91ea030f02bf90ea84
:1029e800020f0020704710f1000f91ea030f58bf43
:1029f800994208bf90422cbfd8176feae37040f0a5
:102a0800010070474fea410c7fea6c5c02d150ea42
:102a1800013c07d14fea430c7fea6c5cd6d152eafd
:102a2800033cd3d05df8040b704700bf84461046c2
:102a380062468c461946634600e000bf01b5fff7c1
:102a4800b7ff002848bf10f1000f01bd4df808ed91
:102a5800fff7f4ff0cbf012000205df808fb00bf62
:102a68004df808edfff7eaff34bf012000205df8bc
:102a780008fb00bf4df808edfff7e0ff94bf012009
:102a880000205df808fb00bf4df808edfff7ceff0a
:102a980094bf012000205df808fb00bf4df808ed49
:102aa800fff7c4ff34bf012000205df808fb00bf1a
:020000040000fa
:102ab8002de9f04385b004460d46037d4268911c1c
:102ac8008b4211d9002303750168284602f0bbfb2d
:102ad80040f6c41002f04afd0146284602f07cf890
:102ae800002005b0bde8f08373b1934214d90132d8
:102af800934243d08b4246d000bf237d01332375d8
:102b0800284602f06bfaebe7006902f01bfd244946
:102b1800206901f09bfef0e703eb4303db00183b61
:102b280086681e440769304602f0a8f88046314698
:102b3800e06801f0a3f903280cd8dfe800f00e08dc
:102b480002054ff052090ae04ff0410907e04ff043
:102b5800530904e04ff03f0901e04ff049093046be
:102b680002f031fd736902933369019300904b467b
:102b780042460c49384601f008fcbee70a4900699c
:102b880001f064feb9e702f0b1fc20b10749206901
:102b980001f05cfeb1e70649206901f057feace799
:102ba800d422000084230000a0230000d8230000c2
:042bb80004240000f1
:020000040000fa
:102bbc000020202020202020202028282828282001
:102bcc0020202020202020202020202020202020f9
:102bdc002088101010101010101010101010101061
:102bec001004040404040404040404101010101051
:102bfc00101041414141414101010101010101011b
:102c0c00010101010101010101010101101010106c
:102c1c0010104242424242420202020202020202ec
:102c2c000202020202020202020202021010101040
:102c3c002000000000000000000000000000000068
:102c4c000000000000000000000000000000000078
:102c5c000000000000000000000000000000000068
:102c6c000000000000000000000000000000000058
:102c7c000000000000000000000000000000000048
:102c8c000000000000000000000000000000000038
:102c9c000000000000000000000000000000000028
:102cac000000000000000000000000000000000018
:012cbc000017
:020000040000fa
:102cbe002de9f04791461f468a680b69ddf82080a2
:102cce009342b8bf1346c9f8003091f84320064628
:102cde000c4612b10133c9f800302368990642bf81
:102cee00d9f800300233c9f80030256815f0060512
:102cfe0007d104f1190ae368d9f800209b1a9d4206
:102d0e0029db94f843302268003318bf0123920662
:102d1e002ed404f1430239463046c047013021d04b
:102d2e002368e568d9f8002003f00603042b08bfda
:102d3e00ad1aa36822690cbf25eae57500259342fa
:102d4e00c4bf9b1aed184ff000091a344d451bd124
:102d5e000020bde8f0870123524639463046c04771
:102d6e00013003d14ff0ff30bde8f0870135c2e7e7
:102d7e00e1185a1c302081f84300224494f8451083
:102d8e0082f843100233c4e7012322463946304607
:0c2d9e00c0470130e6d009f10109d7e779
:020000040000fa
:022daa00704770
:020000040000fa
:102dac00374b9b7d002b69d010b5354b1b7e13f038
:102dbc00010f0ad1324b1b7e13f0040f28d1304b7c
:102dcc001b7e13f0800f48d110bd2e4b1b7d002baa
:102ddc00f0d02c4b9a685b689a4207d2294a10684b
:102dec0091684c1c9460415c254a9162254a92681a
:102dfc009342dfd8234b00221a755a600121204ad6
:102e0c001175db68002bd5d01e4a10699847d1e7a5
:102e1c001c4b93f82c30002bd1d01a4b1a6adb695f
:102e2c009a42ccd2164b986a164b99691a6a541c62
:102e3c001c6288541a6adb699a42c0d1114b002279
:102e4c0083f82c20da6104210d4a11755b6a002b82
:102e5c00b5d00c4a906a9847b1e7094b5b8b13f0dd
:102e6c00070fb1d08422064b1a75064b5b6a13b15f
:102e7c00044a906a984701f03bffa5e7704700bff2
:082e8c0000200141cc000020f0
:020000040000fa
:102e940038b500f0a7f9274c204602f0bdfa04f13a
:102ea400100104f1180001f0cdfd234c0822234940
:102eb400204601f0e5ff224d23460a2221492846f7
:102ec40001f0acfc204c2149204601f0c5fe20490c
:102ed40004f1180001f010fc1e4904f1300001f067
:102ee4008ffb1d4904f1480001f00afe1b4904f15f
:102ef400600001f0c7fc78342946204601f0d6f979
:102f040021462846fdf7bcf902f040f902f04af9df
:102f14000022134b1a7002f045f9124c4ff48062f0
:102f24001149204602f048fb2146104802f003fbf9
:102f340038bd00bf6841000038080020ac070020fd
:102f4400cc0700205c0700206c060020b408002099
:102f54005c0800202008002050080020640800209d
:102f6400b50800206c08002000010020440800205f
:020000040000fa
:102f7400324b70b51d6806460c4625b1ab6913b9d2
:102f8400284600f0e1ff2e4b9c420fd16c68b4f947
:102f94000c309ab215072cd4d00611d40922326011
:102fa40043f04003a3814ff0ff3070bd254b9c429a
:102fb40001d1ac68ebe7244b9c4208bfec68e6e720
:102fc400510712d5616b41b104f14403994202d017
:102fd400304600f023fc00236363a38923f0240319
:102fe400a3810023636023692360a38943f008035a
:102ff400a38123694bb9a38903f42073b3f5007f3c
:1030040003d02146304600f0f3fda28912f00103fb
:103014000cd00023a36063695b42a361236953b9a5
:10302400b4f90c3013f08000bad170bd920758bfc8
:103034006369a360f2e70020f7e700bfa40800205b
:0c304400444f0000644f0000244f0000c7
:020000040000fa
:1030500070b50e46054618b183690bb900f076ffce
:10306000ab69ac6813b9284600f070ff284b9c424e
:1030700022d16c68b4f90c309a0406d443f400539e
:10308000a381236e23f400532366a3891b071dd558
:103090002369dbb1013ea36816f8011f013ba36061
:1030a000e9b9002b2eda22460a21284600f0fef864
:1030b000013011d00a2070bd164b9c4201d1ac6882
:1030c000d8e7154b9c4208bfec68d3e72146284659
:1030d000fff750ff0028ddd04ff0ff3070bd002b10
:1030e00004daa269934206db0a2904d023685a1c39
:1030f00022601970cfe72246284600f0d7f8013049
:10310000c9d1e9e723680a205a1c2260187070bdf3
:0c311000444f0000644f0000244f0000fa
:020000040000fa
:04311c004068704750
:020000040000fa
:10312000000000000000f03f00000000000024400c
:1031300000000000000059400000000000408f40e7
:10314000000000000088c34000000000006af84052
:103150000000000080842e4100000000d012634176
:103160000000000084d797410000000065cdcd41ec
:10317000000000205fa00242000000e876483742cd
:10318000000000a2941a6d42000040e59c30a2426b
:103190000000901ec4bcd64200003426f56b0c43e0
:1031a0000080e03779c3414300a0d8855734764387
:1031b00000c84e676dc1ab43003d9160e458e143e8
:1031c000408cb5781daf154450efe2d6e41a4b445d
:1031d00092d54d06cff08044f64ae1c7022db544a2
:0831e000b49dd9794378ea445b
:020000040000fa
:1031e80010b501f069fa02f0e8f91e4b18600120e9
:1031f80001f09afc1c4b186001f0fefe4ff4802190
:103208001a4802f0e2f9002001f0faff0024184bf6
:103218001c60184b1c60224617490f2001f058fc0f
:103228000f2002f0c7f8154b1c60154b1c60214697
:10323800144802f037f9144b1c70144b1c60144be3
:103248001c602146134802f033f9134b1c60134be2
:103258001c602146124802f01ff94ff4807002f0fa
:1032680015f910bd90080020840800200081004155
:103278007c08002080080020c15100009c08002024
:10328800a0080020d9510000b708002094080020a9
:1032980098080020454d0000880800208c08002070
:0432a800f1510000e0
:020000040000fa
:1032ac00f8b50e461446054618b183690bb900f003
:1032bc0047fe274b9c422fd16c68a369a360a3895e
:1032cc00190733d52369002b30d0b4f90c30f6b282
:1032dc009a04374634d523692068c01a636998422a
:1032ec0004db2146284600f063ff28bba368013ba2
:1032fc00a36023685a1c22601e70636901309842d7
:10330c0004d0a389db0719d50a2e17d121462846ec
:10331c0000f04eff90b10fe00e4b9c4201d1ac6817
:10332c00cbe70d4b9c4208bfec68c6e7214628460c
:10333c00fff71afe0028c8d04ff0ff373846f8bd0b
:10334c0043f40053a381236e23f400532366c2e796
:0c335c00444f0000644f0000244f0000ac
:020000040000fa
:1033680070b5cd1c25f0030508350c2d38bf0c258c
:10337800002d064601dba94203d90c233360002047
:1033880070bd01f052fc234a1468214691b9224cc1
:1033980023681bb9304601f0f1fd2060294630460c
:1033a80001f0ecfd431c26d10c233360304601f0bc
:1033b800bafee4e70b685b1b1ad40b2b0fd90b6022
:1033c800cd50cc18304601f0aefe04f10b00231da1
:1033d80020f00700c31a1bd05a42e25070bd8c423d
:1033e8000dbf63684b686360136018bf0c46e9e75c
:1033f8000c464968cae7c41c24f00304a04205d05f
:10340800211a304601f0bafd0130cdd02560d9e748
:0c34180070bd00bfa8080020ac08002018
:020000040000fa
:103424002de9f0470d46074611462846144601f09b
:103434005dfa061e08d13146384600f0edfc012342
:1034440003614661bde8f087a4bf23462c46384695
:103454006168a6bf1d460026012600f0ddfc2b692d
:10346400c660266905f1140904f1140202eb86070b
:1034740009eb830800f114054ff0000c52f804ab7b
:1034840059f8044b1cfa8af1a3b2c91a230cc3ebf2
:103494001a4303eb214389b24fea234cc84541ea5e
:1034a4000343964645f8043be8d8be4505d355f892
:1034b400043d8bb10661bde8f0875ef8041b1cfa7d
:1034c40081f31a1402eb11429bb243ea02434fea1e
:0c34d400224c45f8043be8e7013ee8e725
:020000040000fa
:1034e0002de9f0478e689e4282460c4691469846ea
:1034f00035d88a8912f4906f31d0256809696f1a1e
:103500006569022305eb450595fbf3f508f1010319
:103510003b449d4238bf1d46530531d52946fff730
:1035200023ff064650b90c23caf80030a38943f0a4
:103530004003a3814ff0ff30bde8f0873a46216990
:1035400001f09bfea38923f4906343f08003a381e1
:10355000266165613e44ed1b2660a56046464645f2
:1035600028bf464632464946206801f0a7f9a368bd
:103570009b1ba36023681e4426600020bde8f087e3
:103580002a4600f0bbfe06460028e1d121695046dc
:0635900000f046f9c7e758
:020000040000fa
:103596002de9f0470c464fea621a236949680aeb9f
:1035a6000309a3680746164609f10105ab4231db5c
:1035b600384600f030fc0022804600f11403114624
:1035c60052452adb20692aeaea7a04f1140116f048
:1035d6001f0203eb8a0301eb800e22d0c2f1200cfe
:1035e60000200e689640304343f8040b51f8040b54
:1035f6008e4520fa0cf0f4d8186008b109f10205de
:10360600013d3846c8f81050214601f04afa4046b6
:10361600bde8f08701315b00c8e743f822100132ac
:10362600cee7043b51f8042b43f8042f8e45f9d816
:02363600e6e7c5
:020000040000fa
:103638000122204b1a74204a03f500635a621a4685
:10364800536813f0080ffbd101221c4b5a711a461c
:10365800d37813f0010ffbd0194a1a4b1a621a4695
:10366800536813f0040ffbd1174a164b9a621a4697
:10367800536813f0100ffbd14122124bc3f890206e
:103688001a46d2f8903013f0400ffad042220d4b70
:10369800c3f8dc201a46d2f8dc3013f0400ffad019
:1036a800064b6ff07f421a6140f2ff725a61074a77
:1036b8009a617047001400400401010000080040ae
:1036c80006010c00001c0040060130005682010073
:020000040000fa
:0836d80008b50369984708bd1d
:020000040000fa
:1036e00001f0ff01102a2bdb10f0070f08d010f8b3
:1036f000013b013a8b422dd010f0070f42b3f6d1b7
:10370000f0b441ea012141ea014122f007047ff0cf
:1037100000070023f0e80256083c85ea010586ea26
:10372000010685fa47f5a3fa87f586fa47f6a5fa62
:1037300087f68eb9eed1f0bc01f0ff0102f007026e
:1037400032b110f8013b013a83ea010313b1f8d119
:103750000020704701387047002d06bf35460338fa
:10376000073815f0010f07d1013015f4807f02bf33
:10377000013015f4c03f0130f0bc0138704700bf84
:020000040000fa
:103780002de9f7430e46012159ec108b154600f048
:1037900045fbc9f30a540746c9f3130334bb01932d
:1037a000b8f1000f27d002a840f8088d00f0fefb0a
:1037b0000099f0b1019ac0f1200302fa03f30b4320
:1037c000c2407b610192019bbb61002b14bf0221af
:1037d00001213961c4b1a4f2334404443460c0f11e
:1037e00035002860384603b0bde8f08343f4801309
:1037f000d5e77961e7e701a800f0d8fb019b7b6181
:10380000012139612030e5e707eb8103a0f2324066
:0e3810003060186900f016ffc0eb4110e1e7d0
:020000040000fa
:02381e00fee7c3
:020000040000fa
:1038200038b50546002945d051f8043c0c1f002b43
:10383000b8bfe41801f0fdf91f4a1368104633b908
:10384000636014602846bde8384001f070bca342b4
:103850000cd921686218934204bf1a685b686360e0
:1038600004bf521822600460ece713465a680ab19c
:10387000a242fad919685818a0420bd12068014415
:10388000581882421960ddd1106852685a600144ac
:103890001960d7e702d90c232b60d3e720682118e1
:1038a0008a4204bf11685268626004bf091821602f
:0c38b0005c60c7e738bd00bfa80800201e
:020000040000fa
:1038bc002de9f843154612f0030206460f4607d0d1
:1038cc00013a214c002354f8222000f0c9f9074694
:1038dc00ad1035d0746a3cb9102001f0b1fd7062a6
:1038ec00446084600460c460d6f82480d8f8084032
:1038fc004cb940f27121304601f026fd0023c8f886
:10390c000800044603604ff00008eb070ad539465f
:10391c0022463046fef7a0fe39468146304601f07d
:10392c00bdf84f466d100bd0206838b922462146a1
:10393c003046fef791fe2060c0f800800446e4e7b4
:0c394c003846bde8f88300bf0c550000b1
:020000040000fa
:1039580010b51d4b03b198471c4b03b19847eff3c3
:10396800108172b61a4ad2f8883043f47003c2f84c
:103978008830bff34f8fbff36f8f01b962b6154c14
:103988002023636000f0b6f8114a134b23f07f033d
:103998009360124b9847a36823f00103a360234662
:1039a800da6812f0010ffbd10a4b5a6842f00402a0
:1039b8005a6001229a600a4b03b19847094b03b138
:1039c800984701f0bafcfee7000000000000000084
:1039d80000ed00e000600041000000002544000008
:0839e8000000000000000000d7
:020000040000fa
:1039f0001f4a137843f001031370536813f0010f4b
:103a0000fbd11b490022ca614ff000530b624ff4f7
:103a100000430b634a630b61164b10221a721a752e
:103a200083f8202083f82c2083f8382083f8442062
:103a300083f8502083f85c2083f8682083f8742092
:103a400083f8802083f88c2083f8982083f8a420c2
:103a500083f8b0200f2283f8bc200b7843f00203d8
:103a60000b700a46536813f0020ffbd1704700bf7a
:083a70000028004000000020c6
:020000040000fa
:103a78002de9f74380460e46144601f01ffb012846
:103a88001cd1731efe2b19d88df80460054600273b
:103a98000df10409af4220d0a36817f80910013bc3
:103aa800002ba36004daa26993421adb0a2918d012
:103ab80023685a1c226019700137ebe7324604f17b
:103ac800580301a9404600f09ffb421c0546ded181
:103ad800a38943f04003a3810646304603b0bde8fe
:103ae800f08322464046fff7ddfb431ce4d106463f
:023af800f3e7f2
:020000040000fa
:023afa00fee7e5
:020000040000fa
:103afc001c4b1d4a934230b438bf002103d203f84b
:103b0c00011b9342fbd1194800250168c1b94268d9
:103b1c0032b383680c30d3b10139034613f8014b2f
:103b2c0001f8014f1c1a9442f8d312f0030318bf8a
:103b3c00012303eb920200eb820001680029e6d01e
:103b4c00846842680b460c303cb9002addd01a441c
:103b5c0003f8015b9a42fbd1d7e7002adcd1e4e7fa
:103b6c0030bc7047000000200001002070170000de
:020000040000fa
:103b7c00f8b51c4b1e68b369074613b9304600f004
:103b8c00dff94836b4687368013b03d5336833b149
:103b9c003668f7e7b4f90c506db16434f4e70421de
:103bac00384600f0d5ff30600028f1d10c233b6083
:103bbc0004462046f8bd4ff6ff73e3810123a38131
:103bcc0025662560a560656025616561a561082293
:103bdc00294604f1580001f02bfc6563a563a5642c
:083bec00e564e6e7e455000082
:020000040000fa
:103bf4008b8973b59d0706460c4607d504f1470328
:103c0400236023610123636102b070bd01ab6a4686
:103c140000f04efc009905463046fff7a3fb38b987
:103c2400b4f90c309a05efd443f00203a381e5e71d
:103c34000c4bb362a389206043f08003a381009bf3
:103c44006361019b20614bb1b4f90e10304601f061
:103c5400b7f918b1a38943f00103a381a3891d43d4
:083c6400a581d1e70155000024
:020000040000fa
:103c6c002de9f0410d691f4606460c4601f1140e74
:103c7c000023def8000081b202fb01710f0c000c76
:103c8c0002fb007089b2013301eb00419d424fea07
:103c9c0010474ef8041becdcd7b1a3689d4212db35
:103cac0061683046013100f0b3f82269023204f148
:103cbc000c01804692000c3001f0d9fa21463046b6
:103ccc0000f0ecfe444604eb850301355f61256191
:063cdc002046bde8f08166
:020000040000fa
:103ce20070b582b00446fff7f6fc054601a9e0680c
:103cf20000f030fe01280ad02a460199204600f041
:103d020024f803460028f1d0184602b070bd2046c0
:103d120001f091fa064620b12946006801f0a5fba0
:103d220028b12146606900f042fd0023ece73268c9
:103d32007368a261e361a368013ba3602146e06965
:0a3d420000f035fd0023e361dee729
:020000040000fa
:103d4c002de9f041846843689c4202d30220bde80f
:103d5c00f08116460f4605465cb92b6803ebc4028e
:103d6c00576043f83460ab680133ab600020bde8aa
:103d7c00f081d0f80080013c58f83410304601f046
:103d8c00effb10b914b1013cf6e70134aa68121b21
:103d9c00002ae2dd2b68e10001f10800d200194491
:083dac00184400f085fdd8e782
:020000040000fa
:103db400174ad36823f4e0631b041b0c43f0bf636e
:103dc40043f40133d360bff35f8f62b6114be0223b
:103dd40083f80b234ff40061196083f81b234ff021
:103de4000061196083f836234ff48001596083f829
:103df40037234ff40001596083f838234ff0807162
:103e0400596083f839234ff000725a60704700bf3d
:083e140000ed00e000e100e018
:020000040000fa
:103e1c0070b5456a04460e463db9102001f010fb02
:103e2c006062456085600560c560656aeb6883b15a
:103e3c00636adb6853f82600b8b9012101fa06f56c
:103e4c006a1d9200204601f045f960b1466085601c
:103e5c000ee021220421204601f03cf9636ae8605f
:103e6c00db68002be4d1002070bd026843f82620eb
:083e7c0000230361c36070bd67
:020000040000fa
:103e840038b5c36923b110f1180f01d0994224d079
:103e94008368013b1c46002b21db0568db00ea1824
:103ea4005268914208d008332b44013c13d4083b98
:103eb40053f8042c9142f8d105ebc4038bb1fff7fe
:103ec40009fc014655f8340001f0cefa00280cbf75
:103ed4000220012038bd002038bd032038bd002059
:063ee40038bd002038bdce
:020000040000fa
:103eea0008b500f064fd42382e281bd8dfe800f040
:103efa001c1a221a1a1a1a1a1a1a1a1a1a1a1a1a0e
:103f0a001a1a1a1a1a1a1a1a1a1a1a1a1a1a1a1a07
:103f1a00181a1f1a1a1a1a1a1a1a1a1a1a1a250003
:103f2a0001f031f9002008bd01f0dff9fae701f0ec
:103f3a0036f9f7e701f0e3f9f4e7012001f061fa55
:023f4a00f0e79e
:020000040000fa
:103f4c00836910b5044633bb8364c3640365124ba9
:103f5c00124a1b688262984204bf01238361fff7f7
:103f6c0007fe60602046fff703fea0602046fff7c7
:103f7c00fffd0022e0600421606800f071fa01226c
:103f8c000921a06800f06cfa02221221e06800f00e
:103f9c0067fa0123a36110bde45500000155000030
:020000040000fa
:103fac00036813f0070201460bd0da0723d49807f5
:103fbc0049bf5b089b0801200b605cbf0b600220b3
:103fcc00704798b2a8b91b0c102013f0ff0f04bf58
:103fdc001b0a08301a0704bf1b0904309a0704bfd8
:103fec009b080230da0702d45b0806d001300b6064
:0e3ffc0070471046e9e700207047202070470c
:020000040000fa
:10400a0030b5141e05469bb0184605da8b232b6083
:10401a004ff0ff301bb030bd4ff40273adf81030d3
:10402a0014bf04f1ff332346039306934ff6ff733d
:10403a00adf81230002301910591199302461e9b97
:10404a0001a92846fef725fa431cbcbf8b232b6027
:0c405a00002cdfd0019b00221a70dbe775
:020000040000fa
:02406600fee773
:020000040000fa
:1040680030b583b0044601f089fa054601f06eface
:10407800b8b1237873b10df107020021284600f08a
:104088000dff6b6801336b6088b99df8070001f07c
:10409800c3f80ce0012323702146064800f02effe8
:1040a80005e00021084600f029ff002323700020c6
:0840b80003b030bde954000023
:020000040000fa
:1040c000f8b58568013d002d22db2c460768eb0022
:1040d000fa185268914208d008333b44013c15d489
:1040e000083b53f8042c9142f8d106462d1b002db5
:1040f00007dde40004f10801ea003944381900f052
:10410000ddfbb368013bb3600020f8bd0320f8bdc0
:044110000320f8bdd3
:020000040000fa
:10411400114b124a1a6041f212429a814ff4403212
:104124005a601a46d369002bfcd10b4a136843f03a
:1041340002031360d369002bfcd1094b00229a615e
:10414400da611a6283f82c205a621a605a609a6003
:104154001a75da60704700bf0020014184411040a5
:04416400cc0000206b
:020000040000fa
:104168000d0a23203d3d3d3d3d3d3d3d3d3d3d004e
:10417800312e302e3000000023206d755f7461737e
:104188006b5f64656d6f2025733a207365652068e1
:10419800747470733a2f2f6769746875622e636f31
:1041a8006d2f7264706f6f722f6d756c69620d0a76
:0441b800000000bf44
:020000040000fa
:1041bc0038b50b6905460c46dbb118b183690bb9f0
:1041cc00fff7befe0c4b9c4209d16c68b4f90c3065
:1041dc007bb121462846bde83840fef757bb074b5c
:1041ec009c4201d1ac68f1e7054b9c4208bfec68de
:1041fc00ece7002038bd00bf444f0000644f0000c6
:04420c00244f00003b
:020000040000fa
:10421000f0b5054685b01e460f460f4c91b9226891
:104220000e49126a002a08bf0a4601a9d2f8e040e6
:104230003a46a047431c01bf002333608a232b600a
:1042400005b0f0bd2468054f246a002c08bf3c4629
:10425000d4f8e040ede700bfa408002000050020ee
:020000040000fa
:104260004fea410212f5001215d211d56ff478739e
:10427000b3eb625212d94feac12343f0004343ea41
:10428000505311f0004f23fa02f018bf404270471c
:104290004ff00000704750ea013005d111f00040a6
:1042a00008bf6ff0004070474ff00000704700bf3c
:020000040000fa
:1042b000f8b504460f460e4e0e4d334600222946f1
:1042c00000f0d0ff21463846fbf7dcff4ff4001228
:1042d000094bc3f81421012000f042ff06f110033e
:1042e00000222946204600f0bdff2046f8bd00bf51
:0c42f000545000002549000000800041ef
:020000040000fa
:1042fc00f8b5074614460e4621b91146bde8f840fc
:10430c00fff72cb822b9fff785fa25462846f8bde9
:10431c0001f023f884420fd921463846fff71ef8e6
:10432c0005460028f2d03146224600f0a0ff314667
:0c433c003846fff76ffae9e73546e7e77f
:020000040000fa
:10434800f8b50e46096e14468a0407460bd4e518dc
:10435800ac420dd0324614f8011b384600f088fbf9
:104368000130f5d10ee023f00303e518ac4201d18a
:104378000020f8bd324654f8041b384600f082fe8f
:0a4388000130f3d14ff0ff30f8bd13
:020000040000fa
:104392000eb470b583b0044600f0feff28b9204683
:1043a20003b0bde8704003b07047064608ab019306
:1043b20023681d68a3681d44204600f0edff019ba1
:1043c200079a0146284600f052fea368864294bf2f
:0843d20098191818a060e2e739
:020000040000fa
:0243da00fee7fc
:020000040000fa
:1043dc000246c8b10e4b1b7dc3b90d4b186059601a
:1043ec0000219960012119750a4b1b7e13f0010ff6
:1043fc0006d007498b68581c8860d25c054b9a62c2
:10440c000120044b987570470020704700207047be
:08441c00cc000020002001414a
:020000040000fa
:1044240070b50d4e0d4ca41ba4100025a54209d156
:104434000b4e0c4cfbf714ffa41ba4100025a54243
:1044440005d170bd56f8253098470135eee756f88a
:10445400253098470135f2e7700200007002000031
:08446400700200007402000068
:020000040000fa
:10446c00002310b5044603604360836081810366ba
:10447c00c28103614361836119460822583000f000
:10448c00d7ff054b6362054ba362054be362054bfb
:10449c002462236310bd00bf634e0000e947000097
:0844ac00694d0000ad55000050
:020000040000fa
:1044b40070b50e46b1f90e10002990b014461d4691
:1044c40007da00232b60b3891a0610d44ff48063f3
:1044d4000ee001aa00f06afc0028f2db029a02f462
:1044e4007042a2f500535a425a412a60eee7402333
:0844f4000020236010b070bd30
:020000040000fa
:1044fc00494e4600696e66004e414e006e616e007c
:10450c003000303132333435363738394142434458
:10451c0045460030313233343536373839616263d1
:10452c0064656600232d302b2000686c4c0065669a
:05453c00674546470041
:020000040000fa
:1045420038b504460d46037873b1002000f05bfed7
:104552000023237040f2ef1001f00bf801462846c9
:1045620000f03dfb002038bd012000f04cfe01238d
:104572002370052000f0fdff0146284600f02ffbc6
:02458200f0e760
:020000040000fa
:1045840010b5054c227832b9044b13b10448aff38b
:1045940000800123237010bdec0700200000000000
:1045a4000000000008b5034b1bb103490348aff3f7
:1045b400008008bd00000000f0070020000000009b
:020000040000fa
:1045c400b0b138b505460c4600f026fd0a4b93f809
:1045d4002c307bb9084b9d61dc6100221a620120fa
:1045e40083f82c00054b80229a7504229a7538bdf5
:1045f40000207047002038bdcc000020002001417d
:020000040000fa
:1046040038b505460c4600f0c3ff206000f0e1ff1a
:10461400606000f0c1ffa06000f0b6ffe06000f051
:10462400afff206100232375034b2246034928462c
:1046340000f016fe284638bd8c240000b92a00007c
:020000040000fa
:10464400020c12040346b2b90304102013f07f4f86
:1046540004bf1b02083013f0704f04bf1b01043069
:1046640013f0404f04bf9b000230002b06db5b00bd
:0e46740003d5013070470020e8e72020704792
:020000040000fa
:02468200fee751
:020000040000fa
:104684000d4b4ff00042c3f89020012283f8d8204c
:1046940083f8d920072283f8df20332283f8bc2053
:1046a4004ff41012c3f800214ff48022c3f81021f4
:0c46b400022283f855217047008000416d
:020000040000fa
:1046c00001220d4b1a801a46136913f0010ffbd11a
:1046d000094b4ff401421a8000221a621a461369ec
:1046e00013f0200ffbd10022034b5a621a461369c4
:0c46f00013f0400ffbd170470024004085
:020000040000fa
:1046fc0010b50446084b186000f042ff074b1860d9
:10470c000021074800f0e8fb064b00220649204632
:10471c0000f0a2fd204610bd74080020780800208f
:0c472c0079510000cc530000c55400007f
:020000040000fa
:104738002de9f8438046894600f14804002614b95b
:104748003046bde8f883a5686768013f01d524684d
:10475800f5e7ab89012b07d9b5f90e30013303d042
:0c47680029464046c84706436435eee78a
:020000040000fa
:1047740070b50d46a9b114460ab1022801d92046e4
:1047840070bd094b2bb108461146aff3008020469b
:1047940070bd164615f8010b00f04cfc013ef9d132
:0c47a400ede70c46204670bd0000000050
:020000040000fa
:1047b00070b504460d4600f0e1fe06462368294622
:1047c000606898470546e3680133e36000f0d6fe71
:1047d000314600f0c7fe23690344236163699842b0
:0847e000c8bf6061284670bdee
:020000040000fa
:1047e8002de9f0411f468b89db0505460c46164628
:1047f80005d502230022b1f90e1000f0e7faa389cb
:10480800b4f90e1023f48053a38132463b46284660
:08481800bde8f04100f0b6ba62
:020000040000fa
:1048200010b5044601604260c360064b0361064850
:104830006061064b0022064900f014fd204600f09e
:1048400027fd10bd7d5500000808002044550000dc
:0448500097280000a5
:020000040000fa
:1048540070b504460e4600f09efd88b1054630460c
:1048640000f0e2fd854228bf054623681868a36866
:104874002a463146184400f0fefca3681d44a56096
:04488400204670bd9d
:020000040000fa
:1048880038b505460c46206000f07cfe6060064b9b
:1048980022460649284600f0e1fc2146044800f07b
:1048a8009ff8284638bd00bfdc530000eb3e0000ef
:0448b800d1540000d7
:020000040000fa
:1048bc00884210b501eb020303d8421e99420cd179
:1048cc0010bd9842f9d28118d21ad34200d110bd32
:1048dc0013f8014d01f8014df7e711f8014b02f8ff
:0448ec00014febe7a6
:020000040000fa
:1048f00003690a699b1a30b50cd192001430143147
:104900008418114454f8045d51f8042d954203d0e5
:1049100005d30123184630bda042f3d3fae74ff088
:04492000ff33f7e783
:020000040000fa
:1049240010b5084600f086fc044600f0e1fd08b925
:10493400002010bd012000f0f1f93cb1206800f026
:1049440069f8002000f0eaf900bff1e700f0e4fca8
:02495400f7e783
:020000040000fa
:10495600428892b283889bb29a420dd043889bb21a
:10496600826852f823300b6043889bb20133028879
:10497600134043800020704700230b6001207047de
:020000040000fa
:1049860008b500f078fdfff77afefef752fefff756
:10499600befb00f008fdfef705fa00f08afc00f009
:1049a6009cfcfff722f8fff788fefff700fa08bd28
:020000040000fa
:0249b600fee71a
:020000040000fa
:1049b80008b501210848fff701fe084b1b7823b909
:1049c800064a00bf1378002bfbd00022034b1a7055
:1049d800014b187808bd00bfb6080020b7080020b2
:020000040000fa
:1049e80008b540b1074a1060074b19600121074814
:1049f800fff7e4fd08bd0023024a1360024a136072
:104a080008bd00bf9408002098080020b6080020c0
:020000040000fa
:104a180038b5044600f094fb201a074b1b68834204
:104a280000db38bd204600f04dfc044c656a00f000
:104a38007bfb6562f5e700bf84080020001000409a
:020000040000fa
:104a48000fb40a4b13b51c6824b1a36913b92046e7
:104a5800fff778fa05ab049aa16801932046fdf7a1
:104a68003bfb02b0bde8104004b07047a40800202a
:020000040000fa
:104a78009368013b002b10b4936009da9469a34250
:104a880002dbcbb20a2b03d15df8044bfef70abc5c
:104a98001368581c10601970c8b25df8044b704751
:020000040000fa
:104aa80070b5446a06460d463cb9102000f0cafcb1
:104ab8007062446084600460c4603db1736a6a686f
:0e4ac800db6853f82210296043f8225070bdbd
:020000040000fa
:024ad600fee7f9
:020000040000fa
:104ad80030b400eb4004084b03eb84031b7a834299
:104ae80001d030bc7047044b4400251843f825100a
:0c4af80003eb85035a60f4e70000002087
:020000040000fa
:104b040038b505460c4600230b7000f03dfd60608f
:104b1400a560044b22460449284600f0a1fb284620
:0c4b240038bd00bfec53000069400000e9
:020000040000fa
:104b3000084b1b6803fb00f00028b4bfa0f5fa7017
:104b400000f5fa70044b83fb0023c017c0eba310e1
:0c4b5000704700bf90080020d34d621099
:020000040000fa
:104b5c0070b54a1e642555430e4605f17001fef7eb
:104b6c00fdfb044640b1002180e842000c30a060ff
:0c4b7c0005f1640200f05cfc204670bdf6
:020000040000fa
:104b8800074a136843b10749184488429abf10601e
:104b980018464ff0ff307047034b1360f3e700bf30
:0c4ba800b0080020c00a0020c008002057
:020000040000fa
:104bb4004fea410c7fea6c5c02d150ea013c0ad115
:104bc4004fea430c7fea6c5c02d152ea033c02d107
:0c4bd4004ff0000070474ff001007047e8
:020000040000fa
:104be00038b5c3696bb110f1180f0cd004461d46df
:104bf000806900f0b3fc024629462046fff7a6f87c
:0a4c000038bd032038bd032038bd85
:020000040000fa
:104c0a0038b504460d4600f081fa08b1022038bdd5
:104c1a00a3889bb2a26842f82350a3889bb20133af
:084c2a0022881340a38038bd6d
:020000040000fa
:024c32007047c9
:020000040000fa
:104c340008b5074a908980b2064b58604cf2ff31a0
:104c440091811b6813b1034a9168984708bd00bf5e
:084c540000240040c000002014
:020000040000fa
:104c5c0038b504460d46002000f0d0fa00232b7026
:104c6c00034b2a460349204600f0f6fa204638bd8d
:084c7c00dc5400004345000078
:020000040000fa
:044c8400806870478d
:020000040000fa
:104c88000080e03779c34143176e05b5b5b8934640
:104c9800f5f93fe9034f384d321d30f94877825a0c
:084ca8003cbf737fdd4f157561
:020000040000fa
:104cb00070b50d4661b1164642b138b914460120af
:104cc00000f000f9013c05f8010bf8d1304670bd49
:084cd0000e46304670bd00bf26
:020000040000fa
:104cd80008b54ff40042054b5a61054bd3f8b43080
:104ce8001bb1034ad2f8b800984708bd0028004015
:044cf8000000002098
:020000040000fa
:104cfc00074b80221a7607225a831b7e13f0040f6f
:104d0c0005d0034b9a6a1a7e12f0040ffad1704741
:044d1c000020014131
:020000040000fa
:104d200040b9074a136843f002031360d369002bac
:104d3000fcd17047024a136823f0020313607047e6
:044d4000002001410d
:020000040000fa
:104d440008b50122044b1a70044b1b6813b1044ac2
:104d54001068984708bd00bfb708002094080020d9
:044d6400980800208b
:020000040000fa
:104d680010b50c46b1f90e1000f030f8431ca389b9
:104d780015bf606523f4805343f48053a38118bfa3
:044d8800a38110bd36
:020000040000fa
:104d8c0038b5074c054608461146002222601a46e3
:104d9c0000f02efc431c02d1236803b12b6038bdfc
:044dac00fc000020e7
:020000040000fa
:104db00038b5074c0023054608461146236000f02d
:104dc00015fc431c02d1236803b12b6038bd00bf22
:044dd000fc000020c3
:020000040000fa
:104dd40038b5074c054608461146002222601a469b
:104de40000f006fc431c02d1236803b12b6038bddc
:044df400fc0000209f
:020000040000fa
:104df80082b001b901a942b14bb113780b601278a6
:104e0800101c18bf012002b070471046fbe76ff076
:044e18000100f8e7b6
:020000040000fa
:104e1c0038b5074c054608461146002222601a4652
:104e2c0000f0e4fb431c02d1236803b12b6038bdb6
:044e3c00fc00002056
:020000040000fa
:104e400030313233343536373839414243444546c0
:104e50000030313233343536373839616263646556
:024e60006600ea
:020000040000fa
:104e620010b50c46b1f90e10fff7d7ff0028abbf03
:104e7200636da3891b1823f48053acbf6365a381c0
:024e820010bd61
:020000040000fa
:104e840013460ab903207047013a1a4201d003209d
:104e940070470280816000234380838018467047f6
:020000040000fa
:104ea4004368c91802d28368994203d3002313705c
:104eb4000120704703681b685b5c13700020704717
:020000040000fa
:104ec40030b583b002ac002344f8043d01252946e3
:104ed4002046fff775fb0028f9d0019803b030bdd8
:020000040000fa
:104ee40020b1054a1060054b196070470023024a3f
:104ef4001360024a136070477c0800208008002079
:020000040000fa
:104f040020b1054a1060054b196070470023024a1e
:104f14001360024a136070479c080020a008002018
:020000040000fa
:104f2400000000000000000000000000000000007d
:104f3400000000000000000000000000000000006d
:020000040000fa
:104f4400000000000000000000000000000000005d
:104f5400000000000000000000000000000000004d
:020000040000fa
:104f6400000000000000000000000000000000003d
:104f7400000000000000000000000000000000002d
:020000040000fa
:104f840038b5064c0023054608462360fff7fafdb2
:104f9400431c02d1236803b12b6038bdfc00002000
:020000040000fa
:104fa40038b5064c002305460846236000f01afb7a
:104fb400431c02d1236803b12b6038bdfc000020e0
:020000040000fa
:104fc40038b5064c002305460846236000f00efb66
:104fd400431c02d1236803b12b6038bdfc000020c0
:020000040000fa
:104fe40008b5c36933b110f1180f05d0194600f0a4
:0c4ff4002cf908bd032008bd032008bdf7
:020000040000fa
:10500000054a13889bb243f002031380136913f01f
:0c501000020ffbd1704700bf00240040dd
:020000040000fa
:10501c0010b5054b588b10f0070401d1204610bd7c
:0c502c00fff766fefae700bf002001411c
:020000040000fa
:1050380030b583b002ac04f8010d0125294620469d
:0c504800fff7c8f90028f9d003b030bd14
:020000040000fa
:10505400536c656570696e672049646c6500000077
:0c506400536c6565702f49646c6500009a
:020000040000fa
:1050700007b5009313460a46014603480068fef749
:0c508000c4ff03b05df804fba40800208e
:020000040000fa
:10508c00b2f90c3013f4005f06d143f40053938152
:0c509c00136e43f400531366fef7e8bceb
:020000040000fa
:1050a800044b1b68186a044b002808bf1846f030e8
:0c50b800704700bfa40800200005002085
:020000040000fa
:1050c400044b054a1b681b6a002b08bf134693f860
:0c50d40028017047a408002000050020ff
:020000040000fa
:1050e00038b502fb01f42146fef73ef9054618b13a
:0c50f0002246002100f0a2f9284638bd3d
:020000040000fa
:1050fc0049b1ff2a85bf8a2303600a704ff0ff3045
:0a510c0098bf012070470846704765
:020000040000fa
:1051160083889bb2428892b201330088184090423d
:0851260014bf002001207047b6
:020000040000fa
:02512e007047c8
:020000040000fa
:105130000422044b5a701a469379002bfcd030bfde
:08514000704700bf00040040ad
:020000040000fa
:10514800044a136913f0080ffbd1024b9869043025
:08515800704700bf0024004075
:020000040000fa
:10516000044a936943ea80009061d36813f4807f16
:08517000fbd07047001800405d
:020000040000fa
:1051780008b5034b1968034b186800f0d5f808bd4b
:085188007408002078080020e3
:020000040000fa
:1051900008b500f0aff80249024800f058f808bd21
:0851a0006c060020cc07002082
:020000040000fa
:1051a80008b500f0adf80249024800f04cf808bd17
:0851b8009c060020cc0700203a
:020000040000fa
:1051c00008b5034b1b6813b1024a1068984708bd25
:0851d0007c080020800800208b
:020000040000fa
:1051d80008b5034b1b6813b1024a1068984708bd0d
:0851e8009c080020a008002033
:020000040000fa
:1051f00008b5034b1b6813b1024a1068984708bdf5
:08520000880800208c08002042
:020000040000fa
:1052080008b580f0010292044ff48021014800f0b3
:0852180037f908bd00810041d7
:020000040000fa
:1052200000b583b002ab03f8010d01211846fff76a
:08523000d5f803b05df804fba2
:020000040000fa
:10523800836833b103f10053013b006800ebc300fe
:06524800704700207047d2
:020000040000fa
:10524e0038b504460d46fef740fa0246294620467a
:06525e00fef775fd38bdee
:020000040000fa
:1052640010b40160426083600023c3600361436142
:065274005df8044b7047d9
:020000040000fa
:10527a0010b5431e0a44914200d110bd11f8014bea
:06528a0003f8014ff7e7f5
:020000040000fa
:1052900038b5044600258560c06800f049f9e5612d
:0452a000204638bdaf
:020000040000fa
:1052a40010b50446002343600068fdf735ffa06095
:0452b400204610bdc3
:020000040000fa
:1052b800034b30221a7200225a729a72704700bf4a
:0452c800000400409e
:020000040000fa
:1052cc00034b18621a46136913f0200ffbd1704779
:0452dc00002400406a
:020000040000fa
:1052e000034b0022da619a6902f006029a61704764
:0452f0000018004062
:020000040000fa
:1052f40008b502490248fef7e1fe08bd6c0600202d
:04530400cc070020b2
:020000040000fa
:1053080008b502490248fef7d7fe08bd9c060020f2
:04531800cc0700209e
:020000040000fa
:10531c0038b5034c656afff705ff656238bd00bf01
:04532c00001000402d
:020000040000fa
:1053300008b5c068fff769fc02280cbf02200020f6
:0253400008bda6
:020000040000fa
:1053420008b50020fff71efbfdf7a3fd00f055f89e
:02535200fce776
:020000040000fa
:1053540010b50c460121fef75ffd01224461026194
:0253640010bd7a
:020000040000fa
:1053660051f8040c0028a0f10400bcbf0b58c0186b
:0253760070477e
:020000040000fa
:10537800232d302b2000686c4c0065666745464736
:1053880000232d302b2000686c4c0065666745466d
:025398004700cc
:020000040000fa
:10539a0010b504460068fdf7bcfea368c01a10bd2c
:020000040000fa
:1053ac004ff48022014bc3f8182170470080004154
:020000040000fa
:1053bc00012303fa00f0014b1861704700280040ec
:020000040000fa
:1053cc00427574746f6e205075736865640000bf0d
:1053dc004b6579626f617264205461736b0000bf1e
:1053ec0053637265656e205265647261770000bf0d
:020000040000fa
:1053fc0008b50248fef76ffc08bd00bfcc070020c3
:020000040000fa
:10540c0008b5024b1870fff7c9fe08bdb50800209f
:020000040000fa
:10541c00024b01461868fdf715be00bfa40800201a
:020000040000fa
:10542c00034613f8012b002afbd1181a01387047d8
:020000040000fa
:10543c0002440346934200d1704703f8011bf9e77d
:020000040000fa
:10544c00024b01461868fdf789bf00bfa408002075
:020000040000fa
:0f545c00496e66696e697479004e614e003000ca
:020000040000fa
:0e546c0008b50b460146184600f0a8f808bd2a
:020000040000fa
:0c547c000422014b1a80704700400041e0
:020000040000fa
:0c54880003695a400a405a400261704714
:020000040000fa
:0c54940080b2014b58817047002400409a
:020000040000fa
:0c54a000014b186099607047c0000020ac
:020000040000fa
:0c54ac00014bd86019617047cc00002053
:020000040000fa
:0c54b800014b586299627047cc00002044
:020000040000fa
:0c54c40008b50020fff7a0ff002008bd85
:020000040000fa
:0c54d00008b501684068fff72bff08bd1d
:020000040000fa
