:020000040000fa
:10000000f0ff032029360000ef340000cb3700005a
:10001000773b0000af3c0000c33d00000000000043
:100020000000000000000000000000006f3200002f
:10003000333a0000000000006f3200006f32000011
:100040006f3200006f3200006f3200006f3200002c
:100050006f3200006f3200006f3200006f3200001c
:100060006f3200006f3200006f3200001d47000049
:100070006f3200006f3200006f3200006f320000fc
:100080006f3200006f3200006f3200006f320000ec
:100090006f3200006f3200006f3200006f320000dc
:1000a0006f3200006f3200006f320000994700008d
:1000b0006f3200006f3200006f3200006f320000bc
:1000c0006f3200006f3200006f3200006f320000ac
:1000d0006f3200006f3200006f3200006f3200009c
:1000e0006f3200006f3200000000000000000000ce
:1000f000000000006f3200006f3200006f3200001d
:100100006f3200006f3200006f3200006f3200006b
:100110006f3200006f320000752b0000752b00005d
:10012000752b0000752b00006f3200006f3200004d
:100130006f3200006f3200006f3200006f3200003b
:100140006f3200006f3200006f3200006f3200002b
:100150006f3200006f3200006f3200006f3200001b
:100160006f3200006f3200006f3200006f3200000b
:100170006f3200006f3200006f3200006f320000fb
:100180006f3200006f3200006f3200006f320000eb
:100190006f3200006f3200006f3200006f320000db
:1001a0006f3200006f3200006f3200006f320000cb
:1001b0006f3200006f3200006f3200006f320000bb
:1001c0006f3200006f3200006f3200006f320000ab
:1001d0006f3200006f3200006f3200006f3200009b
:1001e0006f3200006f3200006f3200006f3200008b
:1001f0006f3200006f3200006f3200006f3200007b
:100200006f3200006f3200006f3200006f3200006a
:100210006f3200006f3200006f3200006f3200005a
:100220006f3200006f3200006f3200006f3200004a
:100230006f3200006f3200006f3200006f3200003a
:100240006f3200006f3200006f3200006f3200002a
:100250006f3200006f3200006f3200006f3200001a
:040260006f320000f9
:020000040000fa
:10026400f8b500bff8bc08bc9e467047c541000005
:10027400f8b500bff8bc08bc9e467047a141000019
:020000040000fa
:04028400416170471d
:020000040000fa
:100288002de9f04f57ec106b97b0cde90067466a3f
:10029800079104460a920f93209d3eb9102004f05e
:1002a8009ffd6062466086600660c660636a196882
:1002b80051b15a684a60012393408b60204604f08c
:1002c80079f9636a00221a60019b002bbfbf0123e2
:1002d8002b60019b23f00043b2bf019300232b60e6
:1002e800ddf80480a84b33ea08031bd10f9a42f2c9
:1002f8000f731360009b23b9c8f31300002800f0a4
:100308007885219b53b9a14b21e0a14b0293083377
:10031800219a1360029817b0bde8f08f9b4b0293a7
:100328000333f5e7dde9006700220023304639464c
:1003380002f0f2fa814660b10f9a01231360219b03
:10034800002b00f05385934b219a1360013b0293d5
:10035800e0e714aa15a947ec106b204603f074f8df
:10036800c8f30a558246002d7ed0c7f3130343f025
:100378007f51304641f44011a5f2ff35cdf8489041
:100388000022854b01f0f4f979a3d3e9002300f0aa
:10039800d9ff79a3d3e9002301f0ecf906462846f2
:1003a8000f4601f033fb76a3d3e9002300f0caff20
:1003b80002460b463046394601f0dcf906460f4640
:1003c80003f0a0fd0022834600233046394602f0a0
:1003d800adfa58b1584601f019fb02460b463046b3
:1003e800394602f099fa08b90bf1ff3bbbf1160f39
:1003f80059d86a4901ebcb01dde90023d1e90001b5
:1004080002f0b2fa002850d00bf1ff3b00230e9304
:10041800149b5d1b6b1e069345bfc5f10103059335
:10042800002300234cbf06930593bbf1000f3edb6e
:10043800069bcdf82cb05b44069300230893079bda
:10044800092b00f2af80052bc4bf043b0793079b21
:10045800a3f10203ccbf00260126032b00f2ae80d5
:10046800dfe803f082842f77159b149d1d4405f265
:100478003243202b11dd009a05f21240c3f14003ec
:1004880022fa00f008fa03f3184301f0affa012347
:10049800a1f1f871013d129372e7c3f12000009bae
:1004a80003fa00f0f1e70123b1e70e90b0e7059bee
:1004b800a3eb0b030593cbf10003089300230b93e5
:1004c800bde7012309930a9b002b7add049303936c
:1004d800656a00226a60042101f114029a4275d902
:1004e8006968204603f078fb636a28601b680293fa
:1004f800039b0e2b00f2e580002e00f0e2809dedbc
:10050800007bbbf1000f8ded0c7b74dd234a0bf0f3
:100518000f034fea2b1602ebc303f006d3e9008959
:1005280059d51f4b51ec170bd3e9082301f034f8c8
:10053800cde9000106f00f060325194f002e4cd116
:1005480042464b46dde9000101f026f8cde90001fd
:100558006ae0012309930a9b5b4404930133012b4e
:100568000393b8bf0123b3e70023abe70023f1e708
:1005780061436f63a787d23fb3c8608b288ac63fa1
:10058800fb799f501344d33f0000f07f014e0000d9
:10059800f84d0000064e00000000f83fd02e000085
:1005a8004847000001260023079309964ff0ff33c0
:1005b80004930393002212230a9289e701230993e3
:1005c800f4e70123049303931a46f5e76a680132b6
:1005d8006a60490080e70225afe7f10708d5404681
:1005e8004946d7e9002300f0adfe0135804689462b
:1005f80076100837a2e700f09d80cbf100069f4bec
:100608009f4f06f00f0203ebc203d3e90023dde995
:100618000c0100f097fecde90001361100230225f8
:10062800002e7cd1002b91d10e9b002b00f08480f2
:10063800dde900890022934b4046494602f076f9ed
:10064800002879d0039b002b76d0049b002b34dd47
:1006580000228d4b4046494600f074fecde900016a
:10066800049e0bf1ff370135284601f0cff9dde98b
:10067800002300f067fe0022844b01f07bf88046df
:10068800a1f15079002e5ad10022814bdde90001f9
:1006980001f06ef842464b46cde9000102f064f9dc
:1006a800002840f09b82424609f10043dde9000141
:1006b80002f03cf9002840f08f82dde90c23cde9f7
:1006c8000023159b002bc0f25081bbf10e0f00f3e5
:1006d8004c816a4b03ebcb03d3e900890a9b002bbf
:1006e80080f2da80039b002b00f3d68040f07382ff
:1006f8000022674b4046494600f024fedde900230e
:1007080002f028f9039e3746002840f04a82029bef
:10071800029a5d1c312313700bf1010b45e2f207bd
:1007280005d5d7e9002300f00dfe01350123761029
:10073800083775e7022577e75f46039e94e7029a34
:100748004e4b32441392099a711e002a48d003eb8b
:10075800c103d3e9002300204e4900f01dff4246a3
:100768004b4601f005f8029d80468946dde9000107
:1007780003f0c8fb064601f049f902460b46dde9dd
:10078800000100f0f5ff303605f8016b42464b4694
:10079800cde9000102f0caf8002865d1dde900239f
:1007a8000020384900f0e4ff42464b4602f0bef80c
:1007b800002840f0ba80139b9d423ff47eaf002290
:1007c800314b4046494600f0bdfd0022804689462f
:1007d8002d4bdde9000100f0b5fdcde90001c5e7cd
:1007e80003ebc10142464b46d1e9000100f0aafde6
:1007f800cde91001029ddde9000103f083fb064607
:1008080001f004f9303602460b46dde9000100f03c
:10081800afff05f8016b139bab42804689464ff04a
:10082800000225d11b4bdde9100100f0a3ff0246b1
:100838000b464046494602f097f8002875d1dde995
:1008480010230020134900f093ff02460b46404650
:10085800494602f06bf800283ff42faf15f8013c29
:10086800302b05f1ff3201d0bb464de01546f5e7c8
:10087800054b00f067fdcde90001bce7d02e000074
:10088800484700000000f03f0000244000001c40e2
:10089800000014400000e03fdde90067029d424689
:1008a8004b463046394600f077fe03f02bfb0090ac
:1008b80001f0acf842464b4600f044fd02460b46b8
:1008c8003046394600f054ff009e039f303605f845
:1008d800016b029eae1bb74202460b4638d100f0b0
:1008e80049ff06460f4602460b464046494602f077
:1008f8001df8c8b932463b464046494602f00cf856
:1009080010b1009bdb070fd45146204603f052fe7e
:1009180000230f9a2b700bf101031360219b002b0e
:100928003ff4f8ac1d60f5e45f4615f8012c392a50
:1009380005f1ff3306d1029a9a4207d1302313708a
:10094800013713461a7801321a708de71d46ece715
:100958000022a44b00f0f6fc0022002306460f46b6
:1009680001f0daff00289ad0cee7099a002a00f0b1
:10097800cd80079a012a00f3af80129a002a00f06e
:10098800a78003f23343089e059d059a1a440592f1
:10099800069a01211a442046069204f0cff9074628
:1009a800002d0cdd069b002b09ddab42059aa8bf84
:1009b8002b46d21a0592069aed1ad31a0693089b6b
:1009c800f3b1099b002b00f0a580002e10dd3946fd
:1009d8003246204602f0d6fd5246014607462046da
:1009e80001f0a2fd51468046204603f0e3fdc246d1
:1009f800089b9a1b04d05146204602f0c3fd82464c
:100a08000121204604f09af90b9b002b064640f37f
:100a180083801a460146204602f0b4fd079b012b4d
:100a280006467cdd4ff00008336906eb830318693e
:100a380003f0f2fbc0f12000069b184410f01f00e1
:100a480000f09680c0f12003042b40f38780059bbb
:100a5800c0f11c0003440593069b05440344069318
:100a6800059b002b05dd51461a46204602f0aafbdd
:100a78008246069b002b05dd31461a46204602f0c9
:100a8800a1fb06460e9b002b74d03146504603f05e
:100a980017fd00286eda002351460a22204602f08c
:100aa80089ff099b0bf1ff3b8246002b00f0a881d0
:100ab800002339460a22204602f07cff049b002bc3
:100ac800074600f3c880079b022b40f3c48059e017
:100ad800149bc3f1360356e7039b5e1e089bb34283
:100ae800bfbf089b0896f21a0b9bb6bf9b189e1bac
:100af8000b93039bb8bf0026002bb9bf059b039a35
:100b0800059d039bbcbf9d1a00233ee7089e059ddb
:100b1800099f45e7089a6ee7079b012b19dc009ba4
:100b2800bbb9019bc3f313039bb9019b23f000439b
:100b38001b0d1b0583b1059b01330593069b0133f0
:100b480006934ff001080b9b002b7ff46daf01203b
:100b580072e74ff00008f6e79846f4e780d0059a68
:100b68001c331a440592069a1a441d44134676e724
:100b78000346f4e7039b002b36dc079b022b33dd8f
:100b8800039b0493049b63b931460522204602f077
:100b980011ff01460646504603f092fc00283ff735
:100ba800b6ad0a9b029d6fea030b002303933146ff
:100bb800204603f0fffc002f3ff4a6ae039b2bb1a9
:100bc800bb4203d01946204603f0f4fc39462046c0
:100bd80003f0f0fc98e600263746e2e7bb463746c6
:100be80095e500bf00002440099b93bb039b049339
:100bf800029d3146504601f024fd00f1300905f808
:100c0800019b029b049aeb1a9a4200f3dc80029b38
:100c1800012aacbf9b180133984600230393514621
:100c28000122204602f0cefa3146824603f048fc03
:100c3800002800f38d8003d119f0010f40f088805f
:100c4800454615f8013c302b05f1ff32afd115466a
:100c5800f7e7039b0493002d05dd39462a46204615
:100c680002f0b0fa0746b8f1000f4cd07968204678
:100c780002f0b2ff3a6902320546920007f10c0110
:100c88000c3004f002f801222946204602f09afab4
:100c9800009bddf80880039703f0010307460593de
:100ca8003146504601f0cdfc0399054600f1300964
:100cb800504603f005fc3a4600903146204602f0c3
:100cc80023fac368024603bb01460690504603f068
:100cd800f7fb069a034611462046069303f06afc82
:100ce800069ba3b9079a92b9059a82b9b9f1390f47
:100cf80029d0009b002b01dd05f1310908f1010520
:100d080088f8009053e73846c2e70123e3e7009ae2
:100d1800002a04db25d1079a1abb059a0abb002bc7
:100d2800ecdd51460122204602f04cfa314682465b
:100d380003f0c6fb002803dce0d119f0010fddd079
:100d4800b9f1390fd8d1392388f8003008f10108f2
:100d5800454615f8013c392b05f1ff323bd00133ec
:100d680040e0002b08f1010505ddb9f1390fead0a3
:100d780009f10109c4e7029b049a05f8019ceb1ae2
:100d88009342a8463ff44baf514600230a2220461f
:100d980002f010fe039b0399bb4282464ff000030a
:100da8004ff00a02204604d102f004fe03900746e1
:100db80076e702f0fffd002303900a223946204619
:100dc80002f0f8fdf3e7514600230a22204602f01c
:100dd800f1fd82460de7029b934205d1029a0bf181
:100de800010b31231370e2e61546b2e7094bfff712
:100df800aeba219b002b7ff488aa074bfff7a7ba4e
:100e0800049b002b3ff7f4ae079b022b7ff7f0ae55
:0c0e1800b8e600bf054e0000f84d0000d9
:020000040000fa
:100e24002de9f04f8db00c46ddf8588093461f46ef
:100e3400064603f08bfe03680593184603f0c2ffd1
:100e4400d8f800300690073323f0070303f10802b3
:100e540094f818a02568c8f80020d3e90023c4e951
:100e6400122394ed127b8ded027b039bddf8088049
:100e740023f000494ff0ff329b4b4046494603f0b4
:100e84000bfc002840f04d824ff0ff32964b404659
:100e9400494601f057fd002840f043820022002318
:100ea400dde9020101f044fd10b12d2384f8433043
:100eb4008e4b1a1fbaf1470f98bf134625f004054d
:100ec40004932560032300252361a84600975b460d
:100ed4000aaa2146304601f0d4fd013040f0f880e2
:100ee4004ff0ff300db0bde8f08f6368581c2af056
:100ef40020081dd10623636045f480632360039baf
:100f0400d4f80490002b1ada0399029a01f10043f1
:100f1400cde902232d235ffa88f8b8f1460f079331
:100f24000fd0b8f1450f01d109f10109022109e0ff
:100f3400b8f1470fe0d1002bded10123dbe700231a
:100f4400e9e703210aab019309ab00934a4608abd6
:100f54009ded020b3046fff795f9b8f1470f049069
:100f640002d1e90740f1e881049bb8f1460f03eb95
:100f740009050ed11b78302b09d100220023dde9ad
:100f8400020101f0cbfc10b9c9f101030893089bdd
:100f94001d4400220023dde9020101f0bffc38b941
:100fa40030220a9b9d4204d9591c0a911a70f8e711
:100fb4000a950a9d049bb8f1470fa5eb030509d1d7
:100fc400089bda1c02db626893426fddaaf1020a15
:100fd4005ffa8afabaf1650f089a4cd8531e002baf
:100fe4000893b6bfc2f101032b222d22092b04f171
:100ff400500884f850a004f1520184f8512033dde4
:101004000df12f024ff00a0c93fbfcfe0cfb1e3378
:10101400303302f8013c7346092b02f1ff301cdc2b
:10102400303300f8013c023a0df12f039a4208468e
:1010340015d3a0eb080808eb0503012d236102dc9e
:101044002268d00701d501332361079b002b3ff4ad
:101054003daf2d2384f8433038e70246d4e712f835
:10106400010b01f8010be1e730220846134400f8b4
:10107400022b4b70dde7baf1660f19d1002a6368c1
:101084000cdd226113b92168c90702d50133134469
:101094002361089ba3654ff00008d6e713b92268c3
:1010a400d00701d50233f3e70123f1e74ff0670ad4
:1010b400089bab4205db22682361d107e9d50133e4
:1010c400e6e7002bd4bfc3f1020301232b44dfe77f
:1010d40023685a050cd42369049a59463046b84704
:1010e40001302ed1fce600bfffffef7f1841000066
:1010f400baf1650f40f2ce8000220023d4e9120138
:1011040001f00cfc002839d001238d4a59463046a1
:10111400b84701303ff4e4ae089bab4202db2368de
:10112400d8070ed5069b059a59463046b847013074
:101134003ff4d6ae4ff00008013d04f11a09a8456a
:1011440011db23689d0708d5002504f11908e3681d
:101154000a9a9b1a9d42c0f2da80e0680a9b984280
:10116400b8bf1846bee601234a4659463046b8473a
:1011740001303ff4b5ae08f10108e0e7089b002b0d
:101184002adc01236e4a59463046b84701303ff401
:10119400a7ae089b1bb915b92368d907d1d5069bff
:1011a400059a59463046b84701303ff499ae4ff09e
:1011b400000804f11a09089b5b42984501db2b46a1
:1011c4008ae701234a4659463046b84701303ff47e
:1011d40087ae08f10108eee7a36dab42a8bf2b462a
:1011e400002b984633dc04f11a034ff0000a28ea76
:1011f400e8780293d4f85890a9eb08039a452ddbbc
:10120400089bab4235db2368da0732d4089ba5eb95
:101214000908eb1a9845a8bf9846b8f1000f30dcce
:101224004ff0000928eae87804f11a0a089beb1a3f
:10123400a3eb0803994584da012352465946304604
:10124400b84701303ff44cae09f10109eee7049ac6
:1012540059463046b8470130c5d141e60123029ac8
:1012640059463046b84701303ff43aae0af1010a14
:10127400c0e7069b059a59463046b8470130c5d1a8
:101284002ee6049a43464a4459463046b84701304c
:10129400c6d125e6012d01dcdb0735d50123049aef
:1012a40059463046b84701303ff41aae069b059aba
:1012b40059463046b84701303ff412ae00220023ad
:1012c400d4e9120101f02afb013d48b14ff00009b5
:1012d40004f11a0aa9450cdb434604f15002fce66a
:1012e400049a2b46013259463046b8470130f3d1af
:1012f400f6e50123524659463046b84701303ff4db
:10130400efad09f10109e5e70123049aebe70123b5
:10131400424659463046b84701303ff4e1ad013505
:1013240015e7dde902231046194603f0b5f9002854
:101334003ff4dbad034bbce50a9d049bed1a3fe68d
:081344002441000020410000db
:020000040000fa
:10134c0070b54ff0ff0c4cf4e06c1cea11541dbf4f
:10135c001cea135594ea0c0f95ea0c0f00f0def81a
:10136c002c4481ea030621ea4c5123ea4c5350eaff
:10137c00013518bf52ea033541f4801143f4801350
:10138c0038d0a0fb02ce4ff00005e1fb02e506f0e1
:10139c000042e0fb03e54ff00006e1fb03569cf036
:1013ac00000f18bf4ef0010ea4f1ff04b6f5007f3c
:1013bc0064f5407404d25fea4e0e6d4146eb0606ae
:1013cc0042eac62141ea55514feac52040ea5e5037
:1013dc004feace2eb4f1fd0c88bfbcf5e06f1ed8e1
:1013ec00bef1004f08bf5fea500e50f1000041eb18
:1013fc00045170bd06f0004646ea010140ea0200c5
:10140c0081ea0301b4eb5c04c2bfd4eb0c0541eae6
:10141c00045170bd41f480114ff0000e013c00f3fb
:10142c00ab8014f1360fdebf002001f0004170bd1f
:10143c00c4f10004203c35da0c341bdc04f1140438
:10144c00c4f1200500fa05f320fa04f001fa05f2c4
:10145c0040ea020001f0004221f0004110ebd37091
:10146c0021fa04f642eb06015eea430e08bf20eabd
:10147c00d37070bdc4f10c04c4f1200500fa04f360
:10148c0020fa05f001fa04f240ea020001f00041f2
:10149c0010ebd37041f100015eea430e08bf20ea65
:1014ac00d37070bdc4f1200500fa05f24eea020ead
:1014bc0020fa04f301fa05f243ea020321fa04f0dc
:1014cc0001f0004121fa04f220ea020000ebd37093
:1014dc005eea430e08bf20ead37070bd94f0000f93
:1014ec000fd101f00046400041eb010111f4801fc7
:1014fc0008bf013cf7d041ea060195f0000f18bf78
:10150c00704703f00046520043eb030313f4801fb3
:10151c0008bf013df7d043ea0603704794ea0c0f6d
:10152c000cea135518bf95ea0c0f0cd050ea410683
:10153c0018bf52ea4306d1d181ea030101f0004100
:10154c004ff0000070bd50ea410606bf1046194628
:10155c0052ea430619d094ea0c0f02d150ea013634
:10156c0013d195ea0c0f05d152ea03361cbf104675
:10157c0019460ad181ea030101f0004141f0fe4114
:10158c0041f470014ff0000070bd41f0fe4141f498
:10159c00780170bd70b54ff0ff0c4cf4e06c1cea98
:1015ac0011541dbf1cea135594ea0c0f95ea0c0f4d
:1015bc0000f0a7f8a4eb050481ea030e52ea033508
:1015cc004fea013100f088804fea03334ff0805529
:1015dc0045ea131343ea12634fea022245ea111556
:1015ec0045ea10654fea00260ef000419d4208bf07
:1015fc00964244f1fd0404f5407402d25b084feab4
:10160c003202b61a65eb03055b084fea32024ff45f
:10161c0080104ff4002cb6eb020e75eb030e22bfbc
:10162c00b61a754640ea0c005b084fea3202b6eb7c
:10163c00020e75eb030e22bfb61a754640ea5c002b
:10164c005b084fea3202b6eb020e75eb030e22bfbb
:10165c00b61a754640ea9c005b084fea3202b6ebbc
:10166c00020e75eb030e22bfb61a754640eadc007b
:10167c0055ea060e18d04fea051545ea16754feadd
:10168c0006164feac30343ea52734feac2025feafb
:10169c001c1cc0d111f4801f0bd141ea00014ff08a
:1016ac0000004ff0004cb6e711f4801f04bf01435b
:1016bc000020b4f1fd0c88bfbcf5e06f3ff6afae77
:1016cc00b5eb030c04bfb6eb020c5fea500c50f107
:1016dc00000041eb045170bd0ef0004e4eea11318a
:1016ec0014eb5c04c2bfd4eb0c0541ea045170bd91
:1016fc0041f480114ff0000e013c90e645ea060ed5
:10170c008de60cea135594ea0c0f08bf95ea0c0f02
:10171c003ff43baf94ea0c0f0ad150ea01347ff44a
:10172c0034af95ea0c0f7ff425af104619462ce721
:10173c0095ea0c0f06d152ea03353ff4fdae104684
:10174c00194622e750ea410618bf52ea43067ff4d5
:10175c00c5ae50ea41047ff40daf52ea43057ff465
:10176c00ebae12e781f0004102e000bf83f00043d2
:10177c0030b54fea41044fea430594ea050f08bf20
:10178c0090ea020f1fbf54ea000c55ea020c7feae4
:10179c00645c7fea655c00f0e2804fea5454d4eb61
:1017ac005555b8bf6d420cdd2c4480ea020281ea2b
:1017bc00030382ea000083ea010180ea020281ea63
:1017cc000303362d88bf30bd11f0004f4fea0131b5
:1017dc004ff4801c4cea113102d0404261eb4101c4
:1017ec0013f0004f4fea03334cea133302d052424a
:1017fc0063eb430394ea050f00f0a780a4f1010406
:10180c00d5f1200e0ddb02fa0efc22fa05f280183f
:10181c0041f1000103fa0ef2801843fa05f3594125
:10182c000ee0a5f120050ef1200e012a03fa0efca4
:10183c0028bf4cf0020c43fa05f3c01851ebe371ce
:10184c0001f0004507d54ff0000edcf1000c7eebeb
:10185c0000006eeb0101b1f5801f1bd3b1f5001f29
:10186c000cd349085fea30004fea3c0c04f1010448
:10187c004fea445212f5800f80f09a80bcf1004f71
:10188c0008bf5fea500c50f1000041eb045141eaf3
:10189c00050130bd5fea4c0c404141eb010111f4f4
:1018ac00801fa4f10104e9d191f0000f04bf01469f
:1018bc000020b1fa81f308bf2033a3f10b03b3f17d
:1018cc0020020cda0c3208dd02f1140cc2f10c020d
:1018dc0001fa0cf021fa02f10ce002f11402d8bf6b
:1018ec00c2f1200c01fa02f120fa0cfcdcbf41ea37
:1018fc000c019040e41aa2bf01eb0451294330bd06
:10190c006fea04041f3c1cda0c340edc04f11404e2
:10191c00c4f1200220fa04f001fa02f340ea0300b9
:10192c0021fa04f345ea030130bdc4f10c04c4f1ff
:10193c00200220fa02f001fa04f340ea03002946df
:10194c0030bd21fa04f0294630bd94f0000f83f429
:10195c00801306bf81f480110134013d4ee77fea0c
:10196c00645c18bf7fea655c29d094ea050f08bf58
:10197c0090ea020f05d054ea000c04bf1946104639
:10198c0030bd91ea030f1ebf0021002030bd5fea7d
:10199c00545c05d14000494128bf41f0004130bda5
:1019ac0014f580043cbf01f5801130bd01f00045f9
:1019bc0045f0fe4141f470014ff0000030bd7fea6c
:1019cc00645c1abf194610467fea655c1cbf0b4667
:1019dc00024650ea013406bf52ea033591ea030f7e
:1019ec0041f4002130bd00bf90f0000f04bf002176
:1019fc00704730b54ff4806404f132044ff00005a9
:101a0c004ff0000150e700bf90f0000f04bf002121
:101a1c00704730b54ff4806404f1320410f0004587
:101a2c0048bf40424ff000013ee700bf42004fea82
:101a3c00e2014fea31014fea02701fbf12f07f43ff
:101a4c0093f07f4f81f06051704792f0000f14bffc
:101a5c0093f07f4f704730b54ff4607401f0004540
:101a6c0021f0004120e700bf50ea010208bf704797
:101a7c0030b54ff000050ae050ea010208bf70478c
:101a8c0030b511f0004502d5404261eb41014ff4f5
:101a9c00806404f132045fea915c3ff4dcae4ff0f9
:101aac0003025feadc0c18bf03325feadc0c18bfe0
:101abc00033202ebdc02c2f1200300fa03fc20fa31
:101acc0002f001fa03fe40ea0e0021fa02f114447e
:041adc00c1e600bfa0
:020000040000fa
:101ae000ec0300201c00000000000000080400209f
:101af000180000000000000000000020c0000000ee
:101b000000000000c00000200c00000000000000e9
:101b1000cc00002030000000000000005004002035
:101b2000040000000000000048040020080000003d
:101b3000000000005c0300205000000000000000d6
:101b400069040020010000000000000030040020b3
:101b50000c00000000000000ac030020200000008a
:101b6000000000003c0400200c0000000000000009
:101b7000680400200100000000000000cc030020e9
:101b800020000000000000002004002010000000e1
:101b900000000000540400200400000000000000c9
:101ba0006c0200209000000000000000580400209b
:101bb0000400000001000000fc020020fc020020e4
:101bc000600000000100000000000000084a000062
:101bd000284a0000e8490000000000000000000062
:101be00000000000000000000000000000000000f5
:101bf00000000000000000000000000000000000e5
:101c000000000000000000000000000000000000d4
:101c100000000000000000000000000000000000c4
:101c200000000000000000005c0400200400000030
:101c3000000000006004002004000000000000001c
:101c4000000100206c0100000100000043000000c2
:101c50000000000000000000000000000000000084
:101c60000000000000000000000000004300000031
:101c70000000000000000000000000000000000064
:101c80000000000000000000000000004300000011
:101c90000000000000000000000000000000000044
:101ca00000000000000000000000000043000000f1
:101cb0000000000000000000000000000000000024
:101cc00000000000000000000000000043000000d1
:101cd0000000000000000000000000000000000004
:101ce00000000000000000000000000043000000b1
:101cf00000000000000000000000000000000000e4
:101d00000000000000000000000000004300000090
:101d100000000000000000000000000000000000c3
:101d2000000000000000000000000000a54b0000c3
:101d3000dd4800000000000084290000bd4e0000c6
:101d4000bc4e0000bc4e0000bc4e0000bc4e00006b
:101d5000bc4e0000bc4e0000bc4e0000bc4e00005b
:101d6000bc4e0000ffffffffffffffffffffffff75
:101d7000ffff0000010041534349490000000000fb
:101d80000000000000000000000000000000000053
:101d900000000000000041534349490000000000da
:101da0000000000000000000000000000000000033
:101db0000000000000000000fc0000200400000003
:101dc0000000000064040020040000000000000087
:101dd00000000000000000002222222222222222f3
:020000040000fa
:101de0002de9f04317460a7e85b06e2a98460646ce
:101df0000c460c9b01f1430e00f0bc801ad8632afc
:101e00002ed00ad8002a00f0c880582a00f08a8014
:101e100004f1420584f842202ae0642a01d0692aac
:101e2000f6d121681a6811f0800f23d0111d1960b6
:101e3000136827e0732a00f0b48008d86f2a2ad0ec
:101e4000702ae5d10a6842f020020a6003e0752a90
:101e500021d0782adcd1782284f845206e4964e0cc
:101e60001a6801f14205111d1960136884f84230a7
:101e70000123a3e011f0400f02f104011960d7d053
:101e8000b2f90030002b03da2d225b4284f84320a4
:101e900062490a2217e02068196810f0800f03d009
:101ea000081d18600b6806e010f0400f01f10400f7
:101eb0001860f7d00b8859496f2a14bf0a220822ec
:101ec000002084f843006568a560002dc0f29c8066
:101ed000206820f004002060002b3fd1002d40f04e
:101ee00095807546082a0bd12368da0708d523693f
:101ef00062689a42debf302305f8013c05f1ff35e8
:101f0000aeeb05032361cdf800803b4603aa2146d2
:101f1000304600f0b8fd013055d14ff0ff3005b02c
:101f2000bde8f08381f845203c492268186812f02a
:101f3000800f00f104051d6001d0036802e0550622
:101f4000fbd50388d00744bf42f0200222601bb9b2
:101f5000226822f0200222601022b1e77546b3fb0e
:101f6000f2f002fb1033cb5c05f8013d034600287c
:101f7000f5d1b7e708681a68496910f0800f04d0f6
:101f8000101d18601368196007e010f0400f02f18f
:101f9000040018601368f6d0198000232361754689
:101fa000b1e71a68111d196015686268002128469a
:101fb00001f0fef908b1401b6060636823610023f3
:101fc00084f843309fe723692a4639463046c047a4
:101fd0000130a2d023689b0707d5002504f1190919
:101fe000e368039a9b1a9d4205dbe068039b9842d5
:101ff000b8bf184693e701234a4639463046c047e2
:1020000001308ad00135ebe7002ba7d10b7884f89b
:10201000423004f1420565e73549000024490000db
:020000040000fa
:102020002de9f04f9db00d4692460393074618b137
:1020300083690bb901f03cfe6f4b9d4256d17d6820
:10204000ab891c075cd52b69002b59d00023099361
:1020500020238df82930dff8a48130238df82a3031
:102060004ff001095446264616f8013b002b52d189
:10207000b4eb0a0b0bd05b4652462946384601f0ba
:1020800093ff013000f0b380099b5b4409932378f0
:10209000002b00f0ac8000234ff0ff320493079335
:1020a000059206938df853301a93052231785348e0
:1020b00001f07ef9741c049b002830d1d80644bf7f
:1020c00020228df85320190744bf2b228df853206e
:1020d00032782a2a2bd0079a00210a20344601366a
:1020e0002378303b092b68d971b326e0444b9d42dd
:1020f00001d1bd68a4e7434b9d4208bffd689fe73f
:102100002946384600f0aafd00289fd04ff0ff3046
:102110001db0bde8f08f252baad03446a3e7a0eb75
:10212000080009fa00f0184304902646bde7039a18
:10213000111d12680391002a01db079204e052424c
:1021400043f002030792049323782e2b0ed1637879
:102150002a2b04f1010134d1039b1a1d1b68039241
:10216000002bb8bf4ff0ff3302340593264e217881
:102170000322304601f01cf938b14023801b03fada
:1021800000f0049b03430493013421781f488df829
:102190002810062201f00cf903ab009304f1010aa8
:1021a0001b4b2a4604a9f0b13846fef73bfe421c01
:1021b0001dd0099b0344099354e700fb023201211f
:1021c0008ce70023059318460a260c460131227835
:1021d000303a092a03d9002bc8d00590c6e706fb80
:1021e00000200123f1e73846fff7fafddfe7ab896e
:1021f0005b068bd409988be7084a0000564d000017
:10220000284a0000e84900005c4d0000604d0000d5
:04221000a93f0000e2
:020000040000fa
:102214001b5b313b31481b5b324a000025730000d5
:10222400312e302e300000006d755f7461736b5f6a
:1022340064656d6f2025733a2068747470733a2f47
:102244002f6769746875622e636f6d2f7264706f87
:102254006f722f6d756c69620d0a0d0a0000000023
:10226400202020202020202020204e616d65205336
:102274007461742020232043616c6c73202020201f
:102284002052756e74696d6520202020204d617880
:10229400204475720d0000002b2d2d2d2d2d2d2d7c
:1022a4002d2d2d2d2d2d2b2d2b2d2d2d2d2d2d2d5e
:1022b4002d2d2d2d2b2d2d2d2d2d2d2d2d2d2d2d4c
:1022c4002b2d2d2d2d2d2d2d2d2d2d2d2b0d0000b8
:1022d4002531347320256320253131752025313192
:1022e4006c75202531316c750d0a00000d0a53748c
:1022f400617475733a20413d4163746976652c209d
:10230400523d52756e6e61626c652c20533d536371
:10231400686564756c65642c20493d49646c650d81
:102324000000000050757368207573657220627533
:1023340074746f6e20746f2065786974206c6f7785
:102344002d706f776572206d6f64652e0d0000002f
:10235400547970652027702720746f20656e74652a
:1023640072206c6f772d706f776572206d6f646566
:102374002e0d0000547970652027622720746f2089
:1023840072657374617274204c4544207461736b7c
:102394002e2027422720746f2073757370656e6436
:1023a4002e0d0000547970652027642720746f2057
:1023b400726573746172742053637265656e207400
:1023c40061736b2e2027442720746f2073757370fc
:1023d400656e642e0d00000053637265656e2052b5
:0823e40065647261770000bf1f
:020000040000fa
:1023ec002de9f04182b004460d460368082b10d845
:1023fc00dfe803f005131d242b5f66747b00404857
:10240c0001460c3002f0a4f823680133236000234a
:10241c006360284602f042fb6de0394800f1100180
:10242c00183002f095f8236801332360f1e7354842
:10243c0002f0bcfc236801332360eae7324802f067
:10244c00b5fc236801332360e3e7866843685a1cb4
:10245c00426003eb430306ebc306304600f030fd4d
:10246c0080463146284601f0e9fb032809d8dfe80d
:10247c0000f00a060204522706e0412704e0532725
:10248c0002e03f2700e04927304602f055f9736916
:10249c0001933369009303463a4641461b4802f0c8
:1024ac0057f86268e3689a42b3d12368013323601a
:1024bc00afe7174802f07afc236801332360a8e7e2
:1024cc0002f0dafc18b1134802f070fc10e012486c
:1024dc0002f06cfc2368013323609ae70f4802f08a
:1024ec0065fc23680133236093e70d4802f05efc22
:1024fc00002323606360002002b0bde8f08100bfc0
:10250c0014220000642200009c220000d42200004f
:10251c00f022000028230000542300007823000040
:04252c00a8230000e0
:020000040000fa
:102530002de9f74f14460a6923699a42b8bf0b4642
:102540008946bcbfa1461c46d9f81070d4f810a02b
:10255000d9f80830d9f8041007eb0a069e42c8bf24
:10256000013101f03dfb00f1140505eb86082b4617
:102570000022434516d304f1140209f1140102ebc1
:102580008a0301eb87070193019c944213460cd800
:10259000002e03dd58f8043d002b54d0066103b033
:1025a000bde8f08f43f8042be3e7b3f800a0043252
:1025b000baf1000f20d0ae4689464ff0000c59f812
:1025c000044bbef800b0a3b20afb03b34fea144bae
:1025d000def8004063444fea144c0afb0bc404ebe2
:1025e00013449bb243ea04434f454fea144c4ef860
:1025f000043be4d8cef800c032f8029cb9f1000fd9
:102600001fd02b68ae468c464ff0000abcf8004045
:10261000bef802b009fb04b4a2449bb243ea0a43e9
:102620004ef8043b5cf8043bbef800401b0c09fb71
:10263000034303eb1a4367454fea134ae6d8cef843
:0a26400000300435a0e7013ea2e7d8
:020000040000fa
:10264a002de9f74f03690c699c42804600f38280aa
:10265a00013c01f114074fea840e00f1140657f801
:10266a00245056f8240006eb0e03013507eb0e0939
:10267a000193b0fbf5f595b34ff0000a3846b4461e
:10268a00d34650f8042b93b205fb03a34fea134a2f
:10269a009bb2abeb0303120cbcf800b005fb02a221
:1026aa0013fa8bf34fea124a1ffa82fbdcf8002076
:1026ba00cbeb124202eb23429bb243ea024381452f
:1026ca004fea224b4cf8043bdbd256f80e3033b9b2
:1026da00019b043b9e421a4630d3c8f8104040463c
:1026ea0001f0edfe002825db013530464ff0000ee3
:1026fa0057f8042bd0f800c093b2aeeb0303120cc8
:10270a0013fa8cf3c2eb1c4202eb23429bb243ea5c
:10271a000243b9454fea224e40f8043be8d256f844
:10272a00242006eb84032ab9043b9e421a460bd3a3
:10273a00c8f81040284603b0bde8f08f1268043b81
:10274a00002acad1013cc5e71268043b002aefd12e
:08275a00013ceae70020eee774
:020000040000fa
:022762007047be
:020000040000fa
:102764008a892de9f041054610070c465ad44b6876
:10277400002b05dc0b6c002b02dc0020bde8f08193
:10278400e66a002ef9d0002312f480522f682b60e1
:1027940033d0606da3895a0705d56368c01a636b8b
:1027a4000bb1236cc01a00230246e66a216a28464c
:1027b400b047431ca38906d129681d294bd82b4a4d
:1027c400ca40d60747d500226260d9042269226034
:1027d40004d5421c01d12b6803b96065616b2f607d
:1027e4000029cad004f14403994202d0284600f0db
:1027f4007dfe00206063bde8f081216a0123284644
:10280400b047411cc6d12b68002bc3d01d2b01d06f
:10281400162b01d12f60b0e7a38943f04003a381b5
:10282400bde8f0810f69002fa7d093070e6808bf99
:102834004b690f6018bf0023a6eb07088b60b8f143
:10284400000f9add43463a46216aa66a2846b047f5
:10285400002807dca38943f04003a3814ff0ff3035
:10286400bde8f0810744a8eb0008e8e70100402038
:020000040000fa
:102874004ff0ff3c06e000bf4ff0010c02e000bf48
:102884004ff0010c4df804cd4fea410c7fea6c5c2b
:102894004fea430c18bf7fea6c5c1bd001b050eace
:1028a400410c0cbf52ea430c91ea030f02bf90eab9
:1028b400020f0020704710f1000f91ea030f58bf78
:1028c400994208bf90422cbfd8176feae37040f0da
:1028d400010070474fea410c7fea6c5c02d150ea78
:1028e400013c07d14fea430c7fea6c5cd6d152ea33
:1028f400033cd3d05df8040b704700bf84461046f8
:1029040062468c461946634600e000bf01b5fff7f6
:10291400b7ff002848bf10f1000f01bd4df808edc6
:10292400fff7f4ff0cbf012000205df808fb00bf97
:102934004df808edfff7eaff34bf012000205df8f1
:1029440008fb00bf4df808edfff7e0ff94bf01203e
:1029540000205df808fb00bf4df808edfff7ceff3f
:1029640094bf012000205df808fb00bf4df808ed7e
:10297400fff7c4ff34bf012000205df808fb00bf4f
:020000040000fa
:10298400002020202020202020202828282828203b
:102994002020202020202020202020202020202033
:1029a400208810101010101010101010101010109b
:1029b400100404040404040404040410101010108b
:1029c4001010414141414141010101010101010155
:1029d40001010101010101010101010110101010a7
:1029e4001010424242424242020202020202020227
:1029f400020202020202020202020202101010107b
:102a040020000000000000000000000000000000a2
:102a140000000000000000000000000000000000b2
:102a240000000000000000000000000000000000a2
:102a34000000000000000000000000000000000092
:102a44000000000000000000000000000000000082
:102a54000000000000000000000000000000000072
:102a64000000000000000000000000000000000062
:102a74000000000000000000000000000000000052
:012a84000051
:020000040000fa
:102a86002de9f04791461f468a680b69ddf82080dc
:102a96009342b8bf1346c9f8003091f84320064662
:102aa6000c4612b10133c9f800302368990642bfbb
:102ab600d9f800300233c9f80030256815f006054c
:102ac60007d104f1190ae368d9f800209b1a9d4240
:102ad60029db94f843302268003318bf012392069d
:102ae6002ed404f1430239463046c047013021d086
:102af6002368e568d9f8002003f00603042b08bf15
:102b0600ad1aa36822690cbf25eae5750025934234
:102b1600c4bf9b1aed184ff000091a344d451bd15e
:102b26000020bde8f0870123524639463046c047ab
:102b3600013003d14ff0ff30bde8f0870135c2e721
:102b4600e1185a1c302081f84300224494f84510bd
:102b560082f843100233c4e7012322463946304641
:0c2b6600c0470130e6d009f10109d7e7b3
:020000040000fa
:022b72007047aa
:020000040000fa
:102b7400374b9b7d002b69d010b5354b1b7e13f072
:102b8400010f0ad1324b1b7e13f0040f28d1304bb6
:102b94001b7e13f0800f48d110bd2e4b1b7d002be4
:102ba400f0d02c4b9a685b689a4207d2294a106885
:102bb40091684c1c9460415c254a9162254a926854
:102bc4009342dfd8234b00221a755a600121204a10
:102bd4001175db68002bd5d01e4a10699847d1e7e0
:102be4001c4b93f82c30002bd1d01a4b1a6adb699a
:102bf4009a42ccd2164b986a164b99691a6a541c9d
:102c04001c6288541a6adb699a42c0d1114b0022b3
:102c140083f82c20da6104210d4a11755b6a002bbc
:102c2400b5d00c4a906a9847b1e7094b5b8b13f017
:102c3400070fb1d08422064b1a75064b5b6a13b199
:102c4400044a906a984701f0b7fda5e7704700bfb2
:082c540000200141cc0000202a
:020000040000fa
:102c5c00324b70b51d6806460c4625b1ab6913b9ed
:102c6c00284601f01ff82e4b9c420fd16c68b4f92a
:102c7c000c309ab215072cd4d00611d4092232602c
:102c8c0043f04003a3814ff0ff3070bd254b9c42b5
:102c9c0001d1ac68ebe7244b9c4208bfec68e6e73b
:102cac00510712d5616b41b104f14403994202d032
:102cbc00304600f017fc00236363a38923f0240340
:102ccc00a3810023636023692360a38943f0080375
:102cdc00a38123694bb9a38903f42073b3f5007f57
:102cec0003d02146304600f027fea28912f00103e2
:102cfc000cd00023a36063695b42a361236953b9c1
:102d0c00b4f90c3013f08000bad170bd920758bfe3
:102d1c006369a360f2e70020f7e700bf58040020c6
:0c2d2c00084a0000284a0000e8490000a6
:020000040000fa
:102d380070b50e46054618b183690bb900f0b4ffab
:102d4800ab69ac6813b9284600f0aeff284b9c422b
:102d580022d16c68b4f90c309a0406d443f40053b9
:102d6800a381236e23f400532366a3891b071dd573
:102d78002369dbb1013ea36816f8011f013ba3607c
:102d8800e9b9002b2eda22460a21284600f000f97c
:102d9800013011d00a2070bd164b9c4201d1ac689d
:102da800d8e7154b9c4208bfec68d3e72146284674
:102db800fff750ff0028ddd04ff0ff3070bd002b2b
:102dc80004daa269934206db0a2904d023685a1c54
:102dd80022601970cfe72246284600f0d9f8013062
:102de800c9d1e9e723680a205a1c2260187070bd0f
:0c2df800084a0000284a0000e8490000da
:020000040000fa
:102e040070b5254c204601f0d5ff04f1100104f102
:102e1400180001f0a1fb01f0fdfb204c0822204921
:102e2400204601f09ffd1f4d23460a221e492846d5
:102e340001f0e0fa1d4c1e49204601f0b3fd2a467c
:102e44001c4904f1180001f0effa04f14806324677
:102e5400194904f1300001f05dfe062322461749aa
:102e6400304601f0dffc2a46154904f1600001f008
:102e740089fa7834204601f06ff921462846fdf797
:102e8400fff901f0cbfe01f0d5fe00220d4b1a70c4
:102e940001f0d0fe70bd00bf6c3e00003004002085
:102ea400ac030020cc0300205c0300206c02002053
:102eb400680400204804002054040020200400205a
:082ec4003c0400206904002019
:020000040000fa
:042ecc008068704763
:020000040000fa
:102ed000000000000000f03f00000000000024405f
:102ee00000000000000059400000000000408f403a
:102ef000000000000088c34000000000006af840a5
:102f00000000000080842e4100000000d0126341c8
:102f10000000000084d797410000000065cdcd413e
:102f2000000000205fa00242000000e8764837421f
:102f3000000000a2941a6d42000040e59c30a242bd
:102f40000000901ec4bcd64200003426f56b0c4332
:102f50000080e03779c3414300a0d88557347643d9
:102f600000c84e676dc1ab43003d9160e458e1433a
:102f7000408cb5781daf154450efe2d6e41a4b44af
:102f800092d54d06cff08044f64ae1c7022db544f4
:082f9000b49dd9794378ea44ad
:020000040000fa
:102f9800f8b50e461446054618b183690bb900f01a
:102fa80083fe274b9c422fd16c68a369a360a38939
:102fb800190733d52369002b30d0b4f90c30f6b299
:102fc8009a04374634d523692068c01a6369984241
:102fd80004db2146284600f01bff28bba368013b01
:102fe800a36023685a1c22601e70636901309842ee
:102ff80004d0a389db0719d50a2e17d12146284604
:1030080000f006ff90b10fe00e4b9c4201d1ac6876
:10301800cbe70d4b9c4208bfec68c6e72146284623
:10302800fff718fe0028c8d04ff0ff373846f8bd24
:1030380043f40053a381236e23f400532366c2e7ad
:0c304800084a0000284a0000e849000087
:020000040000fa
:1030540070b5cd1c25f0030508350c2d38bf0c25a3
:10306400002d064601dba94203d90c23336000205e
:1030740070bd00f0bcff234a1468214691b9224c6c
:1030840023681bb9304601f0ddfc20602946304638
:1030940001f0d8fc431c26d10c233360304601f0e8
:1030a400dcf8e4e70b685b1b1ad40b2b0fd90b601d
:1030b400cd50cc18304601f0d0f804f10b00231d9c
:1030c40020f00700c31a1bd05a42e25070bd8c4254
:1030d4000dbf63684b686360136018bf0c46e9e773
:1030e4000c464968cae7c41c24f00304a04205d076
:1030f400211a304601f0a6fc0130cdd02560d9e775
:0c31040070bd00bf5c04002060040020cf
:020000040000fa
:103110002de9f0470d46074611462846144601f0b2
:10312000d3f9061e08d13146384600f059fd012377
:1031300003614661bde8f087a4bf23462c463846ac
:103140006168a6bf1d460026012600f049fd2b69d7
:10315000c660266905f1140904f1140202eb860722
:1031600009eb830800f114054ff0000c52f804ab92
:1031700059f8044b1cfa8af1a3b2c91a230cc3eb09
:103180001a4303eb214389b24fea234cc84541ea75
:103190000343964645f8043be8d8be4505d355f8a9
:1031a000043d8bb10661bde8f0875ef8041b1cfa94
:1031b00081f31a1402eb11429bb243ea02434fea35
:0c31c000224c45f8043be8e7013ee8e73c
:020000040000fa
:1031cc002de9f0470c464fea621a236949680aeb6d
:1031dc000309a3680746164609f10105ab4231db2a
:1031ec00384600f0f7fc0022804600f1140311462b
:1031fc0052452adb20692aeaea7a04f1140116f016
:10320c001f0203eb8a0301eb800e22d0c2f1200ccb
:10321c0000200e689640304343f8040b51f8040b21
:10322c008e4520fa0cf0f4d8186008b109f10205ab
:10323c00013d3846c8f81050214601f0b9f9404616
:10324c00bde8f08701315b00c8e743f8221001327a
:10325c00cee7043b51f8042b43f8042f8e45f9d8e4
:02326c00e6e793
:020000040000fa
:02326e00fee779
:020000040000fa
:103270000122204b1a74204a03f500635a621a4651
:10328000536813f0080ffbd101221c4b5a711a46e8
:10329000d37813f0010ffbd0194a1a4b1a621a4661
:1032a000536813f0040ffbd1174a164b9a621a4663
:1032b000536813f0100ffbd14122124bc3f890203a
:1032c0001a46d2f8903013f0400ffad042220d4b3c
:1032d000c3f8dc201a46d2f8dc3013f0400ffad0e5
:1032e000064b6ff07f421a6140f2ff725a61074a43
:1032f0009a6170470014004004010100000800407a
:1033000006010c00001c004006013000568201003e
:020000040000fa
:103310004fea4102b2f1e04324bfb3f5001cdcf1f7
:10332000fe5c0dd901f0004c4feac0024cea50702f
:10333000b2f1004f40eb830008bf20f0010070475e
:1033400011f0804f21d113f13872bcbf01f0004061
:10335000704741f480114fea5252c2f11802c2f193
:10336000200c10fa0cf320fa02f018bf40f0010014
:103370004feac1234fead32303fa0cfc40ea0c00c6
:1033800023fa02f34fea4303cce77fea625307d103
:1033900050ea01331ebf4ff0fe4040f4400070473a
:1033a00001f0004040f0fe4040f40000704700bfd4
:1033b00001f0ff01102a2bdb10f0070f08d010f8e6
:1033c000013b013a8b422dd010f0070f42b3f6d1ea
:1033d000f0b441ea012141ea014122f007047ff003
:1033e00000070023f0e80256083c85ea010586ea5a
:1033f000010685fa47f5a3fa87f586fa47f6a5fa96
:1034000087f68eb9eed1f0bc01f0ff0102f00702a1
:1034100032b110f8013b013a83ea010313b1f8d14c
:103420000020704701387047002d06bf354603382d
:10343000073815f0010f07d1013015f4807f02bf66
:10344000013015f4c03f0130f0bc0138704700bfb7
:020000040000fa
:103450002de9f7430e46012159ec108b154600f07b
:10346000bffbc9f30a540746c9f3130334bb0193e6
:10347000b8f1000f27d002a840f8088d00f048fcf2
:103480000099f0b1019ac0f1200302fa03f30b4353
:10349000c2407b610192019bbb61002b14bf0221e2
:1034a00001213961c4b1a4f2334404443460c0f151
:1034b00035002860384603b0bde8f08343f480133c
:1034c000d5e77961e7e701a800f022fc019b7b6169
:1034d000012139612030e5e707eb8103a0f232409a
:0e34e0003060186900f09cfec0eb4110e1e77f
:020000040000fa
:0234ee00fee7f7
:020000040000fa
:1034f00038b50546002945d051f8043c0c1f002b77
:10350000b8bfe41800f075fd1f4a1368104633b9c0
:10351000636014602846bde8384000f0a0bea342b6
:103520000cd921686218934204bf1a685b68636013
:1035300004bf521822600460ece713465a680ab1cf
:10354000a242fad919685818a0420bd12068014448
:10355000581882421960ddd1106852685a600144df
:103560001960d7e702d90c232b60d3e72068211814
:103570008a4204bf11685268626004bf0918216062
:0c3580005c60c7e738bd00bf5c040020a1
:020000040000fa
:10358c002de9f843154612f0030206460f4607d004
:10359c00013a214c002354f8222000f009fa074686
:1035ac00ad1035d0746a3cb9102001f017fc706274
:1035bc00446084600460c460d6f82480d8f8084065
:1035cc004cb940f27121304601f0b6fb0023c8f82b
:1035dc000800044603604ff00008eb070ad5394693
:1035ec0022463046fef79eff39468146304600f0b3
:1035fc00dfff4f466d100bd0206838b922462146ac
:10360c003046fef78fff2060c0f800800446e4e7e8
:0c361c003846bde8f88300bf9c4e00005b
:020000040000fa
:1036280010b51d4b03b198471c4b03b19847eff3f6
:10363800108172b61a4ad2f8883043f47003c2f87f
:103648008830bff34f8fbff36f8f01b962b6154c47
:103658002023636000f0f6f8114a134b23f07f0330
:103668009360124b9847a36823f00103a360234695
:10367800da6812f0010ffbd10a4b5a6842f00402d3
:103688005a6001229a600a4b03b19847094b03b16b
:10369800984701f04afbfee7000000000000000028
:1036a80000ed00e000600041000000003d40000027
:0836b80000000000000000000a
:020000040000fa
:1036c0001f4a137843f001031370536813f0010f7e
:1036d000fbd11b490022ca614ff000530b624ff42b
:1036e00000430b634a630b61164b10221a721a7562
:1036f00083f8202083f82c2083f8382083f8442096
:1037000083f8502083f85c2083f8682083f87420c5
:1037100083f8802083f88c2083f8982083f8a420f5
:1037200083f8b0200f2283f8bc200b7843f002030b
:103730000b700a46536813f0020ffbd1704700bfad
:083740000028004000000020f9
:020000040000fa
:103748002de9f74380460e46144601f00bfa01288e
:103758001cd1731efe2b19d88df80460054600276e
:103768000df10409af4220d0a36817f80910013bf6
:10377800002ba36004daa26993421adb0a2918d045
:1037880023685a1c226019700137ebe7324604f1ae
:10379800580301a9404600f08dfb421c0546ded1c6
:1037a800a38943f04003a3810646304603b0bde831
:1037b800f08322464046fff7ebfb431ce4d1064664
:0237c800f3e725
:020000040000fa
:0237ca00fee718
:020000040000fa
:1037cc0010b5044601f086f9e8b9237a423b2e2b5a
:1037dc001dd8dfe803f0261c2c1c1c1c1c1c1c1cfc
:1037ec001c1c1c1c1c1c1c1c1c1c1c1c1c1c1c1c0d
:1037fc001c1c1c1c1c1c231c291c1c1c1c1c1c1ce9
:10380c001c1c1c1c2f0001460c4800f0a1fe0121c1
:10381c0004f1080000f0defc002010bd01f0faf904
:10382c00f5e701f063faf2e701f000faefe701f0d7
:10383c0067faece7012001f0b1fae8e70448000070
:020000040000fa
:10384c001c4b1d4a934230b438bf002103d203f8fd
:10385c00011b9342fbd1194800250168c1b942688c
:10386c0032b383680c30d3b10139034613f8014be2
:10387c0001f8014f1c1a9442f8d312f0030318bf3d
:10388c00012303eb920200eb820001680029e6d0d1
:10389c00846842680b460c303cb9002addd01a44cf
:1038ac0003f8015b9a42fbd1d7e7002adcd1e4e7ad
:1038bc0030bc70470000002000010020e01a00001e
:020000040000fa
:1038cc00f8b51c4b1e68b369074613b9304600f0b7
:1038dc00e9f94836b4687368013b03d5336833b1f2
:1038ec003668f7e7b4f90c506db16434f4e7042191
:1038fc00384600f0a1fe30600028f1d10c233b606b
:10390c0004462046f8bd4ff6ff73e3810123a381e3
:10391c0025662560a560656025616561a561082245
:10392c00294604f1580001f051fa6563a563a564ba
:08393c00e564e6e7384f0000e6
:020000040000fa
:103944008b8973b59d0706460c4607d504f14703da
:10395400236023610123636102b070bd01ab6a4639
:1039640000f0b2fb009905463046fff771fb38b909
:10397400b4f90c309a05efd443f00203a381e5e7d0
:103984000c4bb362a389206043f08003a381009ba6
:103994006361019b20614bb1b4f90e10304601f014
:1039a40071f818b1a38943f00103a381a3891d43ce
:0839b400a581d1e7914e00004e
:020000040000fa
:1039bc002de9f0410d691f4606460c4601f1140e27
:1039cc000023def8000081b202fb01710f0c000c29
:1039dc0002fb007089b2013301eb00419d424feaba
:1039ec0010474ef8041becdcd7b1a3689d4212dbe8
:1039fc0061683046013100f0edf82269023204f1c1
:103a0c000c01804692000c3001f03df92146304605
:103a1c0000f0cefd444604eb850301355f61256162
:063a2c002046bde8f08118
:020000040000fa
:023a3200fee7ad
:020000040000fa
:103a340038b50c46084601f009f9054601f020faac
:103a4400a0b905b3204601f03efa2c680146204691
:103a540001f046fa0546012001f04afa854209dce4
:103a640001f00efaa8b900bf002038bd012000f013
:103a7400b5fee6e7204601f029f9084c656a01f035
:103a8400a9f86562ece7054c656a01f0a3f8656284
:103a9400e6e7002000f0a2fee5e700bf00100040ca
:020000040000fa
:103aa40070b582b0044601f00efa054601a9e0683b
:103ab40000f022fd01280ad02a460199204600f090
:103ac40024f803460028f1d0184602b070bd204601
:103ad40001f0bcf8064620b12946006801f092f9cd
:103ae40028b12146606900f031fc0023ece732681c
:103af4007368a261e361a368013ba3602146e069a6
:0a3b040000f024fc0023e361dee77b
:020000040000fa
:103b0e002de9f041846843689c4202d30220bde84f
:103b1e00f08116460f4605465cb92b6803ebc402ce
:103b2e00576043f83460ab680133ab600020bde8ea
:103b3e00f081d0f80080013c58f83410304601f086
:103b4e00cef910b914b1013cf6e70134aa68121b84
:103b5e00002ae2dd2b68e10001f10800d2001944d1
:083b6e00184400f090fcd8e7b8
:020000040000fa
:023b7600fee768
:020000040000fa
:103b7800174ad36823f4e0631b041b0c43f0bf63ac
:103b880043f40133d360bff35f8f62b6114be02279
:103b980083f80b234ff40061196083f81b234ff05f
:103ba8000061196083f836234ff48001596083f867
:103bb80037234ff40001596083f838234ff08071a0
:103bc800596083f839234ff000725a60704700bf7c
:083bd80000ed00e000e100e057
:020000040000fa
:103be00070b5456a04460e463db9102001f0fcf858
:103bf0006062456085600560c560656aeb6883b199
:103c0000636adb6853f82600b8b9012101fa06f5aa
:103c10006a1d9200204600f0b7ff60b146608560e3
:103c20000ee021220421204600f0aeff636ae86026
:103c3000db68002be4d1002070bd026843f8262029
:083c400000230361c36070bda5
:020000040000fa
:103c480038b5c36923b110f1180f01d0994224d0b7
:103c58008368013b1c46002b21db0568db00ea1862
:103c68005268914208d008332b44013c13d4083bd6
:103c780053f8042c9142f8d105ebc4038bb101f041
:103c880020f9014655f8340001f0baf800280cbfb5
:103c98000220012038bd002038bd032038bd002097
:063ca80038bd002038bd0c
:020000040000fa
:023cae00fee72f
:020000040000fa
:103cb000836910b5044633bb8364c3640365124b48
:103cc000124a1b688262984204bf01238361fff796
:103cd000fdfd60602046fff7f9fda0602046fff77c
:103ce000f5fd0022e0600421606800f0cbf90122bc
:103cf0000921a06800f0c6f902221221e06800f054
:103d0000c1f90123a36110bd384f0000914e00009e
:020000040000fa
:103d1000036813f0070201460bd0da0723d4980793
:103d200049bf5b089b0801200b605cbf0b60022051
:103d3000704798b2a8b91b0c102013f0ff0f04bff6
:103d40001b0a08301a0704bf1b0904309a0704bf76
:103d50009b080230da0702d45b0806d001300b6002
:0e3d600070471046e9e70020704720207047aa
:020000040000fa
:103d6e00f8b58568013d002d22db2c460768eb0077
:103d7e00fa185268914208d008333b44013c15d4de
:103d8e00083b53f8042c9142f8d106462d1b002d0a
:103d9e0007dde40004f10801ea003944381900f0a7
:103dae0072fbb368013bb3600020f8bd0320f8bd81
:043dbe000320f8bd29
:020000040000fa
:023dc200fee71a
:020000040000fa
:103dc400114b124a1a6041f212429a814ff4403266
:103dd4005a601a46d369002bfcd10b4a136843f08e
:103de40002031360d369002bfcd1094b00229a61b2
:103df400da611a6283f82c205a621a605a609a6057
:103e04001a75da60704700bf0020014184411040f8
:043e1400cc000020be
:020000040000fa
:103e180038b50b6905460c46dbb118b183690bb997
:103e2800fff742ff0c4b9c4209d16c68b4f90c3087
:103e38007bb121462846bde83840fef78fbc074bca
:103e48009c4201d1ac68f1e7054b9c4208bfec6885
:103e5800ece7002038bd00bf084a0000284a0000ef
:043e6800e849000025
:020000040000fa
:103e6c000a0a23203d3d3d3d3d3d3d3d3d3d3d0050
:103e7c00312e302e3000000023206d755f7461737d
:103e8c006b5f64656d6f2025733a207365652068e0
:103e9c00747470733a2f2f6769746875622e636f30
:103eac006d2f7264706f6f722f6d756c69620a0082
:020000040000fa
:103ebc00f0b5054685b01e460f460f4c91b92268e9
:103ecc000e49126a002a08bf0a4601a9d2f8e0403e
:103edc003a46a047431c01bf002333608a232b6062
:103eec0005b0f0bd2468054f246a002c08bf3c4681
:103efc00d4f8e040ede700bf58040020000100209a
:020000040000fa
:103f0c004fea410212f5001215d211d56ff47873f5
:103f1c00b3eb625212d94feac12343f0004343ea98
:103f2c00505311f0004f23fa02f018bf4042704773
:103f3c004ff00000704750ea013005d111f00040fd
:103f4c0008bf6ff0004070474ff00000704700bf93
:020000040000fa
:103f5c0010b50c46037883b14ff480220e4bc3f896
:103f6c0018210023037040f2ef1000f0bdff014652
:103f7c00204600f0a3fb002010bd4ff48022064b1e
:103f8c00c3f8142101230370052000f0adff014696
:0c3f9c00204600f093fbeee7008000419f
:020000040000fa
:103fa800f8b50e46096e14468a0407460bd4e51880
:103fb800ac420dd0324614f8011b384600f0e2fa44
:103fc8000130f5d10ee023f00303e518ac4201d12e
:103fd8000020f8bd324654f8041b384600f0a6fd10
:0a3fe8000130f3d14ff0ff30f8bdb7
:020000040000fa
:023ff200704716
:020000040000fa
:103ff4000246c8b10e4b1b7dc3b90d4b1860596006
:1040040000219960012119750a4b1b7e13f0010fe1
:1040140006d007498b68581c8860d25c054b9a62ad
:104024000120044b987570470020704700207047aa
:08403400cc0000200020014136
:020000040000fa
:10403c0070b50d4e0d4ca41ba4100025a54209d142
:10404c000b4e0c4cfcf708f9a41ba4100025a54240
:10405c0005d170bd56f8253098470135eee756f876
:10406c00253098470135f2e770020000700200001d
:08407c00700200007402000054
:020000040000fa
:10408400002310b5044603604360836081810366a6
:10409400c28103614361836119460822583000f0ec
:1040a40099fe054b6362054ba362054be362054b26
:1040b4002462236310bd00bf47490000c1430000d0
:0840c4004d4800000d4f000003
:020000040000fa
:1040cc0070b50e46b1f90e10002990b014461d467d
:1040dc0007da00232b60b3891a0610d44ff48063df
:1040ec000ee001aa00f0d0fb0028f2db029a02f4e9
:1040fc007042a2f500535a425a412a60eee740231f
:08410c000020236010b070bd1b
:020000040000fa
:10411400494e4600696e66004e414e006e616e0067
:104124003000303132333435363738394142434444
:1041340045460030313233343536373839616263bd
:1041440064656600232d302b2000686c4c00656686
:0541540067454647002d
:020000040000fa
:10415c0010b504464ff400120a4bc3f81421012089
:10416c0000f04cfd0021084800f05cfe4ff480701c
:10417c0000f052fe054b00220549204600f078fd68
:10418c00204610bd00800041294f00006c4e0000fd
:04419c00353a0000b0
:020000040000fa
:1041a00010b5054c227832b9044b13b10448aff373
:1041b00000800123237010bdec03002000000000ec
:1041c0000000000008b5034b1bb103490348aff3df
:1041d000008008bd00000000f00300200000000087
:020000040000fa
:1041e000b0b138b505460c4600f07afc0a4b93f89e
:1041f0002c307bb9084b9d61dc6100221a620120e2
:1042000083f82c00054b80229a7504229a7538bddc
:1042100000207047002038bdcc0000200020014164
:020000040000fa
:10422000020c12040346b2b90304102013f07f4fae
:1042300004bf1b02083013f0704f04bf1b01043091
:1042400013f0404f04bf9b000230002b06db5b00e5
:0e42500003d5013070470020e8e720207047ba
:020000040000fa
:02425e007047a7
:020000040000fa
:104260000d4b4ff00042c3f89020012283f8d82074
:1042700083f8d920072283f8df20332283f8bc207b
:104280004ff41012c3f800214ff48022c3f810211c
:0c429000022283f8552170470080004195
:020000040000fa
:10429c0001220d4b1a801a46136913f0010ffbd142
:1042ac00094b4ff401421a8000221a621a46136914
:1042bc0013f0200ffbd10022034b5a621a461369ec
:0c42cc0013f0400ffbd1704700240040ad
:020000040000fa
:1042d8002de9f8438046894600f14804002614b9c0
:1042e8003046bde8f883a5686768013f01d52468b2
:1042f800f5e7ab89012b07d9b5f90e30013303d0a7
:0c43080029464046c84706436435eee7ee
:020000040000fa
:1043140070b50d46a9b114460ab1022801d9204648
:1043240070bd094b2bb108461146aff300802046ff
:1043340070bd164615f8010b00f0defb013ef9d105
:0c434400ede70c46204670bd00000000b4
:020000040000fa
:1043500070b504460d4600f0d1fd06462368294697
:10436000606898470546e3680133e36000f0c6fde6
:10437000314600f0b7fd2369034423616369984225
:08438000c8bf6061284670bd52
:020000040000fa
:1043880038b505460c4620604a60084800f052fde2
:10439800012104f10800fff71fff054b22460549dc
:1043a800284600f067fc284638bd00bf794e00005b
:0843b80018480000cd37000099
:020000040000fa
:1043c0002de9f0411f468b89db0505460c46164654
:1043d00005d502230022b1f90e1000f06dfaa38971
:1043e000b4f90e1023f48053a38132463b4628468d
:0843f000bde8f04100f03cba09
:020000040000fa
:1043f80010b5044601604260c360064b036106487d
:104408006061064b0022064900f034fc204600f0ab
:1044180047fc10bdfd4e000008040020d44e0000eb
:044428006327000006
:020000040000fa
:10442c0010b5044608604a600a4607490f2000f0a0
:10443c00d7f80f2000f09afc044b002204492046c8
:10444c0000f016fc204610bd554e0000604e0000da
:04445c00494e0000c5
:020000040000fa
:1044600008b5fdf7d7fa0022084bfdf799f8fef7db
:104470004fff074b93ed007a06ee900ac6ee877a5f
:10448000fdeee77a17ee900a08bd00bf00408f40ae
:0444900050040020b4
:020000040000fa
:10449400884210b501eb020303d8421e99420cd1a5
:1044a40010bd9842f9d28118d21ad34200d110bd5e
:1044b40013f8014d01f8014df7e711f8014b02f82b
:0444c400014febe7d2
:020000040000fa
:1044c80003690a699b1a30b50cd192001430143173
:1044d8008418114454f8045d51f8042d954203d012
:1044e80005d30123184630bda042f3d3fae74ff0b5
:0444f800ff33f7e7b0
:020000040000fa
:1044fc00428892b283889bb29a420dd043889bb279
:10450c00826852f823300b6043889bb201330288d7
:10451c00134043800020704700230b60012070473c
:020000040000fa
:10452c0008b500f073fcfff795fefef79bfefff756
:10453c0043fc00f013fcfef716fb00f0b9fb00f097
:10454c00cbfbfff7b7f8fff7a3fefff70ffb08bd98
:020000040000fa
:10455c000fb40a4b13b51c6824b1a36913b92046d8
:10456c00fff7a0fb05ab049aa16801932046fdf769
:10457c0051fd02b0bde8104004b070475804002053
:020000040000fa
:10458c009368013b002b10b4936009da9469a34241
:10459c0002dbcbb20a2b03d15df8044bfef7f6bc61
:1045ac001368581c10601970c8b25df8044b704742
:020000040000fa
:1045bc0070b5446a06460d463cb9102000f00efc5e
:1045cc007062446084600460c4603db1736a6a6860
:0e45dc00db6853f82210296043f8225070bdae
:020000040000fa
:1045ec0030b400eb4004084b03eb84031b7a83428a
:1045fc0001d030bc7047044b4400251843f82510fb
:0c460c0003eb85035a60f4e70000002077
:020000040000fa
:1046180008b5fff73ffe00f07dfc07ee900ab8ee04
:10462800677af7ee006ac6ee877a034bc3ed007a25
:0c46380000f044fa08bd00bf5004002050
:020000040000fa
:1046440070b54a1e642555430e4605f17001fef708
:10465400fffc044640b1002180e842000c30a06019
:0c46640005f1640200f0b6fb204670bdba
:020000040000fa
:10467000074a136843b10749184488429abf10603b
:1046800018464ff0ff307047034b1360f3e700bf4d
:0c4690006404002070060020700400206c
:020000040000fa
:10469c004fea410c7fea6c5c02d150ea013c0ad132
:1046ac004fea430c7fea6c5c02d152ea033c02d124
:0c46bc004ff0000070474ff00100704705
:020000040000fa
:1046c80038b5c3696bb110f1180f0cd004461d46fc
:1046d800806900f0fffb024629462046fff713fadf
:0a46e80038bd032038bd032038bda3
:020000040000fa
:1046f20038b504460d4600f061fa08b1022038bd13
:10470200a3889bb2a26842f82350a3889bb20133cc
:0847120022881340a38038bd8a
:020000040000fa
:10471c0008b5074a908980b2064b58604cf2ff31bd
:10472c0091811b6813b1034a9168984708bd00bf7b
:08473c0000240040c000002031
:020000040000fa
:04474400c068704792
:020000040000fa
:104748000080e03779c34143176e05b5b5b8934685
:10475800f5f93fe9034f384d321d30f94877825a51
:084768003cbf737fdd4f1575a6
:020000040000fa
:1047700070b50d4661b1164642b138b914460120f4
:1047800000f002f9013c05f8010bf8d1304670bd8c
:084790000e46304670bd00bf6b
:020000040000fa
:1047980008b54ff40042054b5a61054bd3f8b430c5
:1047a8001bb1034ad2f8b800984708bd002800405a
:0447b80000000020dd
:020000040000fa
:1047bc00074b80221a7607225a831b7e13f0040fb4
:1047cc0005d0034b9a6a1a7e12f0040ffad1704787
:0447dc000020014177
:020000040000fa
:1047e00040b9074a136843f002031360d369002bf2
:1047f000fcd17047024a136823f00203136070472c
:044800000020014152
:020000040000fa
:104804006b62645f7461736b206572726f722025d2
:10481400640d0a004b6579626f61726420546173a0
:044824006b0000bf66
:020000040000fa
:1048280038b5054600240c604c608a60cb60034ba9
:104838000a46034900f01efa284638bddc2300006a
:04484800ed2300005c
:020000040000fa
:10484c0010b50c46b1f90e1000f030f8431ca389da
:10485c0015bf606523f4805343f48053a38118bfc4
:04486c00a38110bd57
:020000040000fa
:1048700038b5074c054608461146002222601a4604
:1048800000f066fb431c02d1236803b12b6038bde6
:04489000fc00002008
:020000040000fa
:1048940038b5074c0023054608461146236000f04e
:1048a4004dfb431c02d1236803b12b6038bd00bf0c
:0448b400fc000020e4
:020000040000fa
:1048b80038b5074c054608461146002222601a46bc
:1048c80000f03efb431c02d1236803b12b6038bdc6
:0448d800fc000020c0
:020000040000fa
:1048dc0082b001b901a942b14bb113780b601278c7
:1048ec00101c18bf012002b070471046fbe76ff098
:0448fc000100f8e7d8
:020000040000fa
:1049000038b5074c054608461146002222601a4673
:1049100000f01cfb431c02d1236803b12b6038bd9f
:04492000fc00002077
:020000040000fa
:1049240030313233343536373839414243444546e1
:104934000030313233343536373839616263646577
:0249440066000b
:020000040000fa
:1049460010b50c46b1f90e10fff7d7ff0028abbf24
:10495600636da3891b1823f48053acbf6365a381e1
:0249660010bd82
:020000040000fa
:1049680013460ab903207047013a1a4201d00320be
:104978007047028081600023438083801846704717
:020000040000fa
:1049880030b583b002ac002344f8043d0125294624
:104998002046fff721fc0028f9d0019803b030bd6c
:020000040000fa
:1049a80010b504460a4600230b70034b034900f078
:1049b80061f9204610bd00bf2c4f00005d3f00008c
:020000040000fa
:1049c80010b50c460168204600f049f940f6c410bd
:1049d80000f08cfa01462046fff772fe002010bd59
:020000040000fa
:1049e80000000000000000000000000000000000bf
:1049f80000000000000000000000000000000000af
:020000040000fa
:104a0800000000000000000000000000000000009e
:104a1800000000000000000000000000000000008e
:020000040000fa
:104a2800000000000000000000000000000000007e
:104a3800000000000000000000000000000000006e
:020000040000fa
:104a480038b5064c0023054608462360fff70cfee0
:104a5800431c02d1236803b12b6038bdfc00002041
:020000040000fa
:104a680038b5064c002305460846236000f062fa74
:104a7800431c02d1236803b12b6038bdfc00002021
:020000040000fa
:104a880038b5064c002305460846236000f056fa60
:104a9800431c02d1236803b12b6038bdfc00002001
:020000040000fa
:104aa80008b5c36933b110f1180f05d0194600f0e5
:0c4ab800d6f808bd032008bd032008bd8f
:020000040000fa
:104ac400054a13889bb243f002031380136913f061
:0c4ad400020ffbd1704700bf002400401f
:020000040000fa
:104ae00010b5054b588b10f0070401d1204610bdbe
:0c4af000fff764fefae700bf0020014160
:020000040000fa
:104afc0030b583b002ac04f8010d012529462046df
:0c4b0c00fff772fa0028f9d003b030bdaa
:020000040000fa
:104b180010b504460a60034b0a46034900f0aaf898
:0c4b2800204610bd884d0000c949000067
:020000040000fa
:104b3400b2f90c3013f4005f06d143f400539381af
:0c4b4400136e43f400531366fef7fcbd33
:020000040000fa
:104b5000044b1b68186a044b002808bf1846f03045
:0c4b6000704700bf580400200001002036
:020000040000fa
:104b6c00044b054a1b681b6a002b08bf134693f8bd
:0c4b7c00280170475804002000010020b0
:020000040000fa
:104b880038b502fb01f42146fef760fa054618b174
:0c4b98002246002100f01cf9284638bd20
:020000040000fa
:104ba40049b1ff2a85bf8a2303600a704ff0ff30a2
:0a4bb40098bf0120704708467047c3
:020000040000fa
:104bbe0083889bb2428892b201330088184090429b
:084bce0014bf00200120704714
:020000040000fa
:104bd8000422044b5a701a469379002bfcd030bf3c
:084be800704700bf000400400b
:020000040000fa
:104bf000044a136913f0080ffbd1024b9869043083
:084c0000704700bf00240040d2
:020000040000fa
:104c0800044a936943ea80009061d36813f4807f73
:084c1800fbd0704700180040ba
:020000040000fa
:104c200008b500f069f80249024800f01cf808bd18
:084c30006c020020cc030020ff
:020000040000fa
:104c380008b500f067f80249024800f010f808bd0e
:084c48009c020020cc030020b7
:020000040000fa
:104c5000836833b103f10053013b006800ebc300ec
:064c6000704700207047c0
:020000040000fa
:104c660038b504460d4600f02df902462946204681
:064c7600fef74aff38bd05
:020000040000fa
:104c7c0010b40160426083600023c3600361436130
:064c8c005df8044b7047c7
:020000040000fa
:104c920010b5431e0a44914200d110bd11f8014bd8
:064ca20003f8014ff7e7e3
:020000040000fa
:104ca80038b5044600258560c06800f005f9e5615f
:044cb800204638bd9d
:020000040000fa
:104cbc00034b30221a7200225a729a72704700bf4c
:044ccc0000040040a0
:020000040000fa
:104cd000034b18621a46136913f0200ffbd170477b
:044ce000002400406c
:020000040000fa
:104ce400034b0022da619a6902f006029a61704766
:044cf4000018004064
:020000040000fa
:104cf80008b502490248fff736f808bd6c020020e3
:044d0800cc030020b8
:020000040000fa
:104d0c0008b502490248fff72cf808bd9c020020a8
:044d1c00cc030020a4
:020000040000fa
:104d200008b5c068fff7e5fc02280cbf0220002090
:024d300008bdbc
:020000040000fa
:104d320008b50020fff7f9fbfef763f800f02bf847
:024d4200fce78c
:020000040000fa
:104d440010b50c460121fef749ff012244610261be
:024d540010bd90
:020000040000fa
:104d5600232d302b2000686c4c006566674546475e
:014d6600004c
:020000040000fa
:104d68004ff48022014bc3f818217047008000419e
:020000040000fa
:104d7800012303fa00f0014b186170470028004036
:020000040000fa
:104d880053637265656e205570646174650000bf79
:020000040000fa
:104d980008b50248fef782fe08bd00bfcc0300201c
:020000040000fa
:104da80008b5024b1870fff743ff08bd69040020df
:020000040000fa
:104db800024b01461868fdf7bbbf00bf580400202e
:020000040000fa
:104dc800034613f8012b002afbd1181a0138704743
:020000040000fa
:104dd80002440346934200d1704703f8011bf9e7e8
:020000040000fa
:104de800024b01461868fef731b900bf580400208d
:020000040000fa
:0f4df800496e66696e697479004e614e00300035
:020000040000fa
:0e4e080008b50b460146184600f087f808bdb5
:020000040000fa
:0c4e18000422014b1a807047004000414a
:020000040000fa
:0c4e240080b2014b588170470024004010
:020000040000fa
:0c4e3000014b186099607047c000002022
:020000040000fa
:0c4e3c00014b586299627047cc000020c6
:020000040000fa
:0c4e480008b50020fff7acff002008bdfb
:020000040000fa
:0c4e540008b501684068fff761ff08bd69
:020000040000fa
:104e6000427574746f6e205075736800536c65657d
:084e7000702f49646c6500001d
:020000040000fa
:0c4e780008b501684068fff74fff08bd57
:020000040000fa
:0c4e8400014b1878704700bf6904002043
:020000040000fa
:0c4e90000149fff721ba00bf193e0000e5
:020000040000fa
:0c4e9c0005000000190000007d0000006f
:020000040000fa
:0c4ea8004ff400534b600020704700bf27
:020000040000fa
:0b4eb4004300504f53495800002e00ef
:020000040000fa
:0a4ec00000234380838018467047ea
:020000040000fa
:084eca0008b50369984708bd13
:020000040000fa
:084ed40049646c65000000bf99
:020000040000fa
:084edc0008b500f027f808bd3d
:020000040000fa
:084ee40008b500f025f808bd37
:020000040000fa
:084eec0008b500f018f808bd3c
:020000040000fa
:084ef40008b5fff7b3fa08bd91
:020000040000fa
:084efc0008b500f001f808bd43
:020000040000fa
:084f040008b5fff773fe08bdbc
:020000040000fa
:084f0c00b1f90e10fff7aabd78
:020000040000fa
:084f14004ff0ff30704700bfb1
:020000040000fa
:064f1c004ff40040704755
:020000040000fa
:064f2200401ac00f7047a9
:020000040000fa
:044f280000bf70470f
:020000040000fa
:044f2c004c454400ac
:020000040000fa
:044f3000084470477a
:020000040000fa
:044f3400401a704768
:020000040000fa
:044f3800fc02002057
:020000040000fa
:044f3c00fff7eabfd2
:020000040000fa
:044f4000fff7b2bf06
:020000040000fa
:044f440000f006b8bb
:020000040000fa
:044f480000f006b8b7
:020000040000fa
:044f4c00fff710bc9f
:020000040000fa
:044f5000fff7e0b9ce
:020000040000fa
:044f54000120704781
:020000040000fa
:044f5800002070477e
:020000040000fa
:0200000400807a
:044000003912003c35
:020000040000fa
:0200000400807a
:044004008000a82a66
:020000040000fa
:0200000400807a
:04400800ffffffffb8
:00000001FF
