S00E0000626C696E6B792E737265638D
S1130000B82100206D0500006905000069050000A5
S113001000000000000000000000000000000000DC
S1130020000000000000000000000000690500005E
S113003000000000000000006905000069050000E0
S1130040690500006905000069050000090C00004D
S1130050010A000069050000690500006905000047
S113006069050000690500006905000069050000D4
S113007069050000690500006905000069050000C4
S113008069050000690500006905000069050000B4
S113009069050000690500006905000069050000A4
S11300A06905000069050000690500006905000094
S11300B00000000010B5064C2378002B07D1054B37
S11300C0002B02D0044800E000BF0123237010BDC0
S11300D0640000200000000094210000084B10B5CB
S11300E0002B03D00749084800E000BF0748036815
S11300F0002B00D110BD064B002BFBD09847F9E72D
S113010000000000680000209421000094210000F9
S11301100000000070470000F0B583B004000191B6
S113012000928568022063689D4201D303B0F0BD4C
S1130130002D0CD1ED0023689C466544019B6B6047
S1130140009B2B60A3680133A3600020EEE76F1EC1
S1130150124B9C466544ED0023689C466544104E52
S113016029680098B047002804D1083D002F12D018
S1130170013FF5E77D1CA3685A1B002ADADDEB007A
S1130180D2002168C9180833180023689C466044CB
S1130190044B9847CEE73D00EDE7C046FFFFFF1F45
S11301A0190400009310000070B504000025856058
S11301B0C068024B9847E561200070BD370300001A
S11301C070B5040001604260C360064B03610648D9
S11301D06061064B00220649064DA8472000064BE5
S11301E0984770BD39040000800000200020000002
S11301F015010000AF030000A901000010B5036958
S1130200984710BD8368002B06D0044A9446634483
S1130210DB000068C01870470020FCE7FFFFFF1FE9
S1130220F0B583B004001A4B98470500194E1A4FD5
S113023001A9E068B047012807D02A0001992000ED
S1130240B8470028F4D003B0F0BD2000134B984702
S1130250061E05D029000068114B9847002805D0D8
S1130260606921000F4B98470020ECE7200018300C
S1130270082231000C4B9847A368013BA36021007E
S1130280E069084B98470023E3610020DBE7C046A0
S1130290FD010000850300001901000005020000B3
S11302A025040000C10300008110000070B50400A3
S11302B00D00044B9847020029002000024B984788
S11302C070BDC046FD0100001901000070B50400B6
S11302D0C369002B0DD003202300183308D0E5692F
S11302E0A069054B9847020029002000034B98475A
S11302F070BD0320FCE7C0460104000019010000A2
S113030010B5C068034B9847023843425841400037
S113031010BDC0465503000010B50323002A01D1C7
S1130320180010BD541E2242FAD1048081600023BB
S113033043808380F4E70023438083800020704758
S113034083884288013300881840801A4342584108
S1130350C0B2704770B504000D00094B98470223E2
S1130360002801D0180070BDA3889B00A2689D508E
S1130370A288013223881340A3800023F2E7C046F9
S113038041030000438882889BB293420BD0438888
S113039082689B009B580B6042880132038813409B
S11303A043800020704700230B600120FAE70160BE
S11303B0426083600023C3600361436170470000AF
S11303C0F8B504000D000C4FB8470600290060681A
S11303D0236898470500E3680133E360B8473100B8
S11303E0064B984723691B1823616369984200DD13
S11303F060612800F8BDC046390400000D04000007
S113040010B5014B984710BD390E000010B5014BD3
S1130410984710BD3D0E000010B5014B984710BD24
S1130420410E000010B50B0001001800014B984765
S113043010BDC046410E000010B5014B984710BDD9
S1130440490E000010B5014B984710BD510700003C
S113045070B51648164B984716491748174B9847D6
S1130460174B9847174D2E002036082229003000DC
S1130470154B984729002C317C3533000A2228007B
S1130480124CA047124C21001C31260020363000AB
S1130490104B984721003831200040302A000E4B81
S11304A09847310028000D4B984770BD0820000084
S11304B0BD1100001C20000024200000C910000011
S11304C0190E00009800002019030000C10100006B
S11304D018010020D90D00002D050000AD02000018
S11304E010B502487C30024B984710BD980000209C
S11304F02102000010B50800034B9847010003488F
S1130500034B9847002010BDFD0100005820000057
S1130510C910000010B5034B19685868024B98477E
S113052010BDC046700100200103000070B5040036
S1130530074B18605A6007490F20074B9847074B31
S1130540002207492000074DA847200070BDC0467F
S113055070010020150500008108000070200000D3
S1130560F5040000AF030000FEE70000F8B52A4AD6
S11305702A4B9A4211D01A00294B9A420DD2294A89
S113058003339B1A9B0801339B0000222348224912
S11305908C58845004329A42FAD1234A234B9A420B
S11305A00AD2D34321495B1803218B4304339B189C
S11305B0002102C29342FCD11D4AFF211D4B8B43F3
S11305C09360FD3990235B001B4AD1501B4AD378BA
S11305D00325AB4302242343D370D3780C27BB43B6
S11305E008263343D370164B987B30229043202245
S11305F010439873997BB943314399739A7BAA4307
S113060022439A730F4A536880210B4353600E4B65
S113061098470E4B9847FEE7942100000000002005
S1130620640000200400002064000020B8010020C1
S113063000ED00E0000000000070004100500041A7
S1130640004800410040004139100000FD0D000049
S113065070B5114A114B5A80C022D2058020000285
S113066050600F4B0F4999620F4999629061506035
S11306704F215C5C04252C435C5490615A5C01203E
S1130680824302435A5418395A5C0E3002405A5479
S1130690064B984770BDC04605400000000C004062
S11306A00044004100800240000002C05D080000D8
S11306B0044A136A20210B431362034A034B5A80F2
S11306C07047C0460004004017400000000C004082
S11306D030B50E4B5622995C0125A94301242143D0
S11306E0C9B299543B20195C473A91430D3A1143DE
S11306F0195457215A5CAA432243D2B25A541A5C61
S113070048390A4011310A431A5430BD00440041AB
S1130710044A936920210B439361034A034B5A8093
S11307207047C0460004004004430000000C004031
S113073010B5034B984703490348044B984710BD31
S1130740110700000014004098010020B1070000C8
S113075010B50F4B9847C023DB058022D2059821A2
S11307605A5010395A500B4B20315A500A4A5A5099
S113077036315A5C012082435A54084B9847084B3F
S11307809847084B9847084B9847084B984710BD23
S11307900D09000000440041004000C05106000063
S11307A0B1060000810C0000D106000031070000F2
S11307B070B504000D00431E9841C0B2E0225200FF
S11307C009490A4B98472368AB4208D0002B08D14B
S11307D025602000064B9847064B636170BD0020DE
S11307E0FCE712204042F9E784200000C908000019
S11307F0450B0000B207000010B50400431E9841E9
S1130800C0B2E622FF320449044B98472000044B4F
S11308109847002010BDC04684200000C90800008D
S1130820D10B000070B50C4B5C68A0420ED00122C5
S113083000210126FF2503E02A0053185B080AD192
S1130840A042F9D9002A06D03100F6E7024B1B6812
S1130850002B00D0984770BD7801002010B5054BDF
S1130860012252425A6000221A600348034B9847FF
S113087010BDC04678010020250800003D09000095
S113088010B50F4B5B68984208D0002914D00C4B6C
S11308901B68002B09D00D2040420CE0084B196066
S11308A0002905D1074B984705E0054B19605860AE
S11308B00121044B984710BD0D204042FBE7C04680
S11308C078010020D5090000002800D100BE70473F
S11308D00300064A1268002A04D0044A1068C318A8
S11308E0136070470249014A1160F6E78001002055
S11308F0B821002001204042704780239B014B60B7
S113090000207047012070470020704710B5064B47
S11309105A685A60054B9847054B9847054B9847CA
S1130920FF20054B984710BD00400041250B0000F7
S11309302D0C0000710C0000E90A0000224A5378D3
S1130940DB09FCD1204A5378DB09FCD11E4B1B7810
S11309509B070AD500221C4B1A701A005378DB0936
S1130960FCD1194A5378DB09FCD10122164B1A70C9
S11309701A005378DB09FCD1134A5378DB09FCD104
S1130980114B00229A705A608021090259619A61C0
S1130990A0221206DA611A7802210A431A701A0098
S11309A05378DB09FCD1094B102280215A50BFF344
S11309B04F8FBFF36F8F0131FF315A501A60044BD0
S11309C0186000207047C0460018004000E100E0B5
S11309D0840100200F2802D00D20404270470029D6
S11309E006D1064B802212029A601A610020F5E7B4
S11309F080221202014BDA600020EFE70018004069
S1130A00F0B5CE46474680B583B0314B1A69D968F4
S1130A100A400192019A1A612E4B1868431E9841AC
S1130A20C0B2D2222C492D4B9847019B002B49D0B0
S1130A3001235B4299462A4B9846264F294D3AE0BA
S1130A40013AD6B2B1420CD873185B10DAB2034043
S1130A50DB005B5DA34208D09C42F1DD0132D1B2E0
S1130A60F0E74B46013305D001E00F239946484691
S1130A703B689847019B0122A2409343019301984C
S1130A80174B9847013844B2631C0AD00F2C05D089
S1130A900F23002201260021FF20DDE70F239946C2
S1130AA0E5E70B4B1A69D9680A400192019A1A6169
S1130AB0019B002B06D00198C047013844B2631C47
S1130AC0E4D1EEE703B00CBC90469946F0BDC046B5
S1130AD00018004084010020A8200000C90800007C
S1130AE0E50F0000A0200000C3070AD50B4B8022AD
S1130AF052009A60832252025A601A005378DB092A
S1130B00FCD1030709D5054B0422FF329A60044A3D
S1130B105A601A005378DB09FCD17047000C00407E
S1130B2003032100064B1A7AD2B21A725A7AD2B24D
S1130B305A729A7AD2B29A72DA7AD2B2DA72704766
S1130B400004004010B5041E39D00068431E9841CB
S1130B50C0B278221B491C4B98471C4B1C6022686E
S1130B60937ADB09FCD1937ADB09FCD113889B07C8
S1130B700AD5138802218B431380937ADB09FCD1B5
S1130B802268937ADB09FCD12268138801210B4384
S1130B901380937ADB09FCD12268937ADB09FCD1B8
S1130BA01380937ADB09FCD1226853888021C90120
S1130BB00B435380236800229A80002010BD00203C
S1130BC0C7E7C046C0200000C90800008801002013
S1130BD010B5041E11D00068431E9841C0B2AA2269
S1130BE00749084B98472268138802210B43138056
S1130BF0937ADB09FCD1002010BD0020EFE7C0464A
S1130C00C0200000C908000010B5074B1C68236809
S1130C101B7ADB0700D410BD200063689847236863
S1130C2001221A72F7E7C046880100200E4B196AA8
S1130C301A6A0E480140920F9207022002430A43A7
S1130C401A629A6902439A611A7F1F210A401A772D
S1130C5019000822CB681A42FCD0034A136A802187
S1130C600B4313627047C046000800400000FF0FAA
S1130C70024A936902218B43936170470008004044
S1130C80304BDB69DB071FD42E490322CB691A42A0
S1130C90FCD12C4B1B689B070ED52A4A13680221F2
S1130CA08B43136011000322CB691A42FCD12549FE
S1130CB00222CB691A42FCD10522224B1A60190088
S1130CC0023ACB691A42FCD11E490122CB691A426D
S1130CD0FCD11D4A1B4B1A6019000322CB691A422E
S1130CE0FCD1184A136819490B40136011000722FC
S1130CF0CB691A42FCD113490B68154A1A40802368
S1130D005B0313430B600722CB691A42FCD1C02258
S1130D1092020C4B5A6019000722CB691A42FCD18B
S1130D20084B0C4A9A8107229A75F1321A751A688F
S1130D3002210A431A6019000322CB691A42FCD12A
S1130D40002070470014004284000040FFFFFCFFB5
S1130D50FFFFCFFF04C5FFFF014B188DC0B27047E2
S1130D600014004280B2014B188570470014004201
S1130D70024B187E012318407047C04600140042FD
S1130D80024B187E4007C00F7047C0460014004253
S1130D9010B50B000278002A0DD08024E4059822B7
S1130DA0C021C9058C500022027009491800094B62
S1130DB09847002010BD8024E4059432C021C90561
S1130DC08C50933A0270A3211800024B9847F0E725
S1130DD05C3F0000CD02000070B504000A0000234F
S1130DE00B70034B0349044DA847200070BDC04657
S1130DF0D8200000910D0000AF03000010B5034B94
S1130E009847034B9847034CA047FDE7450400006F
S1130E1051040000E104000010B50448044B984755
S1130E20E0229205034B1A6010BDC04698010020D1
S1130E30F90700008C01002008187047401A704719
S1130E40401AC00F70470000034B1A68937ADB09FD
S1130E50FCD110697047C04698010020F0B5C64621
S1130E6000B59046002A0CDD0D0041440E00074CED
S1130E70074FA0470028FCD02878B8470135B54271
S1130E80F7D1404604BC9046F0BDC046710D000049
S1130E90650D0000F0B5C64600B59046002A0CDD8D
S1130EA00D0041440E00074C074FA0470028FCD01A
S1130EB0B84728700135B542F7D1404604BC904686
S1130EC0F0BDC046810D0000590D0000002243080A
S1130ED08B4274D303098B425FD3030A8B4244D3FE
S1130EE0030B8B4228D3030C8B420DD3FF22090240
S1130EF012BA030C8B4202D31212090265D0030BFF
S1130F008B4219D300E0090AC30B8B4201D3CB03F4
S1130F10C01A5241830B8B4201D38B03C01A524136
S1130F20430B8B4201D34B03C01A5241030B8B4238
S1130F3001D30B03C01A5241C30A8B4201D3CB0223
S1130F40C01A5241830A8B4201D38B02C01A524108
S1130F50430A8B4201D34B02C01A5241030A8B420B
S1130F6001D30B02C01A5241CDD2C3098B4201D323
S1130F70CB01C01A524183098B4201D38B01C01AA1
S1130F80524143098B4201D34B01C01A5241030918
S1130F908B4201D30B01C01A5241C3088B4201D3C7
S1130FA0CB00C01A524183088B4201D38B00C01A74
S1130FB0524143088B4201D34B00C01A5241411A9B
S1130FC000D20146524110467047FFE701B50020A8
S1130FD000F006F802BDC0460029F7D076E7704756
S1130FE07047C04610B50023002802D000F004F872
S1130FF0431C180010BDC046414208401C21012377
S11310001B04984201D3000C10391B0A984201D3E7
S1131010000A08391B09984201D30009043902A2C5
S1131020105C401A7047C0461B1C1D1D1E1E1E1E50
S11310301F1F1F1F1F1F1F1F70B500260C4D0D4CB7
S1131040641BA410A64209D1002601F093F80A4DAE
S11310500A4C641BA410A64205D170BDB300EB5822
S113106098470136EEE7B300EB5898470136F2E7AC
S113107080210000802100008021000084210000E4
S1131080002310B59A4200D110BDCC5CC454013386
S1131090F8E710B5884202D98B18984208D3002388
S11310A09A4207D0CC5CC4540133F9E78B5C835477
S11310B0013AFBD210BD03008218934200D170475D
S11310C019700133F9E700000FB40B4B13B51C681A
S11310D0002C05D0A369002B02D1200000F03CFABB
S11310E005AB049AA1682000019300F007FC16BC2C
S11310F008BC04B01847C0460000002070B50500C5
S11311000E00002804D08369002B01D100F024FADA
S1131110AB69AC68002B02D1280000F01DFA244B07
S11311209C420FD16C68A3891B0702D52369002B4D
S113113020D12100280000F0A1F800281AD00120B5
S1131140404270BD1B4B9C4201D1AC68EBE71A4B8B
S11311509C42E8D1EC68E6E7013B0136A360002B32
S113116004DAA269934216DB0A2914D023685A1CB4
S1131170226019703178A3680029EDD1013BA36086
S1131180002B0FDA22000A31280000F021F8431C5A
S1131190D5D00A20D5E72200280000F019F8431C16
S11311A0E8D1CCE70A2023685A1C22601870C8E7EB
S11311B00021000020210000E020000010B5034BB6
S11311C001001868FFF79AFF10BDC0460000002018
S11311D0F8B505000E001400002804D08369002B24
S11311E001D100F0B9F9224B9C422DD16C68A3695E
S11311F0A360A3891B0731D52369002B2ED0236854
S11312002269F7B2981A6369F6B2984205DB2100A5
S1131210280000F033F9002826D1A3680130013BEF
S1131220A36023685A1C22601F706369984204D02B
S1131230A389DB071AD50A2E18D12100280000F053
S11312401DF9002812D00FE00A4B9C4201D1AC6872
S1131250CDE7094B9C42CAD1EC68C8E721002800BD
S113126000F00CF80028CAD0012676423000F8BD00
S11312700021000020210000E0200000364B70B562
S11312801D6806000C00002D05D0AB69002B02D1AF
S1131290280000F061F9314B9C420FD16C680C239B
S11312A0E25E93B219072DD4D90611D40923012083
S11312B0336037331343A381404270BD284B9C42B3
S11312C001D1AC68EBE7274B9C42E8D1EC68E6E738
S11312D05B0713D5616B002908D02300443399427E
S11312E002D0300000F03AFA002363632422A38979
S11312F09343A38100236360236923600823A289A5
S11313001343A3812369002B0BD1A0218022A3893D
S1131310890092000B40934203D02100300000F07A
S1131320D9F90123A289134011D00023A360636972
S11313305B42A361002023698342BED10C23E25E99
S11313401306BAD540231343A3810138B5E79207A6
S113135000D46369A360EDE70000002000210000D1
S113136020210000E0200000F7B58A8905000C0068
S1131370130760D44B68002B04DC0B6C002B01DCDE
S11313800020FEBDE76A002FFAD000232E682B60F0
S113139080235B011A4034D0606DA3895B0706D5B6
S11313A06368C01A636B002B01D0236CC01A02005F
S11313B0216A00232800E76AB847A189431C06D1A3
S11313C02B681D2B31D82C4ADA40D3072DD50023A6
S11313D0636023692360CB0405D5431C02D12B68C9
S11313E0002B00D16065616B2E600029C8D02300FA
S11313F04433994202D0280000F0B0F90020606321
S1131400BFE70123216A2800B847431CC5D12B68D4
S1131410002BC2D01D2B01D0162B01D12E60AFE7BB
S11314204023A2891343A381ABE740230B4301204C
S1131430A3814042A5E70F69002FA1D00B680F607C
S1131440DB1B01930023920700D14B69A360019B2E
S1131450002B00DC94E7019B3A00216A2800A66A6D
S1131460B047002803DC4023A2891343DFE7019B34
S11314703F181B1A0193EAE7010040200B6970B57D
S113148005000C00002B01D1002070BD002804D001
S11314908369002B01D100F05FF80B4B9C4209D10A
S11314A06C680C22A35E002BEED021002800FFF70D
S11314B05BFFEAE7054B9C4201D1AC68F1E7044BC2
S11314C09C42EED1EC68ECE70021000020210000F2
S11314D0E020000010B5024900F0B2F810BDC0468B
S11314E07D140000002310B5040003604360836092
S11314F081814366C28103614361836119000822CB
S11315005C30FFF7D8FD054B24626362044BA36291
S1131510044BE362044B236310BDC046691E000004
S1131520911E0000C91E0000F51E000070B568255C
S11315304A1E55430E002900743100F059F9041E67
S113154008D000212A00016046600C30A060683297
S1131550FFF7B1FD200070BD836913B50400002BB3
S113156028D18364C3640365134B144A1B688262E5
S11315700193984201D101238361200000F020F8F7
S11315806060200000F01CF8A060200000F018F853
S11315900022E06004216068FFF7A4FF0122092112
S11315A0A068FFF79FFF02221221E068FFF79AFF6D
S11315B00123A36113BDC046DC200000D514000044
S11315C0F8B51E4B07001E68B369002B02D130002A
S11315D0FFF7C2FF4836B4687368013B04D533682B
S11315E0002B07D03668F6E70C22A55E002D0DD03F
S11315F06834F2E704213800FFF798FF30600028D0
S1131600F0D10C2304003B602000F8BD012320002E
S11316105B42E3810233A38165662560A560656052
S113162025616561A561082229005C30FFF743FD4F
S11316306563A563A564E564E6E7C046DC200000B5
S1131640F7B504000700002601914834002C01D1AD
S11316503000FEBD6368A5680093009B013B0093C6
S113166001D52468F2E7AB89012B08D90E22AB5EC1
S1131670013304D029003800019B9847064368359C
S1131680EBE7000070B50E001D000E23C95E90B09C
S11316901400002907DA00232B60B3891B0611D438
S11316A08023DB000FE001AA00F050FC0028F2DBED
S11316B0F022029B12021340054A9B185A425341DE
S11316C02B60EDE740230020236010B070BDC046BE
S11316D000E0FFFFF7B502268B8905000C003342BA
S11316E006D0230047332360236101236361F7BDE0
S11316F001AB6A46FFF7C6FF00990700280000F017
S113170077F8002808D10C22A35E9A05EFD40322AF
S113171093431E43A681E4E70F4BAB628023A28967
S113172020601343A381009B20616361019B002B14
S11317300DD00E23E15E280000F01AFC002806D02C
S11317400322A38993431A0001231343A381A0898D
S11317503843A081CBE7C046D514000070B505001E
S1131760002910D00C1F2368002B00DAE41828008D
S113177000F02FFC1D4A1368002B05D16360146030
S1131780280000F027FC70BDA34209D92168601825
S11317908342F3D118685B6841182160EEE71300B7
S11317A05A68002A01D0A242F9D919685818A042EF
S11317B00BD120680918581819608242E0D11068CA
S11317C05268411819605A60DAE7A04202D90C2322
S11317D02B60D5E721686018824203D110685268F3
S11317E04118216062605C60CAE7C0469001002035
S11317F0032370B5CD1C9D43083506000C2D1ED265
S11318000C25A9421DD8300000F0E3FB254A1468DA
S11318102100002919D1244C2368002B03D1300066
S113182000F010FB20602900300000F00BFB431C8B
S11318302CD10C233000336000F0CCFB03E0002DEE
S1131840DFDA0C233360002070BD0B685B1B1AD4F5
S11318500B2B03D90B60CC18256003E08C420ED10E
S113186063681360300000F0B5FB200007220B30E2
S1131870231D9043C31AE7D05A42E250E4E74B6871
S113188063600C00EEE70C004968C2E70323C41C44
S11318909C43A042E0D0211A300000F0D3FA431C4C
S11318A0DAD1C6E79001002094010020936810B5B6
S11318B0013B9360002B05DA9469A34208DBCBB2A9
S11318C00A2B05D01368581C10601970C8B210BDDB
S11318D0FFF77EFCFBE7F8B506000F001400D518EF
S11318E0AC4201D1002007E021783A003000FFF734
S11318F0DDFF0134431CF3D1F8BD0000F0B59FB007
S113190006000F0014000593002804D08369002BFF
S113191001D1FFF721FE7F4B9F425CD17768BB89E1
S11319201B0762D53B69002B5FD0002306AD6B61BA
S113193020336B761033AB760294029C2378002B11
S11319405DD1029BE31A04930DD0049B029A3900E3
S11319503000FFF7C0FF431C00D1CCE06A69049B50
S1131960944663446B612378002B00D1C3E00122C9
S1131970002352426A6002A95432521801342B6087
S1131980EB60AB601370AB6521780522624800F010
S113199015FB631C9C46002835D12968CB0604D569
S11319A0532302AA20309B1818700B0704D5532325
S11319B02B2002AA9B18187023782A2B2CD00020E5
S11319C00A21099B2278303A092A00D86BE00028C2
S11319D02AD0099328E0514B9F4201D1B7689EE772
S11319E04F4B9F429BD1F76899E739003000FFF7CE
S11319F045FC002899D0012040421FB0F0BD252BA2
S1131A009FD001349AE7444B2968C01A01238340CC
S1131A100B432B606446B7E7059B181D1B680590B4
S1131A20002B3ADB0993644623782E2B0BD1637881
S1131A30621C2A2B3FD1059B02341A1D1B68059298
S1131A40002B35DB079321780322364800F0B6FAE1
S1131A50002807D0334B2A68C01A4023834013431D
S1131A602B6001342178631C06222F4802932976C7
S1131A7000F0A4FA002844D02C4B002B2FD1296865
S1131A80059B0722C90528D59B1893430833059362
S1131A906B69039A9B186B614FE75B42EB6002230F
S1131AA00B432B60BFE74B4301349B18012089E7AC
S1131AB001235B42C6E7002314000A201A006B606E
S1131AC021783039092903D9002BBCD00792BAE711
S1131AD04243013452180123F2E70733D5E705AB3B
S1131AE000933A00124B2900300000E000BF03903D
S1131AF0039B0133CCD1BB895B0600D57BE70B98F4
S1131B007BE705AB00933A00094B2900300000F055
S1131B107FF8ECE7002100004021000020210000B4
S1131B20E0200000462100004A21000000000000DF
S1131B30D7180000F7B5150001938A680B69009067
S1131B400C00934200DA130022002B604332127817
S1131B50002A01D001332B6023689B0602D52B6831
S1131B6002332B60062723681F4027D0230043330A
S1131B701B785A1E93412268920630D422000199A0
S1131B8043320098089EB047431C25D006232068A2
S1131B902A68E16803400025042B03D18D1AEB4326
S1131BA0DB171D40A3682269934201DD9B1AED18DF
S1131BB00027BD4220D1002010E00137E3682A68E5
S1131BC09B1A9F42D2DA220001231932019900980C
S1131BD0089EB047431CF0D101204042FEBD302096
S1131BE0E1184331087021005A1C45310978A218C4
S1131BF0433202331170C1E7220001231A320199E2
S1131C000098089EB047431CE6D00137D1E7000096
S1131C10F0B58BB006920A00433207930590049204
S1131C200A7E0C00109B6E2A00D18FE017D8632A1D
S1131C302CD008D8002A00D199E0582A54D0260084
S1131C404236327029E0642A01D0692AF7D121682A
S1131C501A68080623D5111D1960156825E0732A32
S1131C6000D188E008D86F2A29D0702AE7D1202231
S1131C7009680A43226003E0752A20D0782ADED15D
S1131C8022007821453211706C4A30E00E001A6847
S1131C904236111D196013683370012379E0490637
S1131CA0D9D5111D19600023D55E002D03DA2D232B
S1131CB0049A6D421370624B0A2703932FE0206845
S1131CC01968050603D5081D18600D6805E040066F
S1131CD0F9D50D68081D1860ADB2594B0827039358
S1131CE06F2A18D00A2716E045310A70544A039225
S1131CF01A682168101D18601568080622D5CB07DC
S1131D0002D52023194321601027002D03D120235D
S1131D1022689A4322602300002243331A706368C6
S1131D20A360002B5CDB0422216891432160002D19
S1131D3058D1049E002B64D02600039B42361B78A6
S1131D4033705EE04806DAD5ADB2D8E709681A68A0
S1131D50080605D5111D1960136862691A6006E04A
S1131D604906F7D5111D19601368A28A1A80002349
S1131D70049E236154E01A68111D1960166800213D
S1131D806268300000F01AF9002801D0801B6060FE
S1131D90636823610023049A137041E023693200CD
S1131DA006990598079DA847431C43D0236800253E
S1131DB09B070FD4099BE06898423DDA18003BE08A
S1131DC022000123193206990598079EB047431C47
S1131DD030D00135E368099A9B1A9D42F0DBE9E7AC
S1131DE0002DA9D0049E28003900FFF7F5F8039BC5
S1131DF0013E5B5C280033703900FFF767F8051E6D
S1131E00F1D1082F09D12368DB0706D5636822695D
S1131E10934202DC3023013E3370049B9B1B2361FD
S1131E20079B09AA00932100069B0598FFF782FEF1
S1131E30431CB3D1012040420BB0F0BD622100002D
S1131E4051210000002370B5064C050008002360F2
S1131E50FEF73EFD431C03D12368002B00D02B600A
S1131E6070BDC046B401002070B50C000E25495F5A
S1131E7000F0B2F8002803DB636D1B18636570BDC6
S1131E80A389024A1340A381F9E7C046FFEFFFFF8D
S1131E90F8B51F008B8905000C001600DB0505D57D
S1131EA00E23C95E0022022300F074F8A389054AB8
S1131EB028001340A38132000E23E15E3B0000F0B2
S1131EC01FF8F8BDFFEFFFFF70B50C000E25495F4A
S1131ED000F060F8A389421C03D1054A1340A38192
S1131EE070BD802252011343A3816065F8E7C046A8
S1131EF0FFEFFFFF10B50E23C95E00F015F810BD0B
S1131F0070B50500080011000022064C22601A007A
S1131F10FEF7A4FF431C03D12368002B00D02B60E1
S1131F2070BDC046B4010020002370B5064C050006
S1131F3008002360FEF7DEFC431C03D12368002B5A
S1131F4000D02B6070BDC046B4010020002370B5E2
S1131F50064C0500080011002360FEF7CEFC431C6C
S1131F6003D12368002B00D02B6070BDB401002086
S1131F70002370B5064C050008002360FEF7C2FC80
S1131F80431C03D12368002B00D02B6070BDC046D6
S1131F90B401002070B50500080011000022064CB1
S1131FA022601A00FEF7B0FC431C03D12368002B07
S1131FB000D02B6070BDC046B4010020C9B28218A5
S1131FC0904201D10020704703788B42FBD001304E
S1131FD0F6E770477047000070B50500080011006F
S1131FE00022064C22601A00FEF754FF431C03D162
S1131FF02368002B00D02B6070BDC046B4010020C4
S113200049646C65000000000D0A0D0A23203D3D63
S11320103D3D3D3D3D3D3D3D3D0D0000312E302ECD
S1132020300000002320626C696E6B792025733ABE
S1132030207365652068747470733A2F2F67697410
S11320406875622E636F6D2F7264706F6F722F6D7F
S1132050756C69620D0A0000627574746F6E20708D
S113206072657373656420617420256C750D0A00B4
S1132070427574746F6E20496E74657272757074F3
S1132080000000002E2E2F68616C2F7372632F687E
S1132090616C5F63616C656E6461722E6300000045
S11320A00F0000000F0000002E2E2F68706C2F65AB
S11320B069632F68706C5F6569632E6300000000BC
S11320C02E2E2F68706C2F7274632F68706C5F7281
S11320D074632E63000000004C454400040000209B
S11320E000000000000000000000000000000000EC
S11320F000000000000000000000000000000000DC
S113210000000000000000000000000000000000CB
S113211000000000000000000000000000000000BB
S113212000000000000000000000000000000000AB
S1132130000000000000000000000000000000009B
S1132140232D302B2000686C4C006566674546479C
S1132150003031323334353637383941424344451F
S1132160460030313233343536373839616263648E
S113217065660000F8B5C046F8BC08BC9E467047CA
S1132180DD000000F8B5C046F8BC08BC9E467047A8
S1072190B500000092
S113219404000020000000000021000020210000B1
S11321A4E020000000000000000000000000000027
S11321B40000000000000000000000000000000017
S11321C40000000000000000000000000000000007
S11321D400000000000000000000000000000000F7
S11321E400000000000000000000000000000000E7
S10721F400000000E3
S9030000FC
