S01400006D756C69625F736C696E6B792E73726563FE
S1130000582200206504000061040000610400001F
S113001000000000000000000000000000000000DC
S11300200000000000000000000000006104000067
S113003000000000000000006104000061040000F2
S1130040610400006104000061040000E50F000089
S1130050150D00006104000061040000610400004B
S113006061040000610400006104000061040000F8
S1130070D511000061040000610400006104000067
S113008061040000610400006104000061040000D8
S113009061040000610400006104000061040000C8
S11300A061040000610400006104000061040000B8
S11300B00000000010B5064C2378002B07D1054B37
S11300C0002B02D0044800E000BF0123237010BDC0
S11300D06400002000000000F82C0000084B10B55C
S11300E0002B03D00749084800E000BF0748036815
S11300F0002B00D110BD064B002BFBD09847F9E72D
S11301000000000068000020F82C0000F82C00001B
S11301100000000070470000F0B583B004000191B6
S113012000928568022063689D4201D303B0F0BD4C
S1130130002D0CD1ED0023689C466544019B6B6047
S1130140009B2B60A3680133A3600020EEE76F1EC1
S1130150124B9C466544ED0023689C466544104E52
S113016029680098B047002804D1083D002F12D018
S1130170013FF5E77D1CA3685A1B002ADADDEB007A
S1130180D2002168C9180833180023689C466044CB
S1130190044B9847CEE73D00EDE7C046FFFFFF1F45
S11301A01D0400007F1B000070B50400002585605D
S11301B0C068024B9847E561200070BD3B03000016
S11301C070B5040001604260C360064B03610648D9
S11301D06061064B00220649064DA8472000064BE5
S11301E0984770BD4904000080000020EC2A0000FC
S11301F015010000B3030000A9010000416170472C
S113020010B50369984710BD8368002B06D0044AD3
S113021094466344DB000068C01870470020FCE784
S1130220FFFFFF1FF0B583B004001A4B9847050089
S1130230194E1A4F01A9E068B047012807D02A00D7
S113024001992000B8470028F4D003B0F0BD200085
S1130250134B9847061E05D029000068114B984798
S1130260002805D0606921000F4B98470020ECE777
S113027020001830082231000C4B9847A368013B3A
S1130280A3602100E069084B98470023E361002044
S1130290DBE7C046010200008903000019010000E9
S11302A00902000029040000C50300006D1B0000C2
S11302B070B504000D00044B98470200290020008B
S11302C0024B984770BDC0460102000019010000AE
S11302D070B50400C369002B0DD00320230018332C
S11302E008D0E569A069054B984702002900200061
S11302F0034B984770BD0320FCE7C046050400008B
S11303001901000010B5C068034B984702384342F6
S11303105841400010BDC0465903000010B50323E6
S1130320002A01D1180010BD541E2242FAD10480C3
S11303308160002343808380F4E70023438083802B
S11303400020704783884288013300881840801A4F
S113035043425841C0B2704770B504000D00094BC8
S113036098470223002801D0180070BDA3889B0081
S1130370A2689D50A288013223881340A3800023E1
S1130380F2E7C04645030000438882889BB293424B
S11303900BD0438882689B009B580B6042880132D3
S11303A00388134043800020704700230B60012022
S11303B0FAE70160426083600023C3600361436124
S11303C070470000F8B504000D000C4FB847060054
S11303D029006068236898470500E3680133E360F7
S11303E0B8473100064B984723691B18236163699A
S11303F0984200DD60612800F8BDC0464904000051
S11304001104000010B5014B984710BDF915000008
S113041010B5014B984710BDFD15000010B5014BF8
S1130420984710BD0116000010B50B00010018001C
S1130430014B984710BDC0460116000010B5014B92
S1130440984710BD0916000010B5014B984710BD20
S11304503116000010B5014B984710BD7D06000011
S1130460FEE70000F8B52A4A2A4B9A4211D01A0036
S1130470294B9A420DD2294A03339B1A9B08013314
S11304809B000022234822498C58845004329A420B
S1130490FAD1234A234B9A420AD2D34321495B1807
S11304A003218B4304339B18002102C29342FCD1E5
S11304B01D4AFF211D4B8B439360FD3990235B0044
S11304C01B4AD1501B4AD3780325AB430224234350
S11304D0D370D3780C27BB4308263343D370164B11
S11304E0987B30229043202210439873997BB94320
S11304F0314399739A7BAA4322439A730F4A5368F0
S113050080210B4353600E4B98470E4B9847FEE7F0
S1130510F82C0000000000206400002004000020EB
S1130520640000205802002000ED00E000000000FC
S1130530007000410050004100480041004000416B
S1130540251B0000AD14000070B5104A104B5A80F2
S1130550C022D2058020000250600E4B0E499962E1
S11305600E49996250604F215C5C04252C435C5415
S113057090615A5C0120824302435A5418395A5CF0
S11305800E3002405A54064B984770BD0543000094
S1130590000C00400044004100800240000002C002
S11305A095070000044A136A20210B431362034A8F
S11305B0034B5A807047C0460004004017400000B7
S11305C0000C004030B50E4B5622995C0125A9431E
S11305D001242143C9B299543B20195C473A914301
S11305E00D3A1143195457215A5CAA432243D2B2FB
S11305F05A541A5C48390A4011310A431A5430BD1E
S11306000044004110B582B0064B98470023009384
S11306101033054A05490648064CA047064B98473F
S113062002B010BDA505000098000020001400428F
S113063004020020E5090000C5050000044A93698E
S113064020210B439361034A034B5A807047C046F1
S11306500004004004430000000C004010B5034BAC
S1130660984703490348044B984710BD3D060000D2
S113067000140040E8010020E906000010B50D4B0D
S11306809847C023DB058022D20598215A5010399F
S11306905A50094B20315A50084A5A5036315A5C44
S11306A0012082435A54064B9847064B9847064B01
S11306B0984710BD210C000000440041004000C0D8
S11306C049050000050600005D060000EFF31083F5
S11306D0036072B6BFF35F8F7047BFF35F8F036829
S11306E083F310887047000070B504000D00431EAA
S11306F09841C0B2E022520009490A4B9847236846
S1130700AB4208D0002B08D125602000064B984747
S1130710064B636170BD0020FCE712204042F9E7FC
S1130720F42A0000D50A0000F10E0000B207000010
S113073010B50400431E9841C0B2E622FF320449BA
S1130740044B98472000044B9847002010BDC04636
S1130750F42A0000D50A0000750F000070B50C4B98
S11307605C68A0420ED0012200210126FF2503E08F
S11307702A0053185B080AD1A042F9D9002A06D0EE
S11307803100F6E7024B1B68002B00D0984770BD80
S1130790A800002010B5054B012252425A600022E5
S11307A01A600348034B984710BDC046A8000020B8
S11307B05D070000510C000010B50F4B5B689842B8
S11307C008D0002914D00C4B1B68002B09D00D2035
S11307D040420CE0084B1960002905D1074B9847AB
S11307E005E0054B196058600121044B984710BD82
S11307F00D204042FBE7C046A8000020E90C0000A1
S113080010B5054B9847002803D1044B98470020A6
S113081010BD0D204042FBE7390E0000190C00000A
S113082010B5083800230363436A002B00D09847AF
S113083010BD10B5083800230363C36A002B00D031
S1130840984710BD10B504002C30044B9847236A18
S1130850083C002B01D02000984710BD790B000004
S113086070B504000E00150000281DD000291DD00D
S11308701000431E98413C22FF320F490F4B98470A
S11308804423E25A0833E35A9A4211D1A6644C2312
S1130890E5520022083BE252433B23632000083028
S11308A0074B9847280070BD0020E4E70020E2E7EA
S11308B01C204042F7E7C046102B0000D50A000078
S11308C05111000070B5040001000839838F4C22D7
S11308D08A5A9A420CD00A00896C5D1C4420155235
S11308E0C95C2000044B98472000044B984770BD16
S11308F0034B9847FBE7C046491100005111000023
S113090059110000F0B5CE46474680B585B00500C4
S11309100E001700002815D0002913D0002A2AD170
S1130920AC22520029490020294B984703A8294B9F
S1130930984728003430284B984703A8274B9847FA
S113094000253CE0AC22520020490020204B98476F
S113095003A8204B98473435280001951E4B98472F
S1130960804603A81D4B984700254346002B26D0FC
S1130970002F16D123E0AC22520014490120144B5D
S1130980984703A8134B9847343528000195124B18
S11309909847804603A8114B984743460025002BEF
S11309A00DD000240E4B9946651CADB23119019847
S11309B0C8470134444502D2A3B29F42F4D8280068
S11309C005B00CBC90469946F0BDC046102B000003
S11309D0D50A0000CD060000B90B0000DB060000BC
S11309E0310B0000F8B504000D0016001F000028AC
S11309F026D0002926D0002A26D01800431E98416C
S1130A003A221449144B9847200034303A003100FC
S1130A10124B9847002819D1200008302900104BA8
S1130A20984700280BD10F4B63600F4B23600F4B8B
S1130A30A3600F4BE3600F4B23610F4B6361F8BD61
S1130A400020DDE70020DBE70020D9E70D2040424D
S1130A50F5E7C046102B0000D50A0000DD0A0000AF
S1130A60A51000000509000061080000C508000089
S1130A7045080000210800003308000010B50400F8
S1130A80431E9841C0B261220449054B9847200097
S1130A900830044B9847002010BDC046102B0000BE
S1130AA0D50A00002111000010B50400431E98412E
S1130AB0C0B26C220449054B984720000830044B0F
S1130AC09847002010BDC046102B0000D50A000036
S1130AD035110000002800D100BE704770B5040035
S1130AE00E00150000280BD0002918D00120002A80
S1130AF007D128220C4900200C4B98476B1E07E0B5
S1130B00002028220849094B98476B1E2B4208D124
S1130B1063600023A360E3602660002070BD0020B2
S1130B20EFE70D204042F9E7302B0000D50A000022
S1130B3070B504000D00002815D00800431E98412C
S1130B40C0B240220A490B4B9847A368E2689A4214
S1130B500BD0626813402268D35C2B70A368013306
S1130B60A360002070BD0020EBE70A204042F9E7B3
S1130B70302B0000D50A000070B504000D00431EA0
S1130B809841C0B251220A490A4B98476368E26807
S1130B9013402268D554E3686168A2689A1A8A42AD
S1130BA001D9591AA1600133E360002070BDC04629
S1130BB0302B0000D50A000010B50400431E9841F4
S1130BC0C0B267220349044B9847E068A368C01A7F
S1130BD010BDC046302B0000D50A00000300064AB1
S1130BE01268002A04D0044A1068C31813607047BE
S1130BF00249014A1160F6E7B000002058220020A3
S1130C0001204042704780239B014B6000207047C5
S1130C100120704700207047BFF34F8F30BF7047EB
S1130C2010B5064B5A685A60054B9847054B9847D0
S1130C30054B9847FF20054B984710BD00400041E5
S1130C40710E00004112000085120000FD0D00002D
S1130C50224A5378DB09FCD1204A5378DB09FCD1C2
S1130C601E4B1B789B070AD500221C4B1A701A00D6
S1130C705378DB09FCD1194A5378DB09FCD10122F2
S1130C80164B1A701A005378DB09FCD1134A5378B7
S1130C90DB09FCD1114B00229A705A6080210902B1
S1130CA059619A61A0221206DA611A7802210A4374
S1130CB01A701A005378DB09FCD1094B10228021E9
S1130CC05A50BFF34F8FBFF36F8F0131FF315A502A
S1130CD01A60044B186000207047C046001800409A
S1130CE000E100E0B40000200F2802D00D204042B3
S1130CF07047002906D1064B802212029A601A61BD
S1130D000020F5E780221202014BDA600020EFE7B1
S1130D1000180040F0B5CE46474680B583B0314B4D
S1130D201A69D9680A400192019A1A612E4B18680F
S1130D30431E9841C0B2D2222C492D4B9847019BA7
S1130D40002B49D001235B4299462A4B9846264FF3
S1130D50294D3AE0013AD6B2B1420CD873185B106F
S1130D60DAB20340DB005B5DA34208D09C42F1DDB4
S1130D700132D1B2F0E74B46013305D001E00F2335
S1130D80994648463B689847019B0122A2409343F9
S1130D9001930198174B9847013844B2631C0AD059
S1130DA00F2C05D00F23002201260021FF20DDE7B0
S1130DB00F239946E5E70B4B1A69D9680A4001925B
S1130DC0019A1A61019B002B06D00198C047013893
S1130DD044B2631CE4D1EEE703B00CBC90469946E0
S1130DE0F0BDC04600180040B40000205C2B000099
S1130DF0D50A0000D11A0000542B0000C3070AD5FD
S1130E000B4B802252009A60832252025A601A00CD
S1130E105378DB09FCD1030709D5054B0422FF32C3
S1130E209A60044A5A601A005378DB09FCD170476F
S1130E30000C004003032100022804D903280BD02E
S1130E400D20404207E0084A136904218B431361D3
S1130E50064B587000207047034A136904210B4362
S1130E6013610020F7E7C04600ED00E000040040F5
S1130E70064B1A7AD2B21A725A7AD2B25A729A7A41
S1130E80D2B29A72DA7AD2B2DA72704700040040AF
S1130E9070B504000D00002815D00068431E984169
S1130EA0C0B233220F49104B9847002D0DD0656016
S1130EB00E4B0822C02149005A501A602368073A91
S1130EC0DA71002070BD0020EBE7236801229A71DB
S1130ED008218023054AD150BFF34F8FBFF36F8F92
S1130EE0EFE7C046742B0000D50A000000E100E0E3
S1130EF010B5041E36D00068431E9841C0B2782253
S1130F0019491A4B98471A4B1C602268937ADB09DB
S1130F10FCD1937ADB09FCD113889B070AD513888B
S1130F2002218B431380937ADB09FCD12268937AE4
S1130F30DB09FCD12268138801210B431380937AC7
S1130F40DB09FCD12268937ADB09FCD11380937A04
S1130F50DB09FCD1226853888021C9010B435380EB
S1130F60002010BD0020CAE7742B0000D50A000041
S1130F70B800002010B5041E11D00068431E98412B
S1130F80C0B2AA220749084B984722681388022155
S1130F900B431380937ADB09FCD1002010BD0020A1
S1130FA0EFE7C046742B0000D50A000070B50400BA
S1130FB00D0000280FD00068431E9841C0B2E422FF
S1130FC00649074B9847226893699561937ADB0930
S1130FD0FCD1002070BD0020F1E7C046742B000056
S1130FE0D50A000010B5074B1C6823681B7ADB0781
S1130FF000D410BD200063689847236801221A7248
S1131000F7E7C046B800002010B504001F4BC31812
S11310109B0ADBB2032B04D01D4A1E4900201E4B41
S11310209847E369DB0718D40322E3691A42FCD129
S113103023689B070BD52368022293432360013264
S1131040E3691A42FCD10222E3691A42FCD1052366
S113105023600322E3691A42FCD10122E3691A42A4
S1131060FCD10E4B23600322E3691A42FCD1C02356
S11310709B0263600722E3691A42FCD1084BA381F7
S11310800023A3733022A354002010BD00F8FFBD39
S11310905E0200008C2B0000D50A00000400104002
S11310A004C5FFFF70B505000C00431E9841C0B293
S11310B0C4221449144B98472000144B9847002825
S11310C000D070BDAC61124B9C4217D0114B9C46B2
S11310D06444A40A0934E3B22206F2D41F221A405B
S11310E0012393400C4A80215350BFF34F8FBFF329
S11310F06F8F0131FF3153501360E2E7074B1D60DE
S11311000C23EBE78C2B0000D50A0000091000002B
S11311100014004200F8FFBD00E100E0BC00002024
S11311208269136802210B4313600131D3691942A8
S1131130FCD170478269136802218B43136001312B
S1131140D3691942FCD17047836989B21985704704
S1131150836901229A757047836902229A757047E0
S113116070B504000D001600431E9841C0B2164A23
S11311701649174B984702232A009A430ED1A369B4
S1131180002E05D101221A75A36901321A7570BDAA
S113119001229A75A36901329A75F8E7012D07D0E7
S11311A0032DF4D1A369002E0BD080229A75EEE7AB
S11311B0A369002E02D104221A75E8E704229A7565
S11311C0E5E780221A75E2E71E0200008C2B00007E
S11311D0D50A000010B5194B18688469237EDB0713
S11311E002D5A37DDB070FD4237E9B0702D5A37D05
S11311F09B070ED4237E5B0715D5628B37231A42D7
S11312000CD00833638310BD01232375036898470A
S1131210F9E70223237583689847F4E7218DC9B25F
S113122043689847EFE7237EDB09ECD080232376DD
S1131230C3689847638B9BB26383E4E7BC000020D8
S11312400E4B196A1A6A0E480140920F9207022047
S113125002430A431A629A6902439A611A7F1F2160
S11312600A401A7719000822CB681A42FCD0034AB4
S1131270136A80210B4313627047C0460008004084
S11312800000FF0F024A936902218B439361704768
S11312900008004010B508000A4B984704000A48AB
S11312A00A4B9847C046002C08D02068084B984742
S11312B00548084B9847C046002010BD064B984788
S11312C0F6E7C0460902000004020020A90A000053
S11312D0391700007D0A00006517000070B504008E
S11312E00D00054B00220549054EB047210028009A
S11312F0044B9847200070BDA82B000095120000F5
S1131300B3030000FD01000070B5194CA047194853
S1131310194B984719491A481A4B9847A0471A4C31
S113132025002035082221002800184B9847210069
S11313302C317C342B000A222000154DA847154D72
S113134029001C312E0020363000134B9847290009
S11313503831280040302200104B9847280058307C
S113136021000F4B9847310020000E4B984770BD69
S11313706D150000B82B0000A91C0000CC2B000048
S1131380D42B0000B51B0000C00000201D0300008A
S1131390C10100004001002089140000F513000081
S11313A0DD120000B102000010B502487C30024B8F
S11313B0984710BDC00000202502000010B50800A9
S11313C0034B984701000348034B9847002010BD86
S11313D001020000102C0000B51B000010B5034BE7
S11313E019685868024B984710BDC046B0010020E8
S11313F00503000070B50400074B18605A600749E4
S11314000F20074B9847074B002207492000074D40
S1131410A847200070BDC046B0010020DD130000C5
S1131420B9070000282C0000BD130000B30300001E
S113143010B50C000378002B11D08021C905982326
S1131440C022D205D15000230370F020FF300C4B92
S11314509847010020000B4B9847002010BD8021C5
S1131460C9059433C022D205D150933B03700520A3
S1131470034B984701002000024B9847EDE7C04614
S11314803D040000D102000070B504000A000023EE
S11314900B70034B0349044DA847200070BDC046A0
S11314A03C2C000031140000B303000010B5034BC2
S11314B09847034B9847034CA047FDE755040000A9
S11314C009130000A913000010B5044B1B68002B7E
S11314D002D0024A5068984710BDC046B8010020A7
S11314E010B5084B20229954012101329954064A1F
S11314F0126A073111761B69002B02D0014A506928
S1131500984710BDB801002004020020C04670476F
S1131510C046704710B5044B9B69002B02D0024AA9
S1131520D069984710BDC046B801002010B52223E9
S11315300B4AD35C002B07D1094B9B68002B02D0CC
S1131540074AD068984710BD14002323D15CC9B260
S11315500448054B984700222223E254ECE7C04696
S1131560B80100200C0200204911000010B520220F
S113157000211348134B984713490F20134B9847E6
S1131580134B144A9A60144ADA60144A1A61144AD2
S11315905A611A6A516880239B000B4353600721E8
S11315A0D3691942FCD10A480E4B98470E4C2000CF
S11315B00E4B98470E4920000E4B984710BDC0466D
S11315C0B8010020A31B0000C9140000B9070000E3
S11315D0040200202D150000E11400000D15000088
S11315E0111500007D0A0000E80100203107000009
S11315F015150000910E000008187047401A704736
S1131600401AC00F7047000010B5C00306D5F53866
S1131610FF38FA218900054B984710BDF530FF309B
S1131620FA218900014B9847F7E7C046F9180000F2
S1131630034B1A68937ADB09FCD110697047C046E2
S1131640E801002010B501000748084B9847084BF3
S11316505A888021C9010A435A805A888021090284
S11316600A435A8010BDC046E8010020AD0F0000B7
S113167000140040024B1B6A187E01231840704777
S11316800402002070B50400124B9B68002B1FD08D
S11316902223104AD35C002B05D011002222C0461D
S11316A08B5C002BFBD10B4B23229C540121013A70
S11316B09954213A00210848084B984770BDC04608
S11316C0A8470028FBD021000348054B9847F5E7BD
S11316D0044DF5E7B80100200C0200206111000060
S11316E0491100007516000010B5012201210B48B4
S11316F00B4B984721230B4AD35C002B05D11100D7
S11317002122C0468B5C002BFBD0064B00212122FA
S11317109954013A985CC0B210BDC0460C02002036
S113172061110000B80100202123024AD05CC0B23C
S11317307047C046B801002010B50400064B984716
S1131740201A202800DC10BD2000044B98470320F9
S1131750034B9847F7E7C0463116000045160000D2
S11317600108000010B50320014B984710BDC04686
S113177001080000F0B5C64600B59046002A0CDD0D
S11317800D0041440E00074C074FA0470028FCD031
S11317902878B8470135B542F7D1404604BC904695
S11317A0F0BDC0467516000085160000F0B5C646AB
S11317B000B59046002A0CDD0D0041440E00074C94
S11317C0074FA0470028FCD0B84728700135B54220
S11317D0F7D1404604BC9046F0BDC046291700002E
S11317E0E9160000002243088B4274D303098B429C
S11317F05FD3030A8B4244D3030B8B4228D3030CDD
S11318008B420DD3FF22090212BA030C8B4202D37E
S11318101212090265D0030B8B4219D300E0090AA6
S1131820C30B8B4201D3CB03C01A5241830B8B42AF
S113183001D38B03C01A5241430B8B4201D34B0398
S1131840C01A5241030B8B4201D30B03C01A5241FD
S1131850C30A8B4201D3CB02C01A5241830A8B4282
S113186001D38B02C01A5241430A8B4201D34B026B
S1131870C01A5241030A8B4201D30B02C01A5241CF
S1131880CDD2C3098B4201D3CB01C01A5241830983
S11318908B4201D38B01C01A524143098B4201D3BD
S11318A04B01C01A524103098B4201D30B01C01AE8
S11318B05241C3088B4201D3CB00C01A5241830862
S11318C08B4201D38B00C01A524143088B4201D38F
S11318D04B00C01A5241411A00D2014652411046EF
S11318E07047FFE701B5002000F0F0F802BDC046E4
S11318F00029F7D076E7704703460B437FD40022D4
S113190043088B4274D303098B425FD3030A8B428F
S113191044D3030B8B4228D3030C8B420DD3FF22F9
S1131920090212BA030C8B4202D31212090265D0C7
S1131930030B8B4219D300E0090AC30B8B4201D37A
S1131940CB03C01A5241830B8B4201D38B03C01AC1
S11319505241430B8B4201D34B03C01A5241030B38
S11319608B4201D30B03C01A5241C30A8B4201D3E9
S1131970CB02C01A5241830A8B4201D38B02C01A94
S11319805241430A8B4201D34B02C01A5241030A0B
S11319908B4201D30B02C01A5241CDD2C3098B42F0
S11319A001D3CB01C01A524183098B4201D38B016D
S11319B0C01A524143098B4201D34B01C01A524110
S11319C003098B4201D30B01C01A5241C3088B4255
S11319D001D3CB00C01A524183088B4201D38B0040
S11319E0C01A524143088B4201D34B00C01A5241E2
S11319F0411A00D201465241104670475DE0CA0FB9
S1131A0000D04942031000D34042534000229C4678
S1131A1003098B422DD3030A8B4212D3FC22890182
S1131A2012BA030A8B420CD3890192118B4208D358
S1131A30890192118B4204D389013AD0921100E0BA
S1131A408909C3098B4201D3CB01C01A52418309CE
S1131A508B4201D38B01C01A524143098B4201D3FB
S1131A604B01C01A524103098B4201D30B01C01A26
S1131A705241C3088B4201D3CB00C01A52418308A0
S1131A808B4201D38B00C01A5241D9D243088B42F6
S1131A9001D34B00C01A5241411A00D20146634699
S1131AA052415B10104601D34042002B00D54942FD
S1131AB0704763465B1000D3404201B5002000F03C
S1131AC005F802BD0029F8D016E770477047C046F4
S1131AD010B50023002802D000F004F8431C1800BD
S1131AE010BDC046414208401C2101231B049842FA
S1131AF001D3000C10391B0A984201D3000A08399B
S1131B001B09984201D30009043902A2105C401A4F
S1131B107047C0461B1C1D1D1E1E1E1E1F1F1F1F9F
S1131B201F1F1F1F70B500260C4D0D4C641BA41005
S1131B30A64209D1002601F0CFF80A4D0A4C641BD5
S1131B40A410A64205D170BDB300EB5898470136E6
S1131B50EEE7B300EB5898470136F2E7E42C0000B7
S1131B60E42C0000E42C0000E82C0000002310B555
S1131B709A4200D110BDCC5CC4540133F8E710B5CF
S1131B80884202D98B18984208D300239A4207D07E
S1131B90CC5CC4540133F9E78B5C8354013AFBD227
S1131BA010BD03008218934200D1704719700133AD
S1131BB0F9E700000FB40B4B13B51C68002C05D0DB
S1131BC0A369002B02D1200000F03CFA05AB049A73
S1131BD0A1682000019300F007FC16BC08BC04B007
S1131BE01847C0460000002070B505000E0000280C
S1131BF004D08369002B01D100F024FAAB69AC68EE
S1131C00002B02D1280000F01DFA244B9C420FD176
S1131C106C68A3891B0702D52369002B20D12100FE
S1131C20280000F0A1F800281AD00120404270BD1D
S1131C301B4B9C4201D1AC68EBE71A4B9C42E8D1A8
S1131C40EC68E6E7013B0136A360002B04DAA269E5
S1131C50934216DB0A2914D023685A1C2260197097
S1131C603178A3680029EDD1013BA360002B0FDA82
S1131C7022000A31280000F021F8431CD5D00A20A4
S1131C80D5E72200280000F019F8431CE8D1CCE77E
S1131C900A2023685A1C22601870C8E7642C0000CC
S1131CA0842C0000442C000010B5034B010018687C
S1131CB0FFF79AFF10BDC04600000020F8B50500EC
S1131CC00E001400002804D08369002B01D100F019
S1131CD0B9F9224B9C422DD16C68A369A360A389F6
S1131CE01B0731D52369002B2ED023682269F7B254
S1131CF0981A6369F6B2984205DB2100280000F0C7
S1131D0033F9002826D1A3680130013BA36023687E
S1131D105A1C22601F706369984204D0A389DB07B0
S1131D201AD50A2E18D12100280000F01DF9002828
S1131D3012D00FE00A4B9C4201D1AC68CDE7094BAD
S1131D409C42CAD1EC68C8E72100280000F00CF8D6
S1131D500028CAD0012676423000F8BD642C000069
S1131D60842C0000442C0000364B70B51D6806001E
S1131D700C00002D05D0AB69002B02D1280000F027
S1131D8061F9314B9C420FD16C680C23E25E93B233
S1131D9019072DD4D90611D4092301203360373310
S1131DA01343A381404270BD284B9C4201D1AC68CF
S1131DB0EBE7274B9C42E8D1EC68E6E75B0713D5D9
S1131DC0616B002908D023004433994202D03000CB
S1131DD000F03AFA002363632422A3899343A38186
S1131DE000236360236923600823A2891343A3812A
S1131DF02369002B0BD1A0218022A38989009200A2
S1131E000B40934203D02100300000F0D9F90123A4
S1131E10A289134011D00023A36063695B42A361CC
S1131E20002023698342BED10C23E25E1306BAD597
S1131E3040231343A3810138B5E7920700D46369B3
S1131E40A360EDE700000020642C0000842C000057
S1131E50442C0000F7B58A8905000C00130760D4F0
S1131E604B68002B04DC0B6C002B01DC0020FEBD56
S1131E70E76A002FFAD000232E682B6080235B01D1
S1131E801A4034D0606DA3895B0706D56368C01A15
S1131E90636B002B01D0236CC01A0200216A00235B
S1131EA02800E76AB847A189431C06D12B681D2B7B
S1131EB031D82C4ADA40D3072DD500236360236937
S1131EC02360CB0405D5431C02D12B68002B00D121
S1131ED06065616B2E600029C8D0230044339942A9
S1131EE002D0280000F0B0F900206063BFE70123AE
S1131EF0216A2800B847431CC5D12B68002BC2D0E7
S1131F001D2B01D0162B01D12E60AFE74023A289EF
S1131F101343A381ABE740230B430120A381404239
S1131F20A5E70F69002FA1D00B680F60DB1B01939D
S1131F300023920700D14B69A360019B002B00DCB6
S1131F4094E7019B3A00216A2800A66AB04700285A
S1131F5003DC4023A2891343DFE7019B3F181B1ACC
S1131F600193EAE7010040200B6970B505000C00FD
S1131F70002B01D1002070BD002804D08369002B00
S1131F8001D100F05FF80B4B9C4209D16C680C2224
S1131F90A35E002BEED021002800FFF75BFFEAE7E9
S1131FA0054B9C4201D1AC68F1E7044B9C42EED155
S1131FB0EC68ECE7642C0000842C0000442C000046
S1131FC010B5024900F0B2F810BDC046691F000008
S1131FD0002310B50400036043608360818143667D
S1131FE0C281036143618361190008225C30FFF7F9
S1131FF0D8FD054B24626362044BA362044BE36285
S1132000044B236310BDC046552900007D29000000
S1132010B5290000E129000070B568254A1E554322
S11320200E002900743100F059F9041E08D0002173
S11320302A00016046600C30A0606832FFF7B1FDF1
S1132040200070BD836913B50400002B28D183647C
S1132050C3640365134B144A1B688262019398425C
S113206001D101238361200000F020F8606020008A
S113207000F01CF8A060200000F018F80022E060D6
S113208004216068FFF7A4FF01220921A068FFF77B
S11320909FFF02221221E068FFF79AFF0123A36148
S11320A013BDC046402C0000C11F0000F8B51E4BF4
S11320B007001E68B369002B02D13000FFF7C2FF8E
S11320C04836B4687368013B04D53368002B07D0E5
S11320D03668F6E70C22A55E002D0DD06834F2E7D1
S11320E004213800FFF798FF30600028F0D10C235A
S11320F004003B602000F8BD012320005B42E38123
S11321000233A38165662560A5606560256165610C
S1132110A561082229005C30FFF743FD6563A563D0
S1132120A564E564E6E7C046402C0000F7B504006A
S11321300700002601914834002C01D13000FEBD77
S11321406368A5680093009B013B009301D5246854
S1132150F2E7AB89012B08D90E22AB5E013304D020
S113216029003800019B984706436835EBE70000D7
S113217070B50E001D000E23C95E90B01400002936
S113218007DA00232B60B3891B0611D48023DB00FC
S11321900FE001AA00F050FC0028F2DBF022029BC1
S11321A012021340054A9B185A4253412B60EDE733
S11321B040230020236010B070BDC04600E0FFFF44
S11321C0F7B502268B8905000C00334206D02300A4
S11321D047332360236101236361F7BD01AB6A4682
S11321E0FFF7C6FF00990700280000F077F80028E1
S11321F008D10C22A35E9A05EFD4032293431E4315
S1132200A681E4E70F4BAB628023A28920601343CD
S1132210A381009B20616361019B002B0DD00E23E1
S1132220E15E280000F01AFC002806D00322A389EE
S113223093431A0001231343A381A0893843A08147
S1132240CBE7C046C11F000070B50500002910D0BF
S11322500C1F2368002B00DAE418280000F02FFC80
S11322601D4A1368002B05D163601460280000F038
S113227027FC70BDA34209D9216860188342F3D1B9
S113228018685B6841182160EEE713005A68002A59
S113229001D0A242F9D919685818A0420BD120687C
S11322A00918581819608242E0D110685268411820
S11322B019605A60DAE7A04202D90C232B60D5E7F3
S11322C021686018824203D1106852684118216065
S11322D062605C60CAE7C046E0010020032370B579
S11322E0CD1C9D43083506000C2D1ED20C25A94299
S11322F01DD8300000F0E3FB254A146821000029B2
S113230019D1244C2368002B03D1300000F010FBBA
S113231020602900300000F00BFB431C2CD10C235F
S11323203000336000F0CCFB03E0002DDFDA0C2337
S11323303360002070BD0B685B1B1AD40B2B03D9D0
S11323400B60CC18256003E08C420ED163681360E7
S1132350300000F0B5FB200007220B30231D904312
S1132360C31AE7D05A42E250E4E74B6863600C00BA
S1132370EEE70C004968C2E70323C41C9C43A04257
S1132380E0D0211A300000F0D3FA431CDAD1C6E7BA
S1132390E0010020E4010020936810B5013B936044
S11323A0002B05DA9469A34208DBCBB20A2B05D0D3
S11323B01368581C10601970C8B210BDFFF77EFC7A
S11323C0FBE7F8B506000F001400D518AC4201D1A4
S11323D0002007E021783A003000FFF7DDFF0134E8
S11323E0431CF3D1F8BD0000F0B59FB006000F0008
S11323F014000593002804D08369002B01D1FFF752
S113240021FE7F4B9F425CD17768BB891B0762D555
S11324103B69002B5FD0002306AD6B6120336B76E4
S11324201033AB760294029C2378002B5DD1029B7F
S1132430E31A04930DD0049B029A39003000FFF78D
S1132440C0FF431C00D1CCE06A69049B94466344FA
S11324506B612378002B00D1C3E001220023524298
S11324606A6002A95432521801342B60EB60AB60ED
S11324701370AB6521780522624800F015FB631CDC
S11324809C46002835D12968CB0604D5532302AADB
S113249020309B1818700B0704D553232B2002AA55
S11324A09B18187023782A2B2CD000200A21099B12
S11324B02278303A092A00D86BE000282AD0099300
S11324C028E0514B9F4201D1B7689EE74F4B9F4292
S11324D09BD1F76899E739003000FFF745FC0028E5
S11324E099D0012040421FB0F0BD252B9FD001346C
S11324F09AE7444B2968C01A012383400B432B609D
S11325006446B7E7059B181D1B680590002B3ADB52
S11325100993644623782E2B0BD16378621C2A2BF3
S11325203FD1059B02341A1D1B680592002B35DB35
S1132530079321780322364800F0B6FA002807D022
S1132540334B2A68C01A4023834013432B60013461
S11325502178631C06222F480293297600F0A4FAFE
S1132560002844D02C4B002B2FD12968059B07222F
S1132570C90528D59B189343083305936B69039ABF
S11325809B186B614FE75B42EB6002230B432B60AC
S1132590BFE74B4301349B18012089E701235B42C9
S11325A0C6E7002314000A201A006B602178303932
S11325B0092903D9002BBCD00792BAE7424301345E
S11325C052180123F2E70733D5E705AB00933A002D
S11325D0124B2900300000E000BF0390039B01333D
S11325E0CCD1BB895B0600D57BE70B987BE705ABB9
S11325F000933A00094B2900300000F07FF8ECE723
S1132600642C0000A42C0000842C0000442C000046
S1132610AA2C0000AE2C000000000000C323000020
S1132620F7B5150001938A680B6900900C0093427A
S113263000DA130022002B6043321278002A01D002
S113264001332B6023689B0602D52B6802332B6071
S1132650062723681F4027D0230043331B785A1EC4
S113266093412268920630D42200019943320098A3
S1132670089EB047431C25D0062320682A68E168D9
S113268003400025042B03D18D1AEB43DB171D40B7
S1132690A3682269934201DD9B1AED180027BD420D
S11326A020D1002010E00137E3682A689B1A9F427A
S11326B0D2DA22000123193201990098089EB0470A
S11326C0431CF0D101204042FEBD3020E1184331CB
S11326D0087021005A1C45310978A218433202338C
S11326E01170C1E7220001231A3201990098089E53
S11326F0B047431CE6D00137D1E70000F0B58BB0FA
S113270006920A0043320793059004920A7E0C0055
S1132710109B6E2A00D18FE017D8632A2CD008D8DA
S1132720002A00D199E0582A54D02600423632704B
S113273029E0642A01D0692AF7D121681A680806B9
S113274023D5111D1960156825E0732A00D188E08E
S113275008D86F2A29D0702AE7D1202209680A43B1
S1132760226003E0752A20D0782ADED12200782165
S1132770453211706C4A30E00E001A684236111D61
S1132780196013683370012379E04906D9D5111D06
S113279019600023D55E002D03DA2D23049A6D42BF
S11327A01370624B0A2703932FE02068196805060B
S11327B003D5081D18600D6805E04006F9D50D68BD
S11327C0081D1860ADB2594B082703936F2A18D01F
S11327D00A2716E045310A70544A03921A682168A0
S11327E0101D18601568080622D5CB0702D52023D2
S11327F0194321601027002D03D1202322689A4316
S113280022602300002243331A706368A360002B04
S11328105CDB0422216891432160002D58D1049E81
S1132820002B64D02600039B42361B7833705EE095
S11328304806DAD5ADB2D8E709681A68080605D59E
S1132840111D1960136862691A6006E04906F7D51C
S1132850111D19601368A28A1A800023049E236143
S113286054E01A68111D196016680021626830006E
S113287000F01AF9002801D0801B606063682361AE
S11328800023049A137041E02369320006990598E5
S1132890079DA847431C43D0236800259B070FD4FA
S11328A0099BE06898423DDA18003BE022000123CE
S11328B0193206990598079EB047431C30D001355C
S11328C0E368099A9B1A9D42F0DBE9E7002DA9D041
S11328D0049E28003900FFF70BF8039B013E5B5C64
S11328E0280033703900FEF77DFF051EF1D1082F53
S11328F009D12368DB0706D563682269934202DCA9
S11329003023013E3370049B9B1B2361079B09AA60
S113291000932100069B0598FFF782FE431CB3D168
S1132920012040420BB0F0BDC62C0000B52C0000C5
S1132930002370B5064C050008002360FEF74EF92D
S1132940431C03D12368002B00D02B6070BDC0460C
S11329505402002070B50C000E25495F00F0B2F857
S1132960002803DB636D1B18636570BDA389024AED
S11329701340A381F9E7C046FFEFFFFFF8B51F003E
S11329808B8905000C001600DB0505D50E23C95EF6
S11329900022022300F074F8A389054A280013409A
S11329A0A38132000E23E15E3B0000F01FF8F8BD66
S11329B0FFEFFFFF70B50C000E25495F00F060F8D3
S11329C0A389421C03D1054A1340A38170BD802210
S11329D052011343A3816065F8E7C046FFEFFFFF90
S11329E010B50E23C95E00F015F810BD70B50500D2
S11329F0080011000022064C22601A00FEF7BAFEFD
S1132A00431C03D12368002B00D02B6070BDC0464B
S1132A1054020020002370B5064C05000800236012
S1132A20FEF7EEF8431C03D12368002B00D02B6083
S1132A3070BDC04654020020002370B5064C05004A
S1132A40080011002360FEF7DEF8431C03D123685D
S1132A50002B00D02B6070BD54020020002370B501
S1132A60064C050008002360FEF7D2F8431C03D18E
S1132A702368002B00D02B6070BDC0465402002098
S1132A8070B50500080011000022064C22601A00EF
S1132A90FEF7C0F8431C03D12368002B00D02B6041
S1132AA070BDC04654020020C9B28218904201D1C0
S1132AB00020704703788B42FBD00130F6E7704763
S1132AC07047000070B50500080011000022064C94
S1132AD022601A00FEF76AFE431C03D12368002B10
S1132AE000D02B6070BDC0465402002049646C6560
S1132AF0000000002E2E2F68616C2F7372632F6804
S1132B00616C5F63616C656E6461722E63000000CA
S1132B102E2E2F68616C2F7372632F68616C5F7542
S1132B20736172745F6173796E632E6300000000D9
S1132B302E2E2F68616C2F7574696C732F737263FA
S1132B402F7574696C735F72696E6762756666650A
S1132B50722E63000F0000000F0000002E2E2F685D
S1132B60706C2F6569632F68706C5F6569632E6391
S1132B70000000002E2E2F68706C2F7274632F6873
S1132B80706C5F7274632E63000000002E2E2F6839
S1132B90706C2F736572636F6D2F68706C5F7365F3
S1132BA072636F6D2E630000536C656570696E67A8
S1132BB02049646C650000000D0A0D0A23203D3D88
S1132BC03D3D3D3D3D3D3D3D3D0D0000312E302E12
S1132BD03000000023206D756C69625F736C696E50
S1132BE06B792025733A207365652068747470735B
S1132BF03A2F2F6769746875622E636F6D2F726444
S1132C00706F6F722F6D756C69620D0A00000000A1
S1132C10627574746F6E207072657373656420617D
S1132C207420256C750D0A00427574746F6E20490A
S1132C306E74657272757074000000004C45440037
S1132C40040000200000000000000000000000005C
S1132C500000000000000000000000000000000070
S1132C600000000000000000000000000000000060
S1132C700000000000000000000000000000000050
S1132C800000000000000000000000000000000040
S1132C900000000000000000000000000000000030
S1132CA000000000232D302B2000686C4C0065666A
S1132CB06745464700303132333435363738394189
S1132CC0424344454600303132333435363738399F
S1132CD06162636465660000F8B5C046F8BC08BC70
S1132CE09E467047DD000000F8B5C046F8BC08BC3D
S10B2CF09E467047B500000088
S1132CF80400002000000000642C0000842C000064
S1132D08442C000000000000000000000000000047
S1132D1800000000000000000000000000000000A7
S1132D280000000000000000000000000000000097
S1132D380000000000000000000000000000000087
S1132D480000000000000000000000000000000077
S1072D580000000073
S9030000FC
