:100000008821002035040000310400003104000084
:1000100000000000000000000000000000000000E0
:10002000000000000000000000000000310400009B
:100030000000000000000000310400003104000056
:10004000310400003104000031040000710F000091
:10005000A10C000031040000310400003104000054
:1000600031040000310400003104000031040000BC
:10007000D9100000310400003104000031040000F8
:10008000310400003104000031040000310400009C
:10009000310400003104000031040000310400008C
:1000A000310400003104000031040000310400007C
:1000B0000000000010B5064C2378002B07D1054B3B
:1000C000002B02D0044800E000BF0123237010BDC4
:1000D0006400002000000000F8230000084B10B569
:1000E000002B03D00749084800E000BF0748036819
:1000F000002B00D110BD064B002BFBD09847F9E731
:100100000000000068000020F8230000F823000031
:100110000000000010B5044B1B68002B02D0024AFF
:100120005068984710BDC0468000002010B5034BB2
:100130009B68002B00D0984710BDC046800000206F
:1001400010B5054B1B6A08221A76044B1B69002B5D
:1001500001D00800984710BD300100208000002029
:10016000C0467047C046704710B5044B9B69002BD2
:1001700002D0024AD069984710BDC04680000020D6
:1001800010B5202200211948194B984719490F2012
:10019000194B9847194B1A4A9A601A4ADA601A4A58
:1001A0001A611A4A5A610122196A8A750132196A5A
:1001B0008A750232196A8A757C32196A8A751A6AD6
:1001C000516880239B000B4353600721D369194278
:1001D000FCD10A480E4B98470E4C20000E4B984716
:1001E0000E4920000E4B984710BDC04680000020ED
:1001F0002D180000150100008907000030010020C3
:100200002D010000410100006101000065010000B6
:100210004D0A0000140100200107000069010000E0
:100220001D0E000008187047401A7047401AC00F92
:100230007047000010B5C00306D5F538FF38FA2125
:100240008900054B984710BDF530FF30FA21890031
:10025000014B9847F7E7C046B9150000FA239B0009
:100260004343002B08DA094A94466344D8174004F4
:10027000400CC018C01370478022D20194466344DA
:10028000D8174004400CC018C013F4E700C0FFFFAB
:10029000034B1A68937ADB09FCD110697047C0469A
:1002A00014010020002803D0044B9861D9617047E5
:1002B000024B00229A61DA61F9E7C0468000002013
:1002C00010B501000748084B9847084B5A88802111
:1002D000C9010A435A805A88802109020A435A8078
:1002E00010BDC04614010020390F0000001400406A
:1002F000002806D08021C9059423C022D205D15000
:1003000070478021C9059823C022D205D150F7E754
:1003100010B582B001A80B4B9847C022D2058023AC
:10032000D45820330849CB589021505858400440A5
:100330005C4001A8054B9847A40F01204440204091
:1003400002B010BD9D06000000440041AB06000055
:1003500010B582B001A80A4B9847C022D205146894
:10036000084B1B6A1069584004405C4001A8064BCA
:100370009847E40B01204440204002B010BDC04625
:100380009D06000000440041AB060000002803D099
:10039000044B186059607047024B00221A605A6083
:1003A000F9E7C04680000020024B1B6A187E01233B
:1003B0001840704730010020064B9B68002B03D08B
:1003C000054B1B6A01229A75034B1B6A80B2188584
:1003D0007047C0468000002030010020014B1861AA
:1003E0007047C0468000002010B50400064B9847B7
:1003F000201A202800DC10BD2000044B9847032061
:10040000034B9847F7E7C04691020000C102000085
:10041000D107000010B50320014B984710BDC0461E
:10042000D107000010B5014B984710BD4D060000E4
:10043000FEE70000F8B52A4A2A4B9A4211D01A006A
:10044000294B9A420DD2294A03339B1A9B08013348
:100450009B000022234822498C58845004329A423F
:10046000FAD1234A234B9A420AD2D34321495B183B
:1004700003218B4304339B18002102C29342FCD119
:100480001D4AFF211D4B8B439360FD3990235B0078
:100490001B4AD1501B4AD3780325AB430224234384
:1004A000D370D3780C27BB4308263343D370164B45
:1004B000987B30229043202210439873997BB94354
:1004C000314399739A7BAA4322439A730F4A536824
:1004D00080210B4353600E4B98470E4B9847FEE725
:1004E000F823000000000020640000200400002029
:1004F000640000208401002000ED00E00000000006
:10050000007000410050004100480041004000419F
:10051000E51700009911000070B5104A104B5A8081
:10052000C022D2058020000250600E4B0E49996215
:100530000E49996250604F215C5C04252C435C5449
:1005400090615A5C0120824302435A5418395A5C24
:100550000E3002405A54064B984770BD05430000C8
:10056000000C00400044004100800240000002C036
:1005700065070000044A136A20210B431362034AF3
:10058000034B5A807047C0460004004017400000EB
:10059000000C004030B50E4B5622995C0125A94352
:1005A00001242143C9B299543B20195C473A914335
:1005B0000D3A1143195457215A5CAA432243D2B22F
:1005C0005A541A5C48390A4011310A431A5430BD52
:1005D0000044004110B582B0064B984700230093B9
:1005E0001033054A05490648064CA047064B984774
:1005F00002B010BD75050000A800002000140042E4
:1006000030010020B509000095050000044A9369F7
:1006100020210B439361034A034B5A807047C04625
:100620000004004004430000000C004010B5034BE0
:10063000984703490348044B984710BD0D06000036
:100640000014004014010020B906000010B50D4B45
:100650009847C023DB058022D20598215A501039D3
:100660005A50094B20315A50084A5A5036315A5C78
:10067000012082435A54064B9847064B9847064B35
:10068000984710BDAD0B000000440041004000C081
:1006900019050000D50500002D060000EFF31083BA
:1006A000036072B6BFF35F8F7047BFF35F8F03685D
:1006B00083F310887047000070B504000D00431EDE
:1006C0009841C0B2E022520009490A4B984723687A
:1006D000AB4208D0002B08D125602000064B98477C
:1006E000064B636170BD0020FCE712204042F9E731
:1006F000A8200000790A00007D0E0000B20700006B
:1007000010B50400431E9841C0B2E622FF320449EE
:10071000044B98472000044B9847002010BDC0466A
:10072000A8200000790A0000010F000070B50C4BF2
:100730005C68A0420ED0012200210126FF2503E0C3
:100740002A0053185B080AD1A042F9D9002A06D022
:100750003100F6E7024B1B68002B00D0984770BDB4
:10076000B800002010B5054B012252425A60002209
:100770001A600348034B984710BDC046B8000020DC
:100780002D070000DD0B000010B50F4B5B68984291
:1007900008D0002914D00C4B1B68002B09D00D2069
:1007A00040420CE0084B1960002905D1074B9847DF
:1007B00005E0054B196058600121044B984710BDB6
:1007C0000D204042FBE7C046B8000020750C000039
:1007D00010B5054B9847002803D1044B98470020DB
:1007E00010BD0D204042FBE7C50D0000A50B000029
:1007F00010B5083800230363436A002B00D09847E4
:1008000010BD10B5083800230363C36A002B00D065
:10081000984710BD10B504002C30044B9847236A4C
:10082000083C002B01D02000984710BD1D0B000094
:1008300070B504000E00150000281DD000291DD041
:100840001000431E98413C22FF320F490F4B98473E
:100850004423E25A0833E35A9A4211D1A6644C2346
:10086000E5520022083BE252433B2363200008305C
:10087000074B9847280070BD0020E4E70020E2E71E
:100880001C204042F7E7C046C4200000790A00005F
:10089000C910000070B5040001000839838F4C2294
:1008A0008A5A9A420CD00A00896C5D1C4420155269
:1008B000C95C2000044B98472000044B984770BD4A
:1008C000034B9847FBE7C046C1100000C910000069
:1008D000D1100000F0B5CE46474680B585B0050082
:1008E0000E001700002815D0002913D0002A2AD1A5
:1008F000AC22520029490020294B984703A8294BD4
:10090000984728003430284B984703A8274B98472E
:1009100000253CE0AC22520020490020204B9847A3
:1009200003A8204B98473435280001951E4B984763
:10093000804603A81D4B984700254346002B26D030
:10094000002F16D123E0AC22520014490120144B91
:10095000984703A8134B9847343528000195124B4C
:100960009847804603A8114B984743460025002B23
:100970000DD000240E4B9946651CADB2311901987B
:10098000C8470134444502D2A3B29F42F4D828009C
:1009900005B00CBC90469946F0BDC046C42000008E
:1009A000790A00009D0600005D0B0000AB06000008
:1009B000D50A0000F8B504000D0016001F0000283D
:1009C00026D0002926D0002A26D01800431E9841A0
:1009D0003A221449144B9847200034303A00310031
:1009E000124B9847002819D1200008302900104BDD
:1009F000984700280BD10F4B63600F4B23600F4BC0
:100A0000A3600F4BE3600F4B23610F4B6361F8BD95
:100A10000020DDE70020DBE70020D9E70D20404281
:100A2000F5E7C046C4200000790A0000810A0000F2
:100A300031100000D50800003108000095080000C2
:100A400015080000F10700000308000010B50400BD
:100A5000431E9841C0B261220449054B98472000CB
:100A60000830044B9847002010BDC046C420000049
:100A7000790A0000AD100000002800D100BE7047C8
:100A800070B504000E00150000280BD0002918D006
:100A90000120002A07D128220C4900200C4B98473E
:100AA0006B1E07E0002028220849094B98476B1E5F
:100AB0002B4208D163600023A360E360266000201E
:100AC00070BD0020EFE70D204042F9E7E420000070
:100AD000790A000070B504000D00002815D0080048
:100AE000431E9841C0B240220A490B4B9847A36865
:100AF000E2689A420BD0626813402268D35C2B7084
:100B0000A3680133A360002070BD0020EBE70A203A
:100B10004042F9E7E4200000790A000070B50400C3
:100B20000D00431E9841C0B251220A490A4B984712
:100B30006368E26813402268D554E3686168A2687C
:100B40009A1A8A4201D9591AA1600133E360002040
:100B500070BDC046E4200000790A000010B5040012
:100B6000431E9841C0B267220349044B9847E0688E
:100B7000A368C01A10BDC046E4200000790A000036
:100B80000300064A1268002A04D0044A1068C318F9
:100B9000136070470249014A1160F6E7C000002067
:100BA00088210020BFF34F8F30BF704710B5064B30
:100BB0005A685A60054B9847054B9847054B98472C
:100BC000FF20054B984710BD00400041FD0D00007F
:100BD0004511000089110000890D0000224A537858
:100BE000DB09FCD1204A5378DB09FCD11E4B1B7872
:100BF0009B070AD500221C4B1A701A005378DB0998
:100C0000FCD1194A5378DB09FCD10122164B1A702A
:100C10001A005378DB09FCD1134A5378DB09FCD165
:100C2000114B00229A705A608021090259619A6121
:100C3000A0221206DA611A7802210A431A701A00F9
:100C40005378DB09FCD1094B102280215A50BFF3A5
:100C50004F8FBFF36F8F0131FF315A501A60044B31
:100C6000186000207047C0460018004000E100E016
:100C7000C40000200F2802D00D20404270470029F8
:100C800006D1064B802212029A601A610020F5E715
:100C900080221202014BDA600020EFE700180040CA
:100CA000F0B5CE46474680B583B0314B1A69D96856
:100CB0000A400192019A1A612E4B1868431E98410E
:100CC000C0B2D2222C492D4B9847019B002B49D012
:100CD00001235B4299462A4B9846264F294D3AE01C
:100CE000013AD6B2B1420CD873185B10DAB20340A5
:100CF000DB005B5DA34208D09C42F1DD0132D1B242
:100D0000F0E74B46013305D001E00F2399464846F2
:100D10003B689847019B0122A240934301930198AD
:100D2000174B9847013844B2631C0AD00F2C05D0EA
:100D30000F23002201260021FF20DDE70F23994623
:100D4000E5E70B4B1A69D9680A400192019A1A61CA
:100D5000019B002B06D00198C047013844B2631CA8
:100D6000E4D1EEE703B00CBC90469946F0BDC04616
:100D700000180040C400002010210000790A000083
:100D80009117000008210000C3070AD50B4B8022F1
:100D900052009A60832252025A601A005378DB098B
:100DA000FCD1030709D5054B0422FF329A60044A9F
:100DB0005A601A005378DB09FCD17047000C0040E0
:100DC00003032100022804D903280BD00D20404240
:100DD00007E0084A136904218B431361064B5870DE
:100DE00000207047034A136904210B43136100205C
:100DF000F7E7C04600ED00E000040040064B1A7A19
:100E0000D2B21A725A7AD2B25A729A7AD2B29A720A
:100E1000DA7AD2B2DA7270470004004070B504008A
:100E20000D00002815D00068431E9841C0B233223F
:100E30000F49104B9847002D0DD065600E4B0822CE
:100E4000C02149005A501A602368073ADA7100201D
:100E500070BD0020EBE7236801229A7108218023EE
:100E6000054AD150BFF34F8FBFF36F8FEFE7C046F6
:100E700028210000790A000000E100E010B5041EFE
:100E800036D00068431E9841C0B2782219491A4BE7
:100E900098471A4B1C602268937ADB09FCD1937A3D
:100EA000DB09FCD113889B070AD5138802218B43E9
:100EB0001380937ADB09FCD12268937ADB09FCD199
:100EC0002268138801210B431380937ADB09FCD13C
:100ED0002268937ADB09FCD11380937ADB09FCD179
:100EE000226853888021C9010B435380002010BD24
:100EF0000020CAE728210000790A0000C80000206D
:100F000010B5041E11D00068431E9841C0B2AA2239
:100F10000749084B98472268138802210B43138026
:100F2000937ADB09FCD1002010BD0020EFE7C0461A
:100F300028210000790A000070B504000D00002887
:100F40000FD00068431E9841C0B2E4220649074B07
:100F50009847226893699561937ADB09FCD1002058
:100F600070BD0020F1E7C04628210000790A00008A
:100F700010B5074B1C6823681B7ADB0700D410BD33
:100F8000200063689847236801221A72F7E7C04679
:100F9000C800002010B504001F4BC3189B0ADBB229
:100FA000032B04D01D4A1E4900201E4B9847E369BD
:100FB000DB0718D40322E3691A42FCD123689B079C
:100FC0000BD523680222934323600132E3691A425E
:100FD000FCD10222E3691A42FCD1052323600322DB
:100FE000E3691A42FCD10122E3691A42FCD10E4B9B
:100FF00023600322E3691A42FCD1C0239B02636091
:101000000722E3691A42FCD1084BA3810023A37392
:101010003022A354002010BD00F8FFBD5E02000086
:1010200040210000790A00000400104004C5FFFFC1
:1010300070B505000C00431E9841C0B2C42214498B
:10104000144B98472000144B9847002800D070BDDF
:10105000AC61124B9C4217D0114B9C466444A40ACD
:101060000934E3B22206F2D41F221A40012393402E
:101070000C4A80215350BFF34F8FBFF36F8F013164
:10108000FF3153501360E2E7074B1D600C23EBE781
:1010900040210000790A0000950F00000014004272
:1010A00000F8FFBD00E100E0CC0000208269136879
:1010B00002210B4313600131D3691942FCD17047FF
:1010C000836989B219857047836901229A757047CF
:1010D000836902229A75704710B5194B18688469A4
:1010E000237EDB0702D5A37DDB070FD4237E9B077E
:1010F00002D5A37D9B070ED4237E5B0715D5628B9B
:1011000037231A420CD00833638310BD01232375A3
:1011100003689847F9E70223237583689847F4E743
:10112000218DC9B243689847EFE7237EDB09ECD0F5
:1011300080232376C3689847638B9BB26383E4E77D
:10114000CC0000200E4B196A1A6A0E480140920F1B
:101150009207022002430A431A629A6902439A6183
:101160001A7F1F210A401A7719000822CB681A42F9
:10117000FCD0034A136A80210B4313627047C046B8
:10118000000800400000FF0F024A936902218B43D0
:10119000936170470008004010B5034B9847034B1C
:1011A0009847034CA047FDE7250400009D1200006E
:1011B000A91200000122014B1A707047D0000020D4
:1011C000024B01225A7098707047C046D000002030
:1011D0000122014BDA707047D000002070B5050085
:1011E0000A4B984704002800094B9847010020004B
:1011F000084B98470500054E074C00E0C046B04735
:101200002900A0470028F9D170BDC0469102000016
:1012100035020000250200002D0200000FB4F0B5D9
:1012200083B008AB04CB019332210D4804300D4C40
:10123000A047061E0ED00A4D04350B4C0B4F00E0A4
:10124000C046A0470028FBD02878B847013E0135AA
:10125000002EF6D103B0F0BC08BC04B01847C0465D
:10126000D000002095180000A9030000B903000079
:1012700010B5054B996B054B9847054B98470100F6
:101280000448054B984710BDD000002029020000FB
:101290005D0200005C2100001D12000010B5014B32
:1012A000984710BD81010000F8B55A4DA8475A4E25
:1012B000B0635A485A4CA0475A48A047A8475A4FCB
:1012C000B8475A48A0475A48A0475A485A4B9847E7
:1012D0005A48A047A847B8475448A0470023F3708E
:1012E00000215748574B9847A84705005148564B8F
:1012F000984701002800554B9847554B984755484B
:10130000A047F378002B04D1434AC046D378002B82
:10131000FBD05148424CA0473E4B9847424B984720
:101320004248A0474D48A0470A244D4F4D4E424DDC
:10133000B84701235840C0B2B047FA20A847013C43
:10134000002CF5D10020474B98474348344CA04728
:10135000304B9847344B98473448A0474248A04701
:10136000424CA0470028FCD041482D4B9847324DB5
:101370003E4C0A20A847A0470028FAD10022264B5D
:101380001A7000213B483C4B98473C48244B9847F7
:10139000214A1378002BFCD03548214CA04738480F
:1013A000A0471D4C002363703648374B984763783D
:1013B000002B04D1184AC0465378002BFBD0164BA3
:1013C00000225A709978C9B23048154CA04730486D
:1013D000A047104DA847060016481B4B9847010030
:1013E00030001A4B98472B4B98471B4F3800A047AB
:1013F000A8470D4EB0470D48A0472748A047274BA8
:1014000098473800A047A847B0470848A047244855
:10141000A047F8BD91020000D00000206C21000020
:101420001D1200009821000071120000A821000088
:10143000AC210000C4090000DD110000C82100003B
:10144000D1110000A50200003502000025020000B5
:10145000C1020000E0210000082200001C22000060
:1014600011030000F10200003C22000051030000C3
:1014700068220000B51100008D03000084220000E6
:10148000B0220000C1110000DD030000D0220000E6
:10149000E0220000E9030000FC2200001504000027
:1014A0001C230000002243088B4274D303098B42A3
:1014B0005FD3030A8B4244D3030B8B4228D3030C24
:1014C0008B420DD3FF22090212BA030C8B4202D3C6
:1014D0001212090265D0030B8B4219D300E0090AEE
:1014E000C30B8B4201D3CB03C01A5241830B8B42F7
:1014F00001D38B03C01A5241430B8B4201D34B03E0
:10150000C01A5241030B8B4201D30B03C01A524144
:10151000C30A8B4201D3CB02C01A5241830A8B42C9
:1015200001D38B02C01A5241430A8B4201D34B02B2
:10153000C01A5241030A8B4201D30B02C01A524116
:10154000CDD2C3098B4201D3CB01C01A52418309CA
:101550008B4201D38B01C01A524143098B4201D304
:101560004B01C01A524103098B4201D30B01C01A2F
:101570005241C3088B4201D3CB00C01A52418308A9
:101580008B4201D38B00C01A524143088B4201D3D6
:101590004B00C01A5241411A00D201465241104636
:1015A0007047FFE701B5002000F0F0F802BDC0462B
:1015B0000029F7D076E7704703460B437FD400221B
:1015C00043088B4274D303098B425FD3030A8B42D7
:1015D00044D3030B8B4228D3030C8B420DD3FF2241
:1015E000090212BA030C8B4202D31212090265D00F
:1015F000030B8B4219D300E0090AC30B8B4201D3C2
:10160000CB03C01A5241830B8B4201D38B03C01A08
:101610005241430B8B4201D34B03C01A5241030B7F
:101620008B4201D30B03C01A5241C30A8B4201D330
:10163000CB02C01A5241830A8B4201D38B02C01ADB
:101640005241430A8B4201D34B02C01A5241030A52
:101650008B4201D30B02C01A5241CDD2C3098B4237
:1016600001D3CB01C01A524183098B4201D38B01B4
:10167000C01A524143098B4201D34B01C01A524157
:1016800003098B4201D30B01C01A5241C3088B429C
:1016900001D3CB00C01A524183088B4201D38B0087
:1016A000C01A524143088B4201D34B00C01A524129
:1016B000411A00D201465241104670475DE0CA0F00
:1016C00000D04942031000D34042534000229C46C0
:1016D00003098B422DD3030A8B4212D3FC228901CA
:1016E00012BA030A8B420CD3890192118B4208D3A0
:1016F000890192118B4204D389013AD0921100E002
:101700008909C3098B4201D3CB01C01A5241830915
:101710008B4201D38B01C01A524143098B4201D342
:101720004B01C01A524103098B4201D30B01C01A6D
:101730005241C3088B4201D3CB00C01A52418308E7
:101740008B4201D38B00C01A5241D9D243088B423D
:1017500001D34B00C01A5241411A00D201466346E0
:1017600052415B10104601D34042002B00D5494244
:10177000704763465B1000D3404201B5002000F083
:1017800005F802BD0029F8D016E770477047C0463B
:1017900010B50023002802D000F004F8431C180004
:1017A00010BDC046414208401C2101231B04984241
:1017B00001D3000C10391B0A984201D3000A0839E2
:1017C0001B09984201D30009043902A2105C401A97
:1017D0007047C0461B1C1D1D1E1E1E1E1F1F1F1FE7
:1017E0001F1F1F1F70B500260C4D0D4C641BA4104D
:1017F000A64209D1002600F0EFFD0A4D0A4C641BF9
:10180000A410A64205D170BDB300EB58984701362D
:10181000EEE7B300EB5898470136F2E7E423000007
:10182000E4230000E4230000E82300000300821802
:10183000934200D1704719700133F9E730B51400B5
:101840009BB005001A00002C05DA8B2303600120F1
:1018500040421BB030BD822368469B008381002339
:10186000009104919C4200D0631E029305930123D2
:1018700069465B42CB8128001E9B00F0D7F8431CD1
:1018800001DA8B232B60002CE3D00023009A137025
:10189000DFE7000007B5009313000A0001000248CB
:1018A0000068FFF7CBFF0EBD00000020032370B5DA
:1018B000CD1C9D43083506000C2D1ED20C25A942D7
:1018C0001DD8300000F076FB254A1468210000295D
:1018D00019D1244C2368002B03D1300000F032FBD7
:1018E00020602900300000F02DFB431C2CD10C237C
:1018F0003000336000F05FFB03E0002DDFDA0C23E3
:101900003360002070BD0B685B1B1AD40B2B03D90E
:101910000B60CC18256003E08C420ED16368136025
:10192000300000F048FB200007220B30231D9043BD
:10193000C31AE7D05A42E250E4E74B6863600C00F8
:10194000EEE70C004968C2E70323C41C9C43A04295
:10195000E0D0211A300000F0F5FA431CDAD1C6E7D6
:101960000C01002010010020F0B58E6885B0070042
:101970000C00039201939E4239D890238A89DB00A0
:101980001A4234D00325096923685B1A02936369FC
:1019900002985D43EB0F5D19019B6D1001331B181D
:1019A000AB4200D91D00530532D529003800FFF79E
:1019B0007DFF061E09D10C233B6040230120A28934
:1019C00040421343A38105B0F0BD029A216900F0A3
:1019D000D6FAA389144A1A4080231343A381029B99
:1019E0002661F61826606561019EED1AA560019BCF
:1019F000B34200D21E0032000399206800F0C8FAFA
:101A0000A36800209B1BA36023689E192660DAE769
:101A10002A00380000F01AFB061EE0D121693800C8
:101A200000F0CAFAC7E7C0467FFBFFFFF0B59FB0E2
:101A3000029005938B890F0016001B0611D50B69C8
:101A4000002B0ED14021FFF731FF386038610028AC
:101A500005D10C23029A013813601FB0F0BD40235A
:101A60007B61002306AD6B6120336B761033AB7660
:101A700034002378002B47D1A31B04930DD0A31B64
:101A8000320039000298FFF76FFF431C00D1B5E028
:101A90006A69049B944663446B612378002B00D1F0
:101AA000ACE00122002352426A6002A9543252186B
:101AB00001342B60EB60AB601370AB65584E0522B0
:101AC0002178300000F050FA621C002820D12968EB
:101AD000CB0604D5532302AE20309B1918700B0798
:101AE00004D553232B2002AE9B19187023782A2B80
:101AF00016D000200A21099B2278303A092A55D9AC
:101B0000002815D0099313E0252BB5D00134B0E798
:101B10000123801B8340296814000B432B60CDE711
:101B2000059B181D1B680590002B39DB09931400D9
:101B300023782E2B0BD16378621C2A2B3ED1059B78
:101B400002341A1D1B680592002B34DB0793354EB7
:101B500021780322300000F007FA002806D0402345
:101B6000801B83402A68013413432B6021780622AE
:101B70002D48661C297600F0F7F9002846D02B4B3B
:101B8000002B2FD12968059B0722C90528D59B1852
:101B90009343083305936B69039A9B186B6167E75E
:101BA0005B42EB6002230B432B60C0E74B430134E5
:101BB0009B180120A0E701235B42C7E70023140024
:101BC0000A201A006B6021783039092903D9002BCB
:101BD000BDD00792BBE74243013452180123F2E71C
:101BE0000733D5E705AB00933A00114B2900029863
:101BF00000E000BF0390039B0133CCD1BB890B985D
:101C00005B0600D429E70120404226E705AB00939C
:101C10003A00074B2900029800F07AF8EAE7C0463C
:101C2000A4230000AA230000AE230000000000004F
:101C300069190000F7B5150001938A680B690090D7
:101C40000C00934200DA130022002B60433212781A
:101C5000002A01D001332B6023689B0602D52B6834
:101C600002332B60062723681F4027D0230043330D
:101C70001B785A1E93412268920630D422000199A3
:101C800043320098089EB047431C25D006232068A5
:101C90002A68E16803400025042B03D18D1AEB4329
:101CA000DB171D40A3682269934201DD9B1AED18E2
:101CB0000027BD4220D1002010E00137E3682A68E8
:101CC0009B1A9F42D2DA220001231932019900980F
:101CD000089EB047431CF0D101204042FEBD302099
:101CE000E1184331087021005A1C45310978A218C7
:101CF000433202331170C1E7220001231A320199E5
:101D00000098089EB047431CE6D00137D1E7000099
:101D1000F0B58BB006920A00433207930590049207
:101D20000A7E0C00109B6E2A00D18FE017D8632A20
:101D30002CD008D8002A00D199E0582A54D0260087
:101D40004236327029E0642A01D0692AF7D121682D
:101D50001A68080623D5111D1960156825E0732A35
:101D600000D188E008D86F2A29D0702AE7D1202234
:101D700009680A43226003E0752A20D0782ADED160
:101D800022007821453211706C4A30E00E001A684A
:101D90004236111D196013683370012379E049063A
:101DA000D9D5111D19600023D55E002D03DA2D232E
:101DB000049A6D421370624B0A2703932FE0206848
:101DC0001968050603D5081D18600D6805E0400672
:101DD000F9D50D68081D1860ADB2594B082703935B
:101DE0006F2A18D00A2716E045310A70544A039228
:101DF0001A682168101D18601568080622D5CB07DF
:101E000002D52023194321601027002D03D1202360
:101E100022689A4322602300002243331A706368C9
:101E2000A360002B5CDB0422216891432160002D1C
:101E300058D1049E002B64D02600039B42361B78A9
:101E400033705EE04806DAD5ADB2D8E709681A68A3
:101E5000080605D5111D1960136862691A6006E04D
:101E60004906F7D5111D19601368A28A1A8000234C
:101E7000049E236154E01A68111D19601668002140
:101E80006268300000F070F8002801D0801B6060AC
:101E9000636823610023049A137041E023693200D0
:101EA00006990598079DA847431C43D02368002541
:101EB0009B070FD4099BE06898423DDA18003BE08D
:101EC00022000123193206990598079EB047431C4A
:101ED00030D00135E368099A9B1A9D42F0DBE9E7AF
:101EE000002DA9D0049E28003900FFF761FB039B59
:101EF000013E5B5C280033703900FFF7D3FA051E02
:101F0000F1D1082F09D12368DB0706D56368226960
:101F1000934202DC3023013E3370049B9B1B236100
:101F2000079B09AA00932100069B0598FFF782FEF4
:101F3000431CB3D1012040420BB0F0BDC6230000CA
:101F4000B5230000002370B5064C0500080023608F
:101F5000FEF716FE431C03D12368002B00D02B6034
:101F600070BDC04680010020C9B28218904201D1E4
:101F70000020704703788B42FBD00130F6E7002346
:101F800010B59A4200D110BDCC5CC4540133F8E7BF
:101F900010B5884202D98B18984208D300239A4280
:101FA00007D0CC5CC4540133F9E78B5C8354013A0D
:101FB000FBD210BD7047704770B50500002910D0E6
:101FC0000C1F2368002B00DAE4182800FFF7F2FF4B
:101FD0001D4A1368002B05D1636014602800FFF7C9
:101FE000EAFF70BDA34209D9216860188342F3D18A
:101FF00018685B6841182160EEE713005A68002AF0
:1020000001D0A242F9D919685818A0420BD1206812
:102010000918581819608242E0D1106852684118B6
:1020200019605A60DAE7A04202D90C232B60D5E789
:1020300021686018824203D11068526841182160FB
:1020400062605C60CAE7C0460C010020F8B507007A
:102050000D001600002905D11100FFF727FC040030
:102060002000F8BD002A03D1FFF7A6FF3400F7E7F0
:1020700000F012F82C008642F2D931003800FFF748
:1020800015FC041EECD029003200FFF778FF290070
:102090003800FFF791FFE3E70B1F1B68181F002BA9
:1020A00001DA0B58C01870472E2E2F68616C2F7301
:1020B00072632F68616C5F63616C656E6461722E20
:1020C000630000002E2E2F68616C2F7372632F68DF
:1020D000616C5F75736172745F6173796E632E6397
:1020E000000000002E2E2F68616C2F7574696C73D0
:1020F0002F7372632F7574696C735F72696E676298
:1021000075666665722E63000F0000000F00000008
:102110002E2E2F68706C2F6569632F68706C5F6559
:1021200069632E63000000002E2E2F68706C2F72E2
:1021300074632F68706C5F7274632E63000000001C
:102140002E2E2F68706C2F736572636F6D2F687001
:102150006C5F736572636F6D2E63000074696D65EB
:10216000203D202564206D73000000000D0A3D3DD8
:102170003D3D3D3D3D3D3D3D3D3D3D3D3D3D0D0AF2
:102180007374617274696E67206D755F766D5F74CC
:102190006573740D0A00000074696D6520626566E0
:1021A0006F726520697320000D0A00006C6F6F70FC
:1021B000696E6720666F7220322E35207365636FFB
:1021C0006E64732E2E2E0000646F6E652E202074B8
:1021D000696D652061667465722069732000000076
:1021E00077616974696E6720322E35207365636F7D
:1021F0006E647320666F7220525443206D61746365
:10220000682E2E2E00000000646F6E652E20207454
:10221000696D65206973206E6F772000666C61734D
:1022200068696E67204C454420666F7220322E35F7
:10223000207365636F6E64732E2E2E007761697450
:10224000696E6720666F7220627574746F6E20709D
:1022500072657373202873796E6368726F6E6F7521
:1022600073292E2E2E000000726563656976656401
:1022700020627574746F6E2070726573732E0D0A10
:102280000000000077616974696E6720666F7220D4
:10229000627574746F6E2070726573732028617339
:1022A000796E6368726F6E6F7573292E2E2E000023
:1022B00077616974696E6720666F72206B657962F9
:1022C0006F61726420696E7075742E2E2E0000008E
:1022D000726563656976656420272563270D0A00AA
:1022E000736C656570696E6720666F7220322E357B
:1022F000207365636F6E64732E2E2E00736C65659C
:1023000070696E6720756E74696C20627574746F85
:102310006E2070726573732E2E2E0000656E642021
:102320006F66206D755F766D5F746573740D0A3D21
:102330003D3D3D3D3D3D3D3D3D3D3D3D3D3D3D0DFD
:102340000A00000000000000000000000000000083
:10235000000000000000000000000000000000007D
:10236000000000000000000000000000000000006D
:10237000000000000000000000000000000000005D
:10238000000000000000000000000000000000004D
:10239000000000000000000000000000000000003D
:1023A00000000000232D302B2000686C4C00656677
:1023B0006745464700303132333435363738394196
:1023C00042434445460030313233343536373839AC
:1023D0006162636465660000F8B5C046F8BC08BC7D
:1023E0009E467047DD000000F8B5C046F8BC08BC4A
:0823F0009E467047B500000095
:1023F8000400002000000000642300008423000083
:10240800442300000000000000000000000000005D
:1024180000000000000000000000000000000000B4
:1024280000000000000000000000000000000000A4
:102438000000000000000000000000000000000094
:102448000000000000000000000000000000000084
:042458000000000080
:00000001FF
