:020000040000fa
:10000000f0ff03200d13000007210000bb220000b9
:10001000cf230000fb2300005f240000000000004d
:100020000000000000000000000000001b1a00009b
:1000300017230000000000001b1a00001b1a00001c
:100040001b1a00001b1a00001b1a00001b1a0000dc
:100050001b1a00001b1a00001b1a00001b1a0000cc
:100060001b1a00001b1a00001b1a0000e91e0000ea
:100070001b1a00001b1a00001b1a00001b1a0000ac
:100080001b1a00001b1a00001b1a00001b1a00009c
:100090001b1a00001b1a00001b1a00001b1a00008c
:1000a0001b1a00001b1a00001b1a0000611f000031
:1000b0001b1a00001b1a00001b1a00001b1a00006c
:1000c0001b1a00001b1a00001b1a00001b1a00005c
:1000d0001b1a00001b1a00001b1a00001b1a00004c
:1000e0001b1a00001b1a00000000000000000000a6
:1000f000000000001b1a00001b1a00001b1a000061
:100100001b1a00001b1a00001b1a00001b1a00001b
:100110001b1a00001b1a00001d0d00001d0d000021
:100120001d0d00001d0d00001b1a00001b1a000011
:100130001b1a00001b1a00001b1a00001b1a0000eb
:100140001b1a00001b1a00001b1a00001b1a0000db
:100150001b1a00001b1a00001b1a00001b1a0000cb
:100160001b1a00001b1a00001b1a00001b1a0000bb
:100170001b1a00001b1a00001b1a00001b1a0000ab
:100180001b1a00001b1a00001b1a00001b1a00009b
:100190001b1a00001b1a00001b1a00001b1a00008b
:1001a0001b1a00001b1a00001b1a00001b1a00007b
:1001b0001b1a00001b1a00001b1a00001b1a00006b
:1001c0001b1a00001b1a00001b1a00001b1a00005b
:1001d0001b1a00001b1a00001b1a00001b1a00004b
:1001e0001b1a00001b1a00001b1a00001b1a00003b
:1001f0001b1a00001b1a00001b1a00001b1a00002b
:100200001b1a00001b1a00001b1a00001b1a00001a
:100210001b1a00001b1a00001b1a00001b1a00000a
:100220001b1a00001b1a00001b1a00001b1a0000fa
:100230001b1a00001b1a00001b1a00001b1a0000ea
:100240001b1a00001b1a00001b1a00001b1a0000da
:100250001b1a00001b1a00001b1a00001b1a0000ca
:040260001b1a000065
:020000040000fa
:10026400f8b500bff8bc08bc9e467047611b00008f
:10027400f8b500bff8bc08bc9e4670473d1b0000a3
:020000040000fa
:100284002de9f04f0d4697b090461c46074618b12d
:1002940083690bb901f096fa914b9d4258d17d6860
:1002a400ab8918075ed52b69002b5bd0002309931b
:1002b40020238df8293030238df82a304ff0010a9d
:1002c400c1464e4616f8013b002b56d1b9eb080b3c
:1002d4000bd05b4642462946384601f077fb013095
:1002e40000f05e81099b5b44099399f80030002b70
:1002f40000f0568100234ff0ff32049307930592d8
:1003040006938df8533005223178764800f05eff6d
:1003140006f10109049b002833d1d90644bf2022e9
:100324008df853201a0744bf2b228df853203278be
:100334002a2a2ed0079a00210a20b146013699f8bc
:100344000030303b092b72d900292fd007922de0c1
:10035400654b9d4201d1bd68a2e7644b9d4208bf35
:10036400fd689de72946384600f04afd00289dd0e7
:100374004ff0ff3017b0bde8f08f252ba6d0b14663
:100384009fe7584a801a0afa00f0184304904e4630
:10039400b9e72268002a04f10401bbbf524243f0ca
:1003a400020307920792b8bf04930c4699f80030f1
:1003b4002e2b10d199f801302a2b09f101013ad1e1
:1003c4002268002a04f10403b8bf4ff0ff3209f198
:1003d400020905921c46464e99f800100322304645
:1003e40000f0f4fe40b14023801b03fa00f0049bac
:1003f4000343049309f1010999f800103d488df86d
:100404002810062200f0e2fe9df82820692a09f14e
:10041400010827d037d8582a00f0c8801ed8002aef
:1004240000f0ec8001238df85220089347e000fb94
:100434000232012181e70023059318460a268946e2
:10044400013199f80020303a092a03d9002bc2d08f
:100454000590c0e706fb00200123f0e7632a28d0bb
:10046400642adfd1049b13f0800f04f1040229d025
:100474002368002b144603da2d225b428df85320a7
:100484001d490a2248e0732a00f0bc8008d86f2a6c
:100494001ed0702ac6d1049b43f02003049303e0ca
:1004a400752a15d0782abdd178238df85530134993
:1004b4007fe023688df852300123089304340df152
:1004c4005206ade013f0400f236818bf1bb2d0e70b
:1004d400049b13f0800f04f1040111d0236812e08f
:1004e400282100009e1d0000482100000821000072
:1004f400a41d0000a81d00007c1d00008d1d00002f
:100504005806ebd523886f2a0c4652490cbf0822a3
:100514000a2200208df85300059e0696002e0df148
:10052400530ec0f29080049820f004000490002b35
:1005340058d1002e40f089807646082a0bd1049bbe
:10054400d80708d5089b059a9a42debf302306f8df
:10055400013c06f1ff36aeeb060308933e4b0093d5
:1005640003aa2b4604a9384600f060fb013017d0db
:10057400089b32462946384601f028fa01300fd04c
:10058400049b990705d50026039a079b9b1a9e4254
:100594004adb039a079b9342b8bf13465a1c4ed1b9
:1005a400ab895b063ff5e4ae0998e3e629498df88b
:1005b4005520049a12f0800f04f1040001d023683e
:1005c40002e05306fbd52388d60748bf42f0200239
:1005d400044648bf04921bb9049a22f020020492f4
:1005e400102296e77646b3fbf2f002fb1033cb5ca5
:1005f40006f8013d03460028f5d19ee708920df167
:100604005306abe72668059a0021304604f1040935
:1006140000f0dcfd08b1801b0590059b08934c4657
:1006240000238df8533099e701230df1290229465f
:10063400384601f0cbf90130b2d00136a4e7099a6b
:10064400134409933ce6002bccd116ae0b7806f884
:0c065400063d72e77c1d0000d11900007b
:020000040000fa
:100660003c0300201c000000000000007403002078
:10067000180000000000000000000020c000000082
:1006800000000000c00000200c000000000000007e
:10069000cc00002030000000000000008c0300208f
:1006a0001800000000000000cc02002050000000f4
:1006b00000000000bc0300200c000000000000004f
:1006c0001c0300202000000000000000dc030020cc
:1006d0000100000000000000a4030020180000003a
:1006e00000000000580300201c0000000000000073
:1006f000c80300200400000000000000cc0300201c
:1007000004000000010000006c0200206c020020c8
:10071000600000000100000000000000282100002f
:100720004821000008210000000000000000000037
:1007300000000000000000000000000000000000b9
:1007400000000000000000000000000000000000a9
:100750000000000000000000000000000000000099
:100760000000000000000000000000000000000089
:100770000000000000000000d00300200400000082
:1007800000000000d403002004000000000000006e
:10079000000100206c010000010000004300000087
:1007a0000000000000000000000000000000000049
:1007b00000000000000000000000000043000000f6
:1007c0000000000000000000000000000000000029
:1007d00000000000000000000000000043000000d6
:1007e0000000000000000000000000000000000009
:1007f00000000000000000000000000043000000b6
:1008000000000000000000000000000000000000e8
:100810000000000000000000000000004300000095
:1008200000000000000000000000000000000000c8
:100830000000000000000000000000004300000075
:1008400000000000000000000000000000000000a8
:100850000000000000000000000000004300000055
:100860000000000000000000000000000000000088
:1008700000000000000000000000000071220000e5
:100880005d20000000000000400a0000e523000099
:10089000e4230000e4230000e4230000e42300003c
:1008a000e4230000e4230000e4230000e42300002c
:1008b000e4230000ffffffffffffffffffffffff3d
:1008c000ffff0000010041534349490000000000c0
:1008d0000000000000000000000000000000000018
:1008e000000000000000415343494900000000009f
:1008f00000000000000000000000000000000000f8
:100900000000000000000000fc00002004000000c7
:1009100000000000d80300200400000000000000d8
:1009200000000000000000002222222222222222b7
:020000040000fa
:100930008a892de9f041054610070c465ad44b68c8
:10094000002b05dc0b6c002b02dc0020bde8f081e5
:10095000e66a002ef9d0002312f480522f682b6033
:1009600033d0606da3895a0705d56368c01a636bdd
:100970000bb1236cc01a00230246e66a216a28469e
:10098000b047431ca38906d129681d294bd82b4a9f
:10099000ca40d60747d500226260d9042269226086
:1009a00004d5421c01d12b6803b96065616b2f60cf
:1009b0000029cad004f14403994202d0284600f02d
:1009c00057fc00206063bde8f081216a01232846be
:1009d000b047411cc6d12b68002bc3d01d2b01d0c2
:1009e000162b01d12f60b0e7a38943f04003a38108
:1009f000bde8f0810f69002fa7d093070e6808bfec
:100a00004b690f6018bf0023a6eb07088b60b8f195
:100a1000000f9add43463a46216aa66a2846b04747
:100a2000002807dca38943f04003a3814ff0ff3087
:100a3000bde8f0810744a8eb0008e8e7010040208a
:020000040000fa
:100a4000002020202020202020202828282828209e
:100a50002020202020202020202020202020202096
:100a600020881010101010101010101010101010fe
:100a700010040404040404040404041010101010ee
:100a800010104141414141410101010101010101b8
:100a9000010101010101010101010101101010100a
:100aa000101042424242424202020202020202028a
:100ab00002020202020202020202020210101010de
:100ac0002000000000000000000000000000000006
:100ad0000000000000000000000000000000000016
:100ae0000000000000000000000000000000000006
:100af00000000000000000000000000000000000f6
:100b000000000000000000000000000000000000e5
:100b100000000000000000000000000000000000d5
:100b200000000000000000000000000000000000c5
:100b300000000000000000000000000000000000b5
:010b400000b4
:020000040000fa
:020b42007047fa
:020000040000fa
:100b44000122324b1a74324a03f500639a621a4640
:100b5400536813f0100ffbd142222e4bc3f88420ac
:100b64001a46d2f8843013f0400ffad02a4b0022f0
:100b74009a6377225a631a46d36b13f0040ffbd19e
:100b84000222254b83f830201a46d36b13f0020f50
:100b9400fbd1214a136c03f00303032bfad1012286
:100ba4001e4b5a711a46d37813f0010ffbd01c4a1e
:100bb400184b1a621a46536813f0040ffbd1194af2
:100bc400144b5a621a46536813f0080ffbd14122a2
:100bd400104bc3f890201a46d2f8903013f0400f0f
:100be400fad041220b4bc3f8dc201a46d2f8dc3091
:100bf40013f0400ffad0094b6ff07f421a6140f2b4
:100c0400ff725a61084a9a61704700bf001400409d
:100c140006013000001c00400010004000080040a5
:0c0c2400070101000701020056820100d8
:020000040000fa
:100c30002de9f04791461f468a680b69ddf8208050
:100c40009342b8bf1346c9f8003091f843200646d6
:100c50000c4612b10133c9f800302368990642bf2f
:100c6000d9f800300233c9f80030256815f00605c0
:100c700007d104f1190ae368d9f800209b1a9d42b4
:100c800029db94f843302268003318bf0123920611
:100c90002ed404f1430239463046c047013021d0fa
:100ca0002368e568d9f8002003f00603042b08bf89
:100cb000ad1aa36822690cbf25eae57500259342a9
:100cc000c4bf9b1aed184ff000091a344d451bd1d3
:100cd0000020bde8f0870123524639463046c04720
:100ce000013003d14ff0ff30bde8f0870135c2e796
:100cf000e1185a1c302081f84300224494f8451032
:100d000082f843100233c4e70123224639463046b5
:0c0d1000c0470130e6d009f10109d7e727
:020000040000fa
:100d1c00374b9b7d002b69d010b5354b1b7e13f0e8
:100d2c00010f0ad1324b1b7e13f0040f28d1304b2c
:100d3c001b7e13f0800f48d110bd2e4b1b7d002b5a
:100d4c00f0d02c4b9a685b689a4207d2294a1068fb
:100d5c0091684c1c9460415c254a9162254a9268ca
:100d6c009342dfd8234b00221a755a600121204a86
:100d7c001175db68002bd5d01e4a10699847d1e756
:100d8c001c4b93f82c30002bd1d01a4b1a6adb6910
:100d9c009a42ccd2164b986a164b99691a6a541c13
:100dac001c6288541a6adb699a42c0d1114b00222a
:100dbc0083f82c20da6104210d4a11755b6a002b33
:100dcc00b5d00c4a906a9847b1e7094b5b8b13f08e
:100ddc00070fb1d08422064b1a75064b5b6a13b110
:100dec00044a906a984701f0c7f8a5e7704700bf1e
:080dfc0000200141cc000020a1
:020000040000fa
:100e0400324b70b51d6806460c4625b1ab6913b963
:100e1400284600f0d7fc2e4b9c420fd16c68b4f9e5
:100e24000c309ab215072cd4d00611d409223260a2
:100e340043f04003a3814ff0ff3070bd254b9c422b
:100e440001d1ac68ebe7244b9c4208bfec68e6e7b1
:100e5400510712d5616b41b104f14403994202d0a8
:100e6400304600f003fa00236363a38923f02403cc
:100e7400a3810023636023692360a38943f00803eb
:100e8400a38123694bb9a38903f42073b3f5007fcd
:100e940003d02146304600f085fba28912f00103fd
:100ea4000cd00023a36063695b42a361236953b937
:100eb400b4f90c3013f08000bad170bd920758bf5a
:100ec4006369a360f2e70020f7e700bfcc030020ca
:0c0ed40028210000482100000821000037
:020000040000fa
:100ee00070b50e46054618b183690bb900f06cfc6d
:100ef000ab69ac6813b9284600f066fc284b9c42ed
:100f000022d16c68b4f90c309a0406d443f400532f
:100f1000a381236e23f400532366a3891b071dd5e9
:100f20002369dbb1013ea36816f8011f013ba360f2
:100f3000e9b9002b2eda22460a21284600f036f8bd
:100f4000013011d00a2070bd164b9c4201d1ac6813
:100f5000d8e7154b9c4208bfec68d3e721462846ea
:100f6000fff750ff0028ddd04ff0ff3070bd002ba1
:100f700004daa269934206db0a2904d023685a1cca
:100f800022601970cfe72246284600f00ff80130a2
:100f9000c9d1e9e723680a205a1c2260187070bd85
:0c0fa0002821000048210000082100006a
:020000040000fa
:100fac00f8b50e461446054618b183690bb900f026
:100fbc0005fc274b9c422fd16c68a369a360a389c5
:100fcc00190733d52369002b30d0b4f90c30f6b2a5
:100fdc009a04374634d523692068c01a636998424d
:100fec0004db2146284600f09bfc28bba368013b90
:100ffc00a36023685a1c22601e70636901309842fa
:10100c0004d0a389db0719d50a2e17d1214628460f
:10101c0000f086fc90b10fe00e4b9c4201d1ac6805
:10102c00cbe70d4b9c4208bfec68c6e7214628462f
:10103c00fff7e2fe0028c8d04ff0ff373846f8bd66
:10104c0043f40053a381236e23f400532366c2e7b9
:0c105c00282100004821000008210000ad
:020000040000fa
:1010680070b5cd1c25f0030508350c2d38bf0c25af
:10107800002d064601dba94203d90c23336000206a
:1010880070bdfff75afd234a1468214691b9224cd6
:1010980023681bb9304601f063f8206029463046c2
:1010a80001f05ef8431c26d10c233360304601f072
:1010b800e5f9e4e70b685b1b1ad40b2b0fd90b601f
:1010c800cd50cc18304601f0d9f904f10b00231d9e
:1010d80020f00700c31a1bd05a42e25070bd8c4260
:1010e8000dbf63684b686360136018bf0c46e9e77f
:1010f8000c464968cae7c41c24f00304a04205d082
:10110800211a304601f02cf80130cdd02560d9e7fe
:0c11180070bd00bfd0030020d4030020f5
:020000040000fa
:10112400f8b51c4c04f1180001f038f904f12c0155
:1011340004f1340000f036ff00f07efe164e082263
:101144001649304600f0bdff154d33460a221549b5
:10115400284600f0c3fd144a00271770134e04f10b
:1011640048031349304601f0bff82a4611490f20bd
:1011740000f04cfe0f2001f0f1f804f14c033a4664
:101184000d490e4801f0b0f83146284601f01af82e
:10119400f8bd00bf68170000bc0300201c0300203a
:1011a40058030020cc020020dc030020a40300200c
:1011b4002918000081230000d52200008c030020a0
:020000040000fa
:0c11c400014900f017bd00bf2d1900000c
:020000040000fa
:1011d00001f0ff01102a2bdb10f0070f08d010f8e8
:1011e000013b013a8b422dd010f0070f42b3f6d1ec
:1011f000f0b441ea012141ea014122f007047ff005
:1012000000070023f0e80256083c85ea010586ea5b
:10121000010685fa47f5a3fa87f586fa47f6a5fa97
:1012200087f68eb9eed1f0bc01f0ff0102f00702a3
:1012300032b110f8013b013a83ea010313b1f8d14e
:101240000020704701387047002d06bf354603382f
:10125000073815f0010f07d1013015f4807f02bf68
:10126000013015f4c03f0130f0bc0138704700bfb9
:020000040000fa
:1012700038b50546002945d051f8043c0c1f002b19
:10128000b8bfe418fff75dfc1f4a1368104633b976
:10129000636014602846bde8384001f0f3b8a3420b
:1012a0000cd921686218934204bf1a685b686360b6
:1012b00004bf521822600460ece713465a680ab172
:1012c000a242fad919685818a0420bd120680144eb
:1012d000581882421960ddd1106852685a60014482
:1012e0001960d7e702d90c232b60d3e720682118b7
:1012f0008a4204bf11685268626004bf0918216005
:0c1300005c60c7e738bd00bfd0030020d0
:020000040000fa
:10130c0010b51d4b03b198471c4b03b19847eff335
:10131c00108172b61a4ad2f8883043f47003c2f8be
:10132c008830bff34f8fbff36f8f01b962b6154c86
:10133c002023636000f0b6f8114a134b23f07f03af
:10134c009360124b9847a36823f00103a3602346d4
:10135c00da6812f0010ffbd10a4b5a6842f0040212
:10136c005a6001229a600a4b03b19847094b03b1aa
:10137c00984700f0defffee70000000000000000d0
:10138c0000ed00e00060004100000000651a000064
:08139c00000000000000000049
:020000040000fa
:1013a4001f4a137843f001031370536813f0010fbd
:1013b400fbd11b490022ca614ff000530b624ff46a
:1013c40000430b634a630b61164b10221a721a75a1
:1013d40083f8202083f82c2083f8382083f84420d5
:1013e40083f8502083f85c2083f8682083f8742005
:1013f40083f8802083f88c2083f8982083f8a42035
:1014040083f8b0200f2283f8bc200b7843f002034a
:101414000b700a46536813f0020ffbd1704700bfec
:08142400002800400000002038
:020000040000fa
:10142c002de9f74380460e46144600f00dff0128c7
:10143c001cd1731efe2b19d88df8046005460027ad
:10144c000df10409af4220d0a36817f80910013b35
:10145c00002ba36004daa26993421adb0a2918d084
:10146c0023685a1c226019700137ebe7324604f1ed
:10147c00580301a9404600f07dfa421c0546ded116
:10148c00a38943f04003a3810646304603b0bde870
:10149c00f08322464046fff783fd431ce4d1064609
:0214ac00f3e764
:020000040000fa
:0214ae00704785
:020000040000fa
:1014b0001c4b1d4a934230b438bf002103d203f8bd
:1014c000011b9342fbd1194800250168c1b942684c
:1014d00032b383680c30d3b10139034613f8014ba2
:1014e00001f8014f1c1a9442f8d312f0030318bffd
:1014f000012303eb920200eb820001680029e6d091
:10150000846842680b460c303cb9002addd01a448e
:1015100003f8015b9a42fbd1d7e7002adcd1e4e76c
:1015200030bc704700000020000100206006000071
:020000040000fa
:10153000f8b51c4b1e68b369074613b9304600f076
:1015400043f94836b4687368013b03d5336833b157
:101550003668f7e7b4f90c506db16434f4e7042150
:10156000384600f081fc30600028f1d10c233b604c
:1015700004462046f8bd4ff6ff73e3810123a381a3
:1015800025662560a560656025616561a561082205
:10159000294604f1580000f00bff6563a563a564bc
:0815a000e564e6e760240000a9
:020000040000fa
:1015a8008b8973b59d0706460c4607d504f147039a
:1015b800236023610123636102b070bd01ab6a46f9
:1015c80000f094fa009905463046fff749fd38b90e
:1015d800b4f90c309a05efd443f00203a381e5e790
:1015e8000c4bb362a389206043f08003a381009b66
:1015f8006361019b20614bb1b4f90e10304600f0d5
:10160800cffd18b1a38943f00103a381a3891d432a
:08161800a581d1e7c511000016
:020000040000fa
:1016200030b583b0044600f0e4fe054601a9e06849
:1016300000f0befb01280ad02a460199204600f09e
:1016400024fe03460028f1d0184603b030bda3683d
:1016500063b103f10053013b226802ebc30129b1de
:10166000294652f8330000f0abfe28b121466069ec
:1016700000f0fefa0023e7e72368a268013aa260bf
:1016800003ebc203a3612146586800f0f1fa00237e
:04169000a361d9e792
:020000040000fa
:101694002de9f041846843689c4202d30220bde8ee
:1016a400f08116460f46054664b928683246394625
:1016b40000ebc40000f0c0feab680133ab60002057
:1016c400bde8f081d0f80080013c58f83410304671
:1016d40000f09efe10b914b1013cf6e70134aa688b
:1016e400121b002ae1dd2b68e10001f10800d200a1
:0a16f4001944184400f026fbd7e764
:020000040000fa
:0216fe00704733
:020000040000fa
:10170000174ad36823f4e0631b041b0c43f0bf6348
:1017100043f40133d360bff35f8f62b6114be02215
:1017200083f80b234ff40061196083f81b234ff0fb
:101730000061196083f836234ff48001596083f803
:1017400037234ff40001596083f838234ff080713c
:10175000596083f839234ff000725a60704700bf18
:0817600000ed00e000e100e0f3
:020000040000fa
:10176800627574746f6e207072657373656420613e
:101778007420256c750d0a000a0a232323232323ca
:10178800232323232323232300000000312e302e7c
:10179800300000002320626c696e6b792064656def
:1017a8006f2025730a0000004c454400427574748c
:1017b8006f6e20496e74657272757074000000bf98
:020000040000fa
:1017c800836910b5044633bb8364c3640365124b55
:1017d800124a1b688262984204bf01238361fff7a3
:1017e800a3fe60602046fff79ffea0602046fff73b
:1017f8009bfe0022e0600421606800f053f901229a
:101808000921a06800f04ef902221221e06800f0d8
:1018180049f90123a36110bd60240000c51100002f
:020000040000fa
:1018280038b505460c46084600f00ffe00f00bfee2
:101838002b788bb14ff480220e4bc3f8182100236c
:101848002b7047f6cc4100f0d9fd02460a492046e4
:1018580000f017fd002038bd4ff48022054bc3f877
:10186800142101232b7040f2333100f0c7fd0246ea
:0c187800ece700bf00800041a40300204a
:020000040000fa
:10188400f8b58568013d002d22db2c460768eb0086
:10189400fa185268914208d008333b44013c15d4ed
:1018a400083b53f8042c9142f8d106462d1b002d19
:1018b40007dde40004f10801ea003944381900f0b6
:1018c40041fab368013bb3600020f8bd0320f8bdc2
:0418d4000320f8bd38
:020000040000fa
:1018d800114b124a1a604ff622029a814ff4403295
:1018e8005a601a46d369002bfcd10b4a136843f09f
:1018f80002031360d369002bfcd1094b00229a61c3
:10190800da611a6283f82c205a621a605a609a6067
:101918001a75da60704700bf0020014104011040c9
:04192800cc000020cf
:020000040000fa
:10192c0038b50b6905460c46dbb118b183690bb9a8
:10193c00fff744ff0c4b9c4209d16c68b4f90c3096
:10194c007bb121462846bde83840fef7ebbf074b7c
:10195c009c4201d1ac68f1e7054b9c4208bfec6896
:10196c00ece7002038bd00bf282100004821000012
:04197c00082100003e
:020000040000fa
:10198000f0b5054685b01e460f460f4c91b922684a
:101990000e49126a002a08bf0a4601a9d2f8e0409f
:1019a0003a46a047431c01bf002333608a232b60c3
:1019b00005b0f0bd2468054f246a002c08bf3c46e2
:1019c000d4f8e040ede700bfcc0300200001002088
:020000040000fa
:1019d000f8b50e46096e14468a0407460bd4e5187e
:1019e000ac420dd0324614f8011b384600f0f8f92d
:1019f0000130f5d10ee023f00303e518ac4201d12c
:101a00000020f8bd324654f8041b384600f014fca0
:0a1a10000130f3d14ff0ff30f8bdb4
:020000040000fa
:021a1a00fee7e5
:020000040000fa
:101a1c000246c8b10e4b1b7dc3b90d4b1860596003
:101a2c0000219960012119750a4b1b7e13f0010fdf
:101a3c0006d007498b68581c8860d25c054b9a62ab
:101a4c000120044b987570470020704700207047a8
:081a5c00cc0000200020014134
:020000040000fa
:101a640070b50d4e0d4ca41ba4100025a54209d140
:101a74000b4e0c4cfef7f4fba41ba4100025a5424e
:101a840005d170bd56f8253098470135eee756f874
:101a9400253098470135f2e770020000700200001b
:081aa400700200007402000052
:020000040000fa
:101aac00002310b5044603604360836081810366a4
:101abc00c28103614361836119460822583000f0ea
:101acc0071fc054b6362054ba362054be362054b4e
:101adc002462236310bd00bfa5200000a91c0000d8
:081aec00cd1f00002d240000b5
:020000040000fa
:101af40070b50e46b1f90e10002990b014461d467b
:101b040007da00232b60b3891a0610d44ff48063dc
:101b14000ee001aa00f07cfa0028f2db029a02f43b
:101b24007042a2f500535a425a412a60eee740231c
:081b34000020236010b070bd19
:020000040000fa
:101b3c0010b5054c227832b9044b13b10448aff3fd
:101b4c0000800123237010bd3c0300200000000026
:101b5c000000000008b5034b1bb103490348aff369
:101b6c00008008bd000000004003002000000000c1
:020000040000fa
:101b7c00b0b138b505460c4600f03cfb0a4b93f867
:101b8c002c307bb9084b9d61dc6100221a6201206c
:101b9c0083f82c00054b80229a7504229a7538bd67
:101bac0000207047002038bdcc00002000200141ef
:020000040000fa
:101bbc0001220d4b1a801a46136913f0010ffbd149
:101bcc00094b4ff401421a8000221a621a4613691b
:101bdc0013f0200ffbd10022034b5a621a461369f3
:0c1bec0013f0400ffbd1704700240040b4
:020000040000fa
:101bf8002de9f8438046894600f14804002614b9c7
:101c08003046bde8f883a5686768013f01d52468b8
:101c1800f5e7ab89012b07d9b5f90e30013303d0ad
:0c1c280029464046c84706436435eee7f5
:020000040000fa
:101c340070b50d46a9b114460ab1022801d920464f
:101c440070bd094b2bb108461146aff30080204606
:101c540070bd164615f8010b00f0defa013ef9d10d
:0c1c6400ede70c46204670bd00000000bb
:020000040000fa
:101c700070b504460d4600f0d1fb064623682946a0
:101c8000606898470546e3680133e36000f0c6fbef
:101c9000314600f0bbfb236903442361636998422a
:081ca000c8bf6061284670bd59
:020000040000fa
:101ca8002de9f0411f468b89db0505460c46164693
:101cb80005d502230022b1f90e1000f0b9f9a38965
:101cc800b4f90e1023f48053a38132463b462846cc
:081cd800bde8f04100f088b9fd
:020000040000fa
:101ce00010b5044601604260c360064b03610648bc
:101cf0006061064b0022064900f0f8fa204600f029
:101d000000fb10bd1d24000074030020fc23000014
:041d1000af1400000c
:020000040000fa
:101d14000b4b4ff00042c3f89020012283f8d820e7
:101d240083f8d920072283f8df20332283f8bc20ec
:101d34004ff48022c3f80021c3f81021704700bf7c
:041d440000800041da
:020000040000fa
:101d4800884210b501eb020303d8421e99420cd118
:101d580010bd9842f9d28118d21ad34200d110bdd1
:101d680013f8014d01f8014df7e711f8014b02f89e
:041d7800014febe745
:020000040000fa
:101d7c0030313233343536373839414243444546b5
:101d8c00003031323334353637383961626364654b
:101d9c006600232d302b2000686c4c00656667456f
:031dac00464700a7
:020000040000fa
:101db000428892b283889bb29a420dd043889bb2ec
:101dc000826852f823300b6043889bb2013302884b
:101dd000134043800020704700230b6001207047b0
:020000040000fa
:101de0009368013b002b10b4936009da9469a34215
:101df00002dbcbb20a2b03d15df8044bfff7d6b858
:101e00001368581c10601970c8b25df8044b704715
:020000040000fa
:101e100030b400eb4004084b03eb84031b7a83428d
:101e200001d030bc7047044b4400251843f82510fe
:0c1e300003eb85035a60f4e7000000207b
:020000040000fa
:101e3c0008b5fff7bdfe00f0fefa07ee900ab8ee0b
:101e4c00677af7ee006ac6ee877a034bc3ed007a29
:0c1e5c0000f0c2f908bd00bfc803002060
:020000040000fa
:101e680070b54a1e642555430e4605f17001fff70b
:101e7800f7f8044640b1002180e842000c30a06029
:0c1e880005f1640200f090fa204670bde5
:020000040000fa
:101e9400074a136843b10749184488429abf10603f
:101ea40018464ff0ff307047034b1360f3e700bf51
:0c1eb400d8030020e0050020e00300201f
:020000040000fa
:101ec00038b504460d4600f0ecf908b1022038bde3
:101ed000a3889bb2a26842f82350a3889bb2013327
:081ee00022881340a38038bde5
:020000040000fa
:101ee80008b5074a908980b2064b58604cf2ff311a
:101ef80091811b6813b1034a9168984708bd00bfd8
:081f080000240040c00000208d
:020000040000fa
:101f100008b500f02dfafff7fdfefef713fefff700
:101f2000dbfc00f015fafff7eafbfff73bfafff7df
:081f300045fefff7e5fb08bdcb
:020000040000fa
:101f380070b50d4661b1164642b138b91446012054
:101f480000f0cdf8013c05f8010bf8d1304670bd22
:081f58000e46304670bd00bfcb
:020000040000fa
:101f600008b54ff40042054b5a61054bd3f8b43025
:101f70001bb1034ad2f8b800984708bd00280040ba
:041f8000000000203d
:020000040000fa
:101f8400074b80221a7607225a831b7e13f0040f14
:101f940005d0034b9a6a1a7e12f0040ffad17047e7
:041fa40000200141d7
:020000040000fa
:101fa8000fb407b5064b04aa1b6852f8041b9868bf
:101fb800019200f0adf903b05df804eb04b070478e
:041fc800cc03002026
:020000040000fa
:101fcc0010b50c46b1f90e1000f030f8431ca38983
:101fdc0015bf606523f4805343f48053a38118bf6d
:041fec00a38110bd00
:020000040000fa
:101ff00038b5074c054608461146002222601a46ad
:1020000000f03afa431c02d1236803b12b6038bdbb
:04201000fc000020b0
:020000040000fa
:1020140038b5074c0023054608461146236000f0f6
:1020240021fa431c02d1236803b12b6038bd00bfe1
:04203400fc0000208c
:020000040000fa
:1020380038b5074c054608461146002222601a4664
:1020480000f012fa431c02d1236803b12b6038bd9b
:04205800fc00002068
:020000040000fa
:10205c0082b001b901a942b14bb113780b6012786f
:10206c00101c18bf012002b070471046fbe76ff040
:04207c000100f8e780
:020000040000fa
:1020800038b5074c054608461146002222601a461c
:1020900000f0f0f9431c02d1236803b12b6038bd76
:0420a000fc00002020
:020000040000fa
:1020a40010b50c46b1f90e10fff7e8ff0028abbfde
:1020b400636da3891b1823f48053acbf6365a381ac
:0220c40010bd4d
:020000040000fa
:1020c60013460ab903207047013a1a4201d0032089
:1020d60070470280816000234380838018467047e2
:020000040000fa
:1020e60030b583b002ac002344f8043d01252946ef
:1020f6002046fff740fd0028f9d0019803b030bd17
:020000040000fa
:02210600fee7f2
:020000040000fa
:1021080000000000000000000000000000000000c7
:1021180000000000000000000000000000000000b7
:020000040000fa
:1021280000000000000000000000000000000000a7
:102138000000000000000000000000000000000097
:020000040000fa
:102148000000000000000000000000000000000087
:102158000000000000000000000000000000000077
:020000040000fa
:1021680038b5064c0023054608462360fff78efe67
:10217800431c02d1236803b12b6038bdfc0000204a
:020000040000fa
:1021880038b5064c002305460846236000f066f97a
:10219800431c02d1236803b12b6038bdfc0000202a
:020000040000fa
:1021a80038b5064c002305460846236000f05af966
:1021b800431c02d1236803b12b6038bdfc0000200a
:020000040000fa
:1021c80038b504460d46fff759fb204600f00df9d7
:0c21d800024629462046fff759fa38bda0
:020000040000fa
:1021e400054a13889bb243f002031380136913f06a
:0c21f400020ffbd1704700bf0024004028
:020000040000fa
:1022000010b5054b588b10f0070401d1204610bdc6
:0c221000fff7b8fefae700bf0020014114
:020000040000fa
:10221c0030b583b002ac04f8010d012529462046e7
:0c222c00fff7f6fb0028f9d003b030bd2e
:020000040000fa
:10223800b2f90c3013f4005f06d143f400539381d4
:0c224800136e43f400531366fff7ecb86c
:020000040000fa
:10225400044b054a1b681b6a002b08bf134693f8fe
:0c22640028017047cc030020000100207e
:020000040000fa
:1022700049b1ff2a85bf8a2303600a704ff0ff30ff
:0a22800098bf012070470846704720
:020000040000fa
:10228a0070b504460d461646fff7f7fa3246294658
:08229a002046fff7faf970bdc0
:020000040000fa
:1022a20083889bb2428892b20133008818409042e0
:0822b20014bf00200120704759
:020000040000fa
:0222ba00fee73d
:020000040000fa
:1022bc00044a136913f0080ffbd1024b98690430e0
:0822cc00704700bf0024004030
:020000040000fa
:1022d40008b5084600f08bf801460248fff762fe95
:0822e400002008bd681700008e
:020000040000fa
:1022ec0010b40160426083600023c36003614361ea
:0622fc005df8044b704781
:020000040000fa
:1023020038b5044600258560c06800f06cf8a56108
:04231200204638bd6c
:020000040000fa
:02231600fee7e0
:020000040000fa
:1023180013460a46014602480068fdf7afbf00bff2
:04232800cc030020c2
:020000040000fa
:10232c0008b5c068fff7c6fd02280cbf02200020cc
:02233c0008bdda
:020000040000fa
:10233e0008b50020fff7e5fdfef7edfe00f021f8f1
:02234e00fce7aa
:020000040000fa
:102350004ff48022014bc3f81821704700800041e0
:020000040000fa
:10236000012303fa00f0014b186170470028004078
:020000040000fa
:1023700040f20452014b1a80704700bf00400041f8
:020000040000fa
:1023800008b50249fff7d2ff08bd00bf8c0300204b
:020000040000fa
:1023900008b50248fff744f908bd00bf5803002004
:020000040000fa
:1023a000024b01461868fef79bbd00bfcc0300201e
:020000040000fa
:1023b00002440346934200d1704703f8011bf9e73a
:020000040000fa
:0e23c00008b50b460146184600f03ef808bd71
:020000040000fa
:0223ce00fee728
:020000040000fa
:0c23d0004ff400534b600020704700bf2a
:020000040000fa
:0b23dc004300504f53495800002e00f2
:020000040000fa
:0a23e80000234380838018467047ed
:020000040000fa
:0823f20008b50369984708bd16
:020000040000fa
:0223fa00fee7fc
:020000040000fa
:0823fc0049646c65000000bf9c
:020000040000fa
:0824040008b500f026f808bd40
:020000040000fa
:08240c0008b500f024f808bd3a
:020000040000fa
:0824140008b500f017f808bd3f
:020000040000fa
:08241c0008b500f001f808bd4d
:020000040000fa
:0824240008b5fff749ff08bdf0
:020000040000fa
:08242c00b1f90e10fff7aabe82
:020000040000fa
:082434004ff0ff30704700bfbc
:020000040000fa
:06243c00416002607047e0
:020000040000fa
:062442004ff4004070475a
:020000040000fa
:06244800401ac00f7047ae
:020000040000fa
:04244e00006870476b
:020000040000fa
:0424520080697047e6
:020000040000fa
:04245600084470477f
:020000040000fa
:04245a00401a70476d
:020000040000fa
:02245e00fee797
:020000040000fa
:042460006c020020ea
:020000040000fa
:04246400fff7e6bfd9
:020000040000fa
:04246800fff7b2bf09
:020000040000fa
:04246c0000f006b8be
:020000040000fa
:0424700000f006b8ba
:020000040000fa
:04247400fff760bd51
:020000040000fa
:04247800fff7dcbbd3
:020000040000fa
:04247c000120704784
:020000040000fa
:042480000020704781
:020000040000fa
:0224840070479f
:020000040000fa
:0200000400807a
:044000003912003c35
:020000040000fa
:0200000400807a
:044004008000a82a66
:020000040000fa
:0200000400807a
:04400800ffffffffb8
:00000001FF
