:020000040000fa
:10000000f0ff03202d120000a3180000bb20000009
:100010008b230000d32300003724000000000000e1
:100020000000000000000000000000009716000023
:100030005b220000000000009716000097160000e9
:1000400097160000971600009716000097160000fc
:1000500097160000971600009716000097160000ec
:10006000971600009716000097160000c51e0000a6
:1000700097160000971600009716000097160000cc
:1000800097160000971600009716000097160000bc
:1000900097160000971600009716000097160000ac
:1000a000971600009716000097160000391f0000f1
:1000b000971600009716000097160000971600008c
:1000c000971600009716000097160000971600007c
:1000d000971600009716000097160000971600006c
:1000e00097160000971600000000000000000000b6
:1000f00000000000971600009716000097160000f9
:10010000971600009716000097160000971600003b
:100110009716000097160000410c0000410c0000eb
:10012000410c0000410c00009716000097160000db
:10013000971600009716000097160000971600000b
:1001400097160000971600009716000097160000fb
:1001500097160000971600009716000097160000eb
:1001600097160000971600009716000097160000db
:1001700097160000971600009716000097160000cb
:1001800097160000971600009716000097160000bb
:1001900097160000971600009716000097160000ab
:1001a000971600009716000097160000971600009b
:1001b000971600009716000097160000971600008b
:1001c000971600009716000097160000971600007b
:1001d000971600009716000097160000971600006b
:1001e000971600009716000097160000971600005b
:1001f000971600009716000097160000971600004b
:10020000971600009716000097160000971600003a
:10021000971600009716000097160000971600002a
:10022000971600009716000097160000971600001a
:10023000971600009716000097160000971600000a
:1002400097160000971600009716000097160000fa
:1002500097160000971600009716000097160000ea
:0402600097160000ed
:020000040000fa
:10026400f8b500bff8bc08bc9e467047311a0000c0
:10027400f8b500bff8bc08bc9e4670470d1a0000d4
:020000040000fa
:100284002de9f04f0d4697b090461c46074618b12d
:1002940083690bb901f032fa914b9d4258d17d68c4
:1002a400ab8918075ed52b69002b5bd0002309931b
:1002b40020238df8293030238df82a304ff0010a9d
:1002c400c1464e4616f8013b002b56d1b9eb080b3c
:1002d4000bd05b4642462946384601f0bbfa013052
:1002e40000f05e81099b5b44099399f80030002b70
:1002f40000f0568100234ff0ff32049307930592d8
:1003040006938df8533005223178764800f0eefede
:1003140006f10109049b002833d1d90644bf2022e9
:100324008df853201a0744bf2b228df853203278be
:100334002a2a2ed0079a00210a20b146013699f8bc
:100344000030303b092b72d900292fd007922de0c1
:10035400654b9d4201d1bd68a2e7644b9d4208bf35
:10036400fd689de72946384600f0dcfc00289dd056
:100374004ff0ff3017b0bde8f08f252ba6d0b14663
:100384009fe7584a801a0afa00f0184304904e4630
:10039400b9e72268002a04f10401bbbf524243f0ca
:1003a400020307920792b8bf04930c4699f80030f1
:1003b4002e2b10d199f801302a2b09f101013ad1e1
:1003c4002268002a04f10403b8bf4ff0ff3209f198
:1003d400020905921c46464e99f800100322304645
:1003e40000f084fe40b14023801b03fa00f0049b1c
:1003f4000343049309f1010999f800103d488df86d
:100404002810062200f072fe9df82820692a09f1be
:10041400010827d037d8582a00f0c8801ed8002aef
:1004240000f0ec8001238df85220089347e000fb94
:100434000232012181e70023059318460a268946e2
:10044400013199f80020303a092a03d9002bc2d08f
:100454000590c0e706fb00200123f0e7632a28d0bb
:10046400642adfd1049b13f0800f04f1040229d025
:100474002368002b144603da2d225b428df85320a7
:100484001d490a2248e0732a00f0bc8008d86f2a6c
:100494001ed0702ac6d1049b43f02003049303e0ca
:1004a400752a15d0782abdd178238df85530134993
:1004b4007fe023688df852300123089304340df152
:1004c4005206ade013f0400f236818bf1bb2d0e70b
:1004d400049b13f0800f04f1040111d0236812e08f
:1004e400fc2000001e1d00001c210000dc20000078
:1004f400241d0000281d0000fc1c00000d1d000030
:100504005806ebd523886f2a0c4652490cbf0822a3
:100514000a2200208df85300059e0696002e0df148
:10052400530ec0f29080049820f004000490002b35
:1005340058d1002e40f089807646082a0bd1049bbe
:10054400d80708d5089b059a9a42debf302306f8df
:10055400013c06f1ff36aeeb060308933e4b0093d5
:1005640003aa2b4604a9384600f0f1fa013017d04b
:10057400089b32462946384601f06cf901300fd009
:10058400049b990705d50026039a079b9b1a9e4254
:100594004adb039a079b9342b8bf13465a1c4ed1b9
:1005a400ab895b063ff5e4ae0998e3e629498df88b
:1005b4005520049a12f0800f04f1040001d023683e
:1005c40002e05306fbd52388d60748bf42f0200239
:1005d400044648bf04921bb9049a22f020020492f4
:1005e400102296e77646b3fbf2f002fb1033cb5ca5
:1005f40006f8013d03460028f5d19ee708920df167
:100604005306abe72668059a0021304604f1040935
:1006140000f06cfd08b1801b0590059b08934c46c7
:1006240000238df8533099e701230df1290229465f
:10063400384601f00ff90130b2d00136a4e7099a27
:10064400134409933ce6002bccd116ae0b7806f884
:0c065400063d72e7fc1c00005918000075
:020000040000fa
:100660005c0300201c000000000000007803002054
:100670001800000000000000cc030020080000006b
:10068000000000009003002018000000000000009f
:10069000cc0200205000000000000000c003002039
:1006a0000c000000000000001c03002020000000df
:1006b00000000000e803002001000000000000002e
:1006c000a803002018000000000000003c030020e8
:1006d0002000000000000000d403002004000000ff
:1006e00000000000000000203000000000000000ba
:1006f00030000020c000000000000000f0000020da
:100700000c00000000000000d803002004000000de
:10071000010000006c0200206c020020600000005c
:100720000100000000000000fc2000001c2100006f
:10073000dc200000000000000000000000000000bd
:1007400000000000000000000000000000000000a9
:100750000000000000000000000000000000000099
:100760000000000000000000000000000000000089
:100770000000000000000000000000000000000079
:1007800000000000dc030020040000000000000066
:10079000e003002004000000000000000001002031
:1007a0006c01000001000000430000000000000098
:1007b0000000000000000000000000000000000039
:1007c00000000000000000004300000000000000e6
:1007d0000000000000000000000000000000000019
:1007e00000000000000000004300000000000000c6
:1007f00000000000000000000000000000000000f9
:1008000000000000000000004300000000000000a5
:1008100000000000000000000000000000000000d8
:100820000000000000000000430000000000000085
:1008300000000000000000000000000000000000b8
:100840000000000000000000430000000000000065
:100850000000000000000000000000000000000098
:100860000000000000000000430000000000000045
:100870000000000000000000000000000000000078
:1008800000000000000000002922000011200000ec
:1008900000000000500a0000c5230000c42300002f
:1008a000c4230000c4230000c4230000c4230000ac
:1008b000c4230000c4230000c4230000c42300009c
:1008c000ffffffffffffffffffffffffffff000036
:1008d00001004153434949000000000000000000ae
:1008e0000000000000000000000000000000000008
:1008f000000041534349490000000000000000008f
:1009000000000000000000000000000000000000e7
:1009100000000000fc0000200400000000000000b7
:10092000e4030020040000000000000000000000bc
:10093000000000002222222222222222222222221f
:020000040000fa
:100940008a892de9f041054610070c465ad44b68b8
:10095000002b05dc0b6c002b02dc0020bde8f081d5
:10096000e66a002ef9d0002312f480522f682b6023
:1009700033d0606da3895a0705d56368c01a636bcd
:100980000bb1236cc01a00230246e66a216a28468e
:10099000b047431ca38906d129681d294bd82b4a8f
:1009a000ca40d60747d500226260d9042269226076
:1009b00004d5421c01d12b6803b96065616b2f60bf
:1009c0000029cad004f14403994202d0284600f01d
:1009d000dffb00206063bde8f081216a0123284627
:1009e000b047411cc6d12b68002bc3d01d2b01d0b2
:1009f000162b01d12f60b0e7a38943f04003a381f8
:100a0000bde8f0810f69002fa7d093070e6808bfdb
:100a10004b690f6018bf0023a6eb07088b60b8f185
:100a2000000f9add43463a46216aa66a2846b04737
:100a3000002807dca38943f04003a3814ff0ff3077
:100a4000bde8f0810744a8eb0008e8e7010040207a
:020000040000fa
:100a5000002020202020202020202828282828208e
:100a60002020202020202020202020202020202086
:100a700020881010101010101010101010101010ee
:100a800010040404040404040404041010101010de
:100a900010104141414141410101010101010101a8
:100aa00001010101010101010101010110101010fa
:100ab000101042424242424202020202020202027a
:100ac00002020202020202020202020210101010ce
:100ad00020000000000000000000000000000000f6
:100ae0000000000000000000000000000000000006
:100af00000000000000000000000000000000000f6
:100b000000000000000000000000000000000000e5
:100b100000000000000000000000000000000000d5
:100b200000000000000000000000000000000000c5
:100b300000000000000000000000000000000000b5
:100b400000000000000000000000000000000000a5
:010b500000a4
:020000040000fa
:100b52002de9f04791461f468a680b69ddf820802f
:100b62009342b8bf1346c9f8003091f843200646b5
:100b72000c4612b10133c9f800302368990642bf0e
:100b8200d9f800300233c9f80030256815f006059f
:100b920007d104f1190ae368d9f800209b1a9d4293
:100ba20029db94f843302268003318bf01239206f0
:100bb2002ed404f1430239463046c047013021d0d9
:100bc2002368e568d9f8002003f00603042b08bf68
:100bd200ad1aa36822690cbf25eae5750025934288
:100be200c4bf9b1aed184ff000091a344d451bd1b2
:100bf2000020bde8f0870123524639463046c047ff
:100c0200013003d14ff0ff30bde8f0870135c2e774
:100c1200e1185a1c302081f84300224494f8451010
:100c220082f843100233c4e7012322463946304694
:0c0c3200c0470130e6d009f10109d7e706
:020000040000fa
:020c3e007047fd
:020000040000fa
:100c4000374b9b7d002b69d010b5354b1b7e13f0c5
:100c5000010f0ad1324b1b7e13f0040f28d1304b09
:100c60001b7e13f0800f48d110bd2e4b1b7d002b37
:100c7000f0d02c4b9a685b689a4207d2294a1068d8
:100c800091684c1c9460415c254a9162254a9268a7
:100c90009342dfd8234b00221a755a600121204a63
:100ca0001175db68002bd5d01e4a10699847d1e733
:100cb0001c4b93f82c30002bd1d01a4b1a6adb69ed
:100cc0009a42ccd2164b986a164b99691a6a541cf0
:100cd0001c6288541a6adb699a42c0d1114b002207
:100ce00083f82c20da6104210d4a11755b6a002b10
:100cf000b5d00c4a906a9847b1e7094b5b8b13f06b
:100d0000070fb1d08422064b1a75064b5b6a13b1ec
:100d1000044a906a984701f0fdf8a5e7704700bfc4
:080d2000002001410000002049
:020000040000fa
:100d2800324b70b51d6806460c4625b1ab6913b940
:100d3800284600f0e1fc2e4b9c420fd16c68b4f9b8
:100d48000c309ab215072cd4d00611d4092232607f
:100d580043f04003a3814ff0ff3070bd254b9c4208
:100d680001d1ac68ebe7244b9c4208bfec68e6e78e
:100d7800510712d5616b41b104f14403994202d085
:100d8800304600f001fa00236363a38923f02403ab
:100d9800a3810023636023692360a38943f00803c8
:100da800a38123694bb9a38903f42073b3f5007faa
:100db80003d02146304600f0bffba28912f00103a0
:100dc8000cd00023a36063695b42a361236953b914
:100dd800b4f90c3013f08000bad170bd920758bf37
:100de8006369a360f2e70020f7e700bfd80300209b
:0c0df800fc2000001c210000dc2000009a
:020000040000fa
:100e040070b50e46054618b183690bb900f076fc3f
:100e1400ab69ac6813b9284600f070fc284b9c42bf
:100e240022d16c68b4f90c309a0406d443f400530c
:100e3400a381236e23f400532366a3891b071dd5c6
:100e44002369dbb1013ea36816f8011f013ba360cf
:100e5400e9b9002b2eda22460a21284600f036f89a
:100e6400013011d00a2070bd164b9c4201d1ac68f0
:100e7400d8e7154b9c4208bfec68d3e721462846c7
:100e8400fff750ff0028ddd04ff0ff3070bd002b7e
:100e940004daa269934206db0a2904d023685a1ca7
:100ea40022601970cfe72246284600f00ff801307f
:100eb400c9d1e9e723680a205a1c2260187070bd62
:0c0ec400fc2000001c210000dc200000cd
:020000040000fa
:100ed000f8b50e461446054618b183690bb900f003
:100ee0000ffc274b9c422fd16c68a369a360a38998
:100ef000190733d52369002b30d0b4f90c30f6b282
:100f00009a04374634d523692068c01a6369984229
:100f100004db2146284600f04dfc28bba368013bba
:100f2000a36023685a1c22601e70636901309842d6
:100f300004d0a389db0719d50a2e17d121462846ec
:100f400000f038fc90b10fe00e4b9c4201d1ac6830
:100f5000cbe70d4b9c4208bfec68c6e7214628460c
:100f6000fff7e2fe0028c8d04ff0ff373846f8bd43
:100f700043f40053a381236e23f400532366c2e796
:0c0f8000fc2000001c210000dc20000010
:020000040000fa
:100f8c0070b5cd1c25f0030508350c2d38bf0c258c
:100f9c00002d064601dba94203d90c233360002047
:100fac0070bd01f057fa234a1468214691b9224cbe
:100fbc0023681bb9304601f0bbf820602946304647
:100fcc0001f0b6f8431c26d10c233360304601f0f7
:100fdc0042fae4e70b685b1b1ad40b2b0fd90b609e
:100fec00cd50cc18304601f036fa04f10b00231d1d
:100ffc0020f00700c31a1bd05a42e25070bd8c423d
:10100c000dbf63684b686360136018bf0c46e9e75b
:10101c000c464968cae7c41c24f00304a04205d05e
:10102c00211a304601f084f80130cdd02560d9e783
:0c103c0070bd00bfdc030020e0030020ba
:020000040000fa
:101048000122204b1a74204a03f500635a621a469b
:10105800536813f0080ffbd101221c4b5a711a4632
:10106800d37813f0010ffbd0194a1a4b1a621a46ab
:10107800536813f0040ffbd1174a164b9a621a46ad
:10108800536813f0100ffbd14122124bc3f8902084
:101098001a46d2f8903013f0400ffad040220d4b88
:1010a800c3f8dc201a46d2f8dc3013f0400ffad02f
:1010b800064b6ff07f421a6140f2ff725a61074a8d
:1010c8009a617047001400400401010000080040c4
:1010d80006010c00001c0040060130005682010089
:020000040000fa
:0810e80008b50369984708bd33
:020000040000fa
:1010f00001f0ff01102a2bdb10f0070f08d010f8c9
:10110000013b013a8b422dd010f0070f42b3f6d1cc
:10111000f0b441ea012141ea014122f007047ff0e5
:1011200000070023f0e80256083c85ea010586ea3c
:10113000010685fa47f5a3fa87f586fa47f6a5fa78
:1011400087f68eb9eed1f0bc01f0ff0102f0070284
:1011500032b110f8013b013a83ea010313b1f8d12f
:101160000020704701387047002d06bf3546033810
:10117000073815f0010f07d1013015f4807f02bf49
:10118000013015f4c03f0130f0bc0138704700bf9a
:020000040000fa
:1011900038b50546002945d051f8043c0c1f002bfa
:1011a000b8bfe41801f05cf91f4a1368104633b960
:1011b000636014602846bde8384001f052b9a3428c
:1011c0000cd921686218934204bf1a685b68636097
:1011d00004bf521822600460ece713465a680ab153
:1011e000a242fad919685818a0420bd120680144cc
:1011f000581882421960ddd1106852685a60014463
:101200001960d7e702d90c232b60d3e72068211897
:101210008a4204bf11685268626004bf09182160e5
:0c1220005c60c7e738bd00bfdc030020a5
:020000040000fa
:10122c0010b51d4b03b198471c4b03b19847eff316
:10123c00108172b61a4ad2f8883043f47003c2f89f
:10124c008830bff34f8fbff36f8f01b962b6154c67
:10125c002023636000f0b6f8114a134b23f07f0390
:10126c009360124b9847a36823f00103a3602346b5
:10127c00da6812f0010ffbd10a4b5a6842f00402f3
:10128c005a6001229a600a4b03b19847094b03b18b
:10129c00984701f03cf8fee7000000000000000059
:1012ac0000ed00e000600041000000003519000076
:0812bc0000000000000000002a
:020000040000fa
:1012c4001f4a137843f001031370536813f0010f9e
:1012d400fbd11b490022ca614ff000530b624ff44b
:1012e40000430b634a630b61164b10221a721a7582
:1012f40083f8202083f82c2083f8382083f84420b6
:1013040083f8502083f85c2083f8682083f87420e5
:1013140083f8802083f88c2083f8982083f8a42015
:1013240083f8b0200f2283f8bc200b7843f002032b
:101334000b700a46536813f0020ffbd1704700bfcd
:081344000028004030000020e9
:020000040000fa
:10134c002de9f74380460e46144600f059ff01285c
:10135c001cd1731efe2b19d88df80460054600278e
:10136c000df10409af4220d0a36817f80910013b16
:10137c00002ba36004daa26993421adb0a2918d065
:10138c0023685a1c226019700137ebe7324604f1ce
:10139c00580301a9404600f031fa421c0546ded143
:1013ac00a38943f04003a3810646304603b0bde851
:1013bc00f08322464046fff785fd431ce4d10646e8
:0213cc00f3e745
:020000040000fa
:0213ce00704766
:020000040000fa
:1013d0001c4b1d4a934230b438bf002103d203f89e
:1013e000011b9342fbd1194800250168c1b942682d
:1013f00032b383680c30d3b10139034613f8014b83
:1014000001f8014f1c1a9442f8d312f0030318bfdd
:10141000012303eb920200eb820001680029e6d071
:10142000846842680b460c303cb9002addd01a446f
:1014300003f8015b9a42fbd1d7e7002adcd1e4e74d
:1014400030bc704700000020000100206006000052
:020000040000fa
:1014500038b5144c204600f081ff04f1100104f16e
:10146000180000f07bfd00f0abfc0f4d08220f4987
:10147000284600f002fe0e4c2b460a220d4920465b
:1014800000f0eefb0c4d0d49284600f017fe2246f9
:101490000b490c4800f0fefb2946204600f0f6fe02
:1014a00038bd00bfa4180000c00300201c030020aa
:1014b0003c030020cc020020a8030020e803002009
:0814c000cc0300209003002082
:020000040000fa
:1014c800f8b51c4b1e68b369074613b9304600f0df
:1014d80013f94836b4687368013b03d5336833b1f0
:1014e8003668f7e7b4f90c506db16434f4e70421b9
:1014f800384600f0a3fc30600028f1d10c233b6093
:1015080004462046f8bd4ff6ff73e3810123a3810b
:1015180025662560a560656025616561a56108226d
:10152800294604f1580000f01dff6563a563a56412
:08153800e564e6e73c24000035
:020000040000fa
:101540008b8973b59d0706460c4607d504f1470302
:10155000236023610123636102b070bd01ab6a4661
:1015600000f030fa009905463046fff70ffd38b914
:10157000b4f90c309a05efd443f00203a381e5e7f8
:101580000c4bb362a389206043f08003a381009bce
:101590006361019b20614bb1b4f90e10304600f03d
:1015a000edfd18b1a38943f00103a381a3891d4375
:0815b000a581d1e7a52300008d
:020000040000fa
:1015b80070b582b00446fff793fd054601a9e068bf
:1015c80000f0b2fb01280ad02a460199204600f013
:1015d80029f803460028f1d0184602b070bda36868
:1015e80063b103f10053013b226812ebc30605d037
:1015f800294652f8330000f0bdfe28b12146606943
:1016080000f0d6fa0023e7e732687368a261e36165
:10161800a368013ba3602146e06900f0c9fa0023f2
:04162800e361d9e7ba
:020000040000fa
:10162c002de9f041846843689c4202d30220bde856
:10163c00f08116460f46054664b92868324639468d
:10164c0000ebc40000f0e0feab680133ab6000209f
:10165c00bde8f081d0f80080013c58f834103046d9
:10166c0000f0befe10b914b1013cf6e70134aa68d3
:10167c00121b002ae1dd2b68e10001f10800d20009
:0a168c001944184400f01afbd7e7d8
:020000040000fa
:02169600fee76d
:020000040000fa
:10169800174ad36823f4e0631b041b0c43f0bf63b1
:1016a80043f40133d360bff35f8f62b6114be0227e
:1016b80083f80b234ff40061196083f81b234ff064
:1016c8000061196083f836234ff48001596083f86c
:1016d80037234ff40001596083f838234ff08071a5
:1016e800596083f839234ff000725a60704700bf81
:0816f80000ed00e000e100e05c
:020000040000fa
:10170000836910b5044633bb8364c3640365124b1d
:10171000124a1b688262984204bf01238361fff76b
:10172000d3fe60602046fff7cffea0602046fff7a3
:10173000cbfe0022e0600421606800f01ff9012266
:101740000921a06800f01af902221221e06800f0d5
:1017500015f90123a36110bd3c240000a52300005e
:020000040000fa
:10176000114b124a1a6048f609229a814ff440320e
:101770005a601a46d369002bfcd10b4a136843f018
:1017800002031360d369002bfcd1094b00229a613c
:10179000da611a6283f82c205a621a605a609a60e1
:1017a0001a75da60704700bf002001410401104043
:0417b0000000002015
:020000040000fa
:1017b40038b50b6905460c46dbb118b183690bb922
:1017c400fff79cff0c4b9c4209d16c68b4f90c30b8
:1017d4007bb121462846bde83840fff7afb8074b38
:1017e4009c4201d1ac68f1e7054b9c4208bfec6810
:1017f400ece7002038bd00bffc2000001c210000e5
:04180400dc200000e4
:020000040000fa
:10180800f0b5054685b01e460f460f4c91b92268c3
:101818000e49126a002a08bf0a4601a9d2f8e04018
:101828003a46a047431c01bf002333608a232b603c
:1018380005b0f0bd2468054f246a002c08bf3c465b
:10184800d4f8e040ede700bfd803002000010020f5
:020000040000fa
:10185800f8b50e46096e14468a0407460bd4e518f7
:10186800ac420dd0324614f8011b384600f08cfa11
:101878000130f5d10ee023f00303e518ac4201d1a5
:101888000020f8bd324654f8041b384600f0acfc82
:0a1898000130f3d14ff0ff30f8bd2e
:020000040000fa
:0218a200fee75f
:020000040000fa
:1018a4000a0a23203d3d3d3d3d3d3d3d3d3d3d003e
:1018b400312e302e300000002320626c696e6b796b
:1018c4002025733a2068747470733a2f2f676974f3
:1018d4006875622e636f6d2f7264706f6f722f6df7
:0818e400756c69620a0000bf87
:020000040000fa
:1018ec000246c8b10e4b1b7dc3b90d4b1860596035
:1018fc0000219960012119750a4b1b7e13f0010f11
:10190c0006d007498b68581c8860d25c054b9a62dc
:10191c000120044b987570470020704700207047d9
:08192c00000000200020014131
:020000040000fa
:1019340070b50d4e0d4ca41ba4100025a54209d171
:101944000b4e0c4cfef78cfca41ba4100025a542e6
:1019540005d170bd56f8253098470135eee756f8a5
:10196400253098470135f2e770020000700200004c
:08197400700200007402000083
:020000040000fa
:10197c00002310b5044603604360836081810366d5
:10198c00c28103614361836119460822583000f01b
:10199c00e7fc054b6362054ba362054be362054b09
:1019ac002462236310bd00bf59200000291c0000d5
:0819bc00811f0000052400005a
:020000040000fa
:1019c40070b50e46b1f90e10002990b014461d46ac
:1019d40007da00232b60b3891a0610d44ff480630e
:1019e4000ee001aa00f0eefa0028f2db029a02f4fb
:1019f4007042a2f500535a425a412a60eee740234e
:081a04000020236010b070bd4a
:020000040000fa
:101a0c0010b5054c227832b9044b13b10448aff32e
:101a1c0000800123237010bd5c0300200000000037
:101a2c000000000008b5034b1bb103490348aff39a
:101a3c00008008bd000000006003002000000000d2
:020000040000fa
:101a4c00b0b138b505460c4600f0a2fb0a4b93f832
:101a5c002c307bb9084b9d61dc6100221a6201209d
:101a6c0083f82c00054b80229a7504229a7538bd98
:101a7c0000207047002038bd0000002000200141ec
:020000040000fa
:101a8c0008b5034608461a7862b14ff480210b4a18
:101a9c00c2f8181100221a7047f65c7100f06af84f
:101aac00002008bd4ff48021044ac2f81411012211
:101abc001a70a32100f05ef8f2e700bf008000412d
:020000040000fa
:101acc0001220d4b1a801a46136913f0010ffbd13a
:101adc00094b4ff401421a8000221a621a4613690c
:101aec0013f0200ffbd10022034b5a621a461369e4
:0c1afc0013f0400ffbd1704700240040a5
:020000040000fa
:101b08002de9f8438046894600f14804002614b9b7
:101b18003046bde8f883a5686768013f01d52468a9
:101b2800f5e7ab89012b07d9b5f90e30013303d09e
:0c1b380029464046c84706436435eee7e6
:020000040000fa
:101b440070b50d46a9b114460ab1022801d9204640
:101b540070bd094b2bb108461146aff300802046f7
:101b640070bd164615f8010b00f024fb013ef9d1b7
:0c1b7400ede70c46204670bd00000000ac
:020000040000fa
:101b8000f8b5c369a3b110f1180613d00d46044689
:101b9000304600f048fc0746304600f046fc294637
:101ba00000f01cfc024639462046fff73ffdf8bd19
:081bb0000320f8bd0320f8bd7d
:020000040000fa
:101bb80070b504460d4600f019fc06462368294610
:101bc800606898470546e3680133e36000f00efc5f
:101bd800314600f003fc236903442361636998429a
:081be800c8bf6061284670bd12
:020000040000fa
:101bf0000c4b4ff00042c3f89020012283f8d8200c
:101c000083f8d920072283f8df20332283f8bc2011
:101c10004ff41012c3f800214ff48022c3f81021b2
:081c2000704700bf0080004185
:020000040000fa
:101c28002de9f0411f468b89db0505460c46164613
:101c380005d502230022b1f90e1000f0d3f9a389cb
:101c4800b4f90e1023f48053a38132463b4628464c
:081c5800bde8f04100f0a2b963
:020000040000fa
:101c600010b5044601604260c360064b036106483c
:101c70006061064b0022064900f013fb204600f08d
:101c80001bfb10bdf523000078030020d4230000c7
:041c90003f0c000005
:020000040000fa
:101c940010b5044608604a600a4607490f2000f060
:101ca400a3f80f2000f050fb044b00220449204607
:101cb40000f0f5fa204610bd99230000301e000004
:041cc4007522000085
:020000040000fa
:101cc800884210b501eb020303d8421e99420cd199
:101cd80010bd9842f9d28118d21ad34200d110bd52
:101ce80013f8014d01f8014df7e711f8014b02f81f
:041cf800014febe7c6
:020000040000fa
:101cfc003031323334353637383941424344454636
:101d0c0000303132333435363738396162636465cb
:101d1c006600232d302b2000686c4c0065666745ef
:031d2c0046470027
:020000040000fa
:101d3000428892b283889bb29a420dd043889bb26c
:101d4000826852f823300b6043889bb201330288cb
:101d5000134043800020704700230b600120704730
:020000040000fa
:101d600008b500f013fbfff743fffff76df9fff72e
:101d7000f7fc00f0e3fafff72afb00f0a7fa00f007
:101d8000affafff79ffafff7a1fefff785fc08bd4a
:020000040000fa
:101d90009368013b002b10b4936009da9469a34265
:101da00002dbcbb20a2b03d15df8044bfff790b8ee
:101db0001368581c10601970c8b25df8044b704766
:020000040000fa
:101dc00008b5fff783fe00f02bfb07ee900ab8ee94
:101dd000677af7ee006ac6ee877a034bc3ed007aa6
:0c1de00000f0f8f908bd00bfd40300209b
:020000040000fa
:101dec0030b400eb4004084b03eb84031b7a8342b2
:101dfc0001d030bc7047044b4400251843f8251023
:0c1e0c0003eb85035a60f4e7300000206f
:020000040000fa
:101e1800627574746f6e2070726573736564206187
:101e28007420256c750d0a00427574746f6e204914
:0c1e38006e74657272757074000000bf5b
:020000040000fa
:101e440070b54a1e642555430e4605f17001fff72f
:101e54009bf8044640b1002180e842000c30a060a9
:0c1e640005f1640200f080fa204670bd19
:020000040000fa
:101e7000074a136843b10749184488429abf106063
:101e800018464ff0ff307047034b1360f3e700bf75
:0c1e9000e4030020f0050020f003002017
:020000040000fa
:101e9c0038b504460d4600f0cef908b1022038bd25
:101eac00a3889bb2a26842f82350a3889bb201334b
:081ebc0022881340a38038bd09
:020000040000fa
:101ec40008b5074a908980b2064b58604cf2ff313e
:101ed40091811b6813b1034a9168984708bd00bffc
:081ee40000240040f000002082
:020000040000fa
:101eec0070b50d4661b1164642b138b914460120a1
:101efc0000f0cdf8013c05f8010bf8d1304670bd6f
:081f0c000e46304670bd00bf17
:020000040000fa
:101f1400074b80221a7607225a831b7e13f0040f84
:101f240005d0034b9a6a1a7e12f0040ffad1704757
:041f34000020014147
:020000040000fa
:101f380008b54ff40042054b5a61054bd3f8b4304d
:101f48001bb1034ad2f8b800984708bd00280040e2
:041f58003000002035
:020000040000fa
:101f5c000fb407b5064b04aa1b6852f8041b98680b
:101f6c00019200f0c1f903b05df804eb04b07047c6
:041f7c00d803002066
:020000040000fa
:101f800010b50c46b1f90e1000f030f8431ca389cf
:101f900015bf606523f4805343f48053a38118bfb9
:041fa000a38110bd4c
:020000040000fa
:101fa40038b5074c054608461146002222601a46f9
:101fb40000f04efa431c02d1236803b12b6038bdf4
:041fc400fc000020fd
:020000040000fa
:101fc80038b5074c0023054608461146236000f043
:101fd80035fa431c02d1236803b12b6038bd00bf1a
:041fe800fc000020d9
:020000040000fa
:101fec0038b5074c054608461146002222601a46b1
:101ffc0000f026fa431c02d1236803b12b6038bdd4
:04200c00fc000020b4
:020000040000fa
:1020100082b001b901a942b14bb113780b601278bb
:10202000101c18bf012002b070471046fbe76ff08c
:042030000100f8e7cc
:020000040000fa
:1020340038b5074c054608461146002222601a4668
:1020440000f004fa431c02d1236803b12b6038bdad
:04205400fc0000206c
:020000040000fa
:1020580010b50c46b1f90e10fff7e8ff0028abbf2a
:10206800636da3891b1823f48053acbf6365a381f8
:0220780010bd99
:020000040000fa
:10207a0013460ab903207047013a1a4201d00320d5
:10208a00704702808160002343808380184670472e
:020000040000fa
:10209a0030b583b002ac002344f8043d012529463b
:1020aa002046fff7cefc0028f9d0019803b030bdd6
:020000040000fa
:0220ba00fee73f
:020000040000fa
:1020bc0010b504460a4600230b70034b034900f08d
:1020cc00eaf8204610bd00bf382400008d1a00002d
:020000040000fa
:1020dc0000000000000000000000000000000000f4
:1020ec0000000000000000000000000000000000e4
:020000040000fa
:1020fc0000000000000000000000000000000000d4
:10210c0000000000000000000000000000000000c3
:020000040000fa
:10211c0000000000000000000000000000000000b3
:10212c0000000000000000000000000000000000a3
:020000040000fa
:10213c0038b5064c0023054608462360fff792fe8f
:10214c00431c02d1236803b12b6038bdfc00002076
:020000040000fa
:10215c0038b5064c002305460846236000f06af9a2
:10216c00431c02d1236803b12b6038bdfc00002056
:020000040000fa
:10217c0038b5064c002305460846236000f05ef98e
:10218c00431c02d1236803b12b6038bdfc00002036
:020000040000fa
:10219c0010b5054b588b10f0070401d1204610bd2b
:0c21ac00fff7b2fefae700bf002001417f
:020000040000fa
:1021b80030b583b002ac04f8010d0125294620464c
:0c21c800fff790fb0028f9d003b030bdf9
:020000040000fa
:1021d400054a13889bb243f002031380136913f07a
:0c21e400020ffbd1704700bf0024004038
:020000040000fa
:1021f000b2f90c3013f4005f06d143f4005393811d
:0c220000136e43f400531366fff7a0b800
:020000040000fa
:10220c00044b054a1b681b6a002b08bf134693f846
:0c221c0028017047d803002000010020ba
:020000040000fa
:1022280049b1ff2a85bf8a2303600a704ff0ff3047
:0a22380098bf012070470846704768
:020000040000fa
:1022420083889bb2428892b2013300881840904240
:0822520014bf002001207047b9
:020000040000fa
:02225a00fee79d
:020000040000fa
:10225c00044a136913f0080ffbd1024b9869043040
:08226c00704700bf0024004090
:020000040000fa
:1022740008b50846fef736ff01460248fff76cfe34
:08228400002008bd181e000037
:020000040000fa
:10228c0038b504460d46fef729ff0246294620467e
:06229c00fff7c6f938bd92
:020000040000fa
:1022a20010b40160426083600023c3600361436134
:0622b2005df8044b7047cb
:020000040000fa
:1022b80038b5044600258560c06800f081f8e561fe
:0422c800204638bdb7
:020000040000fa
:1022cc00034b30221a7208225a7200229a727047fb
:0422dc0000040040ba
:020000040000fa
:1022e000034b0022da619a6902f006029a61704794
:0422f0000018004092
:020000040000fa
:1022f40013460a46014602480068fdf7c1bf00bf05
:04230400d8030020da
:020000040000fa
:1023080008b5c068fff7c6fd02280cbf02200020f0
:0223180008bdfe
:020000040000fa
:10231a0008b50020fff71ffdfff795f800f001f858
:02232a00fce7ce
:020000040000fa
:10232c0008b50248fff742f908bd00bf3c03002086
:020000040000fa
:10233c004ff48022014bc3f81821704700800041f4
:020000040000fa
:10234c00012303fa00f0014b18617047002800408c
:020000040000fa
:10235c00024b01461868fef74fbd00bfd8030020a2
:020000040000fa
:10236c0002440346934200d1704703f8011bf9e77e
:020000040000fa
:0e237c0008b50b460146184600f049f808bdaa
:020000040000fa
:02238a00fee76c
:020000040000fa
:0c238c000422014b1a8070470040004101
:020000040000fa
:0c23980008b501684068fff7b3ff08bdfe
:020000040000fa
:0c23a4000149fff7afbb00bfb5170000f8
:020000040000fa
:0c23b0004ff400534b600020704700bf4a
:020000040000fa
:0b23bc004300504f53495800002e0012
:020000040000fa
:0a23c800002343808380184670470d
:020000040000fa
:0223d200fee724
:020000040000fa
:0823d40049646c65000000bfc4
:020000040000fa
:0823dc0008b500f026f808bd69
:020000040000fa
:0823e40008b500f024f808bd63
:020000040000fa
:0823ec0008b500f014f808bd6b
:020000040000fa
:0823f40008b500f001f808bd76
:020000040000fa
:0823fc0008b5fff72dff08bd35
:020000040000fa
:08240400b1f90e10fff7a8beac
:020000040000fa
:08240c004ff0ff30704700bfe4
:020000040000fa
:0624140041600260704708
:020000040000fa
:06241a00401ac00f7047dc
:020000040000fa
:062420004ff4004070477c
:020000040000fa
:042426004068704753
:020000040000fa
:04242a00006870478f
:020000040000fa
:04242e0008447047a7
:020000040000fa
:04243200401a704795
:020000040000fa
:02243600fee7bf
:020000040000fa
:042438004c454400cb
:020000040000fa
:04243c006c0200200e
:020000040000fa
:04244000fff7e4bfff
:020000040000fa
:04244400fff7b4bf2b
:020000040000fa
:0424480000f006b8e2
:020000040000fa
:04244c0000f006b8de
:020000040000fa
:04245000fff74cbd89
:020000040000fa
:04245400fff776bb5d
:020000040000fa
:0424580001207047a8
:020000040000fa
:04245c0000207047a5
:020000040000fa
:022460007047c3
:020000040000fa
:022462007047c1
:020000040000fa
:0200000400807a
:044000003912003c35
:020000040000fa
:0200000400807a
:044004008000a82a66
:020000040000fa
:0200000400807a
:04400800ffffffffb8
:00000001FF
