S01700006D756C69625F706F72745F746573742E73726563B1
S113000080210020250100002101000021010000C1
S113001000000000000000000000000000000000DC
S113002000000000000000000000000021010000AA
S11300300000000000000000210100002101000078
S11300402101000021010000210100009D0D00009C
S1130050CD0A00002101000021010000210100005F
S11300602101000021010000210100002101000004
S1130070790F00002101000021010000210100008E
S113008021010000210100002101000021010000E4
S113009021010000210100002101000021010000D4
S11300A021010000210100002101000021010000C4
S11300B00000000010B5064C2378002B07D1054B37
S11300C0002B02D0044800E000BF0123237010BDC0
S11300D0640000200000000088250000084B10B5D3
S11300E0002B03D00749084800E000BF0748036815
S11300F0002B00D110BD064B002BFBD09847F9E72D
S11301000000000068000020882500008825000009
S11301100000000010B5014B984710BD3D030000DE
S1130120FEE70000F8B52A4A2A4B9A4211D01A0079
S1130130294B9A420DD2294A03339B1A9B08013357
S11301409B000022234822498C58845004329A424E
S1130150FAD1234A234B9A420AD2D34321495B184A
S113016003218B4304339B18002102C29342FCD128
S11301701D4AFF211D4B8B439360FD3990235B0087
S11301801B4AD1501B4AD3780325AB430224234393
S1130190D370D3780C27BB4308263343D370164B54
S11301A0987B30229043202210439873997BB94363
S11301B0314399739A7BAA4322439A730F4A536833
S11301C080210B4353600E4B98470E4B9847FEE734
S11301D088250000000000206400002004000020A6
S11301E0640000208001002000ED00E00000000019
S11301F000700041005000410048004100400041AF
S1130200751900003910000070B5104A104B5A805F
S1130210C022D2058020000250600E4B0E49996224
S11302200E49996250604F215C5C04252C435C5458
S113023090615A5C0120824302435A5418395A5C33
S11302400E3002405A54064B984770BD05400000DA
S1130250000C00400044004100800240000002C045
S113026055040000044A136A20210B431362034A15
S1130270034B5A807047C0460004004017400000FA
S1130280000C004030B50E4B5622995C0125A94361
S113029001242143C9B299543B20195C473A914344
S11302A00D3A1143195457215A5CAA432243D2B23E
S11302B05A541A5C48390A4011310A431A5430BD61
S11302C00044004110B582B0064B984700230093C8
S11302D01033054A05490648064CA047064B984783
S11302E002B010BD6502000080000020001400422E
S11302F02C0100200D07000085020000044A9369C8
S113030020210B439361034A034B5A807047C04634
S11303100004004004430000000C004010B5034BEF
S1130320984703490348044B984710BDFD02000059
S11303300014004010010020A903000010B50D4B6B
S11303409847C023DB058022D20598215A501039E2
S11303505A50094B20315A50084A5A5036315A5C87
S1130360012082435A54064B9847064B9847064B44
S1130370984710BDD909000000440041004000C066
S113038009020000C50200001D030000EFF3108302
S1130390036072B6BFF35F8F7047BFF35F8F03686C
S11303A083F310887047000070B504000D00431EED
S11303B09841C0B2E022520009490A4B9847236889
S11303C0AB4208D0002B08D125602000064B98478B
S11303D0064B636170BD0020FCE712204042F9E740
S11303E028220000A5080000A90C0000B2070000A4
S11303F010B50400431E9841C0B2E622FF320449FE
S1130400044B98472000044B9847002010BDC04679
S113041028220000A50800002D0D000070B50C4B2B
S11304205C68A0420ED0012200210126FF2503E0D2
S11304302A0053185B080AD1A042F9D9002A06D031
S11304403100F6E7024B1B68002B00D0984770BDC3
S11304509000002010B5054B012252425A60002240
S11304601A600348034B984710BDC0469000002013
S11304701D040000090A000010B50F4B5B68984288
S113048008D0002914D00C4B1B68002B09D00D2078
S113049040420CE0084B1960002905D1074B9847EE
S11304A005E0054B196058600121044B984710BDC5
S11304B00D204042FBE7C04690000020A10A000046
S11304C070B506000C00150000280DD00800431E6E
S11304D09841C0B234220549054B984733682A0035
S11304E021003000984770BD0020F3E7442200004B
S11304F0A508000070B506000C00150000280DD0FA
S11305000800431E9841C0B23D220549054B984757
S113051073682A0021003000984770BD0020F3E77B
S113052044220000A508000010B5054B9847002898
S113053003D1044B9847002010BD0D204042FBE737
S1130540F10B0000D109000010B508380023036343
S1130550436A002B00D0984710BD10B5083800231B
S11305600363C36A002B00D0984710BD10B5040084
S11305702C30044B9847236A083C002B01D0200000
S1130580984710BD4909000070B504000E0015001D
S113059000281DD000291DD01000431E98413C2284
S11305A0FF320F490F4B98474423E25A0833E35A6A
S11305B09A4211D1A6644C23E5520022083BE25230
S11305C0433B236320000830074B9847280070BD45
S11305D00020E4E70020E2E71C204042F7E7C046A1
S11305E058220000A5080000F50E000070B50400B4
S11305F001000839838F4C228A5A9A420CD00A008F
S1130600896C5D1C44201552C95C2000044B98473A
S11306102000044B984770BD034B9847FBE7C04646
S1130620ED0E0000F50E0000FD0E0000F0B5CE4604
S1130630474680B585B005000E001700002815D088
S1130640002913D0002A2AD1AC22520029490020C3
S1130650294B984703A8294B984728003430284B46
S1130660984703A8274B984700253CE0AC2252004A
S113067020490020204B984703A8204B9847343545
S1130680280001951E4B9847804603A81D4B9847A8
S113069000254346002B26D0002F16D123E0AC22A0
S11306A0520014490120144B984703A8134B984750
S11306B0343528000195124B9847804603A8114B06
S11306C0984743460025002B0DD000240E4B994635
S11306D0651CADB231190198C8470134444502D2B2
S11306E0A3B29F42F4D8280005B00CBC90469946AA
S11306F0F0BDC04658220000A50800008D0300008C
S1130700890900009B03000001090000F8B50400FA
S11307100D0016001F00002826D0002926D0002A2C
S113072026D01800431E98413A221449144B984786
S1130730200034303A003100124B9847002819D178
S1130740200008302900104B984700280BD10F4B8C
S113075063600F4B23600F4BA3600F4BE3600F4BA1
S113076023610F4B6361F8BD0020DDE70020DBE768
S11307700020D9E70D204042F5E7C046582200008A
S1130780A5080000AD0800005D0E00002D06000065
S113079089050000ED0500006D0500004905000015
S11307A05B05000010B50400431E9841C0B26122ED
S11307B00449054B984720000830044B9847002013
S11307C010BDC04658220000A5080000D90E000044
S11307D070B504000D0000280AD00800431E98419B
S11307E0C0B277220349044B98472C60002070BDA7
S11307F00020F6E758220000A508000070B50500A7
S11308000E001400431E9841C0B283221649174BB0
S11308109847012E11D0002E04D0022E18D00D209E
S1130820404209E0AC62621E9441E2B22800083002
S113083001210F4B9847002070BD6C62621E9441E9
S1130840E2B2280008300221094B98470020F3E760
S1130850EC62621E9441E2B2280008300321044B8A
S113086098470020E8E7C04658220000A508000089
S1130870050F000010B50400431E9841C0B20222C7
S1130880FF320549054B984720003430044B984704
S1130890431E984110BDC04658220000A508000020
S11308A089090000002800D100BE704770B504001B
S11308B00E00150000280BD0002918D00120002AB2
S11308C007D128220C4900200C4B98476B1E07E0E7
S11308D0002028220849094B98476B1E2B4208D157
S11308E063600023A360E3602660002070BD0020E5
S11308F0EFE70D204042F9E778220000A508000048
S113090070B504000D00002815D00800431E98415E
S1130910C0B240220A490B4B9847A368E2689A4246
S11309200BD0626813402268D35C2B70A368013338
S1130930A360002070BD0020EBE70A204042F9E7E5
S113094078220000A508000070B504000D00431EC5
S11309509841C0B251220A490A4B98476368E26839
S113096013402268D554E3686168A2689A1A8A42DF
S113097001D9591AA1600133E360002070BDC0465B
S113098078220000A508000010B50400431E984119
S1130990C0B267220349044B9847E068A368C01AB1
S11309A010BDC04678220000A50800000300064AD6
S11309B01268002A04D0044A1068C31813607047F0
S11309C00249014A1160F6E79800002080210020C6
S11309D0BFF34F8F30BF704710B5064B5A685A604B
S11309E0054B9847054B9847054B9847FF20054B07
S11309F0984710BD00400041290C0000E50F00009D
S1130A0029100000B50B0000224A5378DB09FCD101
S1130A10204A5378DB09FCD11E4B1B789B070AD56F
S1130A2000221C4B1A701A005378DB09FCD1194AB6
S1130A305378DB09FCD10122164B1A701A00537843
S1130A40DB09FCD1134A5378DB09FCD1114B00229A
S1130A509A705A608021090259619A61A022120693
S1130A60DA611A7802210A431A701A005378DB09F2
S1130A70FCD1094B102280215A50BFF34F8FBFF392
S1130A806F8F0131FF315A501A60044B18600020F7
S1130A907047C0460018004000E100E09C000020C0
S1130AA00F2802D00D2040427047002906D1064B82
S1130AB0802212029A601A610020F5E78022120255
S1130AC0014BDA600020EFE700180040F0B5CE4695
S1130AD0474680B583B0314B1A69D9680A40019200
S1130AE0019A1A612E4B1868431E9841C0B2D22253
S1130AF02C492D4B9847019B002B49D001235B4285
S1130B0099462A4B9846264F294D3AE0013AD6B2E7
S1130B10B1420CD873185B10DAB20340DB005B5DA2
S1130B20A34208D09C42F1DD0132D1B2F0E74B463A
S1130B30013305D001E00F23994648463B689847A6
S1130B40019B0122A240934301930198174B9847BC
S1130B50013844B2631C0AD00F2C05D00F230022A5
S1130B6001260021FF20DDE70F239946E5E70B4B23
S1130B701A69D9680A400192019A1A61019B002BF3
S1130B8006D00198C047013844B2631CE4D1EEE7B3
S1130B9003B00CBC90469946F0BDC0460018004016
S1130BA09C000020A4220000A508000021190000D8
S1130BB09C220000C3070AD50B4B802252009A6086
S1130BC0832252025A601A005378DB09FCD10307CE
S1130BD009D5054B0422FF329A60044A5A601A0070
S1130BE05378DB09FCD17047000C0040030321005B
S1130BF0022804D903280BD00D20404207E0084AFC
S1130C00136904218B431361064B5870002070470D
S1130C10034A136904210B4313610020F7E7C0461C
S1130C2000ED00E000040040064B1A7AD2B21A72BA
S1130C305A7AD2B25A729A7AD2B29A72DA7AD2B210
S1130C40DA7270470004004070B504000D000028FB
S1130C5015D00068431E9841C0B233220F49104B8F
S1130C609847002D0DD065600E4B0822C021490025
S1130C705A501A602368073ADA71002070BD0020C8
S1130C80EBE7236801229A7108218023054AD15099
S1130C90BFF34F8FBFF36F8FEFE7C046BC22000056
S1130CA0A508000000E100E010B5041E36D000687D
S1130CB0431E9841C0B2782219491A4B98471A4BDF
S1130CC01C602268937ADB09FCD1937ADB09FCD19E
S1130CD013889B070AD5138802218B431380937AC8
S1130CE0DB09FCD12268937ADB09FCD122681388E2
S1130CF001210B431380937ADB09FCD12268937A98
S1130D00DB09FCD11380937ADB09FCD12268538878
S1130D108021C9010B435380002010BD0020CAE785
S1130D20BC220000A5080000A000002010B5041E8D
S1130D3011D00068431E9841C0B2AA220749084B4B
S1130D4098472268138802210B431380937ADB09A6
S1130D50FCD1002010BD0020EFE7C046BC220000FB
S1130D60A508000070B504000D0000280FD000682D
S1130D70431E9841C0B2E4220649074B98472268B3
S1130D8093699561937ADB09FCD1002070BD002042
S1130D90F1E7C046BC220000A508000010B5074BCF
S1130DA01C6823681B7ADB0700D410BD200063682D
S1130DB09847236801221A72F7E7C046A000002072
S1130DC010B504001F4BC3189B0ADBB2032B04D0DD
S1130DD01D4A1E4900201E4B9847E369DB0718D4BF
S1130DE00322E3691A42FCD123689B070BD52368CD
S1130DF00222934323600132E3691A42FCD10222A6
S1130E00E3691A42FCD1052323600322E3691A42F1
S1130E10FCD10122E3691A42FCD10E4B2360032268
S1130E20E3691A42FCD1C0239B0263600722E36991
S1130E301A42FCD1084BA3810023A3733022A3548C
S1130E40002010BD00F8FFBD5E020000D4220000A7
S1130E50A50800000400104004C5FFFF70B505009C
S1130E600C00431E9841C0B2C4221449144B984745
S1130E702000144B9847002800D070BDAC61124B81
S1130E809C4217D0114B9C466444A40A0934E3B233
S1130E902206F2D41F221A40012393400C4A8021D7
S1130EA05350BFF34F8FBFF36F8F0131FF31535056
S1130EB01360E2E7074B1D600C23EBE7D42200002C
S1130EC0A5080000C10D00000014004200F8FFBD99
S1130ED000E100E0A40000208269136802210B43B2
S1130EE013600131D3691942FCD17047836989B217
S1130EF019857047836901229A75704783690222B4
S1130F009A75704770B504000D001600431E984191
S1130F10C0B2164A1649174B984702232A009A432F
S1130F200ED1A369002E05D101221A75A3690132DD
S1130F301A7570BD01229A75A36901329A75F8E792
S1130F40012D07D0032DF4D1A369002E0BD08022EC
S1130F509A75EEE7A369002E02D104221A75E8E718
S1130F6004229A75E5E780221A75E2E71E02000062
S1130F70D4220000A508000010B5194B1868846934
S1130F80237EDB0702D5A37DDB070FD4237E9B07DB
S1130F9002D5A37D9B070ED4237E5B0715D5628BF8
S1130FA037231A420CD00833638310BD0123237501
S1130FB003689847F9E70223237583689847F4E7A1
S1130FC0218DC9B243689847EFE7237EDB09ECD053
S1130FD080232376C3689847638B9BB26383E4E7DB
S1130FE0A40000200E4B196A1A6A0E480140920FA1
S1130FF09207022002430A431A629A6902439A61E1
S11310001A7F1F210A401A7719000822CB681A4256
S1131010FCD0034A136A80210B4313627047C04615
S1131020000800400000FF0F024A936902218B432D
S1131030936170470008004010B5034B9847034B79
S11310409847034CA047FDE7150100002D1100004F
S1131050391100000122014B1A707047A8000020CA
S11310600122014B5A707047A80000200122014B55
S11310709A707047A800002070B505000A4B984785
S113108004002800094B984701002000084B9847AA
S11310900500054E074C00E0C046B0472900A047B4
S11310A00028F9D170BDC0466D140000451400003D
S11310B0391400003D14000010B582B0044C012125
S11310C06B46D81DA0470028F9D102B010BDC04618
S11310D0C11500000FB470B582B0104C00E0C046DA
S11310E0A0470028FBD007AB0193069A32210C4895
S11310F004300C4CA047041E0BD0094D04350A4E95
S113110021002800B047002803DB241A2D18002CE6
S1131110F6D102B070BC08BC04B0184779150000C1
S1131120A8000020151A00008915000010B5014B15
S1131130984710BDAD130000F0B583B05C4FB847BD
S11311405C485D4CA0475D48A0475D4E30005D4B58
S113115098475D48A0475D4D0023AB7000215C4873
S11311605C4B9847B847070030005B4B9847010039
S113117038005A4B98475A4B98475A48A047AB787F
S1131180002B04D1514AC0469378002BFBD04E4823
S1131190494CA0475448A0470A24544F544E494D43
S11311A0B84701235840C0B2B047FA20A847013CD1
S11311B0002CF5D100204E4B984743483E4CA047A5
S11311C04C48A0474C4CA0470028FCD04B483A4B15
S11311D098473C4D484C0A20A847A0470028FAD11C
S11311E000223A4B1A7000214548464B984746481E
S11311F0314B9847354A1378002BFCD03F482E4C8E
S1131200A0474248A047424CA0470028FCD0414C8C
S113121001216B46D81DA0470028F9D06B46D97927
S11312203D48254CA0473D4B98470022274B5A7018
S113123000213B483B4B98473B48A047234A5378FF
S1131240002BFCD0334C01216B46D81DA04700284D
S1131250F9D06B46D9793048174CA0472F4B9847A3
S11312603248A047324C00E0C046A0470028FBD0DB
S11312700F4B984704001248174B98470100200071
S1131280164B98472B4B98472B480B4CA0472B48A1
S1131290A047274C00E0C046A0470028FBD0284BBD
S11312A098472548044CA0472648A04703B0F0BD02
S11312B06D140000F0220000D51000001C23000073
S11312C0C40900007910000038230000A8000020A1
S11312D06D10000081140000451400003914000052
S11312E09D1400004023000068230000E114000066
S11312F0C11400008823000021150000B42300005D
S1131300551000005D150000D0230000FC230000F0
S1131310A9150000C115000028240000B910000020
S113132061100000DD15000038240000682400006E
S113133079150000F9150000842400008C240000B5
S113134025160000AC24000010B5044B1B68002BCC
S113135002D0024A5068984710BDC046E000002001
S113136010B5054B00221A72DB68002B02D0024A2A
S11313701069984710BDC046E000002010B5044B2A
S11313805B69002B02D0024A9069984710BDC046A1
S1131390E000002010B5044BDB69002B02D0024AA8
S11313A0106A984710BDC046E0000020F8B5154CFF
S11313B000252560656014490F20144B98472100CF
S11313C02431134E3000134B9847E5602561257294
S11313D0114A01213000114FB8476561A561104AD7
S11313E000213000B84730000E4B9847E561256274
S11313F00D4C20000D4B98470D4920000D4B98478C
S1131400F8BDC046E0000020491300007904000044
S11314102C010020D107000061130000FD0700002B
S11314207D130000A507000010010020F103000057
S113143095130000490C000008187047401AC00FAB
S11314407047000010B5C00306D5F538FF38FA21FF
S11314508900054B984710BDF530FF30FA2189000B
S1131460014B9847F7E7C04649170000034B1A6839
S1131470937ADB09FCD110697047C0461001002043
S1131480002803D0044BD86119627047024B002234
S1131490DA611A62F9E7C046E000002010B50100E5
S11314A00448054B9847054A53888021C9010B43DA
S11314B0538010BD10010020650D00000014004091
S11314C0002806D08021C9059423C022D205D1501A
S11314D070478021C9059823C022D205D150F7E76F
S11314E010B582B001A80B4B9847C022D2058023C7
S11314F0D45820330849CB589021505858400440C0
S11315005C4001A8054B9847A40F012044402040AB
S113151002B010BD8D030000004400419B03000095
S113152010B582B001A80A4B9847C022D2051468AE
S1131530084B1B6A1069584004405C4001A8064BE4
S11315409847E40B01204440204002B010BDC0463F
S11315508D030000004400419B030000002803D0D9
S1131560044B186059607047024B00221A605A609D
S1131570F9E7C046E0000020024B187A01235840E6
S11315807047C046E000002010B50400044B01225F
S11315901A728AB2586A2100024B984710BDC0469D
S11315A0E0000020C104000010B50348034B984735
S11315B0431E9841C0B210BD2C01002075080000E4
S11315C010B503008AB20349486A1900024B9847D0
S11315D010BDC046E0000020F5040000002803D040
S11315E0044B586199617047024B00225A619A6119
S11315F0F9E7C046E000002010B50400064B984708
S1131600201A202800DC10BD2000044B984703203A
S1131610034B9847F7E7C0466D1400009D14000083
S11316202905000010B50320014B984710BDC046A2
S113163029050000002243088B4274D303098B421E
S11316405FD3030A8B4244D3030B8B4228D3030C8E
S11316508B420DD3FF22090212BA030C8B4202D330
S11316601212090265D0030B8B4219D300E0090A58
S1131670C30B8B4201D3CB03C01A5241830B8B4261
S113168001D38B03C01A5241430B8B4201D34B034A
S1131690C01A5241030B8B4201D30B03C01A5241AF
S11316A0C30A8B4201D3CB02C01A5241830A8B4234
S11316B001D38B02C01A5241430A8B4201D34B021D
S11316C0C01A5241030A8B4201D30B02C01A524181
S11316D0CDD2C3098B4201D3CB01C01A5241830935
S11316E08B4201D38B01C01A524143098B4201D36F
S11316F04B01C01A524103098B4201D30B01C01A9A
S11317005241C3088B4201D3CB00C01A5241830813
S11317108B4201D38B00C01A524143088B4201D340
S11317204B00C01A5241411A00D2014652411046A0
S11317307047FFE701B5002000F0F0F802BDC04695
S11317400029F7D076E7704703460B437FD4002285
S113175043088B4274D303098B425FD3030A8B4241
S113176044D3030B8B4228D3030C8B420DD3FF22AB
S1131770090212BA030C8B4202D31212090265D079
S1131780030B8B4219D300E0090AC30B8B4201D32C
S1131790CB03C01A5241830B8B4201D38B03C01A73
S11317A05241430B8B4201D34B03C01A5241030BEA
S11317B08B4201D30B03C01A5241C30A8B4201D39B
S11317C0CB02C01A5241830A8B4201D38B02C01A46
S11317D05241430A8B4201D34B02C01A5241030ABD
S11317E08B4201D30B02C01A5241CDD2C3098B42A2
S11317F001D3CB01C01A524183098B4201D38B011F
S1131800C01A524143098B4201D34B01C01A5241C1
S113181003098B4201D30B01C01A5241C3088B4206
S113182001D3CB00C01A524183088B4201D38B00F1
S1131830C01A524143088B4201D34B00C01A524193
S1131840411A00D201465241104670475DE0CA0F6A
S113185000D04942031000D34042534000229C462A
S113186003098B422DD3030A8B4212D3FC22890134
S113187012BA030A8B420CD3890192118B4208D30A
S1131880890192118B4204D389013AD0921100E06C
S11318908909C3098B4201D3CB01C01A5241830980
S11318A08B4201D38B01C01A524143098B4201D3AD
S11318B04B01C01A524103098B4201D30B01C01AD8
S11318C05241C3088B4201D3CB00C01A5241830852
S11318D08B4201D38B00C01A5241D9D243088B42A8
S11318E001D34B00C01A5241411A00D2014663464B
S11318F052415B10104601D34042002B00D54942AF
S1131900704763465B1000D3404201B5002000F0ED
S113191005F802BD0029F8D016E770477047C046A5
S113192010B50023002802D000F004F8431C18006E
S113193010BDC046414208401C2101231B049842AB
S113194001D3000C10391B0A984201D3000A08394C
S11319501B09984201D30009043902A2105C401A01
S11319607047C0461B1C1D1D1E1E1E1E1F1F1F1F51
S11319701F1F1F1F70B500260C4D0D4C641BA410B7
S1131980A64209D1002600F0EFFD0A4D0A4C641B63
S1131990A410A64205D170BDB300EB589847013698
S11319A0EEE7B300EB5898470136F2E774250000E0
S11319B074250000742500007825000030B514005B
S11319C09BB005001A00002C05DA8B23036001206C
S11319D040421BB030BD822368469B0083810023B4
S11319E0009104919C4200D0631E0293059301234D
S11319F069465B42CB8128001E9B00F0D7F8431C4C
S1131A0001DA8B232B60002CE3D00023009A13709F
S1131A10DFE7000007B5009313000A000100024845
S1131A200068FFF7CBFF0EBD00000020032370B554
S1131A30CD1C9D43083506000C2D1ED20C25A94251
S1131A401DD8300000F076FB254A146821000029D7
S1131A5019D1244C2368002B03D1300000F032FB51
S1131A6020602900300000F02DFB431C2CD10C23F6
S1131A703000336000F05FFB03E0002DDFDA0C235D
S1131A803360002070BD0B685B1B1AD40B2B03D989
S1131A900B60CC18256003E08C420ED163681360A0
S1131AA0300000F048FB200007220B30231D904338
S1131AB0C31AE7D05A42E250E4E74B6863600C0073
S1131AC0EEE70C004968C2E70323C41C9C43A04210
S1131AD0E0D0211A300000F0F5FA431CDAD1C6E751
S1131AE0080100200C010020F0B58E6885B00700C5
S1131AF00C00039201939E4239D890238A89DB001B
S1131B001A4234D00325096923685B1A0293636976
S1131B1002985D43EB0F5D19019B6D1001331B1897
S1131B20AB4200D91D00530532D529003800FFF718
S1131B307DFF061E09D10C233B6040230120A289AE
S1131B4040421343A38105B0F0BD029A216900F01D
S1131B50D6FAA389144A1A4080231343A381029B13
S1131B602661F61826606561019EED1AA560019B49
S1131B70B34200D21E0032000399206800F0C8FA74
S1131B80A36800209B1BA36023689E192660DAE7E4
S1131B902A00380000F01AFB061EE0D12169380043
S1131BA000F0CAFAC7E7C0467FFBFFFFF0B59FB05D
S1131BB0029005938B890F0016001B0611D50B6943
S1131BC0002B0ED14021FFF731FF38603861002827
S1131BD005D10C23029A013813601FB0F0BD4023D5
S1131BE07B61002306AD6B6120336B761033AB76DB
S1131BF034002378002B47D1A31B04930DD0A31BDF
S1131C00320039000298FFF76FFF431C00D1B5E0A2
S1131C106A69049B944663446B612378002B00D16A
S1131C20ACE00122002352426A6002A954325218E5
S1131C3001342B60EB60AB601370AB65584E05222A
S1131C402178300000F050FA621C002820D1296865
S1131C50CB0604D5532302AE20309B1918700B0712
S1131C6004D553232B2002AE9B19187023782A2BFA
S1131C7016D000200A21099B2278303A092A55D926
S1131C80002815D0099313E0252BB5D00134B0E713
S1131C900123801B8340296814000B432B60CDE78C
S1131CA0059B181D1B680590002B39DB0993140054
S1131CB023782E2B0BD16378621C2A2B3ED1059BF3
S1131CC002341A1D1B680592002B34DB0793354E32
S1131CD021780322300000F007FA002806D04023C0
S1131CE0801B83402A68013413432B602178062229
S1131CF02D48661C297600F0F7F9002846D02B4BB6
S1131D00002B2FD12968059B0722C90528D59B18CC
S1131D109343083305936B69039A9B186B6167E7D8
S1131D205B42EB6002230B432B60C0E74B4301345F
S1131D309B180120A0E701235B42C7E7002314009E
S1131D400A201A006B6021783039092903D9002B45
S1131D50BDD00792BBE74243013452180123F2E796
S1131D600733D5E705AB00933A00114B29000298DD
S1131D7000E000BF0390039B0133CCD1BB890B98D7
S1131D805B0600D429E70120404226E705AB009317
S1131D903A00074B2900029800F07AF8EAE7C046B7
S1131DA0342500003A2500003E2500000000000014
S1131DB0E91A0000F7B5150001938A680B690090D1
S1131DC00C00934200DA130022002B604332127895
S1131DD0002A01D001332B6023689B0602D52B68AF
S1131DE002332B60062723681F4027D02300433388
S1131DF01B785A1E93412268920630D4220001991E
S1131E0043320098089EB047431C25D0062320681F
S1131E102A68E16803400025042B03D18D1AEB43A3
S1131E20DB171D40A3682269934201DD9B1AED185C
S1131E300027BD4220D1002010E00137E3682A6862
S1131E409B1A9F42D2DA2200012319320199009889
S1131E50089EB047431CF0D101204042FEBD302013
S1131E60E1184331087021005A1C45310978A21841
S1131E70433202331170C1E7220001231A3201995F
S1131E800098089EB047431CE6D00137D1E7000014
S1131E90F0B58BB006920A00433207930590049282
S1131EA00A7E0C00109B6E2A00D18FE017D8632A9B
S1131EB02CD008D8002A00D199E0582A54D0260002
S1131EC04236327029E0642A01D0692AF7D12168A8
S1131ED01A68080623D5111D1960156825E0732AB0
S1131EE000D188E008D86F2A29D0702AE7D12022AF
S1131EF009680A43226003E0752A20D0782ADED1DB
S1131F0022007821453211706C4A30E00E001A68C4
S1131F104236111D196013683370012379E04906B4
S1131F20D9D5111D19600023D55E002D03DA2D23A8
S1131F30049A6D421370624B0A2703932FE02068C2
S1131F401968050603D5081D18600D6805E04006EC
S1131F50F9D50D68081D1860ADB2594B08270393D5
S1131F606F2A18D00A2716E045310A70544A0392A2
S1131F701A682168101D18601568080622D5CB0759
S1131F8002D52023194321601027002D03D12023DB
S1131F9022689A4322602300002243331A70636844
S1131FA0A360002B5CDB0422216891432160002D97
S1131FB058D1049E002B64D02600039B42361B7824
S1131FC033705EE04806DAD5ADB2D8E709681A681E
S1131FD0080605D5111D1960136862691A6006E0C8
S1131FE04906F7D5111D19601368A28A1A800023C7
S1131FF0049E236154E01A68111D196016680021BB
S11320006268300000F070F8002801D0801B606026
S1132010636823610023049A137041E0236932004A
S113202006990598079DA847431C43D023680025BB
S11320309B070FD4099BE06898423DDA18003BE007
S113204022000123193206990598079EB047431CC4
S113205030D00135E368099A9B1A9D42F0DBE9E729
S1132060002DA9D0049E28003900FFF769FB039BCB
S1132070013E5B5C280033703900FFF7DBFA051E74
S1132080F1D1082F09D12368DB0706D563682269DB
S1132090934202DC3023013E3370049B9B1B23617B
S11320A0079B09AA00932100069B0598FFF782FE6F
S11320B0431CB3D1012040420BB0F0BD56250000B3
S11320C045250000002370B5064C05000800236078
S11320D0FEF76CFC431C03D12368002B00D02B605B
S11320E070BDC0467C010020C9B28218904201D163
S11320F00020704703788B42FBD00130F6E70023C1
S113210010B59A4200D110BDCC5CC4540133F8E739
S113211010B5884202D98B18984208D300239A42FA
S113212007D0CC5CC4540133F9E78B5C8354013A87
S1132130FBD210BD7047704770B50500002910D060
S11321400C1F2368002B00DAE4182800FFF7F2FFC5
S11321501D4A1368002B05D1636014602800FFF743
S1132160EAFF70BDA34209D9216860188342F3D104
S113217018685B6841182160EEE713005A68002A6A
S113218001D0A242F9D919685818A0420BD120688D
S11321900918581819608242E0D110685268411831
S11321A019605A60DAE7A04202D90C232B60D5E704
S11321B021686018824203D1106852684118216076
S11321C062605C60CAE7C04608010020F8B50700F9
S11321D00D001600002905D11100FFF727FC0400AB
S11321E02000F8BD002A03D1FFF7A6FF3400F7E76B
S11321F000F012F82C008642F2D931003800FFF7C3
S113220015FC041EECD029003200FFF778FF2900EA
S11322103800FFF791FFE3E70B1F1B68181F002B23
S113222001DA0B58C01870472E2E2F68616C2F737B
S113223072632F68616C5F63616C656E6461722E9A
S1132240630000002E2E2F68616C2F7372632F6859
S1132250616C5F696F2E63002E2E2F68616C2F7383
S113226072632F68616C5F75736172745F617379F7
S11322706E632E63000000002E2E2F68616C2F7594
S113228074696C732F7372632F7574696C735F72E6
S1132290696E676275666665722E63000F000000E2
S11322A00F0000002E2E2F68706C2F6569632F6855
S11322B0706C5F6569632E63000000002E2E2F682A
S11322C0706C2F7274632F68706C5F7274632E630A
S11322D0000000002E2E2F68706C2F736572636FE0
S11322E06D2F68706C5F736572636F6D2E63000091
S11322F00D0A3D3D3D3D3D3D3D3D3D3D3D3D3D3D6D
S11323003D3D0D0A7374617274696E67206D755F6B
S1132310706F72745F746573740D0A006C6F6F7004
S1132320696E6720666F7220322E35207365636F85
S11323306E64732E2E2E0000646F6E650D0A00000D
S113234077616974696E6720322E35207365636F17
S11323506E647320666F7220525443206D617463FF
S1132360682E2E2E00000000666C617368696E672B
S1132370204C454420666F7220322E3520736563ED
S11323806F6E64732E2E2E0077616974696E6720F8
S1132390666F7220627574746F6E207072657373E9
S11323A0202873796E6368726F6E6F7573292E2E91
S11323B02E00000072656365697665642062757439
S11323C0746F6E2070726573732E0D0A0000000026
S11323D077616974696E6720666F722062757474C0
S11323E06F6E20707265737320286173796E6368F1
S11323F0726F6E6F7573292E2E2E000077616974CB
S1132400696E6720666F72206B6579626F617264B2
S113241020696E707574202873796E6368726F6EAC
S11324206F7573292E2E2E00726563656976656457
S113243020272563270D0A0077616974696E672078
S1132440666F72206B6579626F61726420696E7069
S1132450757420286173796E6368726F6E6F75731B
S1132460292E2E2E00000000736C656570696E675E
S113247020666F7220322E35207365636F6E64732D
S11324802E2E2E00646F6E652E0D0A00736C65652A
S113249070696E6720756E74696C20627574746FF0
S11324A06E2070726573732E2E2E0000656E64208C
S11324B06F66206D755F706F72745F746573740DF1
S11324C00A3D3D3D3D3D3D3D3D3D3D3D3D3D3D3D6B
S11324D03D0D0A00000000000000000000000000A4
S11324E000000000000000000000000000000000E8
S11324F000000000000000000000000000000000D8
S113250000000000000000000000000000000000C7
S113251000000000000000000000000000000000B7
S113252000000000000000000000000000000000A7
S113253000000000232D302B2000686C4C006566E1
S11325406745464700303132333435363738394100
S11325504243444546003031323334353637383916
S11325606162636465660000F8B5C046F8BC08BCE7
S11325709E467047DD000000F8B5C046F8BC08BCB4
S10B25809E467047B5000000FF
S11325880400002000000000F424000014250000CA
S1132598D424000000000000000000000000000037
S11325A8000000000000000000000000000000001F
S11325B8000000000000000000000000000000000F
S11325C800000000000000000000000000000000FF
S11325D800000000000000000000000000000000EF
S10725E800000000EB
S9030000FC
